{
  "address": "0x1cc19eC5cffCA5bc4353869cF0a3583FCF1a2C74",
  "abi": [
    {
      "inputs": [
        {
          "internalType": "address",
          "name": "_mproTokenAddress",
          "type": "address"
        },
        {
          "internalType": "uint256",
          "name": "_stakeStartTimestamp",
          "type": "uint256"
        },
        {
          "internalType": "uint256",
          "name": "_stakeEndTimestamp",
          "type": "uint256"
        },
        {
          "internalType": "uint256",
          "name": "_declarationEndTimestamp",
          "type": "uint256"
        },
        {
          "internalType": "address",
          "name": "_newOwner",
          "type": "address"
        }
      ],
      "stateMutability": "nonpayable",
      "type": "constructor"
    },
    {
      "anonymous": false,
      "inputs": [
        {
          "indexed": true,
          "internalType": "address",
          "name": "previousOwner",
          "type": "address"
        },
        {
          "indexed": true,
          "internalType": "address",
          "name": "newOwner",
          "type": "address"
        }
      ],
      "name": "OwnershipTransferred",
      "type": "event"
    },
    {
      "inputs": [],
      "name": "claim",
      "outputs": [],
      "stateMutability": "nonpayable",
      "type": "function"
    },
    {
      "inputs": [],
      "name": "claimPeriodDuration",
      "outputs": [
        {
          "internalType": "uint256",
          "name": "",
          "type": "uint256"
        }
      ],
      "stateMutability": "view",
      "type": "function"
    },
    {
      "inputs": [],
      "name": "claimRewardStartTimestamp",
      "outputs": [
        {
          "internalType": "uint256",
          "name": "",
          "type": "uint256"
        }
      ],
      "stateMutability": "view",
      "type": "function"
    },
    {
      "inputs": [],
      "name": "declarationEndTimestamp",
      "outputs": [
        {
          "internalType": "uint256",
          "name": "",
          "type": "uint256"
        }
      ],
      "stateMutability": "view",
      "type": "function"
    },
    {
      "inputs": [],
      "name": "declarationStartTimestamp",
      "outputs": [
        {
          "internalType": "uint256",
          "name": "",
          "type": "uint256"
        }
      ],
      "stateMutability": "view",
      "type": "function"
    },
    {
      "inputs": [],
      "name": "enableForRelease",
      "outputs": [
        {
          "internalType": "uint256",
          "name": "",
          "type": "uint256"
        }
      ],
      "stateMutability": "view",
      "type": "function"
    },
    {
      "inputs": [
        {
          "internalType": "address",
          "name": "_account",
          "type": "address"
        }
      ],
      "name": "getEarnedAmount",
      "outputs": [
        {
          "internalType": "uint256",
          "name": "",
          "type": "uint256"
        }
      ],
      "stateMutability": "view",
      "type": "function"
    },
    {
      "inputs": [
        {
          "internalType": "uint256",
          "name": "_from",
          "type": "uint256"
        },
        {
          "internalType": "uint256",
          "name": "_to",
          "type": "uint256"
        }
      ],
      "name": "getMultiplierForTimestamp",
      "outputs": [
        {
          "internalType": "uint256",
          "name": "",
          "type": "uint256"
        }
      ],
      "stateMutability": "view",
      "type": "function"
    },
    {
      "inputs": [
        {
          "internalType": "address",
          "name": "_account",
          "type": "address"
        }
      ],
      "name": "getStakedAmount",
      "outputs": [
        {
          "internalType": "uint256",
          "name": "",
          "type": "uint256"
        }
      ],
      "stateMutability": "view",
      "type": "function"
    },
    {
      "inputs": [],
      "name": "lastTimeRewardApplicable",
      "outputs": [
        {
          "internalType": "uint256",
          "name": "",
          "type": "uint256"
        }
      ],
      "stateMutability": "view",
      "type": "function"
    },
    {
      "inputs": [
        {
          "internalType": "address",
          "name": "_stakeAddress",
          "type": "address"
        }
      ],
      "name": "moveToStake",
      "outputs": [],
      "stateMutability": "nonpayable",
      "type": "function"
    },
    {
      "inputs": [],
      "name": "mproToken",
      "outputs": [
        {
          "internalType": "contract IERC20",
          "name": "",
          "type": "address"
        }
      ],
      "stateMutability": "view",
      "type": "function"
    },
    {
      "inputs": [],
      "name": "owner",
      "outputs": [
        {
          "internalType": "address",
          "name": "",
          "type": "address"
        }
      ],
      "stateMutability": "view",
      "type": "function"
    },
    {
      "inputs": [
        {
          "internalType": "address",
          "name": "_account",
          "type": "address"
        }
      ],
      "name": "pendingReward",
      "outputs": [
        {
          "internalType": "uint256",
          "name": "",
          "type": "uint256"
        }
      ],
      "stateMutability": "view",
      "type": "function"
    },
    {
      "inputs": [],
      "name": "renounceOwnership",
      "outputs": [],
      "stateMutability": "nonpayable",
      "type": "function"
    },
    {
      "inputs": [
        {
          "internalType": "uint256",
          "name": "_updatedTimestamp",
          "type": "uint256"
        }
      ],
      "name": "rewardPerTokenFromTimestamp",
      "outputs": [
        {
          "internalType": "uint256",
          "name": "",
          "type": "uint256"
        }
      ],
      "stateMutability": "view",
      "type": "function"
    },
    {
      "inputs": [],
      "name": "rewardRate",
      "outputs": [
        {
          "internalType": "uint256",
          "name": "",
          "type": "uint256"
        }
      ],
      "stateMutability": "view",
      "type": "function"
    },
    {
      "inputs": [],
      "name": "rewardTokenQuantity",
      "outputs": [
        {
          "internalType": "uint256",
          "name": "",
          "type": "uint256"
        }
      ],
      "stateMutability": "view",
      "type": "function"
    },
    {
      "inputs": [],
      "name": "rewardUnlockPercentPerPeriod",
      "outputs": [
        {
          "internalType": "uint256",
          "name": "",
          "type": "uint256"
        }
      ],
      "stateMutability": "view",
      "type": "function"
    },
    {
      "inputs": [],
      "name": "stakeDuration",
      "outputs": [
        {
          "internalType": "uint256",
          "name": "",
          "type": "uint256"
        }
      ],
      "stateMutability": "view",
      "type": "function"
    },
    {
      "inputs": [],
      "name": "stakeEndTimestamp",
      "outputs": [
        {
          "internalType": "uint256",
          "name": "",
          "type": "uint256"
        }
      ],
      "stateMutability": "view",
      "type": "function"
    },
    {
      "inputs": [],
      "name": "stakeStartTimestamp",
      "outputs": [
        {
          "internalType": "uint256",
          "name": "",
          "type": "uint256"
        }
      ],
      "stateMutability": "view",
      "type": "function"
    },
    {
      "inputs": [
        {
          "internalType": "address",
          "name": "",
          "type": "address"
        }
      ],
      "name": "staker",
      "outputs": [
        {
          "internalType": "uint256",
          "name": "staked",
          "type": "uint256"
        },
        {
          "internalType": "uint256",
          "name": "lastUpdated",
          "type": "uint256"
        },
        {
          "internalType": "uint256",
          "name": "balanceToClaim",
          "type": "uint256"
        },
        {
          "internalType": "uint256",
          "name": "claimedBalance",
          "type": "uint256"
        },
        {
          "internalType": "uint256",
          "name": "reward",
          "type": "uint256"
        }
      ],
      "stateMutability": "view",
      "type": "function"
    },
    {
      "inputs": [],
      "name": "stakersLength",
      "outputs": [
        {
          "internalType": "uint256",
          "name": "",
          "type": "uint256"
        }
      ],
      "stateMutability": "view",
      "type": "function"
    },
    {
      "inputs": [],
      "name": "totalStakedSupply",
      "outputs": [
        {
          "internalType": "uint256",
          "name": "",
          "type": "uint256"
        }
      ],
      "stateMutability": "view",
      "type": "function"
    },
    {
      "inputs": [
        {
          "internalType": "address",
          "name": "newOwner",
          "type": "address"
        }
      ],
      "name": "transferOwnership",
      "outputs": [],
      "stateMutability": "nonpayable",
      "type": "function"
    },
    {
      "inputs": [
        {
          "internalType": "uint256",
          "name": "_amount",
          "type": "uint256"
        }
      ],
      "name": "updateReward",
      "outputs": [],
      "stateMutability": "nonpayable",
      "type": "function"
    },
    {
      "inputs": [
        {
          "internalType": "address[]",
          "name": "_stakers",
          "type": "address[]"
        },
        {
          "internalType": "uint256[]",
          "name": "_amounts",
          "type": "uint256[]"
        }
      ],
      "name": "updateStakers",
      "outputs": [],
      "stateMutability": "nonpayable",
      "type": "function"
    },
    {
      "inputs": [
        {
          "internalType": "address",
          "name": "_account",
          "type": "address"
        }
      ],
      "name": "updateWalletReward",
      "outputs": [
        {
          "internalType": "uint256",
          "name": "",
          "type": "uint256"
        }
      ],
      "stateMutability": "nonpayable",
      "type": "function"
    }
  ],
  "transactionHash": "0xfb9c4ab0fb43b127b1eccb5a7522cdf722c0eca1290b7b795c3f4b4b89ed28fd",
  "args": [
    "0xbf31DE649bA7AC79e92FEe4171B16c84B7c352A0",
    1715592976,
    1715932800,
    1715760000,
    "0xC856f7BcB20eE58F5788620b1261082829163dc4"
  ],
  "numDeployments": 1,
  "solcInputHash": "3cddcca6cfd8018738607b2c70e3ac7a",
  "bytecode": "0x60a0604052612710600b553480156200001757600080fd5b50604051620013a8380380620013a88339810160408190526200003a91620000e4565b620000453362000077565b6001600160a01b0385166080526001849055600283905560058290556200006c8162000077565b505050505062000139565b600080546001600160a01b038381166001600160a01b0319831681178455604051919092169283917f8be0079c531659141344cd1fd0a4f28419497f9722a3daafe3b4186f6b6457e09190a35050565b80516001600160a01b0381168114620000df57600080fd5b919050565b600080600080600060a08688031215620000fd57600080fd5b6200010886620000c7565b94506020860151935060408601519250606086015191506200012d60808701620000c7565b90509295509295909350565b60805161123e6200016a600039600081816102b80152818161051c015281816107170152610a5d015261123e6000f3fe608060405234801561001057600080fd5b50600436106101cf5760003560e01c80637124c8f111610104578063acfbac02116100a2578063d1c515ea11610071578063d1c515ea146103de578063d6e7d02f146103e7578063f2fde38b146103f0578063f40f0f521461040357600080fd5b8063acfbac02146103b0578063bcdc3cfc146103b9578063bd93ee54146103c2578063cf8087a8146103d557600080fd5b806380faa57d116100de57806380faa57d1461031f57806382e4eda4146103275780638da5cb5b1461038c57806394281e761461039d57600080fd5b80637124c8f1146102fb578063715018a61461030e5780637b0a47ee1461031657600080fd5b8063497b46a2116101715780634e71d92d1161014b5780634e71d92d146102a2578063503d42f0146102aa5780635115efae146102b35780636c2e3c15146102f257600080fd5b8063497b46a2146102685780634b841d24146102705780634da6a5561461027957600080fd5b80633e5de79f116101ad5780633e5de79f1461022f57806340f02ab61461024257806340f9427d1461024a578063425c8abd1461025357600080fd5b80631a853e9d146101d4578063240eaede146102135780633d4358b114610226575b600080fd5b6102006101e2366004610e41565b6001600160a01b031660009081526008602052604090206004015490565b6040519081526020015b60405180910390f35b610200610221366004610e5c565b610416565b61020060095481565b61020061023d366004610e7e565b610456565b6102006104db565b61020060065481565b610266610261366004610e7e565b6104f2565b005b6102006105c5565b61020060025481565b610200610287366004610e41565b6001600160a01b031660009081526008602052604090205490565b610266610695565b610200600b5481565b6102da7f000000000000000000000000000000000000000000000000000000000000000081565b6040516001600160a01b03909116815260200161020a565b610200600a5481565b610200610309366004610e41565b6107bb565b610266610855565b61020060035481565b610200610869565b610364610335366004610e41565b600860205260009081526040902080546001820154600283015460038401546004909401549293919290919085565b604080519586526020860194909452928401919091526060830152608082015260a00161020a565b6000546001600160a01b03166102da565b6102666103ab366004610f71565b610877565b61020060045481565b61020060075481565b6102666103d0366004610e41565b610af1565b610200600c5481565b61020060015481565b61020060055481565b6102666103fe366004610e41565b610bc7565b610200610411366004610e41565b610c40565b600060025482116104325761042b8284610cd6565b9050610450565b600254831061044357506000610450565b60025461042b9084610cd6565b92915050565b600060075460000361046a57505060065490565b60008261047942600254610ce2565b6104839190611047565b90506104a7816040518060600160405280603481526020016111d560349139610cf9565b600754816003546104b8919061105a565b6104ca90670de0b6b3a764000061105a565b6104d49190611071565b9392505050565b60006001546002546104ed9190611047565b905090565b6104fa610d3e565b6040516323b872dd60e01b8152336004820152306024820152604481018290527f00000000000000000000000000000000000000000000000000000000000000006001600160a01b0316906323b872dd906064016020604051808303816000875af115801561056d573d6000803e3d6000fd5b505050506040513d601f19601f820116820180604052508101906105919190611093565b5080600660008282546105a491906110b5565b909155506105b290506104db565b6006546105bf9190611071565b60035550565b33600090815260086020526040812060020154600a548190421061068c576000600c541180156105f85750612710600b54105b1561066a576000610620600c5461061a600a5442610cd690919063ffffffff16565b90610d98565b9050600061063982600b54610da490919063ffffffff16565b9050600061064d61271061061a8685610da4565b905084811115610661575092949350505050565b95945050505050565b61068561271061061a600b5484610da490919063ffffffff16565b9250505090565b60009250505090565b600a544210156106c05760405162461bcd60e51b81526004016106b7906110c8565b60405180910390fd5b60006106ca6105c5565b9050600081116106ec5760405162461bcd60e51b81526004016106b790611109565b336000908152600860205260408120600381018054919284926107109084906110b5565b90915550507f00000000000000000000000000000000000000000000000000000000000000006001600160a01b031663a9059cbb336040516001600160e01b031960e084901b1681526001600160a01b039091166004820152602481018590526044016020604051808303816000875af1158015610792573d6000803e3d6000fd5b505050506040513d601f19601f820116820180604052508101906107b69190611093565b505050565b6001600160a01b03811660009081526008602052604081206107dc83610c40565b8160040160008282546107ef91906110b5565b909155505060048101546006805482919060009061080e908490611047565b9091555050600482015460028301805460009061082c9084906110b5565b9250508190555061083f42600254610ce2565b6001830155600060049092019190915592915050565b61085d610d3e565b6108676000610db0565b565b60006104ed60025442610ce2565b61087f610d3e565b80518251146108c05760405162461bcd60e51b815260206004820152600d60248201526c125b9d985b1a59081a5b9c1d5d609a1b60448201526064016106b7565b60008060005b8451811015610a3a576000600860008784815181106108e7576108e761114e565b60200260200101516001600160a01b03166001600160a01b03168152602001908152602001600020905080600001546000148015610926575060055442105b8015610933575060055442115b1561094057505050505050565b805460000361095f576009805490600061095983611164565b91905055505b60006109838784815181106109765761097661114e565b60200260200101516107bb565b90508583815181106109975761099761114e565b60200260200101518260000160008282546109b291906110b5565b925050819055508583815181106109cb576109cb61114e565b6020026020010151846109de91906110b5565b93506000818785815181106109f5576109f561114e565b6020026020010151610a0791906110b5565b905080836002016000828254610a1d91906110b5565b90915550610a2d905081876110b5565b95505050506001016108c6565b506040516323b872dd60e01b8152336004820152306024820152604481018290527f00000000000000000000000000000000000000000000000000000000000000006001600160a01b0316906323b872dd906064016020604051808303816000875af1158015610aae573d6000803e3d6000fd5b505050506040513d601f19601f82011682018060405250810190610ad29190611093565b508160076000828254610ae591906110b5565b909155505050505b5050565b600a54421015610b135760405162461bcd60e51b81526004016106b7906110c8565b6000610b1d6105c5565b905060008111610b3f5760405162461bcd60e51b81526004016106b790611109565b33600090815260086020526040812060038101805491928492610b639084906110b5565b9091555050604051637a99712760e01b8152600481018390526001600160a01b03841690637a99712790602401600060405180830381600087803b158015610baa57600080fd5b505af1158015610bbe573d6000803e3d6000fd5b50505050505050565b610bcf610d3e565b6001600160a01b038116610c345760405162461bcd60e51b815260206004820152602660248201527f4f776e61626c653a206e6577206f776e657220697320746865207a65726f206160448201526564647265737360d01b60648201526084016106b7565b610c3d81610db0565b50565b6001600160a01b0381166000908152600860209081526040808320815160a08101835281548152600182015493810184905260028201549281019290925260038101546060830152600401546080820152908203610ca15750600092915050565b60408101516020820151600090610cb790610456565b9050670de0b6b3a7640000610ccc828461105a565b6106619190611071565b60006104d48284611047565b600081831115610cf257816104d4565b5090919050565b610aed8282604051602401610d0f92919061117d565b60408051601f198184030181529190526020810180516001600160e01b031663643fd0df60e01b179052610e00565b6000546001600160a01b031633146108675760405162461bcd60e51b815260206004820181905260248201527f4f776e61626c653a2063616c6c6572206973206e6f7420746865206f776e657260448201526064016106b7565b60006104d48284611071565b60006104d4828461105a565b600080546001600160a01b038381166001600160a01b0319831681178455604051919092169283917f8be0079c531659141344cd1fd0a4f28419497f9722a3daafe3b4186f6b6457e09190a35050565b610c3d8160006a636f6e736f6c652e6c6f679050600080835160208501845afa505050565b80356001600160a01b0381168114610e3c57600080fd5b919050565b600060208284031215610e5357600080fd5b6104d482610e25565b60008060408385031215610e6f57600080fd5b50508035926020909101359150565b600060208284031215610e9057600080fd5b5035919050565b634e487b7160e01b600052604160045260246000fd5b604051601f8201601f1916810167ffffffffffffffff81118282101715610ed657610ed6610e97565b604052919050565b600067ffffffffffffffff821115610ef857610ef8610e97565b5060051b60200190565b600082601f830112610f1357600080fd5b81356020610f28610f2383610ede565b610ead565b8083825260208201915060208460051b870101935086841115610f4a57600080fd5b602086015b84811015610f665780358352918301918301610f4f565b509695505050505050565b60008060408385031215610f8457600080fd5b823567ffffffffffffffff80821115610f9c57600080fd5b818501915085601f830112610fb057600080fd5b81356020610fc0610f2383610ede565b82815260059290921b84018101918181019089841115610fdf57600080fd5b948201945b8386101561100457610ff586610e25565b82529482019490820190610fe4565b9650508601359250508082111561101a57600080fd5b5061102785828601610f02565b9150509250929050565b634e487b7160e01b600052601160045260246000fd5b8181038181111561045057610450611031565b808202811582820484141761045057610450611031565b60008261108e57634e487b7160e01b600052601260045260246000fd5b500490565b6000602082840312156110a557600080fd5b815180151581146104d457600080fd5b8082018082111561045057610450611031565b60208082526021908201527f4d50524f5265776172645374616b653a204e6f742079657420756e6c6f636b656040820152601960fa1b606082015260800190565b60208082526025908201527f4d50524f5265776172645374616b653a204e6f20746f6b656e7320746f2072656040820152646c6561736560d81b606082015260800190565b634e487b7160e01b600052603260045260246000fd5b60006001820161117657611176611031565b5060010190565b8281526000602060406020840152835180604085015260005b818110156111b257858101830151858201606001528201611196565b506000606082860101526060601f19601f83011685010192505050939250505056fe7374616b696e67506572696f647374616b696e67506572696f647374616b696e67506572696f647374616b696e67506572696f64a2646970667358221220aef8873a026210f8cb0c38c2d62ddf2bbd5801d90087395ea78cad4c386865bc64736f6c63430008160033",
  "devdoc": {
    "kind": "dev",
    "methods": {
      "owner()": {
        "details": "Returns the address of the current owner."
      },
      "renounceOwnership()": {
        "details": "Leaves the contract without owner. It will not be possible to call `onlyOwner` functions. Can only be called by the current owner. NOTE: Renouncing ownership will leave the contract without an owner, thereby disabling any functionality that is only available to the owner."
      },
      "transferOwnership(address)": {
        "details": "Transfers ownership of the contract to a new account (`newOwner`). Can only be called by the current owner."
      }
    },
    "version": 1
  },
  "userdoc": {
    "kind": "user",
    "methods": {},
    "version": 1
  },
  "storageLayout": {
    "storage": [
      {
        "astId": 7,
        "contract": "contracts/MPRORewardStake.sol:MPRORewardStake",
        "label": "_owner",
        "offset": 0,
        "slot": "0",
        "type": "t_address"
      },
      {
        "astId": 483,
        "contract": "contracts/MPRORewardStake.sol:MPRORewardStake",
        "label": "stakeStartTimestamp",
        "offset": 0,
        "slot": "1",
        "type": "t_uint256"
      },
      {
        "astId": 485,
        "contract": "contracts/MPRORewardStake.sol:MPRORewardStake",
        "label": "stakeEndTimestamp",
        "offset": 0,
        "slot": "2",
        "type": "t_uint256"
      },
      {
        "astId": 487,
        "contract": "contracts/MPRORewardStake.sol:MPRORewardStake",
        "label": "rewardRate",
        "offset": 0,
        "slot": "3",
        "type": "t_uint256"
      },
      {
        "astId": 489,
        "contract": "contracts/MPRORewardStake.sol:MPRORewardStake",
        "label": "declarationStartTimestamp",
        "offset": 0,
        "slot": "4",
        "type": "t_uint256"
      },
      {
        "astId": 491,
        "contract": "contracts/MPRORewardStake.sol:MPRORewardStake",
        "label": "declarationEndTimestamp",
        "offset": 0,
        "slot": "5",
        "type": "t_uint256"
      },
      {
        "astId": 493,
        "contract": "contracts/MPRORewardStake.sol:MPRORewardStake",
        "label": "rewardTokenQuantity",
        "offset": 0,
        "slot": "6",
        "type": "t_uint256"
      },
      {
        "astId": 495,
        "contract": "contracts/MPRORewardStake.sol:MPRORewardStake",
        "label": "totalStakedSupply",
        "offset": 0,
        "slot": "7",
        "type": "t_uint256"
      },
      {
        "astId": 500,
        "contract": "contracts/MPRORewardStake.sol:MPRORewardStake",
        "label": "staker",
        "offset": 0,
        "slot": "8",
        "type": "t_mapping(t_address,t_struct(Staker)481_storage)"
      },
      {
        "astId": 502,
        "contract": "contracts/MPRORewardStake.sol:MPRORewardStake",
        "label": "stakersLength",
        "offset": 0,
        "slot": "9",
        "type": "t_uint256"
      },
      {
        "astId": 504,
        "contract": "contracts/MPRORewardStake.sol:MPRORewardStake",
        "label": "claimRewardStartTimestamp",
        "offset": 0,
        "slot": "10",
        "type": "t_uint256"
      },
      {
        "astId": 507,
        "contract": "contracts/MPRORewardStake.sol:MPRORewardStake",
        "label": "rewardUnlockPercentPerPeriod",
        "offset": 0,
        "slot": "11",
        "type": "t_uint256"
      },
      {
        "astId": 509,
        "contract": "contracts/MPRORewardStake.sol:MPRORewardStake",
        "label": "claimPeriodDuration",
        "offset": 0,
        "slot": "12",
        "type": "t_uint256"
      }
    ],
    "types": {
      "t_address": {
        "encoding": "inplace",
        "label": "address",
        "numberOfBytes": "20"
      },
      "t_mapping(t_address,t_struct(Staker)481_storage)": {
        "encoding": "mapping",
        "key": "t_address",
        "label": "mapping(address => struct MPRORewardStake.Staker)",
        "numberOfBytes": "32",
        "value": "t_struct(Staker)481_storage"
      },
      "t_struct(Staker)481_storage": {
        "encoding": "inplace",
        "label": "struct MPRORewardStake.Staker",
        "members": [
          {
            "astId": 472,
            "contract": "contracts/MPRORewardStake.sol:MPRORewardStake",
            "label": "staked",
            "offset": 0,
            "slot": "0",
            "type": "t_uint256"
          },
          {
            "astId": 474,
            "contract": "contracts/MPRORewardStake.sol:MPRORewardStake",
            "label": "lastUpdated",
            "offset": 0,
            "slot": "1",
            "type": "t_uint256"
          },
          {
            "astId": 476,
            "contract": "contracts/MPRORewardStake.sol:MPRORewardStake",
            "label": "balanceToClaim",
            "offset": 0,
            "slot": "2",
            "type": "t_uint256"
          },
          {
            "astId": 478,
            "contract": "contracts/MPRORewardStake.sol:MPRORewardStake",
            "label": "claimedBalance",
            "offset": 0,
            "slot": "3",
            "type": "t_uint256"
          },
          {
            "astId": 480,
            "contract": "contracts/MPRORewardStake.sol:MPRORewardStake",
            "label": "reward",
            "offset": 0,
            "slot": "4",
            "type": "t_uint256"
          }
        ],
        "numberOfBytes": "160"
      },
      "t_uint256": {
        "encoding": "inplace",
        "label": "uint256",
        "numberOfBytes": "32"
      }
    }
  }
}