{
  "address": "0xcC7476aCf6D4291c5f762Ba8Af5C3f339205a6a6",
  "abi": [
    {
      "inputs": [
        {
          "internalType": "address",
          "name": "_owner",
          "type": "address"
        }
      ],
      "stateMutability": "nonpayable",
      "type": "constructor"
    },
    {
      "anonymous": false,
      "inputs": [
        {
          "indexed": true,
          "internalType": "bytes32",
          "name": "role",
          "type": "bytes32"
        },
        {
          "indexed": true,
          "internalType": "bytes32",
          "name": "previousAdminRole",
          "type": "bytes32"
        },
        {
          "indexed": true,
          "internalType": "bytes32",
          "name": "newAdminRole",
          "type": "bytes32"
        }
      ],
      "name": "RoleAdminChanged",
      "type": "event"
    },
    {
      "anonymous": false,
      "inputs": [
        {
          "indexed": true,
          "internalType": "bytes32",
          "name": "role",
          "type": "bytes32"
        },
        {
          "indexed": true,
          "internalType": "address",
          "name": "account",
          "type": "address"
        },
        {
          "indexed": true,
          "internalType": "address",
          "name": "sender",
          "type": "address"
        }
      ],
      "name": "RoleGranted",
      "type": "event"
    },
    {
      "anonymous": false,
      "inputs": [
        {
          "indexed": true,
          "internalType": "bytes32",
          "name": "role",
          "type": "bytes32"
        },
        {
          "indexed": true,
          "internalType": "address",
          "name": "account",
          "type": "address"
        },
        {
          "indexed": true,
          "internalType": "address",
          "name": "sender",
          "type": "address"
        }
      ],
      "name": "RoleRevoked",
      "type": "event"
    },
    {
      "inputs": [],
      "name": "DEFAULT_ADMIN_ROLE",
      "outputs": [
        {
          "internalType": "bytes32",
          "name": "",
          "type": "bytes32"
        }
      ],
      "stateMutability": "view",
      "type": "function"
    },
    {
      "inputs": [],
      "name": "DISTRIBUTOR_ROLE",
      "outputs": [
        {
          "internalType": "bytes32",
          "name": "",
          "type": "bytes32"
        }
      ],
      "stateMutability": "view",
      "type": "function"
    },
    {
      "inputs": [],
      "name": "LISTER_ROLE",
      "outputs": [
        {
          "internalType": "bytes32",
          "name": "",
          "type": "bytes32"
        }
      ],
      "stateMutability": "view",
      "type": "function"
    },
    {
      "inputs": [],
      "name": "OWNER_ROLE",
      "outputs": [
        {
          "internalType": "bytes32",
          "name": "",
          "type": "bytes32"
        }
      ],
      "stateMutability": "view",
      "type": "function"
    },
    {
      "inputs": [],
      "name": "PAUSER_ROLE",
      "outputs": [
        {
          "internalType": "bytes32",
          "name": "",
          "type": "bytes32"
        }
      ],
      "stateMutability": "view",
      "type": "function"
    },
    {
      "inputs": [
        {
          "internalType": "address",
          "name": "_spender",
          "type": "address"
        },
        {
          "internalType": "address",
          "name": "_msgSender",
          "type": "address"
        }
      ],
      "name": "approveAllowed",
      "outputs": [
        {
          "internalType": "bool",
          "name": "",
          "type": "bool"
        }
      ],
      "stateMutability": "view",
      "type": "function"
    },
    {
      "inputs": [
        {
          "internalType": "address",
          "name": "_account",
          "type": "address"
        },
        {
          "internalType": "bool",
          "name": "_blocklist",
          "type": "bool"
        }
      ],
      "name": "blocklist",
      "outputs": [],
      "stateMutability": "nonpayable",
      "type": "function"
    },
    {
      "inputs": [
        {
          "internalType": "bytes32",
          "name": "role",
          "type": "bytes32"
        }
      ],
      "name": "getRoleAdmin",
      "outputs": [
        {
          "internalType": "bytes32",
          "name": "",
          "type": "bytes32"
        }
      ],
      "stateMutability": "view",
      "type": "function"
    },
    {
      "inputs": [
        {
          "internalType": "bytes32",
          "name": "role",
          "type": "bytes32"
        },
        {
          "internalType": "address",
          "name": "_account",
          "type": "address"
        }
      ],
      "name": "grantRole",
      "outputs": [],
      "stateMutability": "nonpayable",
      "type": "function"
    },
    {
      "inputs": [
        {
          "internalType": "bytes32",
          "name": "role",
          "type": "bytes32"
        },
        {
          "internalType": "address",
          "name": "account",
          "type": "address"
        }
      ],
      "name": "hasRole",
      "outputs": [
        {
          "internalType": "bool",
          "name": "",
          "type": "bool"
        }
      ],
      "stateMutability": "view",
      "type": "function"
    },
    {
      "inputs": [
        {
          "internalType": "address",
          "name": "_account",
          "type": "address"
        }
      ],
      "name": "isBlocklisted",
      "outputs": [
        {
          "internalType": "bool",
          "name": "",
          "type": "bool"
        }
      ],
      "stateMutability": "view",
      "type": "function"
    },
    {
      "inputs": [
        {
          "internalType": "address",
          "name": "_account",
          "type": "address"
        }
      ],
      "name": "isDistributor",
      "outputs": [
        {
          "internalType": "bool",
          "name": "",
          "type": "bool"
        }
      ],
      "stateMutability": "view",
      "type": "function"
    },
    {
      "inputs": [
        {
          "internalType": "address",
          "name": "_account",
          "type": "address"
        }
      ],
      "name": "isLister",
      "outputs": [
        {
          "internalType": "bool",
          "name": "",
          "type": "bool"
        }
      ],
      "stateMutability": "view",
      "type": "function"
    },
    {
      "inputs": [
        {
          "internalType": "address",
          "name": "_account",
          "type": "address"
        }
      ],
      "name": "isOwner",
      "outputs": [
        {
          "internalType": "bool",
          "name": "",
          "type": "bool"
        }
      ],
      "stateMutability": "view",
      "type": "function"
    },
    {
      "inputs": [
        {
          "internalType": "address",
          "name": "_account",
          "type": "address"
        }
      ],
      "name": "isPauser",
      "outputs": [
        {
          "internalType": "bool",
          "name": "",
          "type": "bool"
        }
      ],
      "stateMutability": "view",
      "type": "function"
    },
    {
      "inputs": [
        {
          "internalType": "address",
          "name": "_account",
          "type": "address"
        }
      ],
      "name": "isWhitelisted",
      "outputs": [
        {
          "internalType": "bool",
          "name": "",
          "type": "bool"
        }
      ],
      "stateMutability": "view",
      "type": "function"
    },
    {
      "inputs": [
        {
          "internalType": "bytes32",
          "name": "role",
          "type": "bytes32"
        },
        {
          "internalType": "address",
          "name": "account",
          "type": "address"
        }
      ],
      "name": "renounceRole",
      "outputs": [],
      "stateMutability": "nonpayable",
      "type": "function"
    },
    {
      "inputs": [
        {
          "internalType": "bytes32",
          "name": "role",
          "type": "bytes32"
        },
        {
          "internalType": "address",
          "name": "_account",
          "type": "address"
        }
      ],
      "name": "revokeRole",
      "outputs": [],
      "stateMutability": "nonpayable",
      "type": "function"
    },
    {
      "inputs": [
        {
          "internalType": "bytes4",
          "name": "interfaceId",
          "type": "bytes4"
        }
      ],
      "name": "supportsInterface",
      "outputs": [
        {
          "internalType": "bool",
          "name": "",
          "type": "bool"
        }
      ],
      "stateMutability": "view",
      "type": "function"
    },
    {
      "inputs": [
        {
          "internalType": "address",
          "name": "_from",
          "type": "address"
        },
        {
          "internalType": "address",
          "name": "_to",
          "type": "address"
        },
        {
          "internalType": "address",
          "name": "_msgSender",
          "type": "address"
        }
      ],
      "name": "transferAllowed",
      "outputs": [
        {
          "internalType": "bool",
          "name": "",
          "type": "bool"
        }
      ],
      "stateMutability": "view",
      "type": "function"
    },
    {
      "inputs": [
        {
          "internalType": "address",
          "name": "_account",
          "type": "address"
        },
        {
          "internalType": "bool",
          "name": "_whitelist",
          "type": "bool"
        }
      ],
      "name": "whitelist",
      "outputs": [],
      "stateMutability": "nonpayable",
      "type": "function"
    }
  ],
  "transactionHash": "0x919e8301b48bf1070aaaa6ba2c2a66a48267bcc5886ad71810eac368d3688032",
  "args": [
    "0x8B7C5D0F05Dc6A5Af60292A6061aE960b8a47274"
  ],
  "numDeployments": 1,
  "solcInputHash": "52f2b4d32ccda57d433fdfa66dcf3c34",
  "bytecode": "0x608060405234801561001057600080fd5b50604051610fcc380380610fcc83398101604081905261002f9161010b565b6100597fb19546dff01e856fb3f010c267a7b1c60363cf8a4664e21cc89c26224620214e8261005f565b5061013b565b610069828261006d565b5050565b6000828152602081815260408083206001600160a01b038516845290915290205460ff16610069576000828152602081815260408083206001600160a01b03851684529091529020805460ff191660011790556100c73390565b6001600160a01b0316816001600160a01b0316837f2f8788117e7eff1d82e926ec794901d17c78024a50270940304540a733656f0d60405160405180910390a45050565b60006020828403121561011d57600080fd5b81516001600160a01b038116811461013457600080fd5b9392505050565b610e828061014a6000396000f3fe608060405234801561001057600080fd5b50600436106101375760003560e01c806393fc9e5f116100b8578063e58378bb1161007c578063e58378bb14610285578063e63ab1e91461029a578063eba1c66b146102c1578063f0bd87cc146102d4578063f59c3708146102fb578063fc0e8c1b1461030e57600080fd5b806393fc9e5f1461022f578063a217fddf14610242578063d2b707791461024a578063d547741f1461025d578063deb26b941461027057600080fd5b80633af32abf116100ff5780633af32abf146101d057806346fbf68e146101e35780638e204c43146101f65780638f0c86fa1461020957806391d148541461021c57600080fd5b806301ffc9a71461013c578063248a9ca3146101645780632f2ff15d146101955780632f54bf6e146101aa57806336568abe146101bd575b600080fd5b61014f61014a366004610b51565b610321565b60405190151581526020015b60405180910390f35b610187610172366004610b7b565b60009081526020819052604090206001015490565b60405190815260200161015b565b6101a86101a3366004610bb0565b610358565b005b61014f6101b8366004610bdc565b610411565b6101a86101cb366004610bb0565b61042b565b61014f6101de366004610bdc565b6104a9565b61014f6101f1366004610bdc565b6104e0565b61014f610204366004610bdc565b61050c565b61014f610217366004610bdc565b61052a565b61014f61022a366004610bb0565b610552565b61014f61023d366004610bf7565b61057b565b610187600081565b61014f610258366004610c3a565b610601565b6101a861026b366004610bb0565b610674565b610187600080516020610e2d83398151915281565b610187600080516020610e0d83398151915281565b6101877f65d7a28e3265b37a6474929f336521b332c1681b933f6cb9f3376673440d862a81565b6101a86102cf366004610c64565b6106c3565b6101877ffbd454f36a7e1a388bd6fc3ab10d434aa4578f811acbbcf33afb1c697486313c81565b6101a8610309366004610c64565b6107c7565b61014f61031c366004610bdc565b610833565b60006001600160e01b03198216637965db0b60e01b148061035257506301ffc9a760e01b6001600160e01b03198316145b92915050565b600080516020610e0d8339815191526103708161084d565b6001600160a01b038216600090815260016020526040902054829060ff16156103d95760405162461bcd60e51b81526020600482015260166024820152751058d8dbdd5b9d081a5cc8189b1bd8dadb1a5cdd195960521b60448201526064015b60405180910390fd5b826001600160a01b0381166104005760405162461bcd60e51b81526004016103d090610ca0565b61040a858561085a565b5050505050565b6000610352600080516020610e0d83398151915283610552565b6001600160a01b038116331461049b5760405162461bcd60e51b815260206004820152602f60248201527f416363657373436f6e74726f6c3a2063616e206f6e6c792072656e6f756e636560448201526e103937b632b9903337b91039b2b63360891b60648201526084016103d0565b6104a582826108de565b5050565b60006001600160a01b0382166104c157506001919050565b506001600160a01b031660009081526002602052604090205460ff1690565b60006103527f65d7a28e3265b37a6474929f336521b332c1681b933f6cb9f3376673440d862a83610552565b6001600160a01b031660009081526001602052604090205460ff1690565b60006103527ffbd454f36a7e1a388bd6fc3ab10d434aa4578f811acbbcf33afb1c697486313c835b6000918252602082815260408084206001600160a01b0393909316845291905290205460ff1690565b60006105868461050c565b15801561059957506105978361050c565b155b80156105ab57506105a98261050c565b155b6105f75760405162461bcd60e51b815260206004820152601d60248201527f416374696f6e206f6e20626c6f636b6c6973746564206163636f756e7400000060448201526064016103d0565b5060019392505050565b600061060c8361050c565b15801561061f575061061d8261050c565b155b61066b5760405162461bcd60e51b815260206004820152601d60248201527f416374696f6e206f6e20626c6f636b6c6973746564206163636f756e7400000060448201526064016103d0565b50600192915050565b600080516020610e0d83398151915261068c8161084d565b816001600160a01b0381166106b35760405162461bcd60e51b81526004016103d090610ca0565b6106bd84846108de565b50505050565b600080516020610e2d8339815191526106db8161084d565b826001600160a01b0381166107025760405162461bcd60e51b81526004016103d090610ca0565b61070b84610411565b8061071a575061071a84610833565b806107295750610729846104e0565b8061073857506107388461052a565b1561079a5760405162461bcd60e51b815260206004820152602c60248201527f6163636f756e7420686173206120726f6c6520616e642063616e6e6f7420626560448201526b08189b1bd8dadb1a5cdd195960a21b60648201526084016103d0565b50506001600160a01b03919091166000908152600160205260409020805460ff1916911515919091179055565b600080516020610e2d8339815191526107df8161084d565b826001600160a01b0381166108065760405162461bcd60e51b81526004016103d090610ca0565b50506001600160a01b03919091166000908152600260205260409020805460ff1916911515919091179055565b6000610352600080516020610e2d83398151915283610552565b6108578133610943565b50565b6108648282610552565b6104a5576000828152602081815260408083206001600160a01b03851684529091529020805460ff1916600117905561089a3390565b6001600160a01b0316816001600160a01b0316837f2f8788117e7eff1d82e926ec794901d17c78024a50270940304540a733656f0d60405160405180910390a45050565b6108e88282610552565b156104a5576000828152602081815260408083206001600160a01b0385168085529252808320805460ff1916905551339285917ff6391f5c32d9c69d2a47ea670b442974b53935d1edc7fd64eb21e047a839171b9190a45050565b61094d8282610552565b6104a55761095a8161099c565b6109658360206109ae565b604051602001610976929190610ce1565b60408051601f198184030181529082905262461bcd60e51b82526103d091600401610d56565b60606103526001600160a01b03831660145b606060006109bd836002610d9f565b6109c8906002610db6565b67ffffffffffffffff8111156109e0576109e0610dc9565b6040519080825280601f01601f191660200182016040528015610a0a576020820181803683370190505b509050600360fc1b81600081518110610a2557610a25610ddf565b60200101906001600160f81b031916908160001a905350600f60fb1b81600181518110610a5457610a54610ddf565b60200101906001600160f81b031916908160001a9053506000610a78846002610d9f565b610a83906001610db6565b90505b6001811115610afb576f181899199a1a9b1b9c1cb0b131b232b360811b85600f1660108110610ab757610ab7610ddf565b1a60f81b828281518110610acd57610acd610ddf565b60200101906001600160f81b031916908160001a90535060049490941c93610af481610df5565b9050610a86565b508315610b4a5760405162461bcd60e51b815260206004820181905260248201527f537472696e67733a20686578206c656e67746820696e73756666696369656e7460448201526064016103d0565b9392505050565b600060208284031215610b6357600080fd5b81356001600160e01b031981168114610b4a57600080fd5b600060208284031215610b8d57600080fd5b5035919050565b80356001600160a01b0381168114610bab57600080fd5b919050565b60008060408385031215610bc357600080fd5b82359150610bd360208401610b94565b90509250929050565b600060208284031215610bee57600080fd5b610b4a82610b94565b600080600060608486031215610c0c57600080fd5b610c1584610b94565b9250610c2360208501610b94565b9150610c3160408501610b94565b90509250925092565b60008060408385031215610c4d57600080fd5b610c5683610b94565b9150610bd360208401610b94565b60008060408385031215610c7757600080fd5b610c8083610b94565b915060208301358015158114610c9557600080fd5b809150509250929050565b60208082526003908201526204342360ec1b604082015260600190565b60005b83811015610cd8578181015183820152602001610cc0565b50506000910152565b7f416363657373436f6e74726f6c3a206163636f756e7420000000000000000000815260008351610d19816017850160208801610cbd565b7001034b99036b4b9b9b4b733903937b6329607d1b6017918401918201528351610d4a816028840160208801610cbd565b01602801949350505050565b6020815260008251806020840152610d75816040850160208701610cbd565b601f01601f19169190910160400192915050565b634e487b7160e01b600052601160045260246000fd5b808202811582820484141761035257610352610d89565b8082018082111561035257610352610d89565b634e487b7160e01b600052604160045260246000fd5b634e487b7160e01b600052603260045260246000fd5b600081610e0457610e04610d89565b50600019019056feb19546dff01e856fb3f010c267a7b1c60363cf8a4664e21cc89c26224620214ef94103142c1baabe9ac2b5d1487bf783de9e69cfeea9a72f5c9c94afd7877b8ca26469706673582212204fb487a72a78090cd02c656ec694914677bc0ab021c5a3c2fe04875bff95628e64736f6c63430008140033",
  "devdoc": {
    "events": {
      "RoleAdminChanged(bytes32,bytes32,bytes32)": {
        "details": "Emitted when `newAdminRole` is set as ``role``'s admin role, replacing `previousAdminRole` `DEFAULT_ADMIN_ROLE` is the starting admin for all roles, despite {RoleAdminChanged} not being emitted signaling this. _Available since v3.1._"
      },
      "RoleGranted(bytes32,address,address)": {
        "details": "Emitted when `account` is granted `role`. `sender` is the account that originated the contract call, an admin role bearer except when using {AccessControl-_setupRole}."
      },
      "RoleRevoked(bytes32,address,address)": {
        "details": "Emitted when `account` is revoked `role`. `sender` is the account that originated the contract call:   - if using `revokeRole`, it is the admin role bearer   - if using `renounceRole`, it is the role bearer (i.e. `account`)"
      }
    },
    "kind": "dev",
    "methods": {
      "approveAllowed(address,address)": {
        "details": "Public view function to check if token approval is allowed. This function is used to enforce restrictions on token approvals based on blocklist criteria. It checks whether the spender or the caller of the function (message sender) are on a blocklist. If either of these addresses are blocklisted, the function reverts the transaction, preventing the approval operation. This check is crucial in scenarios where blocklisted addresses should not be permitted to interact with the token, including being approved to spend tokens on behalf of others. By incorporating this function into the approval process, the contract adds an additional layer of security and regulatory compliance. Being a `view` function, `approveAllowed` does not alter the state of the blockchain but reads from it to ensure compliance with the blocklist rules before any approval is granted.",
        "params": {
          "_msgSender": "The address initiating the approval request. Requirements: - Neither the spender (_spender) nor the initiator of the approval (_msgSender) can be   on the blocklist. If any of them are blocklisted, the function reverts with an error message.",
          "_spender": "The address being granted permission to spend tokens."
        }
      },
      "blocklist(address,bool)": {
        "details": "External function to blocklist or unblocklist an account. This function allows an address with the `LISTER_ROLE` to either blocklist or remove an account from the contract's blocklist. Blocklisting an account may restrict it from performing certain operations or participating in specific aspects of the contract, as defined by the contract's logic. The function takes two parameters: - `_account`: The address to be either blocklisted or unblocklisted. - `_blocklist`: A boolean indicating whether to blocklist (`true`) or unblocklist (`false`)   the account. Before modifying the blocklist status, the function checks if the specified `_account` address holds any other roles within the contract (owner, lister, pauser, distributor). If the account has any of these roles, the function reverts to prevent the blocklisting of accounts with roles. Access to this function is restricted to addresses with the `LISTER_ROLE`, ensuring that only authorized entities can modify the blocklist.",
        "params": {
          "_account": "The address to be blocklisted or unblocklisted.",
          "_blocklist": "A boolean indicating whether to blocklist or unblocklist the account. Requirements: - The `_account` address must not be the zero address (`address(0)`).   This prevents accidentally modifying the zero address, which may have special significance. - The `_account` address must not have any other roles (owner, lister, pauser, distributor).   Accounts with these roles cannot be blocklisted."
        }
      },
      "constructor": {
        "details": "Constructor function to initialize the contract with an initial owner. This constructor is called when the contract is deployed and initializes the contract with an initial owner role. The owner role typically grants the highest level of control and authority within the contract. The constructor takes one parameter: - `_owner`: The address of the initial owner who will have the `OWNER_ROLE`. When the contract is deployed, this function sets up the `OWNER_ROLE` and assigns it to the specified `_owner` address, granting them full control over the contract's functions.",
        "params": {
          "_owner": "The address of the initial owner who will have the `OWNER_ROLE`."
        }
      },
      "getRoleAdmin(bytes32)": {
        "details": "Returns the admin role that controls `role`. See {grantRole} and {revokeRole}. To change a role's admin, use {_setRoleAdmin}."
      },
      "grantRole(bytes32,address)": {
        "details": "Public function to grant a specific role to an account. This function allows an address with the `OWNER_ROLE` to grant a specific role to the `_account` address. Roles define different sets of permissions or responsibilities within the contract, and granting a role to an account assigns those associated privileges. The function takes two parameters: - `role`: The bytes32 identifier of the role to be granted. - `_account`: The address to which the role is to be granted. Access to this function is restricted to addresses with the `OWNER_ROLE`, ensuring that only contract owners or administrators can grant roles. Before granting the role, the function performs the following checks: - Ensures that the `_account` address is not blocklisted, preventing blocklisted accounts   from receiving roles. - Verifies that the `_account` address is not the zero address (`address(0)`) to prevent   accidental modifications of the zero address, which may have special significance.",
        "params": {
          "_account": "The address to which the role is to be granted. Requirements: - The `_account` address must not be blocklisted, and it must not be the zero address (`address(0)`).   This ensures that roles are granted to valid, non-blocklisted addresses.",
          "role": "The bytes32 identifier of the role to be granted."
        }
      },
      "hasRole(bytes32,address)": {
        "details": "Returns `true` if `account` has been granted `role`."
      },
      "isBlocklisted(address)": {
        "details": "Public view function to check if an account is blocklisted. This function allows anyone to determine if a specific account is included in the contract's blocklist. An account that is blocklisted may be restricted from performing certain operations or participating in specific aspects of the contract, as defined by the contract's logic. The function checks the `blocklisted` mapping to see if the provided `_account` address is marked as blocklisted, returning a boolean value indicating the blocklist status. Being a `view` function, it only reads the blocklist status from the contract's state and does not modify the contract. This function is typically used in access control mechanisms where actions are conditional based on whether an account is blocklisted.",
        "params": {
          "_account": "The address to be checked for blocklist status."
        },
        "returns": {
          "_0": "`true` if the account is blocklisted, `false` otherwise."
        }
      },
      "isWhitelisted(address)": {
        "details": "External view function to check if an account is whitelisted. This function is accessible externally and is used to determine if a specific account is included in the whitelist of the contract. Whitelisted accounts often have certain privileges or are exempt from various restrictions that apply to other users. The function's logic is as follows: - If the provided `_account` address is the zero address (`address(0)`), the function   returns `true`. This implies a default allowance or special treatment for the zero address   in certain contexts. - For any other address, it checks the `whitelisted` mapping to see if the address is   marked as whitelisted, returning a boolean value that indicates the status. Being a `view` function, it does not modify the state of the contract but simply reads and returns the whitelisting status. It is typically used in access control checks, where different actions or permissions are granted based on the user's whitelist status.",
        "params": {
          "_account": "The address to be checked for its whitelisted status."
        },
        "returns": {
          "_0": "`true` if the account is whitelisted, `false` otherwise."
        }
      },
      "renounceRole(bytes32,address)": {
        "details": "Revokes `role` from the calling account. Roles are often managed via {grantRole} and {revokeRole}: this function's purpose is to provide a mechanism for accounts to lose their privileges if they are compromised (such as when a trusted device is misplaced). If the calling account had been revoked `role`, emits a {RoleRevoked} event. Requirements: - the caller must be `account`. May emit a {RoleRevoked} event."
      },
      "revokeRole(bytes32,address)": {
        "details": "Public function to revoke a specific role from an account. This function allows an address with the `OWNER_ROLE` to revoke a specific role from the `_account` address. Roles define different sets of permissions or responsibilities within the contract, and revoking a role from an account effectively removes those associated privileges. The function takes two parameters: - `role`: The bytes32 identifier of the role to be revoked. - `_account`: The address from which the role is to be revoked. Access to this function is restricted to addresses with the `OWNER_ROLE`, ensuring that only contract owners or administrators can revoke roles. Before revoking the role, the function checks that the `_account` address is not the zero address (`address(0)`) to prevent accidental modifications of the zero address, which may have special significance.",
        "params": {
          "_account": "The address from which the role is to be revoked. Requirements: - The `_account` address must not be the zero address (`address(0)`).   This prevents accidentally modifying the zero address, which may have special significance.",
          "role": "The bytes32 identifier of the role to be revoked."
        }
      },
      "supportsInterface(bytes4)": {
        "details": "See {IERC165-supportsInterface}."
      },
      "transferAllowed(address,address,address)": {
        "details": "Public view function to check if a token transfer is allowed. This function is used to enforce restrictions on token transfers based on blocklist criteria. It checks whether any of the involved parties in a token transfer (the sender, receiver, and the caller of the function) are on a blocklist. If any of these addresses are blocklisted, the function reverts the transaction, preventing the transfer. Being a `view` function, it does not modify the state of the blockchain but reads from it. This function can be integrated into the token transfer process to add an additional layer of security and compliance, ensuring that tokens cannot be transferred by or to blocklisted addresses.",
        "params": {
          "_from": "The address attempting to send tokens.",
          "_msgSender": "The address initiating the transfer request. Requirements: - None of the involved addresses (_from, _to, and _msgSender) can be on the blocklist.   If any are blocklisted, the function reverts with an error message.",
          "_to": "The address intended to receive the tokens."
        }
      },
      "whitelist(address,bool)": {
        "details": "External function to whitelist or unwhitelist an account. This function allows an address with the `LISTER_ROLE` to either whitelist or remove an account from the contract's whitelist. Whitelisting typically grants certain privileges or exemptions to the whitelisted account, while removing an account from the whitelist revokes these privileges. The function takes two parameters: - `_account`: The address to be either whitelisted or removed from the whitelist. - `_whitelist`: A boolean indicating whether to whitelist (`true`) or unwhitelist (`false`)   the account. The function sets the whitelisting status of the specified account by updating the `whitelisted` mapping accordingly. Access to this function is restricted to addresses with the `LISTER_ROLE`, ensuring that only authorized entities can modify the whitelist.",
        "params": {
          "_account": "The address to be whitelisted or unwhitelisted.",
          "_whitelist": "A boolean indicating whether to whitelist or unwhitelist the account. Requirements: - The `_account` address must not be the zero address (`address(0)`).   This prevents accidentally modifying the zero address, which may have special significance."
        }
      }
    },
    "stateVariables": {
      "blocklisted": {
        "details": "Internal mapping to manage blocklisted addresses. This mapping associates addresses (keys) with boolean values to maintain a list of addresses that are considered \"blocklisted\" within the contract's logic. If an address is included in this mapping with a `true` value, it indicates that the address is blocklisted and may be subject to certain restrictions or limitations imposed by the contract. The mapping is typically used in access control mechanisms and other parts of the contract's logic to determine the behavior or privileges associated with addresses based on their blocklist status."
      },
      "whitelisted": {
        "details": "Internal mapping to manage whitelisted addresses. This mapping associates addresses (keys) with boolean values to maintain a list of addresses that are considered \"whitelisted\" within the contract's logic. If an address is included in this mapping with a `true` value, it indicates that the address is whitelisted and may have special privileges or exemptions within the contract. The mapping is typically used in access control mechanisms and other parts of the contract's logic to determine the behavior or privileges associated with addresses based on their whitelist status."
      }
    },
    "version": 1
  },
  "userdoc": {
    "kind": "user",
    "methods": {},
    "version": 1
  },
  "storageLayout": {
    "storage": [
      {
        "astId": 2872,
        "contract": "contracts/MPRORoleManager.sol:MPRORoleManager",
        "label": "_roles",
        "offset": 0,
        "slot": "0",
        "type": "t_mapping(t_bytes32,t_struct(RoleData)2867_storage)"
      },
      {
        "astId": 10643,
        "contract": "contracts/MPRORoleManager.sol:MPRORoleManager",
        "label": "blocklisted",
        "offset": 0,
        "slot": "1",
        "type": "t_mapping(t_address,t_bool)"
      },
      {
        "astId": 10648,
        "contract": "contracts/MPRORoleManager.sol:MPRORoleManager",
        "label": "whitelisted",
        "offset": 0,
        "slot": "2",
        "type": "t_mapping(t_address,t_bool)"
      }
    ],
    "types": {
      "t_address": {
        "encoding": "inplace",
        "label": "address",
        "numberOfBytes": "20"
      },
      "t_bool": {
        "encoding": "inplace",
        "label": "bool",
        "numberOfBytes": "1"
      },
      "t_bytes32": {
        "encoding": "inplace",
        "label": "bytes32",
        "numberOfBytes": "32"
      },
      "t_mapping(t_address,t_bool)": {
        "encoding": "mapping",
        "key": "t_address",
        "label": "mapping(address => bool)",
        "numberOfBytes": "32",
        "value": "t_bool"
      },
      "t_mapping(t_bytes32,t_struct(RoleData)2867_storage)": {
        "encoding": "mapping",
        "key": "t_bytes32",
        "label": "mapping(bytes32 => struct AccessControl.RoleData)",
        "numberOfBytes": "32",
        "value": "t_struct(RoleData)2867_storage"
      },
      "t_struct(RoleData)2867_storage": {
        "encoding": "inplace",
        "label": "struct AccessControl.RoleData",
        "members": [
          {
            "astId": 2864,
            "contract": "contracts/MPRORoleManager.sol:MPRORoleManager",
            "label": "members",
            "offset": 0,
            "slot": "0",
            "type": "t_mapping(t_address,t_bool)"
          },
          {
            "astId": 2866,
            "contract": "contracts/MPRORoleManager.sol:MPRORoleManager",
            "label": "adminRole",
            "offset": 0,
            "slot": "1",
            "type": "t_bytes32"
          }
        ],
        "numberOfBytes": "64"
      }
    }
  }
}