{
  "address": "0x30E5DadA624a785805e13A5083155250197b1AcA",
  "abi": [
    {
      "inputs": [
        {
          "internalType": "string",
          "name": "_name",
          "type": "string"
        },
        {
          "internalType": "string",
          "name": "_symbol",
          "type": "string"
        },
        {
          "internalType": "address[]",
          "name": "premintAddresses",
          "type": "address[]"
        },
        {
          "internalType": "uint256[]",
          "name": "premintValues",
          "type": "uint256[]"
        },
        {
          "internalType": "address",
          "name": "_lzEndpoint",
          "type": "address"
        },
        {
          "internalType": "address",
          "name": "_mproMasterDistributor",
          "type": "address"
        },
        {
          "internalType": "address",
          "name": "_owner",
          "type": "address"
        }
      ],
      "stateMutability": "nonpayable",
      "type": "constructor"
    },
    {
      "inputs": [],
      "name": "InvalidShortString",
      "type": "error"
    },
    {
      "inputs": [
        {
          "internalType": "string",
          "name": "str",
          "type": "string"
        }
      ],
      "name": "StringTooLong",
      "type": "error"
    },
    {
      "anonymous": false,
      "inputs": [
        {
          "indexed": true,
          "internalType": "address",
          "name": "owner",
          "type": "address"
        },
        {
          "indexed": true,
          "internalType": "address",
          "name": "spender",
          "type": "address"
        },
        {
          "indexed": false,
          "internalType": "uint256",
          "name": "value",
          "type": "uint256"
        }
      ],
      "name": "Approval",
      "type": "event"
    },
    {
      "anonymous": false,
      "inputs": [
        {
          "indexed": true,
          "internalType": "uint16",
          "name": "_srcChainId",
          "type": "uint16"
        },
        {
          "indexed": false,
          "internalType": "bytes",
          "name": "_srcAddress",
          "type": "bytes"
        },
        {
          "indexed": false,
          "internalType": "uint64",
          "name": "_nonce",
          "type": "uint64"
        },
        {
          "indexed": false,
          "internalType": "bytes32",
          "name": "_hash",
          "type": "bytes32"
        }
      ],
      "name": "CallOFTReceivedSuccess",
      "type": "event"
    },
    {
      "anonymous": false,
      "inputs": [
        {
          "indexed": true,
          "internalType": "address",
          "name": "delegator",
          "type": "address"
        },
        {
          "indexed": true,
          "internalType": "address",
          "name": "fromDelegate",
          "type": "address"
        },
        {
          "indexed": true,
          "internalType": "address",
          "name": "toDelegate",
          "type": "address"
        }
      ],
      "name": "DelegateChanged",
      "type": "event"
    },
    {
      "anonymous": false,
      "inputs": [
        {
          "indexed": true,
          "internalType": "address",
          "name": "delegate",
          "type": "address"
        },
        {
          "indexed": false,
          "internalType": "uint256",
          "name": "previousBalance",
          "type": "uint256"
        },
        {
          "indexed": false,
          "internalType": "uint256",
          "name": "newBalance",
          "type": "uint256"
        }
      ],
      "name": "DelegateVotesChanged",
      "type": "event"
    },
    {
      "anonymous": false,
      "inputs": [],
      "name": "EIP712DomainChanged",
      "type": "event"
    },
    {
      "anonymous": false,
      "inputs": [
        {
          "indexed": false,
          "internalType": "uint16",
          "name": "_srcChainId",
          "type": "uint16"
        },
        {
          "indexed": false,
          "internalType": "bytes",
          "name": "_srcAddress",
          "type": "bytes"
        },
        {
          "indexed": false,
          "internalType": "uint64",
          "name": "_nonce",
          "type": "uint64"
        },
        {
          "indexed": false,
          "internalType": "bytes",
          "name": "_payload",
          "type": "bytes"
        },
        {
          "indexed": false,
          "internalType": "bytes",
          "name": "_reason",
          "type": "bytes"
        }
      ],
      "name": "MessageFailed",
      "type": "event"
    },
    {
      "anonymous": false,
      "inputs": [
        {
          "indexed": false,
          "internalType": "address",
          "name": "_address",
          "type": "address"
        }
      ],
      "name": "NonContractAddress",
      "type": "event"
    },
    {
      "anonymous": false,
      "inputs": [
        {
          "indexed": true,
          "internalType": "address",
          "name": "previousOwner",
          "type": "address"
        },
        {
          "indexed": true,
          "internalType": "address",
          "name": "newOwner",
          "type": "address"
        }
      ],
      "name": "OwnershipTransferred",
      "type": "event"
    },
    {
      "anonymous": false,
      "inputs": [
        {
          "indexed": true,
          "internalType": "uint16",
          "name": "_srcChainId",
          "type": "uint16"
        },
        {
          "indexed": true,
          "internalType": "address",
          "name": "_to",
          "type": "address"
        },
        {
          "indexed": false,
          "internalType": "uint256",
          "name": "_amount",
          "type": "uint256"
        }
      ],
      "name": "ReceiveFromChain",
      "type": "event"
    },
    {
      "anonymous": false,
      "inputs": [
        {
          "indexed": false,
          "internalType": "uint16",
          "name": "_srcChainId",
          "type": "uint16"
        },
        {
          "indexed": false,
          "internalType": "bytes",
          "name": "_srcAddress",
          "type": "bytes"
        },
        {
          "indexed": false,
          "internalType": "uint64",
          "name": "_nonce",
          "type": "uint64"
        },
        {
          "indexed": false,
          "internalType": "bytes32",
          "name": "_payloadHash",
          "type": "bytes32"
        }
      ],
      "name": "RetryMessageSuccess",
      "type": "event"
    },
    {
      "anonymous": false,
      "inputs": [
        {
          "indexed": true,
          "internalType": "uint16",
          "name": "_dstChainId",
          "type": "uint16"
        },
        {
          "indexed": true,
          "internalType": "address",
          "name": "_from",
          "type": "address"
        },
        {
          "indexed": true,
          "internalType": "bytes32",
          "name": "_toAddress",
          "type": "bytes32"
        },
        {
          "indexed": false,
          "internalType": "uint256",
          "name": "_amount",
          "type": "uint256"
        }
      ],
      "name": "SendToChain",
      "type": "event"
    },
    {
      "anonymous": false,
      "inputs": [
        {
          "indexed": false,
          "internalType": "uint16",
          "name": "_dstChainId",
          "type": "uint16"
        },
        {
          "indexed": false,
          "internalType": "uint16",
          "name": "_type",
          "type": "uint16"
        },
        {
          "indexed": false,
          "internalType": "uint256",
          "name": "_minDstGas",
          "type": "uint256"
        }
      ],
      "name": "SetMinDstGas",
      "type": "event"
    },
    {
      "anonymous": false,
      "inputs": [
        {
          "indexed": false,
          "internalType": "address",
          "name": "precrime",
          "type": "address"
        }
      ],
      "name": "SetPrecrime",
      "type": "event"
    },
    {
      "anonymous": false,
      "inputs": [
        {
          "indexed": false,
          "internalType": "uint16",
          "name": "_remoteChainId",
          "type": "uint16"
        },
        {
          "indexed": false,
          "internalType": "bytes",
          "name": "_path",
          "type": "bytes"
        }
      ],
      "name": "SetTrustedRemote",
      "type": "event"
    },
    {
      "anonymous": false,
      "inputs": [
        {
          "indexed": false,
          "internalType": "uint16",
          "name": "_remoteChainId",
          "type": "uint16"
        },
        {
          "indexed": false,
          "internalType": "bytes",
          "name": "_remoteAddress",
          "type": "bytes"
        }
      ],
      "name": "SetTrustedRemoteAddress",
      "type": "event"
    },
    {
      "anonymous": false,
      "inputs": [
        {
          "indexed": true,
          "internalType": "address",
          "name": "from",
          "type": "address"
        },
        {
          "indexed": true,
          "internalType": "address",
          "name": "to",
          "type": "address"
        },
        {
          "indexed": false,
          "internalType": "uint256",
          "name": "value",
          "type": "uint256"
        }
      ],
      "name": "Transfer",
      "type": "event"
    },
    {
      "inputs": [],
      "name": "CLOCK_MODE",
      "outputs": [
        {
          "internalType": "string",
          "name": "",
          "type": "string"
        }
      ],
      "stateMutability": "view",
      "type": "function"
    },
    {
      "inputs": [],
      "name": "DEFAULT_PAYLOAD_SIZE_LIMIT",
      "outputs": [
        {
          "internalType": "uint256",
          "name": "",
          "type": "uint256"
        }
      ],
      "stateMutability": "view",
      "type": "function"
    },
    {
      "inputs": [],
      "name": "DOMAIN_SEPARATOR",
      "outputs": [
        {
          "internalType": "bytes32",
          "name": "",
          "type": "bytes32"
        }
      ],
      "stateMutability": "view",
      "type": "function"
    },
    {
      "inputs": [],
      "name": "NO_EXTRA_GAS",
      "outputs": [
        {
          "internalType": "uint256",
          "name": "",
          "type": "uint256"
        }
      ],
      "stateMutability": "view",
      "type": "function"
    },
    {
      "inputs": [],
      "name": "PT_SEND",
      "outputs": [
        {
          "internalType": "uint8",
          "name": "",
          "type": "uint8"
        }
      ],
      "stateMutability": "view",
      "type": "function"
    },
    {
      "inputs": [],
      "name": "PT_SEND_AND_CALL",
      "outputs": [
        {
          "internalType": "uint8",
          "name": "",
          "type": "uint8"
        }
      ],
      "stateMutability": "view",
      "type": "function"
    },
    {
      "inputs": [
        {
          "internalType": "address",
          "name": "owner",
          "type": "address"
        },
        {
          "internalType": "address",
          "name": "spender",
          "type": "address"
        }
      ],
      "name": "allowance",
      "outputs": [
        {
          "internalType": "uint256",
          "name": "",
          "type": "uint256"
        }
      ],
      "stateMutability": "view",
      "type": "function"
    },
    {
      "inputs": [
        {
          "internalType": "address",
          "name": "_spender",
          "type": "address"
        },
        {
          "internalType": "uint256",
          "name": "_value",
          "type": "uint256"
        }
      ],
      "name": "approve",
      "outputs": [
        {
          "internalType": "bool",
          "name": "",
          "type": "bool"
        }
      ],
      "stateMutability": "nonpayable",
      "type": "function"
    },
    {
      "inputs": [
        {
          "internalType": "address",
          "name": "account",
          "type": "address"
        }
      ],
      "name": "balanceOf",
      "outputs": [
        {
          "internalType": "uint256",
          "name": "",
          "type": "uint256"
        }
      ],
      "stateMutability": "view",
      "type": "function"
    },
    {
      "inputs": [
        {
          "internalType": "address",
          "name": "account",
          "type": "address"
        },
        {
          "internalType": "uint256",
          "name": "amount",
          "type": "uint256"
        }
      ],
      "name": "burn",
      "outputs": [],
      "stateMutability": "nonpayable",
      "type": "function"
    },
    {
      "inputs": [
        {
          "internalType": "uint16",
          "name": "_srcChainId",
          "type": "uint16"
        },
        {
          "internalType": "bytes",
          "name": "_srcAddress",
          "type": "bytes"
        },
        {
          "internalType": "uint64",
          "name": "_nonce",
          "type": "uint64"
        },
        {
          "internalType": "bytes32",
          "name": "_from",
          "type": "bytes32"
        },
        {
          "internalType": "address",
          "name": "_to",
          "type": "address"
        },
        {
          "internalType": "uint256",
          "name": "_amount",
          "type": "uint256"
        },
        {
          "internalType": "bytes",
          "name": "_payload",
          "type": "bytes"
        },
        {
          "internalType": "uint256",
          "name": "_gasForCall",
          "type": "uint256"
        }
      ],
      "name": "callOnOFTReceived",
      "outputs": [],
      "stateMutability": "nonpayable",
      "type": "function"
    },
    {
      "inputs": [
        {
          "internalType": "address",
          "name": "account",
          "type": "address"
        },
        {
          "internalType": "uint32",
          "name": "pos",
          "type": "uint32"
        }
      ],
      "name": "checkpoints",
      "outputs": [
        {
          "components": [
            {
              "internalType": "uint32",
              "name": "fromBlock",
              "type": "uint32"
            },
            {
              "internalType": "uint224",
              "name": "votes",
              "type": "uint224"
            }
          ],
          "internalType": "struct ERC20Votes.Checkpoint",
          "name": "",
          "type": "tuple"
        }
      ],
      "stateMutability": "view",
      "type": "function"
    },
    {
      "inputs": [],
      "name": "circulatingSupply",
      "outputs": [
        {
          "internalType": "uint256",
          "name": "",
          "type": "uint256"
        }
      ],
      "stateMutability": "view",
      "type": "function"
    },
    {
      "inputs": [],
      "name": "clock",
      "outputs": [
        {
          "internalType": "uint48",
          "name": "",
          "type": "uint48"
        }
      ],
      "stateMutability": "view",
      "type": "function"
    },
    {
      "inputs": [
        {
          "internalType": "uint16",
          "name": "",
          "type": "uint16"
        },
        {
          "internalType": "bytes",
          "name": "",
          "type": "bytes"
        },
        {
          "internalType": "uint64",
          "name": "",
          "type": "uint64"
        }
      ],
      "name": "creditedPackets",
      "outputs": [
        {
          "internalType": "bool",
          "name": "",
          "type": "bool"
        }
      ],
      "stateMutability": "view",
      "type": "function"
    },
    {
      "inputs": [],
      "name": "decimals",
      "outputs": [
        {
          "internalType": "uint8",
          "name": "",
          "type": "uint8"
        }
      ],
      "stateMutability": "view",
      "type": "function"
    },
    {
      "inputs": [
        {
          "internalType": "address",
          "name": "spender",
          "type": "address"
        },
        {
          "internalType": "uint256",
          "name": "subtractedValue",
          "type": "uint256"
        }
      ],
      "name": "decreaseAllowance",
      "outputs": [
        {
          "internalType": "bool",
          "name": "",
          "type": "bool"
        }
      ],
      "stateMutability": "nonpayable",
      "type": "function"
    },
    {
      "inputs": [
        {
          "internalType": "address",
          "name": "delegatee",
          "type": "address"
        }
      ],
      "name": "delegate",
      "outputs": [],
      "stateMutability": "nonpayable",
      "type": "function"
    },
    {
      "inputs": [
        {
          "internalType": "address",
          "name": "delegatee",
          "type": "address"
        },
        {
          "internalType": "uint256",
          "name": "nonce",
          "type": "uint256"
        },
        {
          "internalType": "uint256",
          "name": "expiry",
          "type": "uint256"
        },
        {
          "internalType": "uint8",
          "name": "v",
          "type": "uint8"
        },
        {
          "internalType": "bytes32",
          "name": "r",
          "type": "bytes32"
        },
        {
          "internalType": "bytes32",
          "name": "s",
          "type": "bytes32"
        }
      ],
      "name": "delegateBySig",
      "outputs": [],
      "stateMutability": "nonpayable",
      "type": "function"
    },
    {
      "inputs": [
        {
          "internalType": "address",
          "name": "account",
          "type": "address"
        }
      ],
      "name": "delegates",
      "outputs": [
        {
          "internalType": "address",
          "name": "",
          "type": "address"
        }
      ],
      "stateMutability": "view",
      "type": "function"
    },
    {
      "inputs": [],
      "name": "eip712Domain",
      "outputs": [
        {
          "internalType": "bytes1",
          "name": "fields",
          "type": "bytes1"
        },
        {
          "internalType": "string",
          "name": "name",
          "type": "string"
        },
        {
          "internalType": "string",
          "name": "version",
          "type": "string"
        },
        {
          "internalType": "uint256",
          "name": "chainId",
          "type": "uint256"
        },
        {
          "internalType": "address",
          "name": "verifyingContract",
          "type": "address"
        },
        {
          "internalType": "bytes32",
          "name": "salt",
          "type": "bytes32"
        },
        {
          "internalType": "uint256[]",
          "name": "extensions",
          "type": "uint256[]"
        }
      ],
      "stateMutability": "view",
      "type": "function"
    },
    {
      "inputs": [
        {
          "internalType": "uint16",
          "name": "_dstChainId",
          "type": "uint16"
        },
        {
          "internalType": "bytes32",
          "name": "_toAddress",
          "type": "bytes32"
        },
        {
          "internalType": "uint256",
          "name": "_amount",
          "type": "uint256"
        },
        {
          "internalType": "bytes",
          "name": "_payload",
          "type": "bytes"
        },
        {
          "internalType": "uint64",
          "name": "_dstGasForCall",
          "type": "uint64"
        },
        {
          "internalType": "bool",
          "name": "_useZro",
          "type": "bool"
        },
        {
          "internalType": "bytes",
          "name": "_adapterParams",
          "type": "bytes"
        }
      ],
      "name": "estimateSendAndCallFee",
      "outputs": [
        {
          "internalType": "uint256",
          "name": "nativeFee",
          "type": "uint256"
        },
        {
          "internalType": "uint256",
          "name": "zroFee",
          "type": "uint256"
        }
      ],
      "stateMutability": "view",
      "type": "function"
    },
    {
      "inputs": [
        {
          "internalType": "uint16",
          "name": "_dstChainId",
          "type": "uint16"
        },
        {
          "internalType": "bytes32",
          "name": "_toAddress",
          "type": "bytes32"
        },
        {
          "internalType": "uint256",
          "name": "_amount",
          "type": "uint256"
        },
        {
          "internalType": "bool",
          "name": "_useZro",
          "type": "bool"
        },
        {
          "internalType": "bytes",
          "name": "_adapterParams",
          "type": "bytes"
        }
      ],
      "name": "estimateSendFee",
      "outputs": [
        {
          "internalType": "uint256",
          "name": "nativeFee",
          "type": "uint256"
        },
        {
          "internalType": "uint256",
          "name": "zroFee",
          "type": "uint256"
        }
      ],
      "stateMutability": "view",
      "type": "function"
    },
    {
      "inputs": [
        {
          "internalType": "uint16",
          "name": "",
          "type": "uint16"
        },
        {
          "internalType": "bytes",
          "name": "",
          "type": "bytes"
        },
        {
          "internalType": "uint64",
          "name": "",
          "type": "uint64"
        }
      ],
      "name": "failedMessages",
      "outputs": [
        {
          "internalType": "bytes32",
          "name": "",
          "type": "bytes32"
        }
      ],
      "stateMutability": "view",
      "type": "function"
    },
    {
      "inputs": [
        {
          "internalType": "uint16",
          "name": "_srcChainId",
          "type": "uint16"
        },
        {
          "internalType": "bytes",
          "name": "_srcAddress",
          "type": "bytes"
        }
      ],
      "name": "forceResumeReceive",
      "outputs": [],
      "stateMutability": "nonpayable",
      "type": "function"
    },
    {
      "inputs": [
        {
          "internalType": "uint16",
          "name": "_version",
          "type": "uint16"
        },
        {
          "internalType": "uint16",
          "name": "_chainId",
          "type": "uint16"
        },
        {
          "internalType": "address",
          "name": "",
          "type": "address"
        },
        {
          "internalType": "uint256",
          "name": "_configType",
          "type": "uint256"
        }
      ],
      "name": "getConfig",
      "outputs": [
        {
          "internalType": "bytes",
          "name": "",
          "type": "bytes"
        }
      ],
      "stateMutability": "view",
      "type": "function"
    },
    {
      "inputs": [
        {
          "internalType": "uint256",
          "name": "timepoint",
          "type": "uint256"
        }
      ],
      "name": "getPastTotalSupply",
      "outputs": [
        {
          "internalType": "uint256",
          "name": "",
          "type": "uint256"
        }
      ],
      "stateMutability": "view",
      "type": "function"
    },
    {
      "inputs": [
        {
          "internalType": "address",
          "name": "account",
          "type": "address"
        },
        {
          "internalType": "uint256",
          "name": "timepoint",
          "type": "uint256"
        }
      ],
      "name": "getPastVotes",
      "outputs": [
        {
          "internalType": "uint256",
          "name": "",
          "type": "uint256"
        }
      ],
      "stateMutability": "view",
      "type": "function"
    },
    {
      "inputs": [
        {
          "internalType": "uint16",
          "name": "_remoteChainId",
          "type": "uint16"
        }
      ],
      "name": "getTrustedRemoteAddress",
      "outputs": [
        {
          "internalType": "bytes",
          "name": "",
          "type": "bytes"
        }
      ],
      "stateMutability": "view",
      "type": "function"
    },
    {
      "inputs": [
        {
          "internalType": "address",
          "name": "account",
          "type": "address"
        }
      ],
      "name": "getVotes",
      "outputs": [
        {
          "internalType": "uint256",
          "name": "",
          "type": "uint256"
        }
      ],
      "stateMutability": "view",
      "type": "function"
    },
    {
      "inputs": [
        {
          "internalType": "address",
          "name": "spender",
          "type": "address"
        },
        {
          "internalType": "uint256",
          "name": "addedValue",
          "type": "uint256"
        }
      ],
      "name": "increaseAllowance",
      "outputs": [
        {
          "internalType": "bool",
          "name": "",
          "type": "bool"
        }
      ],
      "stateMutability": "nonpayable",
      "type": "function"
    },
    {
      "inputs": [
        {
          "internalType": "uint16",
          "name": "_srcChainId",
          "type": "uint16"
        },
        {
          "internalType": "bytes",
          "name": "_srcAddress",
          "type": "bytes"
        }
      ],
      "name": "isTrustedRemote",
      "outputs": [
        {
          "internalType": "bool",
          "name": "",
          "type": "bool"
        }
      ],
      "stateMutability": "view",
      "type": "function"
    },
    {
      "inputs": [],
      "name": "lzEndpoint",
      "outputs": [
        {
          "internalType": "contract ILayerZeroEndpoint",
          "name": "",
          "type": "address"
        }
      ],
      "stateMutability": "view",
      "type": "function"
    },
    {
      "inputs": [
        {
          "internalType": "uint16",
          "name": "_srcChainId",
          "type": "uint16"
        },
        {
          "internalType": "bytes",
          "name": "_srcAddress",
          "type": "bytes"
        },
        {
          "internalType": "uint64",
          "name": "_nonce",
          "type": "uint64"
        },
        {
          "internalType": "bytes",
          "name": "_payload",
          "type": "bytes"
        }
      ],
      "name": "lzReceive",
      "outputs": [],
      "stateMutability": "nonpayable",
      "type": "function"
    },
    {
      "inputs": [],
      "name": "maxCap",
      "outputs": [
        {
          "internalType": "uint256",
          "name": "",
          "type": "uint256"
        }
      ],
      "stateMutability": "pure",
      "type": "function"
    },
    {
      "inputs": [
        {
          "internalType": "uint16",
          "name": "",
          "type": "uint16"
        },
        {
          "internalType": "uint16",
          "name": "",
          "type": "uint16"
        }
      ],
      "name": "minDstGasLookup",
      "outputs": [
        {
          "internalType": "uint256",
          "name": "",
          "type": "uint256"
        }
      ],
      "stateMutability": "view",
      "type": "function"
    },
    {
      "inputs": [
        {
          "internalType": "address",
          "name": "account",
          "type": "address"
        },
        {
          "internalType": "uint256",
          "name": "amount",
          "type": "uint256"
        }
      ],
      "name": "mint",
      "outputs": [],
      "stateMutability": "nonpayable",
      "type": "function"
    },
    {
      "inputs": [],
      "name": "name",
      "outputs": [
        {
          "internalType": "string",
          "name": "",
          "type": "string"
        }
      ],
      "stateMutability": "view",
      "type": "function"
    },
    {
      "inputs": [
        {
          "internalType": "uint16",
          "name": "_srcChainId",
          "type": "uint16"
        },
        {
          "internalType": "bytes",
          "name": "_srcAddress",
          "type": "bytes"
        },
        {
          "internalType": "uint64",
          "name": "_nonce",
          "type": "uint64"
        },
        {
          "internalType": "bytes",
          "name": "_payload",
          "type": "bytes"
        }
      ],
      "name": "nonblockingLzReceive",
      "outputs": [],
      "stateMutability": "nonpayable",
      "type": "function"
    },
    {
      "inputs": [
        {
          "internalType": "address",
          "name": "owner",
          "type": "address"
        }
      ],
      "name": "nonces",
      "outputs": [
        {
          "internalType": "uint256",
          "name": "",
          "type": "uint256"
        }
      ],
      "stateMutability": "view",
      "type": "function"
    },
    {
      "inputs": [
        {
          "internalType": "address",
          "name": "account",
          "type": "address"
        }
      ],
      "name": "numCheckpoints",
      "outputs": [
        {
          "internalType": "uint32",
          "name": "",
          "type": "uint32"
        }
      ],
      "stateMutability": "view",
      "type": "function"
    },
    {
      "inputs": [],
      "name": "owner",
      "outputs": [
        {
          "internalType": "address",
          "name": "",
          "type": "address"
        }
      ],
      "stateMutability": "view",
      "type": "function"
    },
    {
      "inputs": [
        {
          "internalType": "uint16",
          "name": "",
          "type": "uint16"
        }
      ],
      "name": "payloadSizeLimitLookup",
      "outputs": [
        {
          "internalType": "uint256",
          "name": "",
          "type": "uint256"
        }
      ],
      "stateMutability": "view",
      "type": "function"
    },
    {
      "inputs": [
        {
          "internalType": "address",
          "name": "owner",
          "type": "address"
        },
        {
          "internalType": "address",
          "name": "spender",
          "type": "address"
        },
        {
          "internalType": "uint256",
          "name": "value",
          "type": "uint256"
        },
        {
          "internalType": "uint256",
          "name": "deadline",
          "type": "uint256"
        },
        {
          "internalType": "uint8",
          "name": "v",
          "type": "uint8"
        },
        {
          "internalType": "bytes32",
          "name": "r",
          "type": "bytes32"
        },
        {
          "internalType": "bytes32",
          "name": "s",
          "type": "bytes32"
        }
      ],
      "name": "permit",
      "outputs": [],
      "stateMutability": "nonpayable",
      "type": "function"
    },
    {
      "inputs": [],
      "name": "precrime",
      "outputs": [
        {
          "internalType": "address",
          "name": "",
          "type": "address"
        }
      ],
      "stateMutability": "view",
      "type": "function"
    },
    {
      "inputs": [],
      "name": "renounceOwnership",
      "outputs": [],
      "stateMutability": "nonpayable",
      "type": "function"
    },
    {
      "inputs": [
        {
          "internalType": "uint16",
          "name": "_srcChainId",
          "type": "uint16"
        },
        {
          "internalType": "bytes",
          "name": "_srcAddress",
          "type": "bytes"
        },
        {
          "internalType": "uint64",
          "name": "_nonce",
          "type": "uint64"
        },
        {
          "internalType": "bytes",
          "name": "_payload",
          "type": "bytes"
        }
      ],
      "name": "retryMessage",
      "outputs": [],
      "stateMutability": "payable",
      "type": "function"
    },
    {
      "inputs": [
        {
          "internalType": "address",
          "name": "_from",
          "type": "address"
        },
        {
          "internalType": "uint16",
          "name": "_dstChainId",
          "type": "uint16"
        },
        {
          "internalType": "bytes32",
          "name": "_toAddress",
          "type": "bytes32"
        },
        {
          "internalType": "uint256",
          "name": "_amount",
          "type": "uint256"
        },
        {
          "internalType": "bytes",
          "name": "_payload",
          "type": "bytes"
        },
        {
          "internalType": "uint64",
          "name": "_dstGasForCall",
          "type": "uint64"
        },
        {
          "components": [
            {
              "internalType": "address payable",
              "name": "refundAddress",
              "type": "address"
            },
            {
              "internalType": "address",
              "name": "zroPaymentAddress",
              "type": "address"
            },
            {
              "internalType": "bytes",
              "name": "adapterParams",
              "type": "bytes"
            }
          ],
          "internalType": "struct ICommonOFT.LzCallParams",
          "name": "_callParams",
          "type": "tuple"
        }
      ],
      "name": "sendAndCall",
      "outputs": [],
      "stateMutability": "payable",
      "type": "function"
    },
    {
      "inputs": [
        {
          "internalType": "address",
          "name": "_from",
          "type": "address"
        },
        {
          "internalType": "uint16",
          "name": "_dstChainId",
          "type": "uint16"
        },
        {
          "internalType": "bytes32",
          "name": "_toAddress",
          "type": "bytes32"
        },
        {
          "internalType": "uint256",
          "name": "_amount",
          "type": "uint256"
        },
        {
          "components": [
            {
              "internalType": "address payable",
              "name": "refundAddress",
              "type": "address"
            },
            {
              "internalType": "address",
              "name": "zroPaymentAddress",
              "type": "address"
            },
            {
              "internalType": "bytes",
              "name": "adapterParams",
              "type": "bytes"
            }
          ],
          "internalType": "struct ICommonOFT.LzCallParams",
          "name": "_callParams",
          "type": "tuple"
        }
      ],
      "name": "sendFrom",
      "outputs": [],
      "stateMutability": "payable",
      "type": "function"
    },
    {
      "inputs": [
        {
          "internalType": "uint16",
          "name": "_version",
          "type": "uint16"
        },
        {
          "internalType": "uint16",
          "name": "_chainId",
          "type": "uint16"
        },
        {
          "internalType": "uint256",
          "name": "_configType",
          "type": "uint256"
        },
        {
          "internalType": "bytes",
          "name": "_config",
          "type": "bytes"
        }
      ],
      "name": "setConfig",
      "outputs": [],
      "stateMutability": "nonpayable",
      "type": "function"
    },
    {
      "inputs": [
        {
          "internalType": "uint16",
          "name": "_dstChainId",
          "type": "uint16"
        },
        {
          "internalType": "uint16",
          "name": "_packetType",
          "type": "uint16"
        },
        {
          "internalType": "uint256",
          "name": "_minGas",
          "type": "uint256"
        }
      ],
      "name": "setMinDstGas",
      "outputs": [],
      "stateMutability": "nonpayable",
      "type": "function"
    },
    {
      "inputs": [
        {
          "internalType": "uint16",
          "name": "_dstChainId",
          "type": "uint16"
        },
        {
          "internalType": "uint256",
          "name": "_size",
          "type": "uint256"
        }
      ],
      "name": "setPayloadSizeLimit",
      "outputs": [],
      "stateMutability": "nonpayable",
      "type": "function"
    },
    {
      "inputs": [
        {
          "internalType": "address",
          "name": "_precrime",
          "type": "address"
        }
      ],
      "name": "setPrecrime",
      "outputs": [],
      "stateMutability": "nonpayable",
      "type": "function"
    },
    {
      "inputs": [
        {
          "internalType": "uint16",
          "name": "_version",
          "type": "uint16"
        }
      ],
      "name": "setReceiveVersion",
      "outputs": [],
      "stateMutability": "nonpayable",
      "type": "function"
    },
    {
      "inputs": [
        {
          "internalType": "uint16",
          "name": "_version",
          "type": "uint16"
        }
      ],
      "name": "setSendVersion",
      "outputs": [],
      "stateMutability": "nonpayable",
      "type": "function"
    },
    {
      "inputs": [
        {
          "internalType": "uint16",
          "name": "_remoteChainId",
          "type": "uint16"
        },
        {
          "internalType": "bytes",
          "name": "_path",
          "type": "bytes"
        }
      ],
      "name": "setTrustedRemote",
      "outputs": [],
      "stateMutability": "nonpayable",
      "type": "function"
    },
    {
      "inputs": [
        {
          "internalType": "uint16",
          "name": "_remoteChainId",
          "type": "uint16"
        },
        {
          "internalType": "bytes",
          "name": "_remoteAddress",
          "type": "bytes"
        }
      ],
      "name": "setTrustedRemoteAddress",
      "outputs": [],
      "stateMutability": "nonpayable",
      "type": "function"
    },
    {
      "inputs": [],
      "name": "sharedDecimals",
      "outputs": [
        {
          "internalType": "uint8",
          "name": "",
          "type": "uint8"
        }
      ],
      "stateMutability": "view",
      "type": "function"
    },
    {
      "inputs": [
        {
          "internalType": "bytes4",
          "name": "interfaceId",
          "type": "bytes4"
        }
      ],
      "name": "supportsInterface",
      "outputs": [
        {
          "internalType": "bool",
          "name": "",
          "type": "bool"
        }
      ],
      "stateMutability": "view",
      "type": "function"
    },
    {
      "inputs": [],
      "name": "symbol",
      "outputs": [
        {
          "internalType": "string",
          "name": "",
          "type": "string"
        }
      ],
      "stateMutability": "view",
      "type": "function"
    },
    {
      "inputs": [],
      "name": "token",
      "outputs": [
        {
          "internalType": "address",
          "name": "",
          "type": "address"
        }
      ],
      "stateMutability": "view",
      "type": "function"
    },
    {
      "inputs": [],
      "name": "totalSupply",
      "outputs": [
        {
          "internalType": "uint256",
          "name": "",
          "type": "uint256"
        }
      ],
      "stateMutability": "view",
      "type": "function"
    },
    {
      "inputs": [
        {
          "internalType": "address",
          "name": "_to",
          "type": "address"
        },
        {
          "internalType": "uint256",
          "name": "_value",
          "type": "uint256"
        }
      ],
      "name": "transfer",
      "outputs": [
        {
          "internalType": "bool",
          "name": "",
          "type": "bool"
        }
      ],
      "stateMutability": "nonpayable",
      "type": "function"
    },
    {
      "inputs": [
        {
          "internalType": "address",
          "name": "_from",
          "type": "address"
        },
        {
          "internalType": "address",
          "name": "_to",
          "type": "address"
        },
        {
          "internalType": "uint256",
          "name": "_amount",
          "type": "uint256"
        }
      ],
      "name": "transferFrom",
      "outputs": [
        {
          "internalType": "bool",
          "name": "",
          "type": "bool"
        }
      ],
      "stateMutability": "nonpayable",
      "type": "function"
    },
    {
      "inputs": [
        {
          "internalType": "address",
          "name": "newOwner",
          "type": "address"
        }
      ],
      "name": "transferOwnership",
      "outputs": [],
      "stateMutability": "nonpayable",
      "type": "function"
    },
    {
      "inputs": [
        {
          "internalType": "uint16",
          "name": "",
          "type": "uint16"
        }
      ],
      "name": "trustedRemoteLookup",
      "outputs": [
        {
          "internalType": "bytes",
          "name": "",
          "type": "bytes"
        }
      ],
      "stateMutability": "view",
      "type": "function"
    }
  ],
  "transactionHash": "0x0d2dec5777fa9f8787bd6172ea5d14b27b0034c58796d17657fbbd8fb4f9aaf9",
  "args": [
    "MPRO",
    "MPRO",
    [
      "0x6487C15Bc8C605Fe350D3Cf79468e5532E457CDF"
    ],
    [
      "100000000000000000000"
    ],
    "0x6Fcb97553D41516Cb228ac03FdC8B9a0a9df04A1",
    "0x194EAE1506C6922214c687a39374d64A146f7d02",
    "0x194EAE1506C6922214c687a39374d64A146f7d02"
  ],
  "numDeployments": 2,
  "solcInputHash": "77f580ae626fe553e6854b6a02907008",
  "bytecode": "0x6101c06040523480156200001257600080fd5b5060405162006f8538038062006f85833981016040819052620000359162000c43565b8680604051806040016040528060018152602001603160f81b815250898960068883838383818180806200007862000072620002ad60201b60201c565b620002b1565b6001600160a01b0316608052505060ff1660a05250600a90506200009d838262000dc2565b50600b620000ac828262000dc2565b5050506000620000c16200030160201b60201c565b90508060ff168360ff1611156200012f5760405162461bcd60e51b815260206004820152602760248201527f4f46543a20736861726564446563696d616c73206d757374206265203c3d20646044820152666563696d616c7360c81b60648201526084015b60405180910390fd5b6200013b838262000ea4565b6200014890600a62000fbd565b60c05250620001609350859250600c91505062000306565b610180526200017181600d62000306565b6101a052815160208084019190912061014052815190820120610160524661010052620002026101405161016051604080517f8b73c3c69bb8fe3d512ecc4cf759cc79239f7b179b0ffacaa9a75d522b39400f60208201529081019290925260608201524660808201523060a082015260009060c00160405160208183030381529060405280519060200120905090565b60e052505030610120525060005b855181101562000279576200026486828151811062000233576200023362000fce565b602002602001015186838151811062000250576200025062000fce565b60200260200101516200033f60201b60201c565b80620002708162000fe4565b91505062000210565b50601380546001600160a01b0319166001600160a01b038416179055620002a081620002b1565b5050505050505062001086565b3390565b600080546001600160a01b038381166001600160a01b0319831681178455604051919092169283917f8be0079c531659141344cd1fd0a4f28419497f9722a3daafe3b4186f6b6457e09190a35050565b601290565b600060208351101562000326576200031e83620003e7565b905062000339565b8162000333848262000dc2565b5060ff90505b92915050565b6200034b82826200042a565b6001600160e01b036200035f6200050b8216565b1115620003c85760405162461bcd60e51b815260206004820152603060248201527f4552433230566f7465733a20746f74616c20737570706c79207269736b73206f60448201526f766572666c6f77696e6720766f74657360801b606482015260840162000126565b620003e16012620026e46200051160201b178362000526565b50505050565b600080829050601f8151111562000415578260405163305a27a960e01b815260040162000126919062001000565b8051620004228262001035565b179392505050565b6001600160a01b038216620004825760405162461bcd60e51b815260206004820152601f60248201527f45524332303a206d696e7420746f20746865207a65726f206164647265737300604482015260640162000126565b6200049060008383620006ae565b8060096000828254620004a491906200105a565b90915550506001600160a01b0382166000818152600760209081526040808320805486019055518481527fddf252ad1be2c89b69c2b068fc378daa952ba7f163c4a11628f55a4df523b3ef910160405180910390a3620005076000838362000742565b5050565b60095490565b60006200051f82846200105a565b9392505050565b82546000908190818115620005755760008781526020902082016000190160408051808201909152905463ffffffff8116825264010000000090046001600160e01b031660208201526200058a565b60408051808201909152600080825260208201525b905080602001516001600160e01b03169350620005a884868860201c565b9250600082118015620005d55750620005c062000771565b65ffffffffffff16816000015163ffffffff16145b156200061e57620005e68362000783565b60008881526020902083016000190180546001600160e01b03929092166401000000000263ffffffff909216919091179055620006a4565b8660405180604001604052806200064c6200063e6200077160201b60201c565b65ffffffffffff16620007f2565b63ffffffff168152602001620006628662000783565b6001600160e01b0390811690915282546001810184556000938452602093849020835194909301519091166401000000000263ffffffff909316929092179101555b5050935093915050565b6001600160a01b0383166200072a576b019d971e4fe8401e7400000081601454620006da91906200105a565b11156200072a5760405162461bcd60e51b815260206004820152601960248201527f45524332304361707065643a2063617020657863656564656400000000000000604482015260640162000126565b6200073d8383836001600160e01b038416565b505050565b6001600160a01b038316620007645760145462000760908262000511565b6014555b6200073d83838362000859565b60006200077e436200088d565b905090565b60006001600160e01b03821115620007ee5760405162461bcd60e51b815260206004820152602760248201527f53616665436173743a2076616c756520646f65736e27742066697420696e20326044820152663234206269747360c81b606482015260840162000126565b5090565b600063ffffffff821115620007ee5760405162461bcd60e51b815260206004820152602660248201527f53616665436173743a2076616c756520646f65736e27742066697420696e203360448201526532206269747360d01b606482015260840162000126565b6001600160a01b038381166000908152601060205260408082205485841683529120546200073d92918216911683620008f6565b600065ffffffffffff821115620007ee5760405162461bcd60e51b815260206004820152602660248201527f53616665436173743a2076616c756520646f65736e27742066697420696e203460448201526538206269747360d01b606482015260840162000126565b816001600160a01b0316836001600160a01b031614158015620009195750600081115b156200073d576001600160a01b03831615620009a6576001600160a01b03831660009081526011602090815260408220829162000963919062000a31901b620026f0178562000526565b91509150846001600160a01b031660008051602062006f6583398151915283836040516200099b929190918252602082015260400190565b60405180910390a250505b6001600160a01b038216156200073d576001600160a01b038216600090815260116020908152604082208291620009ea919062000511901b620026e4178562000526565b91509150836001600160a01b031660008051602062006f65833981519152838360405162000a22929190918252602082015260400190565b60405180910390a25050505050565b60006200051f828462001070565b634e487b7160e01b600052604160045260246000fd5b604051601f8201601f191681016001600160401b038111828210171562000a805762000a8062000a3f565b604052919050565b60005b8381101562000aa557818101518382015260200162000a8b565b50506000910152565b600082601f83011262000ac057600080fd5b81516001600160401b0381111562000adc5762000adc62000a3f565b62000af1601f8201601f191660200162000a55565b81815284602083860101111562000b0757600080fd5b62000b1a82602083016020870162000a88565b949350505050565b60006001600160401b0382111562000b3e5762000b3e62000a3f565b5060051b60200190565b80516001600160a01b038116811462000b6057600080fd5b919050565b600082601f83011262000b7757600080fd5b8151602062000b9062000b8a8362000b22565b62000a55565b82815260059290921b8401810191818101908684111562000bb057600080fd5b8286015b8481101562000bd65762000bc88162000b48565b835291830191830162000bb4565b509695505050505050565b600082601f83011262000bf357600080fd5b8151602062000c0662000b8a8362000b22565b82815260059290921b8401810191818101908684111562000c2657600080fd5b8286015b8481101562000bd6578051835291830191830162000c2a565b600080600080600080600060e0888a03121562000c5f57600080fd5b87516001600160401b038082111562000c7757600080fd5b62000c858b838c0162000aae565b985060208a015191508082111562000c9c57600080fd5b62000caa8b838c0162000aae565b975060408a015191508082111562000cc157600080fd5b62000ccf8b838c0162000b65565b965060608a015191508082111562000ce657600080fd5b5062000cf58a828b0162000be1565b94505062000d066080890162000b48565b925062000d1660a0890162000b48565b915062000d2660c0890162000b48565b905092959891949750929550565b600181811c9082168062000d4957607f821691505b60208210810362000d6a57634e487b7160e01b600052602260045260246000fd5b50919050565b601f8211156200073d57600081815260208120601f850160051c8101602086101562000d995750805b601f850160051c820191505b8181101562000dba5782815560010162000da5565b505050505050565b81516001600160401b0381111562000dde5762000dde62000a3f565b62000df68162000def845462000d34565b8462000d70565b602080601f83116001811462000e2e576000841562000e155750858301515b600019600386901b1c1916600185901b17855562000dba565b600085815260208120601f198616915b8281101562000e5f5788860151825594840194600190910190840162000e3e565b508582101562000e7e5787850151600019600388901b60f8161c191681555b5050505050600190811b01905550565b634e487b7160e01b600052601160045260246000fd5b60ff828116828216039081111562000339576200033962000e8e565b600181815b8085111562000f0157816000190482111562000ee55762000ee562000e8e565b8085161562000ef357918102915b93841c939080029062000ec5565b509250929050565b60008262000f1a5750600162000339565b8162000f295750600062000339565b816001811462000f42576002811462000f4d5762000f6d565b600191505062000339565b60ff84111562000f615762000f6162000e8e565b50506001821b62000339565b5060208310610133831016604e8410600b841016171562000f92575081810a62000339565b62000f9e838362000ec0565b806000190482111562000fb55762000fb562000e8e565b029392505050565b60006200051f60ff84168362000f09565b634e487b7160e01b600052603260045260246000fd5b60006001820162000ff95762000ff962000e8e565b5060010190565b60208152600082518060208401526200102181604085016020870162000a88565b601f01601f19169190910160400192915050565b8051602080830151919081101562000d6a5760001960209190910360031b1b16919050565b8082018082111562000339576200033962000e8e565b8181038181111562000339576200033962000e8e565b60805160a05160c05160e05161010051610120516101405161016051610180516101a051615e166200114f60003960006118f0015260006118c501526000612aca01526000612aa2015260006129fd01526000612a2701526000612a5101526000818161376801528181613e88015261475b015260006108ac015260008181610afe01528181610cfe0152818161101601528181611158015281816114c701528181611f460152818161266401528181612b83015281816132fc015261401b0152615e166000f3fe6080604052600436106103d85760003560e01c806384b0196e116101fd578063a9059cbb11610118578063dd62ed3e116100ab578063eb8d72b71161007a578063eb8d72b714610c3e578063f1127ed814610c5e578063f2fde38b14610ca8578063f5ecbdbc14610cc8578063fc0c546a14610ce857600080fd5b8063dd62ed3e14610bc9578063df2a5b3b14610be9578063e6a20ae614610c09578063eaffd49a14610c1e57600080fd5b8063c4461834116100e7578063c446183414610b60578063cbed8b9c14610b76578063d1deba1f14610b96578063d505accf14610ba957600080fd5b8063a9059cbb14610acc578063b353aaa714610aec578063baf3292d14610b20578063c3cda52014610b4057600080fd5b806395d89b41116101905780639f38369a1161015f5780639f38369a14610a4c578063a457c2d714610a6c578063a4c51df514610a8c578063a6c3d16514610aac57600080fd5b806395d89b41146109a55780639ab24eb0146109ba5780639bdb9812146109da5780639dc29fac14610a2c57600080fd5b80638e539e8c116101cc5780638e539e8c1461092457806391ddadf4146109445780639358928b14610970578063950c8a741461098557600080fd5b806384b0196e14610872578063857749b01461089a5780638cfd8f5c146108ce5780638da5cb5b1461090657600080fd5b80633f1f4fa4116102f85780635c19a95c1161028b57806370a082311161025a57806370a08231146107d4578063715018a61461080a5780637533d7881461081f57806376203b481461083f5780637ecebe001461085257600080fd5b80635c19a95c1461074c57806366ad5c8a1461076c578063695ef6bf1461078c5780636fcfff451461079f57600080fd5b80634bf5d7e9116102c75780634bf5d7e9146106825780634c42899a14610697578063587cde1e146106ac5780635b8c41e6146106fd57600080fd5b80633f1f4fa41461060057806340c10f191461062d57806342d65a8d1461064d578063447705151461066d57600080fd5b806323548b8b11610370578063365260b41161033f578063365260b41461056b57806339509351146105a05780633a46b1a8146105c05780633d8b38f6146105e057600080fd5b806323548b8b146104f557806323b872dd14610514578063313ce567146105345780633644e5151461055657600080fd5b8063095ea7b3116103ac578063095ea7b3146104765780630df374831461049657806310ddb137146104b657806318160ddd146104d657600080fd5b80621d3567146103dd57806301ffc9a7146103ff57806306fdde031461043457806307e0db1714610456575b600080fd5b3480156103e957600080fd5b506103fd6103f8366004614cc0565b610cfb565b005b34801561040b57600080fd5b5061041f61041a366004614d53565b610f2c565b60405190151581526020015b60405180910390f35b34801561044057600080fd5b50610449610f63565b60405161042b9190614dcd565b34801561046257600080fd5b506103fd610471366004614de0565b610ff5565b34801561048257600080fd5b5061041f610491366004614e10565b61107e565b3480156104a257600080fd5b506103fd6104b1366004614e3c565b611118565b3480156104c257600080fd5b506103fd6104d1366004614de0565b611137565b3480156104e257600080fd5b506009545b60405190815260200161042b565b34801561050157600080fd5b506b019d971e4fe8401e740000006104e7565b34801561052057600080fd5b5061041f61052f366004614e58565b61118f565b34801561054057600080fd5b5060125b60405160ff909116815260200161042b565b34801561056257600080fd5b506104e761123e565b34801561057757600080fd5b5061058b610586366004614ea7565b61124d565b6040805192835260208301919091520161042b565b3480156105ac57600080fd5b5061041f6105bb366004614e10565b6112a2565b3480156105cc57600080fd5b506104e76105db366004614e10565b6112ce565b3480156105ec57600080fd5b5061041f6105fb366004614f0e565b611353565b34801561060c57600080fd5b506104e761061b366004614de0565b60036020526000908152604090205481565b34801561063957600080fd5b506103fd610648366004614e10565b61141f565b34801561065957600080fd5b506103fd610668366004614f0e565b6114a8565b34801561067957600080fd5b506104e7600081565b34801561068e57600080fd5b5061044961152e565b3480156106a357600080fd5b50610544600081565b3480156106b857600080fd5b506106e56106c7366004614f60565b6001600160a01b039081166000908152601060205260409020541690565b6040516001600160a01b03909116815260200161042b565b34801561070957600080fd5b506104e7610718366004614fea565b6005602090815260009384526040808520845180860184018051928152908401958401959095209452929052825290205481565b34801561075857600080fd5b506103fd610767366004614f60565b6115c6565b34801561077857600080fd5b506103fd610787366004614cc0565b6115d3565b6103fd61079a36600461509c565b6116af565b3480156107ab57600080fd5b506107bf6107ba366004614f60565b61171a565b60405163ffffffff909116815260200161042b565b3480156107e057600080fd5b506104e76107ef366004614f60565b6001600160a01b031660009081526007602052604090205490565b34801561081657600080fd5b506103fd61173c565b34801561082b57600080fd5b5061044961083a366004614de0565b611750565b6103fd61084d36600461510f565b6117ea565b34801561085e57600080fd5b506104e761086d366004614f60565b611899565b34801561087e57600080fd5b506108876118b7565b60405161042b97969594939291906151c1565b3480156108a657600080fd5b506105447f000000000000000000000000000000000000000000000000000000000000000081565b3480156108da57600080fd5b506104e76108e9366004615257565b600260209081526000928352604080842090915290825290205481565b34801561091257600080fd5b506000546001600160a01b03166106e5565b34801561093057600080fd5b506104e761093f36600461528a565b611940565b34801561095057600080fd5b506109596119a7565b60405165ffffffffffff909116815260200161042b565b34801561097c57600080fd5b506104e76119b2565b34801561099157600080fd5b506004546106e5906001600160a01b031681565b3480156109b157600080fd5b506104496119bd565b3480156109c657600080fd5b506104e76109d5366004614f60565b6119cc565b3480156109e657600080fd5b5061041f6109f5366004614fea565b6006602090815260009384526040808520845180860184018051928152908401958401959095209452929052825290205460ff1681565b348015610a3857600080fd5b506103fd610a47366004614e10565b611a4e565b348015610a5857600080fd5b50610449610a67366004614de0565b611a58565b348015610a7857600080fd5b5061041f610a87366004614e10565b611b67565b348015610a9857600080fd5b5061058b610aa73660046152a3565b611be2565b348015610ab857600080fd5b506103fd610ac7366004614f0e565b611c71565b348015610ad857600080fd5b5061041f610ae7366004614e10565b611cfa565b348015610af857600080fd5b506106e57f000000000000000000000000000000000000000000000000000000000000000081565b348015610b2c57600080fd5b506103fd610b3b366004614f60565b611d9e565b348015610b4c57600080fd5b506103fd610b5b366004615371565b611dfa565b348015610b6c57600080fd5b506104e761271081565b348015610b8257600080fd5b506103fd610b913660046153cb565b611f27565b6103fd610ba4366004614cc0565b611fb1565b348015610bb557600080fd5b506103fd610bc4366004615439565b6121c7565b348015610bd557600080fd5b506104e7610be43660046154a7565b61232b565b348015610bf557600080fd5b506103fd610c043660046154e0565b612356565b348015610c1557600080fd5b50610544600181565b348015610c2a57600080fd5b506103fd610c3936600461551c565b6123c0565b348015610c4a57600080fd5b506103fd610c59366004614f0e565b6124df565b348015610c6a57600080fd5b50610c7e610c793660046155e4565b612539565b60408051825163ffffffff1681526020928301516001600160e01b0316928101929092520161042b565b348015610cb457600080fd5b506103fd610cc3366004614f60565b6125bd565b348015610cd457600080fd5b50610449610ce336600461561b565b612633565b348015610cf457600080fd5b50306106e5565b337f00000000000000000000000000000000000000000000000000000000000000006001600160a01b031614610d785760405162461bcd60e51b815260206004820152601e60248201527f4c7a4170703a20696e76616c696420656e64706f696e742063616c6c6572000060448201526064015b60405180910390fd5b61ffff861660009081526001602052604081208054610d9690615668565b80601f0160208091040260200160405190810160405280929190818152602001828054610dc290615668565b8015610e0f5780601f10610de457610100808354040283529160200191610e0f565b820191906000526020600020905b815481529060010190602001808311610df257829003601f168201915b50505050509050805186869050148015610e2a575060008151115b8015610e52575080516020820120604051610e48908890889061569c565b6040518091039020145b610ead5760405162461bcd60e51b815260206004820152602660248201527f4c7a4170703a20696e76616c696420736f757263652073656e64696e6720636f6044820152651b9d1c9858dd60d21b6064820152608401610d6f565b610f238787878080601f01602080910402602001604051908101604052809392919081815260200183838082843760009201919091525050604080516020601f8a018190048102820181019092528881528a9350915088908890819084018382808284376000920191909152506126fc92505050565b50505050505050565b60006001600160e01b03198216631f7ecdf760e01b1480610f5d57506301ffc9a760e01b6001600160e01b03198316145b92915050565b6060600a8054610f7290615668565b80601f0160208091040260200160405190810160405280929190818152602001828054610f9e90615668565b8015610feb5780601f10610fc057610100808354040283529160200191610feb565b820191906000526020600020905b815481529060010190602001808311610fce57829003601f168201915b5050505050905090565b610ffd612775565b6040516307e0db1760e01b815261ffff821660048201527f00000000000000000000000000000000000000000000000000000000000000006001600160a01b0316906307e0db17906024015b600060405180830381600087803b15801561106357600080fd5b505af1158015611077573d6000803e3d6000fd5b5050505050565b6013546000906001600160a01b031663d2b70779336040516001600160e01b031960e084901b1681526001600160a01b0391821660048201529086166024820152604401602060405180830381865afa1580156110df573d6000803e3d6000fd5b505050506040513d601f19601f8201168201806040525081019061110391906156ac565b5061110f3384846127cf565b50600192915050565b611120612775565b61ffff909116600090815260036020526040902055565b61113f612775565b6040516310ddb13760e01b815261ffff821660048201527f00000000000000000000000000000000000000000000000000000000000000006001600160a01b0316906310ddb13790602401611049565b6013546000906001600160a01b03166393fc9e5f85853360405160e085901b6001600160e01b03191681526001600160a01b03938416600482015291831660248301529091166044820152606401602060405180830381865afa1580156111fa573d6000803e3d6000fd5b505050506040513d601f19601f8201168201806040525081019061121e91906156ac565b50611233848461122e87866128f3565b61299e565b506001949350505050565b60006112486129f0565b905090565b6000806112938888888888888080601f016020809104026020016040519081016040528093929190818152602001838380828437600092019190915250612b1b92505050565b91509150965096945050505050565b6000336112c48185856112b5838361232b565b6112bf91906156df565b6127cf565b5060019392505050565b60006112d86119a7565b65ffffffffffff16821061132a5760405162461bcd60e51b815260206004820152601960248201527804552433230566f7465733a20667574757265206c6f6f6b757603c1b6044820152606401610d6f565b6001600160a01b038316600090815260116020526040902061134c9083612c0f565b9392505050565b61ffff83166000908152600160205260408120805482919061137490615668565b80601f01602080910402602001604051908101604052809291908181526020018280546113a090615668565b80156113ed5780601f106113c2576101008083540402835291602001916113ed565b820191906000526020600020905b8154815290600101906020018083116113d057829003601f168201915b50505050509050838360405161140492919061569c565b60405180910390208180519060200120149150509392505050565b6013546001600160a01b03166395cde8b4336040516001600160e01b031960e084901b1681526001600160a01b039091166004820152602401602060405180830381865afa158015611475573d6000803e3d6000fd5b505050506040513d601f19601f8201168201806040525081019061149991906156ac565b506114a48282612cf8565b5050565b6114b0612775565b6040516342d65a8d60e01b81526001600160a01b037f000000000000000000000000000000000000000000000000000000000000000016906342d65a8d906115009086908690869060040161571b565b600060405180830381600087803b15801561151a57600080fd5b505af1158015610f23573d6000803e3d6000fd5b6060436115396119a7565b65ffffffffffff161461158e5760405162461bcd60e51b815260206004820152601d60248201527f4552433230566f7465733a2062726f6b656e20636c6f636b206d6f64650000006044820152606401610d6f565b5060408051808201909152601d81527f6d6f64653d626c6f636b6e756d6265722666726f6d3d64656661756c74000000602082015290565b6115d03382612d02565b50565b3330146116315760405162461bcd60e51b815260206004820152602660248201527f4e6f6e626c6f636b696e674c7a4170703a2063616c6c6572206d7573742062656044820152650204c7a4170760d41b6064820152608401610d6f565b6116a78686868080601f01602080910402602001604051908101604052809392919081815260200183838082843760009201919091525050604080516020601f890181900481028201810190925287815289935091508790879081908401838280828437600092019190915250612d8292505050565b505050505050565b6116a7858585856116c36020870187614f60565b6116d36040880160208901614f60565b6116e06040890189615739565b8080601f016020809104026020016040519081016040528093929190818152602001838380828437600092019190915250612e0992505050565b6001600160a01b038116600090815260116020526040812054610f5d90612ef1565b611744612775565b61174e6000612f5a565b565b6001602052600090815260409020805461176990615668565b80601f016020809104026020016040519081016040528092919081815260200182805461179590615668565b80156117e25780601f106117b7576101008083540402835291602001916117e2565b820191906000526020600020905b8154815290600101906020018083116117c557829003601f168201915b505050505081565b61188e8888888888888080601f0160208091040260200160405190810160405280939291908181526020018383808284376000920191909152508a92506118379150506020890189614f60565b61184760408a0160208b01614f60565b61185460408b018b615739565b8080601f016020809104026020016040519081016040528093929190818152602001838380828437600092019190915250612faa92505050565b505050505050505050565b6001600160a01b0381166000908152600e6020526040812054610f5d565b6000606080828080836118eb7f0000000000000000000000000000000000000000000000000000000000000000600c6130a6565b6119167f0000000000000000000000000000000000000000000000000000000000000000600d6130a6565b60408051600080825260208201909252600f60f81b9b939a50919850469750309650945092509050565b600061194a6119a7565b65ffffffffffff16821061199c5760405162461bcd60e51b815260206004820152601960248201527804552433230566f7465733a20667574757265206c6f6f6b757603c1b6044820152606401610d6f565b610f5d601283612c0f565b600061124843613151565b600061124860095490565b6060600b8054610f7290615668565b6001600160a01b0381166000908152601160205260408120548015611a3b576001600160a01b038316600090815260116020526040902080546000198301908110611a1957611a1961577f565b60009182526020909120015464010000000090046001600160e01b0316611a3e565b60005b6001600160e01b03169392505050565b6114a482826131b8565b61ffff8116600090815260016020526040812080546060929190611a7b90615668565b80601f0160208091040260200160405190810160405280929190818152602001828054611aa790615668565b8015611af45780601f10611ac957610100808354040283529160200191611af4565b820191906000526020600020905b815481529060010190602001808311611ad757829003601f168201915b505050505090508051600003611b4c5760405162461bcd60e51b815260206004820152601d60248201527f4c7a4170703a206e6f20747275737465642070617468207265636f72640000006044820152606401610d6f565b61134c600060148351611b5f9190615795565b8391906131c2565b60003381611b75828661232b565b905083811015611bd55760405162461bcd60e51b815260206004820152602560248201527f45524332303a2064656372656173656420616c6c6f77616e63652062656c6f77604482015264207a65726f60d81b6064820152608401610d6f565b61123382868684036127cf565b600080611c5f8b8b8b8b8b8080601f01602080910402602001604051908101604052809392919081815260200183838082843760009201919091525050604080516020601f8d018190048102820181019092528b81528e93508d9250908c908c90819084018382808284376000920191909152506132cf92505050565b91509150995099975050505050505050565b611c79612775565b818130604051602001611c8e939291906157a8565b60408051601f1981840301815291815261ffff8516600090815260016020522090611cb99082615814565b507f8c0400cfe2d1199b1a725c78960bcc2a344d869b80590d0f2bd005db15a572ce838383604051611ced9392919061571b565b60405180910390a1505050565b6013546000906001600160a01b03166393fc9e5f33853360405160e085901b6001600160e01b03191681526001600160a01b03938416600482015291831660248301529091166044820152606401602060405180830381865afa158015611d65573d6000803e3d6000fd5b505050506040513d601f19601f82011682018060405250810190611d8991906156ac565b5061110f3384611d9933866128f3565b61338a565b611da6612775565b600480546001600160a01b0319166001600160a01b0383169081179091556040519081527f5db758e995a17ec1ad84bdef7e8c3293a0bd6179bcce400dff5d4c3d87db726b9060200160405180910390a150565b83421115611e4a5760405162461bcd60e51b815260206004820152601d60248201527f4552433230566f7465733a207369676e617475726520657870697265640000006044820152606401610d6f565b604080517fe48329057bfd03d55e49b547132e39cffd9c1820ad7b9d4c5307691425d15adf60208201526001600160a01b038816918101919091526060810186905260808101859052600090611ec490611ebc9060a00160405160208183030381529060405280519060200120613546565b858585613573565b9050611ecf8161359b565b8614611f1d5760405162461bcd60e51b815260206004820152601960248201527f4552433230566f7465733a20696e76616c6964206e6f6e6365000000000000006044820152606401610d6f565b610f238188612d02565b611f2f612775565b6040516332fb62e760e21b81526001600160a01b037f0000000000000000000000000000000000000000000000000000000000000000169063cbed8b9c90611f8390889088908890889088906004016158d3565b600060405180830381600087803b158015611f9d57600080fd5b505af115801561188e573d6000803e3d6000fd5b61ffff86166000908152600560205260408082209051611fd4908890889061569c565b90815260408051602092819003830190206001600160401b038716600090815292529020549050806120545760405162461bcd60e51b815260206004820152602360248201527f4e6f6e626c6f636b696e674c7a4170703a206e6f2073746f726564206d65737360448201526261676560e81b6064820152608401610d6f565b80838360405161206592919061569c565b6040518091039020146120c45760405162461bcd60e51b815260206004820152602160248201527f4e6f6e626c6f636b696e674c7a4170703a20696e76616c6964207061796c6f616044820152601960fa1b6064820152608401610d6f565b61ffff871660009081526005602052604080822090516120e7908990899061569c565b90815260408051602092819003830181206001600160401b038916600090815290845282902093909355601f8801829004820283018201905286825261217f918991899089908190840183828082843760009201919091525050604080516020601f8a018190048102820181019092528881528a935091508890889081908401838280828437600092019190915250612d8292505050565b7fc264d91f3adc5588250e1551f547752ca0cfa8f6b530d243b9f9f4cab10ea8e587878787856040516121b695949392919061590c565b60405180910390a150505050505050565b834211156122175760405162461bcd60e51b815260206004820152601d60248201527f45524332305065726d69743a206578706972656420646561646c696e650000006044820152606401610d6f565b60007f6e71edae12b1b97f4d1f60370fef10105fa2faae0126114a169c64845d6126c98888886122468c61359b565b6040805160208101969096526001600160a01b0394851690860152929091166060840152608083015260a082015260c0810186905260e00160405160208183030381529060405280519060200120905060006122a182613546565b905060006122b182878787613573565b9050896001600160a01b0316816001600160a01b0316146123145760405162461bcd60e51b815260206004820152601e60248201527f45524332305065726d69743a20696e76616c6964207369676e617475726500006044820152606401610d6f565b61231f8a8a8a6127cf565b50505050505050505050565b6001600160a01b03918216600090815260086020908152604080832093909416825291909152205490565b61235e612775565b61ffff83811660008181526002602090815260408083209487168084529482529182902085905581519283528201929092529081018290527f9d5c7c0b934da8fefa9c7760c98383778a12dfbfc0c3b3106518f43fb9508ac090606001611ced565b33301461240f5760405162461bcd60e51b815260206004820152601f60248201527f4f4654436f72653a2063616c6c6572206d757374206265204f4654436f7265006044820152606401610d6f565b61241a30868661299e565b9350846001600160a01b03168a61ffff167fbf551ec93859b170f9b2141bd9298bf3f64322c6f7beb2543a0cb669834118bf8660405161245c91815260200190565b60405180910390a3604051633fe79aed60e11b81526001600160a01b03861690637fcf35da9083906124a0908e908e908e908e908e908d908d908d90600401615947565b600060405180830381600088803b1580156124ba57600080fd5b5087f11580156124ce573d6000803e3d6000fd5b505050505050505050505050505050565b6124e7612775565b61ffff831660009081526001602052604090206125058284836159a2565b507ffa41487ad5d6728f0b19276fa1eddc16558578f5109fc39d2dc33c3230470dab838383604051611ced9392919061571b565b60408051808201909152600080825260208201526001600160a01b0383166000908152601160205260409020805463ffffffff841690811061257d5761257d61577f565b60009182526020918290206040805180820190915291015463ffffffff8116825264010000000090046001600160e01b0316918101919091529392505050565b6125c5612775565b6001600160a01b03811661262a5760405162461bcd60e51b815260206004820152602660248201527f4f776e61626c653a206e6577206f776e657220697320746865207a65726f206160448201526564647265737360d01b6064820152608401610d6f565b6115d081612f5a565b604051633d7b2f6f60e21b815261ffff808616600483015284166024820152306044820152606481018290526060907f00000000000000000000000000000000000000000000000000000000000000006001600160a01b03169063f5ecbdbc90608401600060405180830381865afa1580156126b3573d6000803e3d6000fd5b505050506040513d6000823e601f3d908101601f191682016040526126db9190810190615a61565b95945050505050565b600061134c82846156df565b600061134c8284615795565b60008061275f5a60966366ad5c8a60e01b898989896040516024016127249493929190615ace565b60408051601f198184030181529190526020810180516001600160e01b03166001600160e01b031990931692909217909152309291906135c3565b91509150816116a7576116a7868686868561364f565b6000546001600160a01b0316331461174e5760405162461bcd60e51b815260206004820181905260248201527f4f776e61626c653a2063616c6c6572206973206e6f7420746865206f776e65726044820152606401610d6f565b6001600160a01b0383166128315760405162461bcd60e51b8152602060048201526024808201527f45524332303a20617070726f76652066726f6d20746865207a65726f206164646044820152637265737360e01b6064820152608401610d6f565b6001600160a01b0382166128925760405162461bcd60e51b815260206004820152602260248201527f45524332303a20617070726f766520746f20746865207a65726f206164647265604482015261737360f01b6064820152608401610d6f565b6001600160a01b0383811660008181526008602090815260408083209487168084529482529182902085905590518481527f8c5be1e5ebec7d5bd14f71427d1e84f3dd0314c0f7b2291e5b200ac8c7c3b925910160405180910390a3505050565b60135460405163b7c4a6bf60e01b81526001600160a01b03848116600483015260248201849052600092839291169063b7c4a6bf90604401602060405180830381865afa158015612948573d6000803e3d6000fd5b505050506040513d601f19601f8201168201806040525081019061296c9190615b0c565b905060008111801561297d57508281105b1561298c5761298c84826131b8565b61299683826126f0565b949350505050565b600033306001600160a01b038616148015906129cc5750806001600160a01b0316856001600160a01b031614155b156129dc576129dc8582856136ec565b6129e785858561338a565b50909392505050565b6000306001600160a01b037f000000000000000000000000000000000000000000000000000000000000000016148015612a4957507f000000000000000000000000000000000000000000000000000000000000000046145b15612a7357507f000000000000000000000000000000000000000000000000000000000000000090565b611248604080517f8b73c3c69bb8fe3d512ecc4cf759cc79239f7b179b0ffacaa9a75d522b39400f60208201527f0000000000000000000000000000000000000000000000000000000000000000918101919091527f000000000000000000000000000000000000000000000000000000000000000060608201524660808201523060a082015260009060c00160405160208183030381529060405280519060200120905090565b6000806000612b6987612b2d88613760565b6040805160006020820152602181019390935260c09190911b6001600160c01b0319166041830152805160298184030181526049909201905290565b60405163040a7bb160e41b81529091506001600160a01b037f000000000000000000000000000000000000000000000000000000000000000016906340a7bb1090612bc0908b90309086908b908b90600401615b25565b6040805180830381865afa158015612bdc573d6000803e3d6000fd5b505050506040513d601f19601f82011682018060405250810190612c009190615b79565b92509250509550959350505050565b815460009081816005811115612c69576000612c2a846137e6565b612c349085615795565b600088815260209020909150869082015463ffffffff161115612c5957809150612c67565b612c648160016156df565b92505b505b80821015612cb6576000612c7d83836138ce565b600088815260209020909150869082015463ffffffff161115612ca257809150612cb0565b612cad8160016156df565b92505b50612c69565b8015612ce2576000868152602090208101600019015464010000000090046001600160e01b0316612ce5565b60005b6001600160e01b03169695505050505050565b6114a482826138e9565b6001600160a01b03828116600081815260106020818152604080842080546007845282862054949093528787166001600160a01b03198416811790915590519190951694919391928592917f3134e8a2e6d97e929a7e54011ea5485d7d196dd5f0ba4d4ef95803e8e3fc257f9190a4612d7c828483613973565b50505050565b6000612d8e8282613ab1565b905060ff8116612da957612da485858585613b0d565b611077565b60001960ff821601612dc157612da485858585613b9d565b60405162461bcd60e51b815260206004820152601c60248201527f4f4654436f72653a20756e6b6e6f776e207061636b65742074797065000000006044820152606401610d6f565b6000612e1787828481613dab565b612e2085613e80565b509050612e2f88888884613ec0565b905060008111612e7d5760405162461bcd60e51b815260206004820152601960248201527813d19510dbdc994e88185b5bdd5b9d081d1bdbc81cdb585b1b603a1b6044820152606401610d6f565b6000612e8c87612b2d84613760565b9050612e9c888287878734613ef2565b86896001600160a01b03168961ffff167fd81fc9b8523134ed613870ed029d6170cbb73aa6a6bc311b9a642689fb9df59a85604051612edd91815260200190565b60405180910390a450979650505050505050565b600063ffffffff821115612f565760405162461bcd60e51b815260206004820152602660248201527f53616665436173743a2076616c756520646f65736e27742066697420696e203360448201526532206269747360d01b6064820152608401610d6f565b5090565b600080546001600160a01b038381166001600160a01b0319831681178455604051919092169283917f8be0079c531659141344cd1fd0a4f28419497f9722a3daafe3b4186f6b6457e09190a35050565b6000612fc2896001846001600160401b038916613dab565b612fcb87613e80565b509050612fda8a8a8a84613ec0565b9050600081116130285760405162461bcd60e51b815260206004820152601960248201527813d19510dbdc994e88185b5bdd5b9d081d1bdbc81cdb585b1b603a1b6044820152606401610d6f565b600061303f338a61303885613760565b8a8a614097565b905061304f8a8287878734613ef2565b888b6001600160a01b03168b61ffff167fd81fc9b8523134ed613870ed029d6170cbb73aa6a6bc311b9a642689fb9df59a8560405161309091815260200190565b60405180910390a4509998505050505050505050565b606060ff83146130c0576130b9836140d8565b9050610f5d565b8180546130cc90615668565b80601f01602080910402602001604051908101604052809291908181526020018280546130f890615668565b80156131455780601f1061311a57610100808354040283529160200191613145565b820191906000526020600020905b81548152906001019060200180831161312857829003601f168201915b50505050509050610f5d565b600065ffffffffffff821115612f565760405162461bcd60e51b815260206004820152602660248201527f53616665436173743a2076616c756520646f65736e27742066697420696e203460448201526538206269747360d01b6064820152608401610d6f565b6114a48282614117565b6060816131d081601f6156df565b101561320f5760405162461bcd60e51b815260206004820152600e60248201526d736c6963655f6f766572666c6f7760901b6044820152606401610d6f565b61321982846156df565b8451101561325d5760405162461bcd60e51b8152602060048201526011602482015270736c6963655f6f75744f66426f756e647360781b6044820152606401610d6f565b60608215801561327c57604051915060008252602082016040526132c6565b6040519150601f8416801560200281840101858101878315602002848b0101015b818310156132b557805183526020928301920161329d565b5050858452601f01601f1916604052505b50949350505050565b60008060006132e2338a6130388b613760565b60405163040a7bb160e41b81529091506001600160a01b037f000000000000000000000000000000000000000000000000000000000000000016906340a7bb1090613339908d90309086908b908b90600401615b25565b6040805180830381865afa158015613355573d6000803e3d6000fd5b505050506040513d601f19601f820116820180604052508101906133799190615b79565b925092505097509795505050505050565b6001600160a01b0383166133ee5760405162461bcd60e51b815260206004820152602560248201527f45524332303a207472616e736665722066726f6d20746865207a65726f206164604482015264647265737360d81b6064820152608401610d6f565b6001600160a01b0382166134505760405162461bcd60e51b815260206004820152602360248201527f45524332303a207472616e7366657220746f20746865207a65726f206164647260448201526265737360e81b6064820152608401610d6f565b61345b83838361412f565b6001600160a01b038316600090815260076020526040902054818110156134d35760405162461bcd60e51b815260206004820152602660248201527f45524332303a207472616e7366657220616d6f756e7420657863656564732062604482015265616c616e636560d01b6064820152608401610d6f565b6001600160a01b0380851660008181526007602052604080822086860390559286168082529083902080548601905591517fddf252ad1be2c89b69c2b068fc378daa952ba7f163c4a11628f55a4df523b3ef906135339086815260200190565b60405180910390a3612d7c8484846141a6565b6000610f5d6135536129f0565b8360405161190160f01b8152600281019290925260228201526042902090565b6000806000613584878787876141d0565b9150915061359181614291565b5095945050505050565b6001600160a01b0381166000908152600e602052604090208054600181018255905b50919050565b6000606060008060008661ffff166001600160401b038111156135e8576135e8614f7d565b6040519080825280601f01601f191660200182016040528015613612576020820181803683370190505b50905060008087516020890160008d8df191503d925086831115613634578692505b828152826000602083013e9093509150505b94509492505050565b8180519060200120600560008761ffff1661ffff168152602001908152602001600020856040516136809190615b9d565b9081526040805191829003602090810183206001600160401b0388166000908152915220919091557fe183f33de2837795525b4792ca4cd60535bd77c53b7e7030060bfcf5734d6b0c906136dd9087908790879087908790615bb9565b60405180910390a15050505050565b60006136f8848461232b565b90506000198114612d7c57818110156137535760405162461bcd60e51b815260206004820152601d60248201527f45524332303a20696e73756666696369656e7420616c6c6f77616e63650000006044820152606401610d6f565b612d7c84848484036127cf565b60008061378d7f000000000000000000000000000000000000000000000000000000000000000084615c21565b90506001600160401b03811115610f5d5760405162461bcd60e51b815260206004820152601a60248201527f4f4654436f72653a20616d6f756e745344206f766572666c6f770000000000006044820152606401610d6f565b6000816000036137f857506000919050565b60006001613805846143db565b901c6001901b9050600181848161381e5761381e615c0b565b048201901c9050600181848161383657613836615c0b565b048201901c9050600181848161384e5761384e615c0b565b048201901c9050600181848161386657613866615c0b565b048201901c9050600181848161387e5761387e615c0b565b048201901c9050600181848161389657613896615c0b565b048201901c905060018184816138ae576138ae615c0b565b048201901c905061134c818285816138c8576138c8615c0b565b0461446f565b60006138dd6002848418615c21565b61134c908484166156df565b6138f38282614485565b6009546001600160e01b0310156139655760405162461bcd60e51b815260206004820152603060248201527f4552433230566f7465733a20746f74616c20737570706c79207269736b73206f60448201526f766572666c6f77696e6720766f74657360801b6064820152608401610d6f565b612d7c60126126e48361455a565b816001600160a01b0316836001600160a01b0316141580156139955750600081115b15613aac576001600160a01b03831615613a23576001600160a01b038316600090815260116020526040812081906139d0906126f08561455a565b91509150846001600160a01b03167fdec2bacdd2f05b59de34da9b523dff8be42e5e38e818c82fdb0bae774387a7248383604051613a18929190918252602082015260400190565b60405180910390a250505b6001600160a01b03821615613aac576001600160a01b03821660009081526011602052604081208190613a59906126e48561455a565b91509150836001600160a01b03167fdec2bacdd2f05b59de34da9b523dff8be42e5e38e818c82fdb0bae774387a7248383604051613aa1929190918252602082015260400190565b60405180910390a250505b505050565b6000613abe8260016156df565b83511015613b045760405162461bcd60e51b8152602060048201526013602482015272746f55696e74385f6f75744f66426f756e647360681b6044820152606401610d6f565b50016001015190565b600080613b19836146cf565b90925090506001600160a01b038216613b325761dead91505b6000613b3d82614754565b9050613b4a878483614789565b9050826001600160a01b03168761ffff167fbf551ec93859b170f9b2141bd9298bf3f64322c6f7beb2543a0cb669834118bf83604051613b8c91815260200190565b60405180910390a350505050505050565b6000806000806000613bae8661479c565b945094509450945094506000600660008b61ffff1661ffff16815260200190815260200160002089604051613be39190615b9d565b90815260408051602092819003830190206001600160401b038b166000908152925281205460ff169150613c1685614754565b905081613c8457613c288b3083614789565b61ffff8c16600090815260066020526040908190209051919250600191613c50908d90615b9d565b90815260408051602092819003830190206001600160401b038d16600090815292529020805460ff19169115159190911790555b6001600160a01b0386163b613cdb576040516001600160a01b03871681527f9aedf5fdba8716db3b6705ca00150643309995d4f818a249ed6dde6677e7792d9060200160405180910390a150505050505050612d7c565b8a8a8a8a8a8a868a60008a613cf9578b6001600160401b0316613cfb565b5a5b9050600080613d2d5a609663eaffd49a60e01b8e8e8e8d8d8d8d8d604051602401612724989796959493929190615c35565b915091508115613d86578751602089012060405161ffff8d16907fb8890edbfc1c74692f527444645f95489c3703cc2df42e4a366f5d06fa6cd88490613d78908e908e908690615ca9565b60405180910390a250613d93565b613d938b8b8b8b8561364f565b50505050505050505050505050505050505050505050565b6000613db683614853565b61ffff80871660009081526002602090815260408083209389168352929052205490915080613e275760405162461bcd60e51b815260206004820152601a60248201527f4c7a4170703a206d696e4761734c696d6974206e6f74207365740000000000006044820152606401610d6f565b613e3183826156df565b8210156116a75760405162461bcd60e51b815260206004820152601b60248201527f4c7a4170703a20676173206c696d697420697320746f6f206c6f7700000000006044820152606401610d6f565b600080613ead7f000000000000000000000000000000000000000000000000000000000000000084615cd7565b9050613eb98184615795565b9150915091565b6000336001600160a01b0386168114613ede57613ede8682856136ec565b613ee886846131b8565b5090949350505050565b61ffff861660009081526001602052604081208054613f1090615668565b80601f0160208091040260200160405190810160405280929190818152602001828054613f3c90615668565b8015613f895780601f10613f5e57610100808354040283529160200191613f89565b820191906000526020600020905b815481529060010190602001808311613f6c57829003601f168201915b505050505090508051600003613ffa5760405162461bcd60e51b815260206004820152603060248201527f4c7a4170703a2064657374696e6174696f6e20636861696e206973206e6f742060448201526f61207472757374656420736f7572636560801b6064820152608401610d6f565b6140058787516148af565b60405162c5803160e81b81526001600160a01b037f0000000000000000000000000000000000000000000000000000000000000000169063c580310090849061405c908b9086908c908c908c908c90600401615ceb565b6000604051808303818588803b15801561407557600080fd5b505af1158015614089573d6000803e3d6000fd5b505050505050505050505050565b6060600185856001600160a01b03891685876040516020016140be96959493929190615d52565b604051602081830303815290604052905095945050505050565b606060006140e583614920565b604080516020808252818301909252919250600091906020820181803683375050509182525060208101929092525090565b6141218282614948565b612d7c60126126f08361455a565b6001600160a01b038316613aac576b019d971e4fe8401e740000008160145461415891906156df565b1115613aac5760405162461bcd60e51b815260206004820152601960248201527f45524332304361707065643a20636170206578636565646564000000000000006044820152606401610d6f565b6001600160a01b0383166141c5576014546141c190826126e4565b6014555b613aac838383614a8f565b6000807f7fffffffffffffffffffffffffffffff5d576e7357a4501ddfe92f46681b20a08311156142075750600090506003613646565b6040805160008082526020820180845289905260ff881692820192909252606081018690526080810185905260019060a0016020604051602081039080840390855afa15801561425b573d6000803e3d6000fd5b5050604051601f1901519150506001600160a01b03811661428457600060019250925050613646565b9660009650945050505050565b60008160048111156142a5576142a5615db3565b036142ad5750565b60018160048111156142c1576142c1615db3565b0361430e5760405162461bcd60e51b815260206004820152601860248201527f45434453413a20696e76616c6964207369676e617475726500000000000000006044820152606401610d6f565b600281600481111561432257614322615db3565b0361436f5760405162461bcd60e51b815260206004820152601f60248201527f45434453413a20696e76616c6964207369676e6174757265206c656e677468006044820152606401610d6f565b600381600481111561438357614383615db3565b036115d05760405162461bcd60e51b815260206004820152602260248201527f45434453413a20696e76616c6964207369676e6174757265202773272076616c604482015261756560f01b6064820152608401610d6f565b600080608083901c156143f057608092831c92015b604083901c1561440257604092831c92015b602083901c1561441457602092831c92015b601083901c1561442657601092831c92015b600883901c1561443857600892831c92015b600483901c1561444a57600492831c92015b600283901c1561445c57600292831c92015b600183901c15610f5d5760010192915050565b600081831061447e578161134c565b5090919050565b6001600160a01b0382166144db5760405162461bcd60e51b815260206004820152601f60248201527f45524332303a206d696e7420746f20746865207a65726f2061646472657373006044820152606401610d6f565b6144e76000838361412f565b80600960008282546144f991906156df565b90915550506001600160a01b0382166000818152600760209081526040808320805486019055518481527fddf252ad1be2c89b69c2b068fc378daa952ba7f163c4a11628f55a4df523b3ef910160405180910390a36114a4600083836141a6565b825460009081908181156145a75760008781526020902082016000190160408051808201909152905463ffffffff8116825264010000000090046001600160e01b031660208201526145bc565b60408051808201909152600080825260208201525b905080602001516001600160e01b031693506145dc84868863ffffffff16565b925060008211801561460657506145f16119a7565b65ffffffffffff16816000015163ffffffff16145b1561464b5761461483614ac1565b60008881526020902083016000190180546001600160e01b03929092166401000000000263ffffffff9092169190911790556146c5565b86604051806040016040528061466f6146626119a7565b65ffffffffffff16612ef1565b63ffffffff16815260200161468386614ac1565b6001600160e01b0390811690915282546001810184556000938452602093849020835194909301519091166401000000000263ffffffff909316929092179101555b5050935093915050565b600080806146dd8482613ab1565b60ff161480156146ee575082516029145b6147355760405162461bcd60e51b815260206004820152601860248201527713d19510dbdc994e881a5b9d985b1a59081c185e5b1bd85960421b6044820152606401610d6f565b61474083600d614b2a565b915061474d836021614b8f565b9050915091565b6000610f5d7f00000000000000000000000000000000000000000000000000000000000000006001600160401b038416615dc9565b60006147958383612cf8565b5092915050565b6000808060608160016147af8783613ab1565b60ff16146147fa5760405162461bcd60e51b815260206004820152601860248201527713d19510dbdc994e881a5b9d985b1a59081c185e5b1bd85960421b6044820152606401610d6f565b61480586600d614b2a565b9350614812866021614b8f565b925061481f866029614bec565b945061482c866049614b8f565b905061484860518088516148409190615795565b8891906131c2565b915091939590929450565b60006022825110156148a75760405162461bcd60e51b815260206004820152601c60248201527f4c7a4170703a20696e76616c69642061646170746572506172616d73000000006044820152606401610d6f565b506022015190565b61ffff8216600090815260036020526040812054908190036148d057506127105b80821115613aac5760405162461bcd60e51b815260206004820181905260248201527f4c7a4170703a207061796c6f61642073697a6520697320746f6f206c617267656044820152606401610d6f565b600060ff8216601f811115610f5d57604051632cd44ac360e21b815260040160405180910390fd5b6001600160a01b0382166149a85760405162461bcd60e51b815260206004820152602160248201527f45524332303a206275726e2066726f6d20746865207a65726f206164647265736044820152607360f81b6064820152608401610d6f565b6149b48260008361412f565b6001600160a01b03821660009081526007602052604090205481811015614a285760405162461bcd60e51b815260206004820152602260248201527f45524332303a206275726e20616d6f756e7420657863656564732062616c616e604482015261636560f01b6064820152608401610d6f565b6001600160a01b03831660008181526007602090815260408083208686039055600980548790039055518581529192917fddf252ad1be2c89b69c2b068fc378daa952ba7f163c4a11628f55a4df523b3ef910160405180910390a3613aac836000846141a6565b6001600160a01b03838116600090815260106020526040808220548584168352912054613aac92918216911683613973565b60006001600160e01b03821115612f565760405162461bcd60e51b815260206004820152602760248201527f53616665436173743a2076616c756520646f65736e27742066697420696e20326044820152663234206269747360c81b6064820152608401610d6f565b6000614b378260146156df565b83511015614b7f5760405162461bcd60e51b8152602060048201526015602482015274746f416464726573735f6f75744f66426f756e647360581b6044820152606401610d6f565b500160200151600160601b900490565b6000614b9c8260086156df565b83511015614be35760405162461bcd60e51b8152602060048201526014602482015273746f55696e7436345f6f75744f66426f756e647360601b6044820152606401610d6f565b50016008015190565b6000614bf98260206156df565b83511015614c415760405162461bcd60e51b8152602060048201526015602482015274746f427974657333325f6f75744f66426f756e647360581b6044820152606401610d6f565b50016020015190565b803561ffff81168114614c5c57600080fd5b919050565b60008083601f840112614c7357600080fd5b5081356001600160401b03811115614c8a57600080fd5b602083019150836020828501011115614ca257600080fd5b9250929050565b80356001600160401b0381168114614c5c57600080fd5b60008060008060008060808789031215614cd957600080fd5b614ce287614c4a565b955060208701356001600160401b0380821115614cfe57600080fd5b614d0a8a838b01614c61565b9097509550859150614d1e60408a01614ca9565b94506060890135915080821115614d3457600080fd5b50614d4189828a01614c61565b979a9699509497509295939492505050565b600060208284031215614d6557600080fd5b81356001600160e01b03198116811461134c57600080fd5b60005b83811015614d98578181015183820152602001614d80565b50506000910152565b60008151808452614db9816020860160208601614d7d565b601f01601f19169290920160200192915050565b60208152600061134c6020830184614da1565b600060208284031215614df257600080fd5b61134c82614c4a565b6001600160a01b03811681146115d057600080fd5b60008060408385031215614e2357600080fd5b8235614e2e81614dfb565b946020939093013593505050565b60008060408385031215614e4f57600080fd5b614e2e83614c4a565b600080600060608486031215614e6d57600080fd5b8335614e7881614dfb565b92506020840135614e8881614dfb565b929592945050506040919091013590565b80151581146115d057600080fd5b60008060008060008060a08789031215614ec057600080fd5b614ec987614c4a565b955060208701359450604087013593506060870135614ee781614e99565b925060808701356001600160401b03811115614f0257600080fd5b614d4189828a01614c61565b600080600060408486031215614f2357600080fd5b614f2c84614c4a565b925060208401356001600160401b03811115614f4757600080fd5b614f5386828701614c61565b9497909650939450505050565b600060208284031215614f7257600080fd5b813561134c81614dfb565b634e487b7160e01b600052604160045260246000fd5b604051601f8201601f191681016001600160401b0381118282101715614fbb57614fbb614f7d565b604052919050565b60006001600160401b03821115614fdc57614fdc614f7d565b50601f01601f191660200190565b600080600060608486031215614fff57600080fd5b61500884614c4a565b925060208401356001600160401b0381111561502357600080fd5b8401601f8101861361503457600080fd5b803561504761504282614fc3565b614f93565b81815287602083850101111561505c57600080fd5b8160208401602083013760006020838301015280945050505061508160408501614ca9565b90509250925092565b6000606082840312156135bd57600080fd5b600080600080600060a086880312156150b457600080fd5b85356150bf81614dfb565b94506150cd60208701614c4a565b9350604086013592506060860135915060808601356001600160401b038111156150f657600080fd5b6151028882890161508a565b9150509295509295909350565b60008060008060008060008060e0898b03121561512b57600080fd5b883561513681614dfb565b975061514460208a01614c4a565b9650604089013595506060890135945060808901356001600160401b038082111561516e57600080fd5b61517a8c838d01614c61565b909650945084915061518e60a08c01614ca9565b935060c08b01359150808211156151a457600080fd5b506151b18b828c0161508a565b9150509295985092959890939650565b60ff60f81b881681526000602060e0818401526151e160e084018a614da1565b83810360408501526151f3818a614da1565b606085018990526001600160a01b038816608086015260a0850187905284810360c0860152855180825283870192509083019060005b8181101561524557835183529284019291840191600101615229565b50909c9b505050505050505050505050565b6000806040838503121561526a57600080fd5b61527383614c4a565b915061528160208401614c4a565b90509250929050565b60006020828403121561529c57600080fd5b5035919050565b600080600080600080600080600060e08a8c0312156152c157600080fd5b6152ca8a614c4a565b985060208a0135975060408a0135965060608a01356001600160401b03808211156152f457600080fd5b6153008d838e01614c61565b909850965086915061531460808d01614ca9565b955060a08c0135915061532682614e99565b90935060c08b0135908082111561533c57600080fd5b506153498c828d01614c61565b915080935050809150509295985092959850929598565b803560ff81168114614c5c57600080fd5b60008060008060008060c0878903121561538a57600080fd5b863561539581614dfb565b955060208701359450604087013593506153b160608801615360565b92506080870135915060a087013590509295509295509295565b6000806000806000608086880312156153e357600080fd5b6153ec86614c4a565b94506153fa60208701614c4a565b93506040860135925060608601356001600160401b0381111561541c57600080fd5b61542888828901614c61565b969995985093965092949392505050565b600080600080600080600060e0888a03121561545457600080fd5b873561545f81614dfb565b9650602088013561546f81614dfb565b9550604088013594506060880135935061548b60808901615360565b925060a0880135915060c0880135905092959891949750929550565b600080604083850312156154ba57600080fd5b82356154c581614dfb565b915060208301356154d581614dfb565b809150509250929050565b6000806000606084860312156154f557600080fd5b6154fe84614c4a565b925061550c60208501614c4a565b9150604084013590509250925092565b6000806000806000806000806000806101008b8d03121561553c57600080fd5b6155458b614c4a565b995060208b01356001600160401b038082111561556157600080fd5b61556d8e838f01614c61565b909b50995089915061558160408e01614ca9565b985060608d0135975060808d0135915061559a82614dfb565b90955060a08c0135945060c08c013590808211156155b757600080fd5b506155c48d828e01614c61565b9150809450508092505060e08b013590509295989b9194979a5092959850565b600080604083850312156155f757600080fd5b823561560281614dfb565b9150602083013563ffffffff811681146154d557600080fd5b6000806000806080858703121561563157600080fd5b61563a85614c4a565b935061564860208601614c4a565b9250604085013561565881614dfb565b9396929550929360600135925050565b600181811c9082168061567c57607f821691505b6020821081036135bd57634e487b7160e01b600052602260045260246000fd5b8183823760009101908152919050565b6000602082840312156156be57600080fd5b815161134c81614e99565b634e487b7160e01b600052601160045260246000fd5b80820180821115610f5d57610f5d6156c9565b81835281816020850137506000828201602090810191909152601f909101601f19169091010190565b61ffff841681526040602082015260006126db6040830184866156f2565b6000808335601e1984360301811261575057600080fd5b8301803591506001600160401b0382111561576a57600080fd5b602001915036819003821315614ca257600080fd5b634e487b7160e01b600052603260045260246000fd5b81810381811115610f5d57610f5d6156c9565b8284823760609190911b6bffffffffffffffffffffffff19169101908152601401919050565b601f821115613aac57600081815260208120601f850160051c810160208610156157f55750805b601f850160051c820191505b818110156116a757828155600101615801565b81516001600160401b0381111561582d5761582d614f7d565b6158418161583b8454615668565b846157ce565b602080601f831160018114615876576000841561585e5750858301515b600019600386901b1c1916600185901b1785556116a7565b600085815260208120601f198616915b828110156158a557888601518255948401946001909101908401615886565b50858210156158c35787850151600019600388901b60f8161c191681555b5050505050600190811b01905550565b600061ffff8088168352808716602084015250846040830152608060608301526159016080830184866156f2565b979650505050505050565b61ffff8616815260806020820152600061592a6080830186886156f2565b6001600160401b0394909416604083015250606001529392505050565b61ffff8916815260c06020820152600061596560c08301898b6156f2565b6001600160401b038816604084015286606084015285608084015282810360a08401526159938185876156f2565b9b9a5050505050505050505050565b6001600160401b038311156159b9576159b9614f7d565b6159cd836159c78354615668565b836157ce565b6000601f841160018114615a0157600085156159e95750838201355b600019600387901b1c1916600186901b178355611077565b600083815260209020601f19861690835b82811015615a325786850135825560209485019460019092019101615a12565b5086821015615a4f5760001960f88860031b161c19848701351681555b505060018560011b0183555050505050565b600060208284031215615a7357600080fd5b81516001600160401b03811115615a8957600080fd5b8201601f81018413615a9a57600080fd5b8051615aa861504282614fc3565b818152856020838501011115615abd57600080fd5b6126db826020830160208601614d7d565b61ffff85168152608060208201526000615aeb6080830186614da1565b6001600160401b038516604084015282810360608401526159018185614da1565b600060208284031215615b1e57600080fd5b5051919050565b61ffff861681526001600160a01b038516602082015260a060408201819052600090615b5390830186614da1565b84151560608401528281036080840152615b6d8185614da1565b98975050505050505050565b60008060408385031215615b8c57600080fd5b505080516020909101519092909150565b60008251615baf818460208701614d7d565b9190910192915050565b61ffff8616815260a060208201526000615bd660a0830187614da1565b6001600160401b03861660408401528281036060840152615bf78186614da1565b90508281036080840152615b6d8185614da1565b634e487b7160e01b600052601260045260246000fd5b600082615c3057615c30615c0b565b500490565b600061010061ffff8b168352806020840152615c538184018b614da1565b6001600160401b038a166040850152606084018990526001600160a01b038816608085015260a0840187905283810360c08501529050615c938186614da1565b9150508260e08301529998505050505050505050565b606081526000615cbc6060830186614da1565b6001600160401b039490941660208301525060400152919050565b600082615ce657615ce6615c0b565b500690565b61ffff8716815260c060208201526000615d0860c0830188614da1565b8281036040840152615d1a8188614da1565b6001600160a01b0387811660608601528616608085015283810360a08501529050615d458185614da1565b9998505050505050505050565b60ff60f81b8760f81b16815285600182015260006001600160401b0360c01b808760c01b166021840152856029840152808560c01b166049840152508251615da1816051850160208701614d7d565b91909101605101979650505050505050565b634e487b7160e01b600052602160045260246000fd5b8082028115828204841417610f5d57610f5d6156c956fea2646970667358221220fc5394963a0f96727276d59d4de0c78f5b14a805f2ec7609a5077ac0ae5877eb64736f6c63430008140033dec2bacdd2f05b59de34da9b523dff8be42e5e38e818c82fdb0bae774387a724",
  "devdoc": {
    "events": {
      "Approval(address,address,uint256)": {
        "details": "Emitted when the allowance of a `spender` for an `owner` is set by a call to {approve}. `value` is the new allowance."
      },
      "DelegateChanged(address,address,address)": {
        "details": "Emitted when an account changes their delegate."
      },
      "DelegateVotesChanged(address,uint256,uint256)": {
        "details": "Emitted when a token transfer or delegate change results in changes to a delegate's number of votes."
      },
      "EIP712DomainChanged()": {
        "details": "MAY be emitted to signal that the domain could have changed."
      },
      "ReceiveFromChain(uint16,address,uint256)": {
        "details": "Emitted when `_amount` tokens are received from `_srcChainId` into the `_toAddress` on the local chain. `_nonce` is the inbound nonce."
      },
      "SendToChain(uint16,address,bytes32,uint256)": {
        "details": "Emitted when `_amount` tokens are moved from the `_sender` to (`_dstChainId`, `_toAddress`) `_nonce` is the outbound nonce"
      },
      "Transfer(address,address,uint256)": {
        "details": "Emitted when `value` tokens are moved from one account (`from`) to another (`to`). Note that `value` may be zero."
      }
    },
    "kind": "dev",
    "methods": {
      "CLOCK_MODE()": {
        "details": "Description of the clock"
      },
      "DOMAIN_SEPARATOR()": {
        "details": "Returns the domain separator used in the encoding of the signature for {permit}, as defined by {EIP712}."
      },
      "allowance(address,address)": {
        "details": "See {IERC20-allowance}."
      },
      "approve(address,uint256)": {
        "details": "Public function to approve another account to spend tokens on behalf of the message sender. This function overrides the standard `approve` function of the ERC20 token standard. It allows a token holder to grant permission to another account (referred to as the spender) to transfer up to a specified number of tokens on their behalf. The function includes an additional security feature using the `mproRoleManager` to check whether the approval is allowed. This could be based on additional business logic or restrictions defined in the role manager contract. After the custom check, the function calls the internal `_approve` function of the ERC20 contract to handle the actual approval mechanism, updating the allowance set for the spender.",
        "params": {
          "_spender": "The address which is being granted permission to spend tokens on behalf of the                 message sender.",
          "_value": "The maximum number of tokens the spender is allowed to transfer."
        },
        "returns": {
          "_0": "A boolean value indicating whether the operation was successful."
        }
      },
      "balanceOf(address)": {
        "details": "See {IERC20-balanceOf}."
      },
      "burn(address,uint256)": {
        "details": "External function to burn tokens. This function provides an external interface to burn tokens from a specified account. It is accessible externally and allows for tokens to be burned, reducing the total supply in circulation. The function does not include specific access control checks, meaning any external caller can potentially invoke it, subject to the contract's overall design and security model. The `virtual` keyword indicates that this function can be overridden in derived contracts, allowing for customization of the burning process or the introduction of additional logic, such as access control restrictions or pre-burn validations. The actual burning of tokens is delegated to the internal `_burn` function, which encapsulates the logic for removing tokens from an account's balance and updating the total supply. This separation of concerns allows the `_burn` function to handle the core logic, while the external `burn` function can be adapted or extended in derived contracts.",
        "params": {
          "account": "The address from which the tokens will be burned.",
          "amount": "The amount of tokens to be burned from the specified account."
        }
      },
      "checkpoints(address,uint32)": {
        "details": "Get the `pos`-th checkpoint for `account`."
      },
      "circulatingSupply()": {
        "details": "returns the circulating amount of tokens on current chain"
      },
      "clock()": {
        "details": "Clock used for flagging checkpoints. Can be overridden to implement timestamp based checkpoints (and voting)."
      },
      "constructor": {
        "details": "Constructor to initialize the contract with specific parameters. This constructor initializes the contract with a name, symbol, and several key addresses relevant to its operation. It also handles the preminting of tokens to a list of addresses. The constructor performs the following operations: - Inherits from OFTV2 and ERC20Permit by passing `_name`, `_symbol`, and other parameters   to these base contracts. - Loops through the `premintAddresses` array, minting tokens in the amounts specified in   `premintValues` to each address. This is used to distribute an initial supply of tokens. - Sets the `mproRoleManager` by casting the `_mproRoleManager` address to the   IMPRORoleManager interface, which is expected to manage role-based access in the contract. - Sets the `mproMasterDistributor` by casting the `_mproMasterDistributor` address to the   IJAKANTMasterDistributor interface, which is expected to handle distribution-related logic. The `_lzEndpoint` parameter is specific to the OFTV2 initialization and is related to LayerZero endpoint configurations. This constructor is critical for setting up the initial state of the contract, including roles, token distribution, and other essential configurations.",
        "params": {
          "_lzEndpoint": "Address for the LayerZero endpoint, used in OFTV2 initialization.",
          "_mproMasterDistributor": "Address of the contract managing token distributions.",
          "_name": "The name of the token.",
          "_symbol": "The symbol of the token.",
          "premintAddresses": "Array of addresses that will receive the preminted tokens.",
          "premintValues": "Array of token amounts corresponding to each premint address."
        }
      },
      "decimals()": {
        "details": "Returns the number of decimals used to get its user representation. For example, if `decimals` equals `2`, a balance of `505` tokens should be displayed to a user as `5.05` (`505 / 10 ** 2`). Tokens usually opt for a value of 18, imitating the relationship between Ether and Wei. This is the default value returned by this function, unless it's overridden. NOTE: This information is only used for _display_ purposes: it in no way affects any of the arithmetic of the contract, including {IERC20-balanceOf} and {IERC20-transfer}."
      },
      "decreaseAllowance(address,uint256)": {
        "details": "Atomically decreases the allowance granted to `spender` by the caller. This is an alternative to {approve} that can be used as a mitigation for problems described in {IERC20-approve}. Emits an {Approval} event indicating the updated allowance. Requirements: - `spender` cannot be the zero address. - `spender` must have allowance for the caller of at least `subtractedValue`."
      },
      "delegate(address)": {
        "details": "Delegate votes from the sender to `delegatee`."
      },
      "delegateBySig(address,uint256,uint256,uint8,bytes32,bytes32)": {
        "details": "Delegates votes from signer to `delegatee`"
      },
      "delegates(address)": {
        "details": "Get the address `account` is currently delegating to."
      },
      "eip712Domain()": {
        "details": "See {EIP-5267}. _Available since v4.9._"
      },
      "estimateSendFee(uint16,bytes32,uint256,bool,bytes)": {
        "details": "estimate send token `_tokenId` to (`_dstChainId`, `_toAddress`) _dstChainId - L0 defined chain id to send tokens too _toAddress - dynamic bytes array which contains the address to whom you are sending tokens to on the dstChain _amount - amount of the tokens to transfer _useZro - indicates to use zro to pay L0 fees _adapterParam - flexible bytes array to indicate messaging adapter services in L0"
      },
      "getPastTotalSupply(uint256)": {
        "details": "Retrieve the `totalSupply` at the end of `timepoint`. Note, this value is the sum of all balances. It is NOT the sum of all the delegated votes! Requirements: - `timepoint` must be in the past"
      },
      "getPastVotes(address,uint256)": {
        "details": "Retrieve the number of votes for `account` at the end of `timepoint`. Requirements: - `timepoint` must be in the past"
      },
      "getVotes(address)": {
        "details": "Gets the current votes balance for `account`"
      },
      "increaseAllowance(address,uint256)": {
        "details": "Atomically increases the allowance granted to `spender` by the caller. This is an alternative to {approve} that can be used as a mitigation for problems described in {IERC20-approve}. Emits an {Approval} event indicating the updated allowance. Requirements: - `spender` cannot be the zero address."
      },
      "mint(address,uint256)": {
        "details": "External function to mint new tokens. This function allows for the external minting of tokens, but restricts access to only those accounts that have been granted distributor privileges by the mproRoleManager. The `isDistributor` function of the mproRoleManager is used to check if the caller (_msgSender()) has the necessary role to perform the minting. The `virtual` keyword indicates that this function can be overridden in derived contracts, allowing for customization of the minting process or introduction of additional logic. If the caller is authorized as a distributor, the function proceeds to call the internal `_mint` function, which handles the actual creation and allocation of tokens to the specified account. This two-tier structure (external `mint` calling internal `_mint`) allows for separation of concerns, where access control is handled externally, while the token creation logic is encapsulated within the internal function.",
        "params": {
          "account": "The address to which the minted tokens will be allocated.",
          "amount": "The amount of tokens to be minted and allocated to the account."
        }
      },
      "name()": {
        "details": "Returns the name of the token."
      },
      "nonces(address)": {
        "details": "Returns the current nonce for `owner`. This value must be included whenever a signature is generated for {permit}. Every successful call to {permit} increases ``owner``'s nonce by one. This prevents a signature from being used multiple times."
      },
      "numCheckpoints(address)": {
        "details": "Get number of checkpoints for `account`."
      },
      "owner()": {
        "details": "Returns the address of the current owner."
      },
      "permit(address,address,uint256,uint256,uint8,bytes32,bytes32)": {
        "details": "Sets `value` as the allowance of `spender` over ``owner``'s tokens, given ``owner``'s signed approval. IMPORTANT: The same issues {IERC20-approve} has related to transaction ordering also apply here. Emits an {Approval} event. Requirements: - `spender` cannot be the zero address. - `deadline` must be a timestamp in the future. - `v`, `r` and `s` must be a valid `secp256k1` signature from `owner` over the EIP712-formatted function arguments. - the signature must use ``owner``'s current nonce (see {nonces}). For more information on the signature format, see the https://eips.ethereum.org/EIPS/eip-2612#specification[relevant EIP section]. CAUTION: See Security Considerations above."
      },
      "renounceOwnership()": {
        "details": "Leaves the contract without owner. It will not be possible to call `onlyOwner` functions. Can only be called by the current owner. NOTE: Renouncing ownership will leave the contract without an owner, thereby disabling any functionality that is only available to the owner."
      },
      "sendFrom(address,uint16,bytes32,uint256,(address,address,bytes))": {
        "details": "send `_amount` amount of token to (`_dstChainId`, `_toAddress`) from `_from` `_from` the owner of token `_dstChainId` the destination chain identifier `_toAddress` can be any size depending on the `dstChainId`. `_amount` the quantity of tokens in wei `_refundAddress` the address LayerZero refunds if too much message fee is sent `_zroPaymentAddress` set to address(0x0) if not paying in ZRO (LayerZero Token) `_adapterParams` is a flexible bytes array to indicate messaging adapter services"
      },
      "symbol()": {
        "details": "Returns the symbol of the token, usually a shorter version of the name."
      },
      "token()": {
        "details": "returns the address of the ERC20 token"
      },
      "totalSupply()": {
        "details": "See {IERC20-totalSupply}."
      },
      "transfer(address,uint256)": {
        "details": "Public function to transfer tokens from the message sender's account to another account. This function overrides the standard `transfer` function of the ERC20 token standard. It enables a token holder to transfer tokens to another address. In addition to the standard transfer functionality, this implementation includes custom logic for additional checks and burning tokens on transfer. The function performs the following operations: - Calls `mproRoleManager.transferAllowed` to perform custom checks based on the contract's   business logic. This might include restrictions on who can send or receive tokens or other   specific conditions. - Calls the internal `_burnOnTransfer` function to calculate the amount after applying the   burn rate, if applicable, based on the contract's burning mechanism. - Executes the token transfer through `super._transfer`, using the potentially adjusted amount   from `_burnOnTransfer`. - Returns `true` to indicate successful execution of the function. This custom implementation ensures compliance with additional rules and token burn mechanisms while maintaining the basic functionality of ERC20 transfers.",
        "params": {
          "_to": "The address of the recipient to whom the tokens are being transferred.",
          "_value": "The amount of tokens to be transferred."
        },
        "returns": {
          "_0": "A boolean value indicating whether the operation was successful."
        }
      },
      "transferFrom(address,address,uint256)": {
        "details": "Public function to transfer tokens on behalf of another account. This function overrides the standard `transferFrom` function of the ERC20 token standard. It is used to transfer tokens from one account to another, based on a previously set allowance. The caller must have been previously authorized by the token holder (_from) to spend up to a specified number of tokens on their behalf. The function includes additional logic as follows: - Calls `mproRoleManager.transferAllowed` to perform custom validation. This could involve   checks based on specific business rules, like validating the roles of the involved parties   (_from, _to, and the message sender). - Executes the transfer through the internal `_transferFrom` function, which handles the actual   token transfer logic. Before the transfer, it applies the `_burnOnTransfer` function to   calculate the final amount after considering any burn mechanism that might be in place. - Returns `true` to indicate successful execution of the function. This implementation ensures that any transfers made through this function comply with additional constraints or business logic defined in the contract, along with the standard ERC20 transferFrom functionality.",
        "params": {
          "_amount": "The amount of tokens to be transferred.",
          "_from": "The address of the token holder whose tokens are being transferred.",
          "_to": "The address of the recipient to whom the tokens are being transferred."
        },
        "returns": {
          "_0": "A boolean value indicating whether the operation was successful."
        }
      },
      "transferOwnership(address)": {
        "details": "Transfers ownership of the contract to a new account (`newOwner`). Can only be called by the current owner."
      }
    },
    "stateVariables": {
      "_maxCap": {
        "details": "Public constant representing the maximum cap on the token's total supply. This constant defines the maximum number of tokens that can ever be minted in the lifetime of the contract. The cap is set to 500 million tokens, considering the decimal factor of the token. Since Solidity does not support floating-point numbers, the token amounts are often expressed in the smallest units, similar to how cents are used for dollars in the traditional currency system. Here, `10 ** 18` represents 1 token in its smallest unit (like wei in Ethereum), making the cap effectively 500 million tokens. The purpose of setting a maximum cap is to provide assurances about the maximum supply of tokens that can exist, which is an important aspect of the token's economic and governance model. It ensures transparency and trust in the token's scarcity and value."
      }
    },
    "version": 1
  },
  "userdoc": {
    "kind": "user",
    "methods": {},
    "version": 1
  },
  "storageLayout": {
    "storage": [
      {
        "astId": 3244,
        "contract": "contracts/MPROLight.sol:MPRO",
        "label": "_owner",
        "offset": 0,
        "slot": "0",
        "type": "t_address"
      },
      {
        "astId": 455,
        "contract": "contracts/MPROLight.sol:MPRO",
        "label": "trustedRemoteLookup",
        "offset": 0,
        "slot": "1",
        "type": "t_mapping(t_uint16,t_bytes_storage)"
      },
      {
        "astId": 461,
        "contract": "contracts/MPROLight.sol:MPRO",
        "label": "minDstGasLookup",
        "offset": 0,
        "slot": "2",
        "type": "t_mapping(t_uint16,t_mapping(t_uint16,t_uint256))"
      },
      {
        "astId": 465,
        "contract": "contracts/MPROLight.sol:MPRO",
        "label": "payloadSizeLimitLookup",
        "offset": 0,
        "slot": "3",
        "type": "t_mapping(t_uint16,t_uint256)"
      },
      {
        "astId": 467,
        "contract": "contracts/MPROLight.sol:MPRO",
        "label": "precrime",
        "offset": 0,
        "slot": "4",
        "type": "t_address"
      },
      {
        "astId": 997,
        "contract": "contracts/MPROLight.sol:MPRO",
        "label": "failedMessages",
        "offset": 0,
        "slot": "5",
        "type": "t_mapping(t_uint16,t_mapping(t_bytes_memory_ptr,t_mapping(t_uint64,t_bytes32)))"
      },
      {
        "astId": 1618,
        "contract": "contracts/MPROLight.sol:MPRO",
        "label": "creditedPackets",
        "offset": 0,
        "slot": "6",
        "type": "t_mapping(t_uint16,t_mapping(t_bytes_memory_ptr,t_mapping(t_uint64,t_bool)))"
      },
      {
        "astId": 3492,
        "contract": "contracts/MPROLight.sol:MPRO",
        "label": "_balances",
        "offset": 0,
        "slot": "7",
        "type": "t_mapping(t_address,t_uint256)"
      },
      {
        "astId": 3498,
        "contract": "contracts/MPROLight.sol:MPRO",
        "label": "_allowances",
        "offset": 0,
        "slot": "8",
        "type": "t_mapping(t_address,t_mapping(t_address,t_uint256))"
      },
      {
        "astId": 3500,
        "contract": "contracts/MPROLight.sol:MPRO",
        "label": "_totalSupply",
        "offset": 0,
        "slot": "9",
        "type": "t_uint256"
      },
      {
        "astId": 3502,
        "contract": "contracts/MPROLight.sol:MPRO",
        "label": "_name",
        "offset": 0,
        "slot": "10",
        "type": "t_string_storage"
      },
      {
        "astId": 3504,
        "contract": "contracts/MPROLight.sol:MPRO",
        "label": "_symbol",
        "offset": 0,
        "slot": "11",
        "type": "t_string_storage"
      },
      {
        "astId": 6872,
        "contract": "contracts/MPROLight.sol:MPRO",
        "label": "_nameFallback",
        "offset": 0,
        "slot": "12",
        "type": "t_string_storage"
      },
      {
        "astId": 6874,
        "contract": "contracts/MPROLight.sol:MPRO",
        "label": "_versionFallback",
        "offset": 0,
        "slot": "13",
        "type": "t_string_storage"
      },
      {
        "astId": 4164,
        "contract": "contracts/MPROLight.sol:MPRO",
        "label": "_nonces",
        "offset": 0,
        "slot": "14",
        "type": "t_mapping(t_address,t_struct(Counter)5850_storage)"
      },
      {
        "astId": 4172,
        "contract": "contracts/MPROLight.sol:MPRO",
        "label": "_PERMIT_TYPEHASH_DEPRECATED_SLOT",
        "offset": 0,
        "slot": "15",
        "type": "t_bytes32"
      },
      {
        "astId": 4339,
        "contract": "contracts/MPROLight.sol:MPRO",
        "label": "_delegates",
        "offset": 0,
        "slot": "16",
        "type": "t_mapping(t_address,t_address)"
      },
      {
        "astId": 4345,
        "contract": "contracts/MPROLight.sol:MPRO",
        "label": "_checkpoints",
        "offset": 0,
        "slot": "17",
        "type": "t_mapping(t_address,t_array(t_struct(Checkpoint)4330_storage)dyn_storage)"
      },
      {
        "astId": 4349,
        "contract": "contracts/MPROLight.sol:MPRO",
        "label": "_totalSupplyCheckpoints",
        "offset": 0,
        "slot": "18",
        "type": "t_array(t_struct(Checkpoint)4330_storage)dyn_storage"
      },
      {
        "astId": 9960,
        "contract": "contracts/MPROLight.sol:MPRO",
        "label": "mproMasterDistributor",
        "offset": 0,
        "slot": "19",
        "type": "t_contract(IJAKANTMasterDistributor)9953"
      },
      {
        "astId": 9977,
        "contract": "contracts/MPROLight.sol:MPRO",
        "label": "_totalSupply",
        "offset": 0,
        "slot": "20",
        "type": "t_uint256"
      }
    ],
    "types": {
      "t_address": {
        "encoding": "inplace",
        "label": "address",
        "numberOfBytes": "20"
      },
      "t_array(t_struct(Checkpoint)4330_storage)dyn_storage": {
        "base": "t_struct(Checkpoint)4330_storage",
        "encoding": "dynamic_array",
        "label": "struct ERC20Votes.Checkpoint[]",
        "numberOfBytes": "32"
      },
      "t_bool": {
        "encoding": "inplace",
        "label": "bool",
        "numberOfBytes": "1"
      },
      "t_bytes32": {
        "encoding": "inplace",
        "label": "bytes32",
        "numberOfBytes": "32"
      },
      "t_bytes_memory_ptr": {
        "encoding": "bytes",
        "label": "bytes",
        "numberOfBytes": "32"
      },
      "t_bytes_storage": {
        "encoding": "bytes",
        "label": "bytes",
        "numberOfBytes": "32"
      },
      "t_contract(IJAKANTMasterDistributor)9953": {
        "encoding": "inplace",
        "label": "contract IJAKANTMasterDistributor",
        "numberOfBytes": "20"
      },
      "t_mapping(t_address,t_address)": {
        "encoding": "mapping",
        "key": "t_address",
        "label": "mapping(address => address)",
        "numberOfBytes": "32",
        "value": "t_address"
      },
      "t_mapping(t_address,t_array(t_struct(Checkpoint)4330_storage)dyn_storage)": {
        "encoding": "mapping",
        "key": "t_address",
        "label": "mapping(address => struct ERC20Votes.Checkpoint[])",
        "numberOfBytes": "32",
        "value": "t_array(t_struct(Checkpoint)4330_storage)dyn_storage"
      },
      "t_mapping(t_address,t_mapping(t_address,t_uint256))": {
        "encoding": "mapping",
        "key": "t_address",
        "label": "mapping(address => mapping(address => uint256))",
        "numberOfBytes": "32",
        "value": "t_mapping(t_address,t_uint256)"
      },
      "t_mapping(t_address,t_struct(Counter)5850_storage)": {
        "encoding": "mapping",
        "key": "t_address",
        "label": "mapping(address => struct Counters.Counter)",
        "numberOfBytes": "32",
        "value": "t_struct(Counter)5850_storage"
      },
      "t_mapping(t_address,t_uint256)": {
        "encoding": "mapping",
        "key": "t_address",
        "label": "mapping(address => uint256)",
        "numberOfBytes": "32",
        "value": "t_uint256"
      },
      "t_mapping(t_bytes_memory_ptr,t_mapping(t_uint64,t_bool))": {
        "encoding": "mapping",
        "key": "t_bytes_memory_ptr",
        "label": "mapping(bytes => mapping(uint64 => bool))",
        "numberOfBytes": "32",
        "value": "t_mapping(t_uint64,t_bool)"
      },
      "t_mapping(t_bytes_memory_ptr,t_mapping(t_uint64,t_bytes32))": {
        "encoding": "mapping",
        "key": "t_bytes_memory_ptr",
        "label": "mapping(bytes => mapping(uint64 => bytes32))",
        "numberOfBytes": "32",
        "value": "t_mapping(t_uint64,t_bytes32)"
      },
      "t_mapping(t_uint16,t_bytes_storage)": {
        "encoding": "mapping",
        "key": "t_uint16",
        "label": "mapping(uint16 => bytes)",
        "numberOfBytes": "32",
        "value": "t_bytes_storage"
      },
      "t_mapping(t_uint16,t_mapping(t_bytes_memory_ptr,t_mapping(t_uint64,t_bool)))": {
        "encoding": "mapping",
        "key": "t_uint16",
        "label": "mapping(uint16 => mapping(bytes => mapping(uint64 => bool)))",
        "numberOfBytes": "32",
        "value": "t_mapping(t_bytes_memory_ptr,t_mapping(t_uint64,t_bool))"
      },
      "t_mapping(t_uint16,t_mapping(t_bytes_memory_ptr,t_mapping(t_uint64,t_bytes32)))": {
        "encoding": "mapping",
        "key": "t_uint16",
        "label": "mapping(uint16 => mapping(bytes => mapping(uint64 => bytes32)))",
        "numberOfBytes": "32",
        "value": "t_mapping(t_bytes_memory_ptr,t_mapping(t_uint64,t_bytes32))"
      },
      "t_mapping(t_uint16,t_mapping(t_uint16,t_uint256))": {
        "encoding": "mapping",
        "key": "t_uint16",
        "label": "mapping(uint16 => mapping(uint16 => uint256))",
        "numberOfBytes": "32",
        "value": "t_mapping(t_uint16,t_uint256)"
      },
      "t_mapping(t_uint16,t_uint256)": {
        "encoding": "mapping",
        "key": "t_uint16",
        "label": "mapping(uint16 => uint256)",
        "numberOfBytes": "32",
        "value": "t_uint256"
      },
      "t_mapping(t_uint64,t_bool)": {
        "encoding": "mapping",
        "key": "t_uint64",
        "label": "mapping(uint64 => bool)",
        "numberOfBytes": "32",
        "value": "t_bool"
      },
      "t_mapping(t_uint64,t_bytes32)": {
        "encoding": "mapping",
        "key": "t_uint64",
        "label": "mapping(uint64 => bytes32)",
        "numberOfBytes": "32",
        "value": "t_bytes32"
      },
      "t_string_storage": {
        "encoding": "bytes",
        "label": "string",
        "numberOfBytes": "32"
      },
      "t_struct(Checkpoint)4330_storage": {
        "encoding": "inplace",
        "label": "struct ERC20Votes.Checkpoint",
        "members": [
          {
            "astId": 4327,
            "contract": "contracts/MPROLight.sol:MPRO",
            "label": "fromBlock",
            "offset": 0,
            "slot": "0",
            "type": "t_uint32"
          },
          {
            "astId": 4329,
            "contract": "contracts/MPROLight.sol:MPRO",
            "label": "votes",
            "offset": 4,
            "slot": "0",
            "type": "t_uint224"
          }
        ],
        "numberOfBytes": "32"
      },
      "t_struct(Counter)5850_storage": {
        "encoding": "inplace",
        "label": "struct Counters.Counter",
        "members": [
          {
            "astId": 5849,
            "contract": "contracts/MPROLight.sol:MPRO",
            "label": "_value",
            "offset": 0,
            "slot": "0",
            "type": "t_uint256"
          }
        ],
        "numberOfBytes": "32"
      },
      "t_uint16": {
        "encoding": "inplace",
        "label": "uint16",
        "numberOfBytes": "2"
      },
      "t_uint224": {
        "encoding": "inplace",
        "label": "uint224",
        "numberOfBytes": "28"
      },
      "t_uint256": {
        "encoding": "inplace",
        "label": "uint256",
        "numberOfBytes": "32"
      },
      "t_uint32": {
        "encoding": "inplace",
        "label": "uint32",
        "numberOfBytes": "4"
      },
      "t_uint64": {
        "encoding": "inplace",
        "label": "uint64",
        "numberOfBytes": "8"
      }
    }
  }
}