{
  "address": "0xFF84604214708E3A295FdBAf0B1f97B40f7c818b",
  "abi": [
    {
      "inputs": [
        {
          "internalType": "uint256",
          "name": "_tgeUnlockTimestamp",
          "type": "uint256"
        },
        {
          "internalType": "uint256",
          "name": "_tgeUnlockPercent",
          "type": "uint256"
        },
        {
          "internalType": "uint256",
          "name": "_cliffDelay",
          "type": "uint256"
        },
        {
          "internalType": "uint256",
          "name": "_vestingUnlockPercentPerPeriod",
          "type": "uint256"
        },
        {
          "internalType": "uint256",
          "name": "_vestingPeriodDuration",
          "type": "uint256"
        },
        {
          "internalType": "address",
          "name": "_newOwner",
          "type": "address"
        }
      ],
      "stateMutability": "nonpayable",
      "type": "constructor"
    },
    {
      "anonymous": false,
      "inputs": [
        {
          "indexed": false,
          "internalType": "address",
          "name": "_beneficiary",
          "type": "address"
        },
        {
          "indexed": false,
          "internalType": "uint256",
          "name": "_amount",
          "type": "uint256"
        }
      ],
      "name": "Claim",
      "type": "event"
    },
    {
      "anonymous": false,
      "inputs": [
        {
          "indexed": false,
          "internalType": "uint256",
          "name": "_amount",
          "type": "uint256"
        }
      ],
      "name": "EmergencyWithdraw",
      "type": "event"
    },
    {
      "anonymous": false,
      "inputs": [
        {
          "indexed": true,
          "internalType": "address",
          "name": "previousOwner",
          "type": "address"
        },
        {
          "indexed": true,
          "internalType": "address",
          "name": "newOwner",
          "type": "address"
        }
      ],
      "name": "OwnershipTransferred",
      "type": "event"
    },
    {
      "anonymous": false,
      "inputs": [
        {
          "indexed": false,
          "internalType": "address[]",
          "name": "_beneficiaries",
          "type": "address[]"
        },
        {
          "indexed": false,
          "internalType": "uint256[]",
          "name": "_amounts",
          "type": "uint256[]"
        }
      ],
      "name": "RegisterBeneficiaries",
      "type": "event"
    },
    {
      "anonymous": false,
      "inputs": [
        {
          "indexed": false,
          "internalType": "uint256",
          "name": "_timestamp",
          "type": "uint256"
        }
      ],
      "name": "SetTgeUnlockTimestamp",
      "type": "event"
    },
    {
      "inputs": [],
      "name": "claim",
      "outputs": [],
      "stateMutability": "nonpayable",
      "type": "function"
    },
    {
      "inputs": [],
      "name": "claimBalance",
      "outputs": [
        {
          "internalType": "uint256",
          "name": "",
          "type": "uint256"
        }
      ],
      "stateMutability": "view",
      "type": "function"
    },
    {
      "inputs": [],
      "name": "claimedAllocation",
      "outputs": [
        {
          "internalType": "uint256",
          "name": "",
          "type": "uint256"
        }
      ],
      "stateMutability": "view",
      "type": "function"
    },
    {
      "inputs": [],
      "name": "cliffTimestamp",
      "outputs": [
        {
          "internalType": "uint256",
          "name": "",
          "type": "uint256"
        }
      ],
      "stateMutability": "view",
      "type": "function"
    },
    {
      "inputs": [],
      "name": "emergencyVestingTokenWithdraw",
      "outputs": [],
      "stateMutability": "nonpayable",
      "type": "function"
    },
    {
      "inputs": [],
      "name": "enableForRelease",
      "outputs": [
        {
          "internalType": "uint256",
          "name": "",
          "type": "uint256"
        }
      ],
      "stateMutability": "view",
      "type": "function"
    },
    {
      "inputs": [],
      "name": "getBeneficiaries",
      "outputs": [
        {
          "components": [
            {
              "internalType": "uint256",
              "name": "amount",
              "type": "uint256"
            },
            {
              "internalType": "uint256",
              "name": "claimed",
              "type": "uint256"
            }
          ],
          "internalType": "struct TestVesting.VestingBeneficiary[]",
          "name": "",
          "type": "tuple[]"
        }
      ],
      "stateMutability": "view",
      "type": "function"
    },
    {
      "inputs": [],
      "name": "nextReleaseAllocation",
      "outputs": [
        {
          "internalType": "uint256",
          "name": "",
          "type": "uint256"
        }
      ],
      "stateMutability": "view",
      "type": "function"
    },
    {
      "inputs": [],
      "name": "nextReleaseTimestamp",
      "outputs": [
        {
          "internalType": "uint256",
          "name": "",
          "type": "uint256"
        }
      ],
      "stateMutability": "view",
      "type": "function"
    },
    {
      "inputs": [],
      "name": "owner",
      "outputs": [
        {
          "internalType": "address",
          "name": "",
          "type": "address"
        }
      ],
      "stateMutability": "view",
      "type": "function"
    },
    {
      "inputs": [
        {
          "internalType": "address[]",
          "name": "_beneficiaries",
          "type": "address[]"
        },
        {
          "internalType": "uint256[]",
          "name": "_amounts",
          "type": "uint256[]"
        }
      ],
      "name": "registerBeneficiaries",
      "outputs": [],
      "stateMutability": "nonpayable",
      "type": "function"
    },
    {
      "inputs": [],
      "name": "renounceOwnership",
      "outputs": [],
      "stateMutability": "nonpayable",
      "type": "function"
    },
    {
      "inputs": [
        {
          "internalType": "uint256",
          "name": "_timestamp",
          "type": "uint256"
        }
      ],
      "name": "setTgeUnlockTimestamp",
      "outputs": [],
      "stateMutability": "nonpayable",
      "type": "function"
    },
    {
      "inputs": [
        {
          "internalType": "address",
          "name": "_token",
          "type": "address"
        }
      ],
      "name": "setVestingToken",
      "outputs": [],
      "stateMutability": "nonpayable",
      "type": "function"
    },
    {
      "inputs": [],
      "name": "tgeUnlockPercent",
      "outputs": [
        {
          "internalType": "uint256",
          "name": "",
          "type": "uint256"
        }
      ],
      "stateMutability": "view",
      "type": "function"
    },
    {
      "inputs": [],
      "name": "tgeUnlockTimestamp",
      "outputs": [
        {
          "internalType": "uint256",
          "name": "",
          "type": "uint256"
        }
      ],
      "stateMutability": "view",
      "type": "function"
    },
    {
      "inputs": [],
      "name": "token",
      "outputs": [
        {
          "internalType": "address",
          "name": "",
          "type": "address"
        }
      ],
      "stateMutability": "view",
      "type": "function"
    },
    {
      "inputs": [
        {
          "internalType": "address",
          "name": "newOwner",
          "type": "address"
        }
      ],
      "name": "transferOwnership",
      "outputs": [],
      "stateMutability": "nonpayable",
      "type": "function"
    },
    {
      "inputs": [],
      "name": "vestingPeriodDuration",
      "outputs": [
        {
          "internalType": "uint256",
          "name": "",
          "type": "uint256"
        }
      ],
      "stateMutability": "view",
      "type": "function"
    },
    {
      "inputs": [],
      "name": "vestingUnlockPercentPerPeriod",
      "outputs": [
        {
          "internalType": "uint256",
          "name": "",
          "type": "uint256"
        }
      ],
      "stateMutability": "view",
      "type": "function"
    }
  ],
  "transactionHash": "0x4a7b7b3a5b716071cfdfd6388a202b8da65c1da8a9f3132a16e89ce63e4c0acc",
  "args": [
    1716272863,
    4000,
    3600,
    1000,
    3600,
    "0x8B7C5D0F05Dc6A5Af60292A6061aE960b8a47274"
  ],
  "numDeployments": 1,
  "solcInputHash": "33a3d0d0f3b34019d5d28a1356e1686d",
  "bytecode": "0x6101006040523480156200001257600080fd5b5060405162001a7538038062001a758339810160408190526200003591620001a3565b620000403362000153565b612710831115620000a75760405162461bcd60e51b815260206004820152602660248201527f56657374696e673a20496e76616c696420706572696f6420756e6c6f636b2070604482015265195c98d95b9d60d21b60648201526084015b60405180910390fd5b612710851115620001075760405162461bcd60e51b815260206004820152602360248201527f56657374696e673a20496e76616c69642074676520756e6c6f636b2070657263604482015262195b9d60ea1b60648201526084016200009e565b620001164262278d0062000209565b608052600486905560a08590526200012f848762000209565b60055560c083905260e0829052620001478162000153565b50505050505062000231565b600080546001600160a01b038381166001600160a01b0319831681178455604051919092169283917f8be0079c531659141344cd1fd0a4f28419497f9722a3daafe3b4186f6b6457e09190a35050565b60008060008060008060c08789031215620001bd57600080fd5b86516020880151604089015160608a015160808b015160a08c0151949a50929850909650945092506001600160a01b0381168114620001fb57600080fd5b809150509295509295509295565b808201808211156200022b57634e487b7160e01b600052601160045260246000fd5b92915050565b60805160a05160c05160e0516117cb620002aa60003960008181610136015281816103ef015281816104350152818161065f0152610e900152600081816101d1015281816106a0015281816106c60152610edf01526000818161023a015281816105f80152610e4401526000610c8701526117cb6000f3fe608060405234801561001057600080fd5b506004361061012c5760003560e01c80636ac345e9116100ad578063a14f993511610071578063a14f99351461025c578063e07edfdc1461026f578063e2936b9414610278578063f2fde38b14610280578063fc0c546a1461029357600080fd5b80636ac345e9146101cc578063715018a6146101f35780638da5cb5b146101fb578063913b722c146102205780639b57002f1461023557600080fd5b80632f8e7071116100f45780632f8e70711461019857806330509bca146101a1578063497b46a2146101a95780634b862646146101b15780634e71d92d146101c457600080fd5b80630640d9411461013157806310451f301461016b57806310a70a4d146101735780631827ab571461017d5780631dbc04ae14610185575b600080fd5b6101587f000000000000000000000000000000000000000000000000000000000000000081565b6040519081526020015b60405180910390f35b6101586102a6565b61017b6102f8565b005b6101586103bf565b61017b61019336600461136b565b610468565b61015860045481565b610158610541565b610158610590565b61017b6101bf366004611460565b610742565b61017b6109aa565b6101587f000000000000000000000000000000000000000000000000000000000000000081565b61017b610af7565b6000546001600160a01b03165b6040516001600160a01b039091168152602001610162565b610228610b0b565b6040516101629190611520565b6101587f000000000000000000000000000000000000000000000000000000000000000081565b61017b61026a36600461156f565b610c08565b61015860055481565b610158610ddc565b61017b61028e36600461136b565b610f37565b600154610208906001600160a01b031681565b336000818152600260205260408120549091906102de5760405162461bcd60e51b81526004016102d590611588565b60405180910390fd5b3360009081526002602052604090206001015491505b5090565b610300610fb0565b6001546040516370a0823160e01b81523060048201526000916001600160a01b0316906370a0823190602401602060405180830381865afa158015610349573d6000803e3d6000fd5b505050506040513d601f19601f8201168201806040525081019061036d91906115d1565b600154909150610388906001600160a01b0316335b8361100a565b6040518181527f99d7f8b71cfb9126984f7a5eed3a40e64a8959e9b0e442221546fb04ec6a489c906020015b60405180910390a150565b60006004544210156103d2575060045490565b6005544210156103e3575060055490565b600554600190610420907f00000000000000000000000000000000000000000000000000000000000000009061041a904290611061565b90611076565b61042a9082611600565b9050610462610459827f0000000000000000000000000000000000000000000000000000000000000000611082565b6005549061108e565b91505090565b610470610fb0565b6001600160a01b0381166104c65760405162461bcd60e51b815260206004820152601e60248201527f56657374696e673a20496e76616c69642076657374696e6720746f6b656e000060448201526064016102d5565b6001546001600160a01b03161561051f5760405162461bcd60e51b815260206004820152601a60248201527f56657374696e673a20546f6b656e20616c72656164792073657400000000000060448201526064016102d5565b600180546001600160a01b0319166001600160a01b0392909216919091179055565b336000818152600260205260408120549091906105705760405162461bcd60e51b81526004016102d590611588565b336000908152600260205260409020600181015490546104629190611613565b336000818152600260205260408120549091906105bf5760405162461bcd60e51b81526004016102d590611588565b33600090815260026020908152604080832081518083019092528054808352600190910154928201929092529161061c61271061041a847f0000000000000000000000000000000000000000000000000000000000000000611082565b90506004544210158015610631575060055442105b1561064f576020830151610646908290611061565b94505050505090565b60055442106107375760006106937f000000000000000000000000000000000000000000000000000000000000000061041a6005544261106190919063ffffffff16565b905060006106eb6106c4837f0000000000000000000000000000000000000000000000000000000000000000611082565b7f00000000000000000000000000000000000000000000000000000000000000009061108e565b905060006106ff61271061041a8785611082565b9050600061070d858361108e565b90508581111561071a5750845b602087015161072a908290611061565b9850505050505050505090565b600094505050505090565b61074a610fb0565b805182511461079b5760405162461bcd60e51b815260206004820152601e60248201527f56657374696e673a20496e76616c696420696e707574206c656e67746873000060448201526064016102d5565b60005b825181101561096c5760006001600160a01b03168382815181106107c4576107c4611626565b60200260200101516001600160a01b0316036108225760405162461bcd60e51b815260206004820152601c60248201527f56657374696e673a20496e76616c69642062656e65666963696172790000000060448201526064016102d5565b60006002600085848151811061083a5761083a611626565b60200260200101516001600160a01b03166001600160a01b0316815260200190815260200160002060405180604001604052908160008201548152602001600182015481525050905080600001516000036109635760405180604001604052808484815181106108ac576108ac611626565b602002602001015181526020016000815250600260008685815181106108d4576108d4611626565b60200260200101516001600160a01b03166001600160a01b031681526020019081526020016000206000820151816000015560208201518160010155905050600384838151811061092757610927611626565b60209081029190910181015182546001810184556000938452919092200180546001600160a01b0319166001600160a01b039092169190911790555b5060010161079e565b507fbc95e14b18247180755fe0279809720d311528505fa5c6a0c49f3d294ba9bbe2828260405161099e92919061163c565b60405180910390a15050565b336000818152600260205260409020546109d65760405162461bcd60e51b81526004016102d590611588565b600454421015610a285760405162461bcd60e51b815260206004820152601960248201527f56657374696e673a204e6f742079657420756e6c6f636b65640000000000000060448201526064016102d5565b6000610a32610590565b905060008111610a845760405162461bcd60e51b815260206004820152601d60248201527f56657374696e673a204e6f20746f6b656e7320746f2072656c6561736500000060448201526064016102d5565b3360009081526002602052604081206001018054839290610aa6908490611600565b9091555050600154610ac1906001600160a01b031633610382565b60408051338152602081018390527f47cee97cb7acd717b3c0aa1435d004cd5b3c8c57d70dbceb4e4458bbd60e39d4910161099e565b610aff610fb0565b610b09600061109a565b565b6060610b15610fb0565b60035460008167ffffffffffffffff811115610b3357610b33611386565b604051908082528060200260200182016040528015610b7857816020015b6040805180820190915260008082526020820152815260200190600190039081610b515790505b50905060005b82811015610c0157600060038281548110610b9b57610b9b611626565b60009182526020808320909101546001600160a01b03168083526002825260409283902083518085019094528054845260010154918301919091528451909250849084908110610bed57610bed611626565b602090810291909101015250600101610b7e565b5091505090565b610c10610fb0565b428111610c855760405162461bcd60e51b815260206004820152603a60248201527f56657374696e673a2054474520756e6c6f636b2074696d652063616e6e6f742060448201527f6265206c6f776572207468616e2063757272656e742074696d6500000000000060648201526084016102d5565b7f0000000000000000000000000000000000000000000000000000000000000000811115610d295760405162461bcd60e51b815260206004820152604560248201527f56657374696e673a2054474520756e6c6f636b2074696d65206d75737420626560448201527f206c657373207468616e20746765556e6c6f636b54696d657374616d70446561606482015264646c696e6560d81b608482015260a4016102d5565b4260045411610d8a5760405162461bcd60e51b815260206004820152602760248201527f56657374696e673a2054474520756e6c6f636b2074696d6520616c7265616479604482015266081c185cdcd95960ca1b60648201526084016102d5565b600454600554610d9a9190611613565b610da49082611600565b60055560048190556040518181527fa384b6c5c660c6d2561a025b578ca5fe51178019841db50c219ea8baa32a6607906020016103b4565b33600081815260026020526040812054909190610e0b5760405162461bcd60e51b81526004016102d590611588565b336000908152600260209081526040808320815180830190925280548083526001909101549282019290925291610e6861271061041a847f0000000000000000000000000000000000000000000000000000000000000000611082565b9050600454421015610e7e5793506102f4915050565b600554600190421115610ed157610ec47f000000000000000000000000000000000000000000000000000000000000000061041a6005544261106190919063ffffffff16565b610ece9082611600565b90505b6000610f0361271061041a867f0000000000000000000000000000000000000000000000000000000000000000611082565b9050610f0f8385611613565b610f198383611082565b10610f2b576000965050505050505090565b95506102f49350505050565b610f3f610fb0565b6001600160a01b038116610fa45760405162461bcd60e51b815260206004820152602660248201527f4f776e61626c653a206e6577206f776e657220697320746865207a65726f206160448201526564647265737360d01b60648201526084016102d5565b610fad8161109a565b50565b6000546001600160a01b03163314610b095760405162461bcd60e51b815260206004820181905260248201527f4f776e61626c653a2063616c6c6572206973206e6f7420746865206f776e657260448201526064016102d5565b604080516001600160a01b038416602482015260448082018490528251808303909101815260649091019091526020810180516001600160e01b031663a9059cbb60e01b17905261105c9084906110ea565b505050565b600061106d8284611613565b90505b92915050565b600061106d82846116c0565b600061106d82846116e2565b600061106d8284611600565b600080546001600160a01b038381166001600160a01b0319831681178455604051919092169283917f8be0079c531659141344cd1fd0a4f28419497f9722a3daafe3b4186f6b6457e09190a35050565b600061113f826040518060400160405280602081526020017f5361666545524332303a206c6f772d6c6576656c2063616c6c206661696c6564815250856001600160a01b03166111bf9092919063ffffffff16565b905080516000148061116057508080602001905181019061116091906116f9565b61105c5760405162461bcd60e51b815260206004820152602a60248201527f5361666545524332303a204552433230206f7065726174696f6e20646964206e6044820152691bdd081cdd58d8d9595960b21b60648201526084016102d5565b60606111ce84846000856111d6565b949350505050565b6060824710156112375760405162461bcd60e51b815260206004820152602660248201527f416464726573733a20696e73756666696369656e742062616c616e636520666f6044820152651c8818d85b1b60d21b60648201526084016102d5565b600080866001600160a01b031685876040516112539190611746565b60006040518083038185875af1925050503d8060008114611290576040519150601f19603f3d011682016040523d82523d6000602084013e611295565b606091505b50915091506112a6878383876112b1565b979650505050505050565b60608315611320578251600003611319576001600160a01b0385163b6113195760405162461bcd60e51b815260206004820152601d60248201527f416464726573733a2063616c6c20746f206e6f6e2d636f6e747261637400000060448201526064016102d5565b50816111ce565b6111ce83838151156113355781518083602001fd5b8060405162461bcd60e51b81526004016102d59190611762565b80356001600160a01b038116811461136657600080fd5b919050565b60006020828403121561137d57600080fd5b61106d8261134f565b634e487b7160e01b600052604160045260246000fd5b604051601f8201601f1916810167ffffffffffffffff811182821017156113c5576113c5611386565b604052919050565b600067ffffffffffffffff8211156113e7576113e7611386565b5060051b60200190565b600082601f83011261140257600080fd5b81356020611417611412836113cd565b61139c565b8083825260208201915060208460051b87010193508684111561143957600080fd5b602086015b84811015611455578035835291830191830161143e565b509695505050505050565b6000806040838503121561147357600080fd5b823567ffffffffffffffff8082111561148b57600080fd5b818501915085601f83011261149f57600080fd5b813560206114af611412836113cd565b82815260059290921b840181019181810190898411156114ce57600080fd5b948201945b838610156114f3576114e48661134f565b825294820194908201906114d3565b9650508601359250508082111561150957600080fd5b50611516858286016113f1565b9150509250929050565b602080825282518282018190526000919060409081850190868401855b828110156115625781518051855286015186850152928401929085019060010161153d565b5091979650505050505050565b60006020828403121561158157600080fd5b5035919050565b60208082526029908201527f4d50524f56657374696e673a204163636f756e74206973206e6f7420612062656040820152686e656669636961727960b81b606082015260800190565b6000602082840312156115e357600080fd5b5051919050565b634e487b7160e01b600052601160045260246000fd5b80820180821115611070576110706115ea565b81810381811115611070576110706115ea565b634e487b7160e01b600052603260045260246000fd5b604080825283519082018190526000906020906060840190828701845b8281101561167e5781516001600160a01b031684529284019290840190600101611659565b5050508381038285015284518082528583019183019060005b818110156116b357835183529284019291840191600101611697565b5090979650505050505050565b6000826116dd57634e487b7160e01b600052601260045260246000fd5b500490565b8082028115828204841417611070576110706115ea565b60006020828403121561170b57600080fd5b8151801515811461171b57600080fd5b9392505050565b60005b8381101561173d578181015183820152602001611725565b50506000910152565b60008251611758818460208701611722565b9190910192915050565b6020815260008251806020840152611781816040850160208701611722565b601f01601f1916919091016040019291505056fea26469706673582212209d31376243dffcf73bfb7ba05c8b890011ab5363d04c824b0af30b87c4a7c0ea64736f6c63430008160033",
  "devdoc": {
    "kind": "dev",
    "methods": {
      "claim()": {
        "details": "Allows a beneficiary to claim their vested tokens. This function checks if the current time is past the TGE unlock timestamp and if there are tokens available for release. Updates the claimed amount in the `vestingBeneficiaries` mapping and transfers the eligible tokens to the caller. Emits a `Claim` event upon successful transfer of tokens."
      },
      "claimBalance()": {
        "details": "Returns the claimable balance of tokens for the caller. This function calculates the balance by subtracting the already claimed tokens from the total allocated amount for the caller. It can only be called by a beneficiary of the vesting contract.",
        "returns": {
          "_0": "The amount of tokens that the caller can claim."
        }
      },
      "claimedAllocation()": {
        "details": "Returns the amount of tokens already claimed by the caller. This function is accessible only to beneficiaries of the contract and provides an easy way to track the amount of tokens they have already withdrawn from their allocated amount.",
        "returns": {
          "_0": "The amount of tokens already claimed by the caller."
        }
      },
      "constructor": {
        "details": "Constructor for the MPROVesting contract. Initializes the contract with necessary parameters for token vesting. Sets the token address, Token Generation Event (TGE) unlock timestamp and percent, cliff delay, vesting percent per period, vesting period duration, and the contract owner. The TGE unlock timestamp defines when the initial unlock of tokens occurs, and the TGE unlock percent specifies the percentage of tokens unlocked at TGE. The cliff delay sets a period after TGE during which no tokens are vested. The vesting unlock percent per period and the vesting period duration define the rate and frequency at which tokens are vested after the cliff period. Ownership of the contract is transferred to `_newOwner` to allow management of vesting parameters and beneficiaries.",
        "params": {
          "_cliffDelay": "The delay after TGE during which no tokens are vested.",
          "_newOwner": "The address that will be granted ownership of the contract.",
          "_tgeUnlockPercent": "The percentage of total tokens to be unlocked at TGE.",
          "_tgeUnlockTimestamp": "The timestamp for the initial unlock of tokens (TGE).",
          "_vestingPeriodDuration": "The duration of each vesting period in seconds.",
          "_vestingUnlockPercentPerPeriod": "The percentage of tokens to be vested per vesting period."
        }
      },
      "enableForRelease()": {
        "details": "Calculates the amount of tokens that a beneficiary is eligible to claim at the current time. This function considers the TGE unlock timestamp, the cliff period, and the vesting schedule to compute the claimable amount. It returns zero if the current time is before the TGE unlock timestamp, and calculates the tokens available based on the vesting schedule otherwise.",
        "returns": {
          "_0": "The amount of tokens the beneficiary is currently eligible to claim."
        }
      },
      "owner()": {
        "details": "Returns the address of the current owner."
      },
      "registerBeneficiaries(address[],uint256[])": {
        "details": "Registers multiple beneficiaries for vesting. Each beneficiary is associated with a specific amount of tokens. This function can only be called by the contract owner. It validates the input arrays for proper length and non-zero addresses. Updates the `vestingBeneficiaries` mapping with the provided data. Emits `RegisterBeneficiaries` event upon successful registration.",
        "params": {
          "_amounts": "Array of token amounts corresponding to each beneficiary.",
          "_beneficiaries": "Array of beneficiary addresses."
        }
      },
      "renounceOwnership()": {
        "details": "Leaves the contract without owner. It will not be possible to call `onlyOwner` functions. Can only be called by the current owner. NOTE: Renouncing ownership will leave the contract without an owner, thereby disabling any functionality that is only available to the owner."
      },
      "setTgeUnlockTimestamp(uint256)": {
        "details": "Sets the TGE (Token Generation Event) unlock timestamp. This function allows the contract owner to set the timestamp indicating when tokens begin to unlock for beneficiaries. It enforces that the new timestamp is greater than the current time and less than a predefined deadline. Adjusts the `cliffTimestamp` accordingly to maintain the delay period. Emits a `SetTgeUnlockTimestamp` event upon successful update.",
        "params": {
          "_timestamp": "The new TGE unlock timestamp."
        }
      },
      "setVestingToken(address)": {
        "details": "Sets the vesting token address. This function can only be called by the contract owner. It enforces that the token address is non-zero and that the token has not already been set. Emits a `SetVestingToken` event upon successful update.",
        "params": {
          "_token": "The address of the ERC20 token to be vested."
        }
      },
      "transferOwnership(address)": {
        "details": "Transfers ownership of the contract to a new account (`newOwner`). Can only be called by the current owner."
      }
    },
    "stateVariables": {
      "UNLOCK_PERCENT_DIVIDER": {
        "details": "Constant representing the divider for percentage values. This is used to convert percentage values to their decimal representation. For example, a value of 10000 represents 100%."
      },
      "beneficiaryKeys": {
        "details": "Array of beneficiary addresses."
      },
      "cliffTimestamp": {
        "details": "The timestamp after which tokens begin to vest."
      },
      "tgeUnlockPercent": {
        "details": "The percentage of tokens to be unlocked at TGE (Token Generation Event)."
      },
      "tgeUnlockTimestamp": {
        "details": "The timestamp after which tokens begin to unlock."
      },
      "tgeUnlockTimestampDeadline": {
        "details": "The timestamp deadline after which the TGE unlock timestamp cannot be updated."
      },
      "token": {
        "details": "The ERC20 token address which is being vested in this contract."
      },
      "vestingBeneficiaries": {
        "details": "Mapping of beneficiary addresses to their respective vesting data."
      },
      "vestingPeriodDuration": {
        "details": "The duration of each vesting period in seconds."
      },
      "vestingUnlockPercentPerPeriod": {
        "details": "The percentage of tokens to be unlocked per vesting period."
      }
    },
    "version": 1
  },
  "userdoc": {
    "kind": "user",
    "methods": {},
    "version": 1
  },
  "storageLayout": {
    "storage": [
      {
        "astId": 7,
        "contract": "contracts/tests/MPROVesting.sol:TestVesting",
        "label": "_owner",
        "offset": 0,
        "slot": "0",
        "type": "t_address"
      },
      {
        "astId": 1300,
        "contract": "contracts/tests/MPROVesting.sol:TestVesting",
        "label": "token",
        "offset": 0,
        "slot": "1",
        "type": "t_address"
      },
      {
        "astId": 1306,
        "contract": "contracts/tests/MPROVesting.sol:TestVesting",
        "label": "vestingBeneficiaries",
        "offset": 0,
        "slot": "2",
        "type": "t_mapping(t_address,t_struct(VestingBeneficiary)1297_storage)"
      },
      {
        "astId": 1310,
        "contract": "contracts/tests/MPROVesting.sol:TestVesting",
        "label": "beneficiaryKeys",
        "offset": 0,
        "slot": "3",
        "type": "t_array(t_address)dyn_storage"
      },
      {
        "astId": 1316,
        "contract": "contracts/tests/MPROVesting.sol:TestVesting",
        "label": "tgeUnlockTimestamp",
        "offset": 0,
        "slot": "4",
        "type": "t_uint256"
      },
      {
        "astId": 1322,
        "contract": "contracts/tests/MPROVesting.sol:TestVesting",
        "label": "cliffTimestamp",
        "offset": 0,
        "slot": "5",
        "type": "t_uint256"
      }
    ],
    "types": {
      "t_address": {
        "encoding": "inplace",
        "label": "address",
        "numberOfBytes": "20"
      },
      "t_array(t_address)dyn_storage": {
        "base": "t_address",
        "encoding": "dynamic_array",
        "label": "address[]",
        "numberOfBytes": "32"
      },
      "t_mapping(t_address,t_struct(VestingBeneficiary)1297_storage)": {
        "encoding": "mapping",
        "key": "t_address",
        "label": "mapping(address => struct TestVesting.VestingBeneficiary)",
        "numberOfBytes": "32",
        "value": "t_struct(VestingBeneficiary)1297_storage"
      },
      "t_struct(VestingBeneficiary)1297_storage": {
        "encoding": "inplace",
        "label": "struct TestVesting.VestingBeneficiary",
        "members": [
          {
            "astId": 1294,
            "contract": "contracts/tests/MPROVesting.sol:TestVesting",
            "label": "amount",
            "offset": 0,
            "slot": "0",
            "type": "t_uint256"
          },
          {
            "astId": 1296,
            "contract": "contracts/tests/MPROVesting.sol:TestVesting",
            "label": "claimed",
            "offset": 0,
            "slot": "1",
            "type": "t_uint256"
          }
        ],
        "numberOfBytes": "64"
      },
      "t_uint256": {
        "encoding": "inplace",
        "label": "uint256",
        "numberOfBytes": "32"
      }
    }
  }
}