{
  "address": "0x19AaEc7Eccb462e0EF00A7235785f28F8D9Fb839",
  "abi": [
    {
      "inputs": [
        {
          "internalType": "address",
          "name": "_owner",
          "type": "address"
        }
      ],
      "stateMutability": "nonpayable",
      "type": "constructor"
    },
    {
      "anonymous": false,
      "inputs": [
        {
          "indexed": true,
          "internalType": "address",
          "name": "previousOwner",
          "type": "address"
        },
        {
          "indexed": true,
          "internalType": "address",
          "name": "newOwner",
          "type": "address"
        }
      ],
      "name": "OwnershipTransferred",
      "type": "event"
    },
    {
      "anonymous": false,
      "inputs": [
        {
          "indexed": true,
          "internalType": "bytes32",
          "name": "role",
          "type": "bytes32"
        },
        {
          "indexed": true,
          "internalType": "bytes32",
          "name": "previousAdminRole",
          "type": "bytes32"
        },
        {
          "indexed": true,
          "internalType": "bytes32",
          "name": "newAdminRole",
          "type": "bytes32"
        }
      ],
      "name": "RoleAdminChanged",
      "type": "event"
    },
    {
      "anonymous": false,
      "inputs": [
        {
          "indexed": true,
          "internalType": "bytes32",
          "name": "role",
          "type": "bytes32"
        },
        {
          "indexed": true,
          "internalType": "address",
          "name": "account",
          "type": "address"
        },
        {
          "indexed": true,
          "internalType": "address",
          "name": "sender",
          "type": "address"
        }
      ],
      "name": "RoleGranted",
      "type": "event"
    },
    {
      "anonymous": false,
      "inputs": [
        {
          "indexed": true,
          "internalType": "bytes32",
          "name": "role",
          "type": "bytes32"
        },
        {
          "indexed": true,
          "internalType": "address",
          "name": "account",
          "type": "address"
        },
        {
          "indexed": true,
          "internalType": "address",
          "name": "sender",
          "type": "address"
        }
      ],
      "name": "RoleRevoked",
      "type": "event"
    },
    {
      "anonymous": false,
      "inputs": [
        {
          "indexed": false,
          "internalType": "uint256",
          "name": "_burnRate",
          "type": "uint256"
        }
      ],
      "name": "SetBurnRate",
      "type": "event"
    },
    {
      "inputs": [],
      "name": "DEFAULT_ADMIN_ROLE",
      "outputs": [
        {
          "internalType": "bytes32",
          "name": "",
          "type": "bytes32"
        }
      ],
      "stateMutability": "view",
      "type": "function"
    },
    {
      "inputs": [],
      "name": "LISTER_ROLE",
      "outputs": [
        {
          "internalType": "bytes32",
          "name": "",
          "type": "bytes32"
        }
      ],
      "stateMutability": "view",
      "type": "function"
    },
    {
      "inputs": [
        {
          "internalType": "address",
          "name": "_spender",
          "type": "address"
        },
        {
          "internalType": "address",
          "name": "_msgSender",
          "type": "address"
        }
      ],
      "name": "approveAllowed",
      "outputs": [
        {
          "internalType": "bool",
          "name": "",
          "type": "bool"
        }
      ],
      "stateMutability": "view",
      "type": "function"
    },
    {
      "inputs": [
        {
          "internalType": "bytes32",
          "name": "",
          "type": "bytes32"
        }
      ],
      "name": "assignedRoles",
      "outputs": [
        {
          "internalType": "bool",
          "name": "",
          "type": "bool"
        }
      ],
      "stateMutability": "view",
      "type": "function"
    },
    {
      "inputs": [
        {
          "internalType": "address",
          "name": "_account",
          "type": "address"
        },
        {
          "internalType": "bool",
          "name": "_blocklist",
          "type": "bool"
        }
      ],
      "name": "blocklist",
      "outputs": [],
      "stateMutability": "nonpayable",
      "type": "function"
    },
    {
      "inputs": [],
      "name": "burnRate",
      "outputs": [
        {
          "internalType": "uint256",
          "name": "",
          "type": "uint256"
        }
      ],
      "stateMutability": "view",
      "type": "function"
    },
    {
      "inputs": [
        {
          "internalType": "address",
          "name": "_from",
          "type": "address"
        },
        {
          "internalType": "uint256",
          "name": "_amount",
          "type": "uint256"
        }
      ],
      "name": "getBurnAmount",
      "outputs": [
        {
          "internalType": "uint256",
          "name": "",
          "type": "uint256"
        }
      ],
      "stateMutability": "view",
      "type": "function"
    },
    {
      "inputs": [
        {
          "internalType": "bytes32",
          "name": "role",
          "type": "bytes32"
        }
      ],
      "name": "getRoleAdmin",
      "outputs": [
        {
          "internalType": "bytes32",
          "name": "",
          "type": "bytes32"
        }
      ],
      "stateMutability": "view",
      "type": "function"
    },
    {
      "inputs": [
        {
          "internalType": "bytes32",
          "name": "_role",
          "type": "bytes32"
        },
        {
          "internalType": "address",
          "name": "_account",
          "type": "address"
        }
      ],
      "name": "grantRole",
      "outputs": [],
      "stateMutability": "nonpayable",
      "type": "function"
    },
    {
      "inputs": [
        {
          "internalType": "bytes32",
          "name": "role",
          "type": "bytes32"
        },
        {
          "internalType": "address",
          "name": "account",
          "type": "address"
        }
      ],
      "name": "hasRole",
      "outputs": [
        {
          "internalType": "bool",
          "name": "",
          "type": "bool"
        }
      ],
      "stateMutability": "view",
      "type": "function"
    },
    {
      "inputs": [
        {
          "internalType": "address",
          "name": "_account",
          "type": "address"
        }
      ],
      "name": "isBlocklisted",
      "outputs": [
        {
          "internalType": "bool",
          "name": "",
          "type": "bool"
        }
      ],
      "stateMutability": "view",
      "type": "function"
    },
    {
      "inputs": [
        {
          "internalType": "address",
          "name": "_account",
          "type": "address"
        }
      ],
      "name": "isLister",
      "outputs": [
        {
          "internalType": "bool",
          "name": "",
          "type": "bool"
        }
      ],
      "stateMutability": "view",
      "type": "function"
    },
    {
      "inputs": [
        {
          "internalType": "address",
          "name": "_account",
          "type": "address"
        }
      ],
      "name": "isWhitelisted",
      "outputs": [
        {
          "internalType": "bool",
          "name": "",
          "type": "bool"
        }
      ],
      "stateMutability": "view",
      "type": "function"
    },
    {
      "inputs": [],
      "name": "owner",
      "outputs": [
        {
          "internalType": "address",
          "name": "",
          "type": "address"
        }
      ],
      "stateMutability": "view",
      "type": "function"
    },
    {
      "inputs": [],
      "name": "renounceOwnership",
      "outputs": [],
      "stateMutability": "nonpayable",
      "type": "function"
    },
    {
      "inputs": [
        {
          "internalType": "bytes32",
          "name": "_role",
          "type": "bytes32"
        },
        {
          "internalType": "address",
          "name": "_account",
          "type": "address"
        }
      ],
      "name": "renounceRole",
      "outputs": [],
      "stateMutability": "nonpayable",
      "type": "function"
    },
    {
      "inputs": [
        {
          "internalType": "bytes32",
          "name": "_role",
          "type": "bytes32"
        },
        {
          "internalType": "address",
          "name": "_account",
          "type": "address"
        }
      ],
      "name": "revokeRole",
      "outputs": [],
      "stateMutability": "nonpayable",
      "type": "function"
    },
    {
      "inputs": [
        {
          "internalType": "uint256",
          "name": "_burnRate",
          "type": "uint256"
        }
      ],
      "name": "setBurnRate",
      "outputs": [],
      "stateMutability": "nonpayable",
      "type": "function"
    },
    {
      "inputs": [
        {
          "internalType": "bytes4",
          "name": "interfaceId",
          "type": "bytes4"
        }
      ],
      "name": "supportsInterface",
      "outputs": [
        {
          "internalType": "bool",
          "name": "",
          "type": "bool"
        }
      ],
      "stateMutability": "view",
      "type": "function"
    },
    {
      "inputs": [
        {
          "internalType": "address",
          "name": "_from",
          "type": "address"
        },
        {
          "internalType": "address",
          "name": "_to",
          "type": "address"
        },
        {
          "internalType": "address",
          "name": "_msgSender",
          "type": "address"
        }
      ],
      "name": "transferAllowed",
      "outputs": [
        {
          "internalType": "bool",
          "name": "",
          "type": "bool"
        }
      ],
      "stateMutability": "view",
      "type": "function"
    },
    {
      "inputs": [
        {
          "internalType": "address",
          "name": "newOwner",
          "type": "address"
        }
      ],
      "name": "transferOwnership",
      "outputs": [],
      "stateMutability": "nonpayable",
      "type": "function"
    },
    {
      "inputs": [
        {
          "internalType": "address",
          "name": "_account",
          "type": "address"
        },
        {
          "internalType": "bool",
          "name": "_whitelist",
          "type": "bool"
        }
      ],
      "name": "whitelist",
      "outputs": [],
      "stateMutability": "nonpayable",
      "type": "function"
    }
  ],
  "transactionHash": "0x758b5617fc6743d4bc37fe0c634f9bccf3bdfa8e166a2a9312f5b355b2694941",
  "args": [
    "0x767e5C2359e7c809b16D8cFFdB9464F91b6c970B"
  ],
  "numDeployments": 1,
  "solcInputHash": "3e791fa7908f8a28779308ad541f67e2",
  "bytecode": "0x60806040526103e860055534801561001657600080fd5b506040516113873803806113878339810160408190526100359161009f565b61003e3361004d565b6100478161004d565b506100cf565b600180546001600160a01b038381166001600160a01b0319831681179093556040519116919082907f8be0079c531659141344cd1fd0a4f28419497f9722a3daafe3b4186f6b6457e090600090a35050565b6000602082840312156100b157600080fd5b81516001600160a01b03811681146100c857600080fd5b9392505050565b6112a9806100de6000396000f3fe608060405234801561001057600080fd5b50600436106101425760003560e01c806393fc9e5f116100b8578063d547741f1161007c578063d547741f146102a4578063deb26b94146102b7578063eba1c66b146102cc578063f2fde38b146102df578063f59c3708146102f2578063fc0e8c1b1461030557600080fd5b806393fc9e5f1461025a578063a217fddf1461026d578063b7c4a6bf14610275578063bed9985014610288578063d2b707791461029157600080fd5b80633af32abf1161010a5780633af32abf146101db578063715018a6146101ee57806387377141146101f65780638da5cb5b146102195780638e204c431461023457806391d148541461024757600080fd5b806301ffc9a714610147578063189d165e1461016f578063248a9ca3146101845780632f2ff15d146101b557806336568abe146101c8575b600080fd5b61015a610155366004610ea3565b610318565b60405190151581526020015b60405180910390f35b61018261017d366004610ecd565b61034f565b005b6101a7610192366004610ecd565b60009081526020819052604090206001015490565b604051908152602001610166565b6101826101c3366004610efb565b610421565b6101826101d6366004610efb565b6105b0565b61015a6101e9366004610f2b565b6106de565b610182610715565b61015a610204366004610ecd565b60026020526000908152604090205460ff1681565b6001546040516001600160a01b039091168152602001610166565b61015a610242366004610f2b565b610729565b61015a610255366004610efb565b610747565b61015a610268366004610f48565b610770565b6101a7600081565b6101a7610283366004610f93565b6107c6565b6101a760055481565b61015a61029f366004610fbf565b610806565b6101826102b2366004610efb565b610849565b6101a760008051602061125483398151915281565b6101826102da366004610fed565b610878565b6101826102ed366004610f2b565b6109ea565b610182610300366004610fed565b610a63565b61015a610313366004610f2b565b610acf565b60006001600160e01b03198216637965db0b60e01b148061034957506301ffc9a760e01b6001600160e01b03198316145b92915050565b610357610ae9565b6103e88111156103e65760405162461bcd60e51b815260206004820152604960248201527f4a414b414e544d61737465724469737472696275746f723a204275726e20726160448201527f74652063616e6e6f742062652067726561746572207468616e206f7220657175606482015268616c20746f2031302560b81b608482015260a4015b60405180910390fd5b60058190556040518181527f9184e9ae9554b2f814a8bdda1712d37b4b6ae7aac79868386ac664e57ce1dcf39060200160405180910390a150565b610429610ae9565b6001600160a01b038116600090815260036020526040902054819060ff16156104645760405162461bcd60e51b81526004016103dd90611020565b816001600160a01b03811661048b5760405162461bcd60e51b81526004016103dd90611076565b83610497816000610747565b156104fc5760405162461bcd60e51b815260206004820152602f60248201527f4a414b414e544d61737465724469737472696275746f723a20526f6c6520697360448201526e08185b1c9958591e48189d5c9b9959608a1b60648201526084016103dd565b600085815260026020526040902054859060ff1615610585576040805162461bcd60e51b81526020600482015260248101919091527f4a414b414e544d61737465724469737472696275746f723a20526f6c6520616c60448201527f7265616479206772616e74656420746f20616e6f74686572206163636f756e7460648201526084016103dd565b6000868152600260205260409020805460ff191660011790556105a88686610b43565b505050505050565b806001600160a01b0381166105d75760405162461bcd60e51b81526004016103dd90611076565b6001600160a01b03821633146106475760405162461bcd60e51b815260206004820152602f60248201527f416363657373436f6e74726f6c3a2063616e206f6e6c792072656e6f756e636560448201526e103937b632b9903337b91039b2b63360891b60648201526084016103dd565b6106518383610747565b6106b95760405162461bcd60e51b815260206004820152603360248201527f4a414b414e544d61737465724469737472696275746f723a204163636f756e7460448201527220646f6573206e6f74206861766520726f6c6560681b60648201526084016103dd565b6000838152600260205260409020805460ff191690556106d98383610bc8565b505050565b60006001600160a01b0382166106f657506001919050565b506001600160a01b031660009081526004602052604090205460ff1690565b61071d610ae9565b6107276000610c2d565b565b6001600160a01b031660009081526003602052604090205460ff1690565b6000918252602082815260408084206001600160a01b0393909316845291905290205460ff1690565b600061077b84610729565b15801561078e575061078c83610729565b155b80156107a0575061079e82610729565b155b6107bc5760405162461bcd60e51b81526004016103dd90611020565b5060019392505050565b60006107d1836106de565b156107de57506000610349565b6107ff6127106107f960055485610c7f90919063ffffffff16565b90610c8b565b9392505050565b600061081183610729565b158015610824575061082282610729565b155b6108405760405162461bcd60e51b81526004016103dd90611020565b50600192915050565b610851610ae9565b806001600160a01b0381166106475760405162461bcd60e51b81526004016103dd90611076565b60008051602061125483398151915261089081610c97565b826001600160a01b0381166108b75760405162461bcd60e51b81526004016103dd90611076565b836001600160a01b0316306001600160a01b0316638da5cb5b6040518163ffffffff1660e01b8152600401602060405180830381865afa1580156108ff573d6000803e3d6000fd5b505050506040513d601f19601f8201168201806040525081019061092391906110c5565b6001600160a01b0316148061093c575061093c84610acf565b156109bd5760405162461bcd60e51b815260206004820152604560248201527f4a414b414e544d61737465724469737472696275746f723a204163636f756e7460448201527f20686173206120726f6c6520616e642063616e6e6f7420626520626c6f636b6c6064820152641a5cdd195960da1b608482015260a4016103dd565b50506001600160a01b03919091166000908152600360205260409020805460ff1916911515919091179055565b6109f2610ae9565b6001600160a01b038116610a575760405162461bcd60e51b815260206004820152602660248201527f4f776e61626c653a206e6577206f776e657220697320746865207a65726f206160448201526564647265737360d01b60648201526084016103dd565b610a6081610c2d565b50565b600080516020611254833981519152610a7b81610c97565b826001600160a01b038116610aa25760405162461bcd60e51b81526004016103dd90611076565b50506001600160a01b03919091166000908152600460205260409020805460ff1916911515919091179055565b600061034960008051602061125483398151915283610747565b6001546001600160a01b031633146107275760405162461bcd60e51b815260206004820181905260248201527f4f776e61626c653a2063616c6c6572206973206e6f7420746865206f776e657260448201526064016103dd565b610b4d8282610747565b610bc4576000828152602081815260408083206001600160a01b03851684529091529020805460ff19166001179055610b833390565b6001600160a01b0316816001600160a01b0316837f2f8788117e7eff1d82e926ec794901d17c78024a50270940304540a733656f0d60405160405180910390a45b5050565b610bd28282610747565b15610bc4576000828152602081815260408083206001600160a01b0385168085529252808320805460ff1916905551339285917ff6391f5c32d9c69d2a47ea670b442974b53935d1edc7fd64eb21e047a839171b9190a45050565b600180546001600160a01b038381166001600160a01b0319831681179093556040519116919082907f8be0079c531659141344cd1fd0a4f28419497f9722a3daafe3b4186f6b6457e090600090a35050565b60006107ff82846110f8565b60006107ff828461110f565b610a608133610ca68282610747565b610bc457610cb381610cf5565b610cbe836020610d07565b604051602001610ccf929190611155565b60408051601f198184030181529082905262461bcd60e51b82526103dd916004016111ca565b60606103496001600160a01b03831660145b60606000610d168360026110f8565b610d219060026111fd565b67ffffffffffffffff811115610d3957610d39611210565b6040519080825280601f01601f191660200182016040528015610d63576020820181803683370190505b509050600360fc1b81600081518110610d7e57610d7e611226565b60200101906001600160f81b031916908160001a905350600f60fb1b81600181518110610dad57610dad611226565b60200101906001600160f81b031916908160001a9053506000610dd18460026110f8565b610ddc9060016111fd565b90505b6001811115610e54576f181899199a1a9b1b9c1cb0b131b232b360811b85600f1660108110610e1057610e10611226565b1a60f81b828281518110610e2657610e26611226565b60200101906001600160f81b031916908160001a90535060049490941c93610e4d8161123c565b9050610ddf565b5083156107ff5760405162461bcd60e51b815260206004820181905260248201527f537472696e67733a20686578206c656e67746820696e73756666696369656e7460448201526064016103dd565b600060208284031215610eb557600080fd5b81356001600160e01b0319811681146107ff57600080fd5b600060208284031215610edf57600080fd5b5035919050565b6001600160a01b0381168114610a6057600080fd5b60008060408385031215610f0e57600080fd5b823591506020830135610f2081610ee6565b809150509250929050565b600060208284031215610f3d57600080fd5b81356107ff81610ee6565b600080600060608486031215610f5d57600080fd5b8335610f6881610ee6565b92506020840135610f7881610ee6565b91506040840135610f8881610ee6565b809150509250925092565b60008060408385031215610fa657600080fd5b8235610fb181610ee6565b946020939093013593505050565b60008060408385031215610fd257600080fd5b8235610fdd81610ee6565b91506020830135610f2081610ee6565b6000806040838503121561100057600080fd5b823561100b81610ee6565b915060208301358015158114610f2057600080fd5b60208082526036908201527f4a414b414e544d61737465724469737472696275746f723a20416374696f6e206040820152751bdb88189b1bd8dadb1a5cdd1959081858d8dbdd5b9d60521b606082015260800190565b6020808252602f908201527f4a414b414e544d61737465724469737472696275746f723a20416374696f6e2060408201526e6f6e2061646472657373207a65726f60881b606082015260800190565b6000602082840312156110d757600080fd5b81516107ff81610ee6565b634e487b7160e01b600052601160045260246000fd5b8082028115828204841417610349576103496110e2565b60008261112c57634e487b7160e01b600052601260045260246000fd5b500490565b60005b8381101561114c578181015183820152602001611134565b50506000910152565b7f416363657373436f6e74726f6c3a206163636f756e742000000000000000000081526000835161118d816017850160208801611131565b7001034b99036b4b9b9b4b733903937b6329607d1b60179184019182015283516111be816028840160208801611131565b01602801949350505050565b60208152600082518060208401526111e9816040850160208701611131565b601f01601f19169190910160400192915050565b80820180821115610349576103496110e2565b634e487b7160e01b600052604160045260246000fd5b634e487b7160e01b600052603260045260246000fd5b60008161124b5761124b6110e2565b50600019019056fef94103142c1baabe9ac2b5d1487bf783de9e69cfeea9a72f5c9c94afd7877b8ca2646970667358221220dd6a87eb14cd5cc57cc2696f657ee97465376c489afce342762e72c4db935e7864736f6c63430008140033",
  "devdoc": {
    "details": "The JAKANTMasterDistributor contract manages token distribution and related operations. It is responsible for distributing tokens to eligible recipients based on specified rules and configurations. This contract utilizes the AccessControl feature for role-based access control. This contract extends the Context and AccessControl contracts to leverage their functionality. Role-based access control allows specific roles to perform authorized actions within the contract, ensuring proper governance and security.",
    "events": {
      "RoleAdminChanged(bytes32,bytes32,bytes32)": {
        "details": "Emitted when `newAdminRole` is set as ``role``'s admin role, replacing `previousAdminRole` `DEFAULT_ADMIN_ROLE` is the starting admin for all roles, despite {RoleAdminChanged} not being emitted signaling this. _Available since v3.1._"
      },
      "RoleGranted(bytes32,address,address)": {
        "details": "Emitted when `account` is granted `role`. `sender` is the account that originated the contract call, an admin role bearer except when using {AccessControl-_setupRole}."
      },
      "RoleRevoked(bytes32,address,address)": {
        "details": "Emitted when `account` is revoked `role`. `sender` is the account that originated the contract call:   - if using `revokeRole`, it is the admin role bearer   - if using `renounceRole`, it is the role bearer (i.e. `account`)"
      }
    },
    "kind": "dev",
    "methods": {
      "approveAllowed(address,address)": {
        "details": "Public view function to check if token approval is allowed. This function is used to enforce restrictions on token approvals based on blocklist criteria. It checks whether the spender or the caller of the function (message sender) are on a blocklist. If either of these addresses are blocklisted, the function reverts the transaction, preventing the approval operation. This check is crucial in scenarios where blocklisted addresses should not be permitted to interact with the token, including being approved to spend tokens on behalf of others. By incorporating this function into the approval process, the contract adds an additional layer of security and regulatory compliance. Being a `view` function, `approveAllowed` does not alter the state of the blockchain but reads from it to ensure compliance with the blocklist rules before any approval is granted.",
        "params": {
          "_msgSender": "The address initiating the approval request. Requirements: - Neither the spender (_spender) nor the initiator of the approval (_msgSender) can be   on the blocklist. If any of them are blocklisted, the function reverts with an error message.",
          "_spender": "The address being granted permission to spend tokens."
        }
      },
      "blocklist(address,bool)": {
        "details": "External function to blocklist or unblocklist an account. This function allows an address with the `LISTER_ROLE` to either blocklist or remove an account from the contract's blocklist. Blocklisting an account may restrict it from performing certain operations or participating in specific aspects of the contract, as defined by the contract's logic. The function takes two parameters: - `_account`: The address to be either blocklisted or unblocklisted. - `_blocklist`: A boolean indicating whether to blocklist (`true`) or unblocklist (`false`)   the account. Before modifying the blocklist status, the function checks if the specified `_account` address holds any other roles within the contract (owner, lister, pauser, distributor). If the account has any of these roles, the function reverts to prevent the blocklisting of accounts with roles. Access to this function is restricted to addresses with the `LISTER_ROLE`, ensuring that only authorized entities can modify the blocklist.",
        "params": {
          "_account": "The address to be blocklisted or unblocklisted.",
          "_blocklist": "A boolean indicating whether to blocklist or unblocklist the account. Requirements: - The `_account` address must not be the zero address (`address(0)`).   This prevents accidentally modifying the zero address, which may have special significance. - The `_account` address must not have any other roles (owner, lister, pauser, distributor).   Accounts with these roles cannot be blocklisted."
        }
      },
      "constructor": {
        "details": "Constructor for the contract. Initializes the contract by setting the distribution start timestamp, the distribution deadline, and assigning the OWNER_ROLE to the provided owner address. The distribution start timestamp is set to 14 days from the current block time, providing a preparation period before the distribution begins. The distribution deadline is set to 30 days from the current block time, creating a finite period for the distribution process. The OWNER_ROLE is crucial for contract administration and oversight, allowing the owner to manage the contract's key operations.",
        "params": {
          "_owner": "The address that will be assigned the OWNER_ROLE, granting administrative control over the contract."
        }
      },
      "getBurnAmount(address,uint256)": {
        "details": "Calculates the amount to be burned based on the burn rate. This function calculates the amount of tokens that should be burned from a given transaction amount, based on the current burn rate. The burn rate is applied unless the sender's address is whitelisted, in which case no tokens are burned. The function performs the following operations: - It checks if the sender (`_from`) is whitelisted using the `mproRoleManager.isWhitelisted`   function. If the sender is whitelisted, the function returns 0, indicating no burn is applied. - If the sender is not whitelisted, the function calculates the burn amount by applying the   burn rate to the transaction amount (`_amount`). The burn rate is represented as a percentage   scaled by a factor of 10000 (e.g., a burn rate of 10% is represented as 1000). The calculated   burn amount is then returned. This mechanism allows for a dynamic burn policy where certain addresses can be exempted from burning, potentially for promotional or operational purposes.",
        "params": {
          "_amount": "The amount of tokens being transferred, from which the burn amount will be calculated.",
          "_from": "The address from which the tokens are being transferred."
        },
        "returns": {
          "_0": "The calculated amount of tokens to be burned."
        }
      },
      "getRoleAdmin(bytes32)": {
        "details": "Returns the admin role that controls `role`. See {grantRole} and {revokeRole}. To change a role's admin, use {_setRoleAdmin}."
      },
      "grantRole(bytes32,address)": {
        "details": "Public function to grant a specific role to an account. This function allows the contract owner to grant a specific role to the `_account` address. Roles are used to define permissions and responsibilities within the contract, and granting a role confers those associated privileges to the specified account. The function takes two parameters: - `_role`: The bytes32 identifier of the role to be granted. - `_account`: The address to which the role is to be granted. As a safeguard, the function enforces several preconditions before granting the role: - Ensures that the `_account` address is not blocklisted, maintaining the security and integrity   of the contract by preventing potentially malicious entities from gaining privileged access. - Checks that the `_account` address is not the zero address (`address(0)`), avoiding unintentional   role assignments to an address that may have special significance or represent \"no address\". - Verifies that the role has not already been burned, ensuring that only active, valid roles are   assignable. - Confirms that the role has not already been granted, upholding the principle of unique role assignments. This function can only be called by the contract owner, ensuring that role management is kept under tight control and preventing unauthorized role assignments.",
        "params": {
          "_account": "The address to which the role is to be granted. Requirements: - The contract caller must be the contract owner. - The `_account` must not be blocklisted or the zero address. - The `_role` must not be burned or already granted.",
          "_role": "The bytes32 identifier of the role to be granted."
        }
      },
      "hasRole(bytes32,address)": {
        "details": "Returns `true` if `account` has been granted `role`."
      },
      "isBlocklisted(address)": {
        "details": "Public view function to check if an account is blocklisted. This function allows anyone to determine if a specific account is included in the contract's blocklist. An account that is blocklisted may be restricted from performing certain operations or participating in specific aspects of the contract, as defined by the contract's logic. The function checks the `blocklisted` mapping to see if the provided `_account` address is marked as blocklisted, returning a boolean value indicating the blocklist status. Being a `view` function, it only reads the blocklist status from the contract's state and does not modify the contract. This function is typically used in access control mechanisms where actions are conditional based on whether an account is blocklisted.",
        "params": {
          "_account": "The address to be checked for blocklist status."
        },
        "returns": {
          "_0": "`true` if the account is blocklisted, `false` otherwise."
        }
      },
      "isLister(address)": {
        "details": "Public view function to check if an account has the LISTER_ROLE. This function provides a convenient way to verify if a specific account has been granted the LISTER_ROLE within the contract. The LISTER_ROLE is typically associated with permissions to list items or manage lists within the contract's ecosystem. The function takes a single parameter: - `_account`: The address of the account to check for the LISTER_ROLE. It returns a boolean value indicating whether the specified account has the LISTER_ROLE. This can be particularly useful for front-end interfaces or other contract interactions that require a quick check of an account's roles or permissions.",
        "params": {
          "_account": "The address of the account to check for the LISTER_ROLE."
        },
        "returns": {
          "_0": "A boolean value indicating whether the specified account has the LISTER_ROLE."
        }
      },
      "isWhitelisted(address)": {
        "details": "External view function to check if an account is whitelisted. This function is accessible externally and is used to determine if a specific account is included in the whitelist of the contract. Whitelisted accounts often have certain privileges or are exempt from various restrictions that apply to other users. The function's logic is as follows: - If the provided `_account` address is the zero address (`address(0)`), the function   returns `true`. This implies a default allowance or special treatment for the zero address   in certain contexts. - For any other address, it checks the `whitelisted` mapping to see if the address is   marked as whitelisted, returning a boolean value that indicates the status. Being a `view` function, it does not modify the state of the contract but simply reads and returns the whitelisting status. It is typically used in access control checks, where different actions or permissions are granted based on the user's whitelist status.",
        "params": {
          "_account": "The address to be checked for its whitelisted status."
        },
        "returns": {
          "_0": "`true` if the account is whitelisted, `false` otherwise."
        }
      },
      "owner()": {
        "details": "Returns the address of the current owner."
      },
      "renounceOwnership()": {
        "details": "Leaves the contract without owner. It will not be possible to call `onlyOwner` functions. Can only be called by the current owner. NOTE: Renouncing ownership will leave the contract without an owner, thereby disabling any functionality that is only available to the owner."
      },
      "renounceRole(bytes32,address)": {
        "details": "Public function for an account to renounce a specific role it possesses. This function allows an account to voluntarily renounce a role it holds, effectively removing the associated permissions and responsibilities. It's a self-initiated action, meaning an account can only renounce roles that it possesses for itself, enhancing the security by preventing external entities from forcibly removing roles. The function takes two parameters: - `_role`: The bytes32 identifier of the role to be renounced. - `_account`: The address of the account renouncing the role. To ensure security and prevent   unintended renunciations, the function checks that `_account` is the same as `_msgSender()`. Before allowing the role to be renounced, the function performs the following check: - Verifies that the `_account` address is not the zero address (`address(0)`) to prevent   accidental modifications of the zero address, which may have special significance. Upon successfully renouncing the role, the function updates the `assignedRoles` mapping and calls the internal `_revokeRole` function to formally remove the role.",
        "params": {
          "_account": "The address of the account renouncing the role. Requirements: - The `_account` address must not be the zero address (`address(0)`). - The `_account` must be the same as `_msgSender()`, ensuring that accounts can only renounce   roles for themselves.",
          "_role": "The bytes32 identifier of the role to be renounced."
        }
      },
      "revokeRole(bytes32,address)": {
        "details": "Public function to revoke a specific role from an account. This function allows the contract owner to remove a previously granted role from the `_account` address. Roles are crucial for defining permissions and responsibilities within the contract, and revoking a role removes those associated privileges from the specified account. The function takes two parameters: - `_role`: The bytes32 identifier of the role to be revoked. - `_account`: The address from which the role is to be removed. Before revoking the role, the function performs the following checks: - Verifies that the `_account` address is not the zero address (`address(0)`) to prevent accidental   modifications of the zero address, which may have special significance. - Ensures that the `_account` currently has the role to be revoked, providing a safeguard against   unnecessary or mistaken revocations. Access to this function is restricted to addresses with the `OWNER_ROLE`, ensuring that only contract owners or administrators can revoke roles. Upon successful revocation of the role, the function updates the `assignedRoles` mapping and calls the internal `_revokeRole` function.",
        "params": {
          "_account": "The address from which the role is to be removed. Requirements: - The `_account` address must not be the zero address (`address(0)`). - The `_account` must currently have the role that is being revoked.",
          "_role": "The bytes32 identifier of the role to be revoked."
        }
      },
      "setBurnRate(uint256)": {
        "details": "Sets the burn rate for the contract. This external function allows an account with the OWNER_ROLE to set the burn rate, which is the percentage of the tokens that will be burned during certain operations. The burn rate is expressed as a percentage with a precision of up to three decimal places. For example, a burn rate of 1000 represents a 10% burn rate (1000 / 100 = 10%). A constraint is enforced to ensure that the burn rate does not exceed 10% (represented as 1000 in the contract). This safeguard prevents setting an excessively high burn rate that could adversely impact the token economy or operations of the contract. It's critical to input the correct value for the burn rate as it directly affects the token dynamics. Only authorized accounts with the OWNER_ROLE can perform this operation, ensuring that the burn rate is controlled and updated responsibly.",
        "params": {
          "_burnRate": "The new burn rate to be set, scaled by a factor of 100. For example, to set a                 burn rate of 1%, `_burnFee` should be 10."
        }
      },
      "supportsInterface(bytes4)": {
        "details": "See {IERC165-supportsInterface}."
      },
      "transferAllowed(address,address,address)": {
        "details": "Public view function to check if a token transfer is allowed. This function is used to enforce restrictions on token transfers based on blocklist criteria. It checks whether any of the involved parties in a token transfer (the sender, receiver, and the caller of the function) are on a blocklist. If any of these addresses are blocklisted, the function reverts the transaction, preventing the transfer. Being a `view` function, it does not modify the state of the blockchain but reads from it. This function can be integrated into the token transfer process to add an additional layer of security and compliance, ensuring that tokens cannot be transferred by or to blocklisted addresses.",
        "params": {
          "_from": "The address attempting to send tokens.",
          "_msgSender": "The address initiating the transfer request. Requirements: - None of the involved addresses (_from, _to, and _msgSender) can be on the blocklist.   If any are blocklisted, the function reverts with an error message.",
          "_to": "The address intended to receive the tokens."
        }
      },
      "transferOwnership(address)": {
        "details": "Transfers ownership of the contract to a new account (`newOwner`). Can only be called by the current owner."
      },
      "whitelist(address,bool)": {
        "details": "External function to whitelist or unwhitelist an account. This function allows an address with the `LISTER_ROLE` to either whitelist or remove an account from the contract's whitelist. Whitelisting typically grants certain privileges or exemptions to the whitelisted account, while removing an account from the whitelist revokes these privileges. The function takes two parameters: - `_account`: The address to be either whitelisted or removed from the whitelist. - `_whitelist`: A boolean indicating whether to whitelist (`true`) or unwhitelist (`false`)   the account. The function sets the whitelisting status of the specified account by updating the `whitelisted` mapping accordingly. Access to this function is restricted to addresses with the `LISTER_ROLE`, ensuring that only authorized entities can modify the whitelist.",
        "params": {
          "_account": "The address to be whitelisted or unwhitelisted.",
          "_whitelist": "A boolean indicating whether to whitelist or unwhitelist the account. Requirements: - The `_account` address must not be the zero address (`address(0)`).   This prevents accidentally modifying the zero address, which may have special significance."
        }
      }
    },
    "stateVariables": {
      "blocklisted": {
        "details": "Internal mapping to manage blocklisted addresses. This mapping associates addresses (keys) with boolean values to maintain a list of addresses that are considered \"blocklisted\" within the contract's logic. If an address is included in this mapping with a `true` value, it indicates that the address is blocklisted and may be subject to certain restrictions or limitations imposed by the contract. The mapping is typically used in access control mechanisms and other parts of the contract's logic to determine the behavior or privileges associated with addresses based on their blocklist status."
      },
      "burnRate": {
        "details": "Public variable representing the burn rate for tokens. This variable determines the burn rate for tokens within the contract, expressed as a percentage. A burn rate of 1000 corresponds to 10%, where a portion of tokens is burned during certain operations. A burn rate of 10000 would represent 100%. The value of this variable can be adjusted to control the rate at which tokens are burned during specific actions, impacting the total token supply over time."
      },
      "whitelisted": {
        "details": "Internal mapping to manage whitelisted addresses. This mapping associates addresses (keys) with boolean values to maintain a list of addresses that are considered \"whitelisted\" within the contract's logic. If an address is included in this mapping with a `true` value, it indicates that the address is whitelisted and may have special privileges or exemptions within the contract. The mapping is typically used in access control mechanisms and other parts of the contract's logic to determine the behavior or privileges associated with addresses based on their whitelist status."
      }
    },
    "title": "MPRO Master Distributor Contract",
    "version": 1
  },
  "userdoc": {
    "kind": "user",
    "methods": {},
    "version": 1
  },
  "storageLayout": {
    "storage": [
      {
        "astId": 24,
        "contract": "contracts/MPROMasterDistributorLight.sol:JAKANTMasterDistributor",
        "label": "_roles",
        "offset": 0,
        "slot": "0",
        "type": "t_mapping(t_bytes32,t_struct(RoleData)19_storage)"
      },
      {
        "astId": 396,
        "contract": "contracts/MPROMasterDistributorLight.sol:JAKANTMasterDistributor",
        "label": "_owner",
        "offset": 0,
        "slot": "1",
        "type": "t_address"
      },
      {
        "astId": 2795,
        "contract": "contracts/MPROMasterDistributorLight.sol:JAKANTMasterDistributor",
        "label": "assignedRoles",
        "offset": 0,
        "slot": "2",
        "type": "t_mapping(t_bytes32,t_bool)"
      },
      {
        "astId": 2800,
        "contract": "contracts/MPROMasterDistributorLight.sol:JAKANTMasterDistributor",
        "label": "blocklisted",
        "offset": 0,
        "slot": "3",
        "type": "t_mapping(t_address,t_bool)"
      },
      {
        "astId": 2805,
        "contract": "contracts/MPROMasterDistributorLight.sol:JAKANTMasterDistributor",
        "label": "whitelisted",
        "offset": 0,
        "slot": "4",
        "type": "t_mapping(t_address,t_bool)"
      },
      {
        "astId": 2809,
        "contract": "contracts/MPROMasterDistributorLight.sol:JAKANTMasterDistributor",
        "label": "burnRate",
        "offset": 0,
        "slot": "5",
        "type": "t_uint256"
      }
    ],
    "types": {
      "t_address": {
        "encoding": "inplace",
        "label": "address",
        "numberOfBytes": "20"
      },
      "t_bool": {
        "encoding": "inplace",
        "label": "bool",
        "numberOfBytes": "1"
      },
      "t_bytes32": {
        "encoding": "inplace",
        "label": "bytes32",
        "numberOfBytes": "32"
      },
      "t_mapping(t_address,t_bool)": {
        "encoding": "mapping",
        "key": "t_address",
        "label": "mapping(address => bool)",
        "numberOfBytes": "32",
        "value": "t_bool"
      },
      "t_mapping(t_bytes32,t_bool)": {
        "encoding": "mapping",
        "key": "t_bytes32",
        "label": "mapping(bytes32 => bool)",
        "numberOfBytes": "32",
        "value": "t_bool"
      },
      "t_mapping(t_bytes32,t_struct(RoleData)19_storage)": {
        "encoding": "mapping",
        "key": "t_bytes32",
        "label": "mapping(bytes32 => struct AccessControl.RoleData)",
        "numberOfBytes": "32",
        "value": "t_struct(RoleData)19_storage"
      },
      "t_struct(RoleData)19_storage": {
        "encoding": "inplace",
        "label": "struct AccessControl.RoleData",
        "members": [
          {
            "astId": 16,
            "contract": "contracts/MPROMasterDistributorLight.sol:JAKANTMasterDistributor",
            "label": "members",
            "offset": 0,
            "slot": "0",
            "type": "t_mapping(t_address,t_bool)"
          },
          {
            "astId": 18,
            "contract": "contracts/MPROMasterDistributorLight.sol:JAKANTMasterDistributor",
            "label": "adminRole",
            "offset": 0,
            "slot": "1",
            "type": "t_bytes32"
          }
        ],
        "numberOfBytes": "64"
      },
      "t_uint256": {
        "encoding": "inplace",
        "label": "uint256",
        "numberOfBytes": "32"
      }
    }
  }
}