{
  "address": "0xb27596bcBaaB328309161b7E852C7dC48680e789",
  "abi": [
    {
      "inputs": [
        {
          "internalType": "string",
          "name": "_tokenUri",
          "type": "string"
        }
      ],
      "stateMutability": "nonpayable",
      "type": "constructor"
    },
    {
      "anonymous": false,
      "inputs": [
        {
          "indexed": true,
          "internalType": "address",
          "name": "account",
          "type": "address"
        },
        {
          "indexed": true,
          "internalType": "address",
          "name": "operator",
          "type": "address"
        },
        {
          "indexed": false,
          "internalType": "bool",
          "name": "approved",
          "type": "bool"
        }
      ],
      "name": "ApprovalForAll",
      "type": "event"
    },
    {
      "anonymous": false,
      "inputs": [
        {
          "indexed": true,
          "internalType": "address",
          "name": "creator",
          "type": "address"
        },
        {
          "indexed": true,
          "internalType": "address",
          "name": "initialOwner",
          "type": "address"
        },
        {
          "indexed": false,
          "internalType": "uint256",
          "name": "_tokenId",
          "type": "uint256"
        },
        {
          "indexed": false,
          "internalType": "uint256",
          "name": "_quantity",
          "type": "uint256"
        }
      ],
      "name": "Minted",
      "type": "event"
    },
    {
      "anonymous": false,
      "inputs": [
        {
          "indexed": true,
          "internalType": "address",
          "name": "operator",
          "type": "address"
        },
        {
          "indexed": true,
          "internalType": "address",
          "name": "from",
          "type": "address"
        },
        {
          "indexed": true,
          "internalType": "address",
          "name": "to",
          "type": "address"
        },
        {
          "indexed": false,
          "internalType": "uint256[]",
          "name": "ids",
          "type": "uint256[]"
        },
        {
          "indexed": false,
          "internalType": "uint256[]",
          "name": "values",
          "type": "uint256[]"
        }
      ],
      "name": "TransferBatch",
      "type": "event"
    },
    {
      "anonymous": false,
      "inputs": [
        {
          "indexed": true,
          "internalType": "address",
          "name": "operator",
          "type": "address"
        },
        {
          "indexed": true,
          "internalType": "address",
          "name": "from",
          "type": "address"
        },
        {
          "indexed": true,
          "internalType": "address",
          "name": "to",
          "type": "address"
        },
        {
          "indexed": false,
          "internalType": "uint256",
          "name": "id",
          "type": "uint256"
        },
        {
          "indexed": false,
          "internalType": "uint256",
          "name": "value",
          "type": "uint256"
        }
      ],
      "name": "TransferSingle",
      "type": "event"
    },
    {
      "anonymous": false,
      "inputs": [
        {
          "indexed": false,
          "internalType": "string",
          "name": "value",
          "type": "string"
        },
        {
          "indexed": true,
          "internalType": "uint256",
          "name": "id",
          "type": "uint256"
        }
      ],
      "name": "URI",
      "type": "event"
    },
    {
      "inputs": [
        {
          "internalType": "address",
          "name": "account",
          "type": "address"
        },
        {
          "internalType": "uint256",
          "name": "id",
          "type": "uint256"
        }
      ],
      "name": "balanceOf",
      "outputs": [
        {
          "internalType": "uint256",
          "name": "",
          "type": "uint256"
        }
      ],
      "stateMutability": "view",
      "type": "function"
    },
    {
      "inputs": [
        {
          "internalType": "address[]",
          "name": "accounts",
          "type": "address[]"
        },
        {
          "internalType": "uint256[]",
          "name": "ids",
          "type": "uint256[]"
        }
      ],
      "name": "balanceOfBatch",
      "outputs": [
        {
          "internalType": "uint256[]",
          "name": "",
          "type": "uint256[]"
        }
      ],
      "stateMutability": "view",
      "type": "function"
    },
    {
      "inputs": [
        {
          "internalType": "address",
          "name": "account",
          "type": "address"
        },
        {
          "internalType": "uint256",
          "name": "id",
          "type": "uint256"
        },
        {
          "internalType": "uint256",
          "name": "amount",
          "type": "uint256"
        }
      ],
      "name": "burn",
      "outputs": [],
      "stateMutability": "nonpayable",
      "type": "function"
    },
    {
      "inputs": [
        {
          "internalType": "address",
          "name": "account",
          "type": "address"
        },
        {
          "internalType": "uint256[]",
          "name": "ids",
          "type": "uint256[]"
        },
        {
          "internalType": "uint256[]",
          "name": "amounts",
          "type": "uint256[]"
        }
      ],
      "name": "burnBatch",
      "outputs": [],
      "stateMutability": "nonpayable",
      "type": "function"
    },
    {
      "inputs": [
        {
          "internalType": "uint256",
          "name": "",
          "type": "uint256"
        }
      ],
      "name": "creators",
      "outputs": [
        {
          "internalType": "address",
          "name": "",
          "type": "address"
        }
      ],
      "stateMutability": "view",
      "type": "function"
    },
    {
      "inputs": [
        {
          "internalType": "address",
          "name": "account",
          "type": "address"
        },
        {
          "internalType": "address",
          "name": "operator",
          "type": "address"
        }
      ],
      "name": "isApprovedForAll",
      "outputs": [
        {
          "internalType": "bool",
          "name": "",
          "type": "bool"
        }
      ],
      "stateMutability": "view",
      "type": "function"
    },
    {
      "inputs": [
        {
          "internalType": "address",
          "name": "_to",
          "type": "address"
        },
        {
          "internalType": "uint256",
          "name": "_id",
          "type": "uint256"
        },
        {
          "internalType": "uint256",
          "name": "_initialSupply",
          "type": "uint256"
        },
        {
          "internalType": "bytes",
          "name": "data",
          "type": "bytes"
        }
      ],
      "name": "mint",
      "outputs": [],
      "stateMutability": "nonpayable",
      "type": "function"
    },
    {
      "inputs": [
        {
          "internalType": "address",
          "name": "to",
          "type": "address"
        },
        {
          "internalType": "uint256[]",
          "name": "ids",
          "type": "uint256[]"
        },
        {
          "internalType": "uint256[]",
          "name": "amounts",
          "type": "uint256[]"
        },
        {
          "internalType": "bytes",
          "name": "data",
          "type": "bytes"
        }
      ],
      "name": "mintBatch",
      "outputs": [],
      "stateMutability": "nonpayable",
      "type": "function"
    },
    {
      "inputs": [
        {
          "internalType": "address",
          "name": "from",
          "type": "address"
        },
        {
          "internalType": "address",
          "name": "to",
          "type": "address"
        },
        {
          "internalType": "uint256[]",
          "name": "ids",
          "type": "uint256[]"
        },
        {
          "internalType": "uint256[]",
          "name": "amounts",
          "type": "uint256[]"
        },
        {
          "internalType": "bytes",
          "name": "data",
          "type": "bytes"
        }
      ],
      "name": "safeBatchTransferFrom",
      "outputs": [],
      "stateMutability": "nonpayable",
      "type": "function"
    },
    {
      "inputs": [
        {
          "internalType": "address",
          "name": "from",
          "type": "address"
        },
        {
          "internalType": "address",
          "name": "to",
          "type": "address"
        },
        {
          "internalType": "uint256",
          "name": "id",
          "type": "uint256"
        },
        {
          "internalType": "uint256",
          "name": "amount",
          "type": "uint256"
        },
        {
          "internalType": "bytes",
          "name": "data",
          "type": "bytes"
        }
      ],
      "name": "safeTransferFrom",
      "outputs": [],
      "stateMutability": "nonpayable",
      "type": "function"
    },
    {
      "inputs": [
        {
          "internalType": "address",
          "name": "operator",
          "type": "address"
        },
        {
          "internalType": "bool",
          "name": "approved",
          "type": "bool"
        }
      ],
      "name": "setApprovalForAll",
      "outputs": [],
      "stateMutability": "nonpayable",
      "type": "function"
    },
    {
      "inputs": [
        {
          "internalType": "bytes4",
          "name": "interfaceId",
          "type": "bytes4"
        }
      ],
      "name": "supportsInterface",
      "outputs": [
        {
          "internalType": "bool",
          "name": "",
          "type": "bool"
        }
      ],
      "stateMutability": "view",
      "type": "function"
    },
    {
      "inputs": [
        {
          "internalType": "uint256",
          "name": "tokenId",
          "type": "uint256"
        }
      ],
      "name": "uri",
      "outputs": [
        {
          "internalType": "string",
          "name": "",
          "type": "string"
        }
      ],
      "stateMutability": "view",
      "type": "function"
    }
  ],
  "transactionHash": "0x8af2295bb17ab0ecf41ba2690fbe2ba67c59d457e2122525588cdf25cd81a38c",
  "args": [
    "https://pastebin.com/raw/VbYqPqTA"
  ],
  "numDeployments": 1,
  "solcInputHash": "56a2143ef33a08c0f875042c76ad0d5a",
  "bytecode": "0x60a0604052600060809081526004906200001a9082620004f1565b503480156200002857600080fd5b5060405162002493380380620024938339810160408190526200004b9162000612565b80620000578162000094565b506004620000668282620004f1565b506200008d33600161271060405180602001604052806000815250620000a660201b60201c565b506200085b565b6002620000a28282620004f1565b5050565b600083815260036020526040902080546001600160a01b03191633179055620000d2848484846200011e565b60408051848152602081018490526001600160a01b0386169133917f03f17d66ad3bf18e9412eb06582908831508cdb9b8da9cddb1431f645a5b8632910160405180910390a350505050565b6001600160a01b038416620001845760405162461bcd60e51b815260206004820152602160248201527f455243313135353a206d696e7420746f20746865207a65726f206164647265736044820152607360f81b60648201526084015b60405180910390fd5b336000620001928562000240565b90506000620001a18562000240565b90506000868152602081815260408083206001600160a01b038b16845290915281208054879290620001d5908490620006b4565b909155505060408051878152602081018790526001600160a01b03808a1692600092918716917fc3d58168c5ae7397731d063d5bbf3d657854427343f4c083240f7aacaa2d0f62910160405180910390a4620002378360008989898962000296565b50505050505050565b604080516001808252818301909252606091600091906020808301908036833701905050905082816000815181106200027d576200027d620006dc565b602090810291909101015292915050565b505050505050565b6001600160a01b0384163b156200028e5760405163f23a6e6160e01b81526001600160a01b0385169063f23a6e6190620002dd908990899088908890889060040162000720565b6020604051808303816000875af19250505080156200031b575060408051601f3d908101601f19168201909252620003189181019062000767565b60015b620003db576200032a6200079a565b806308c379a0036200036a575062000341620007b7565b806200034e57506200036c565b8060405162461bcd60e51b81526004016200017b919062000846565b505b60405162461bcd60e51b815260206004820152603460248201527f455243313135353a207472616e7366657220746f206e6f6e2d4552433131353560448201527f526563656976657220696d706c656d656e74657200000000000000000000000060648201526084016200017b565b6001600160e01b0319811663f23a6e6160e01b14620002375760405162461bcd60e51b815260206004820152602860248201527f455243313135353a204552433131353552656365697665722072656a656374656044820152676420746f6b656e7360c01b60648201526084016200017b565b634e487b7160e01b600052604160045260246000fd5b600181811c908216806200047957607f821691505b6020821081036200049a57634e487b7160e01b600052602260045260246000fd5b50919050565b601f821115620004ec576000816000526020600020601f850160051c81016020861015620004cb5750805b601f850160051c820191505b818110156200028e57828155600101620004d7565b505050565b81516001600160401b038111156200050d576200050d6200044e565b62000525816200051e845462000464565b84620004a0565b602080601f8311600181146200055d5760008415620005445750858301515b600019600386901b1c1916600185901b1785556200028e565b600085815260208120601f198616915b828110156200058e578886015182559484019460019091019084016200056d565b5085821015620005ad5787850151600019600388901b60f8161c191681555b5050505050600190811b01905550565b601f8201601f191681016001600160401b0381118282101715620005e557620005e56200044e565b6040525050565b60005b8381101562000609578181015183820152602001620005ef565b50506000910152565b6000602082840312156200062557600080fd5b81516001600160401b03808211156200063d57600080fd5b818401915084601f8301126200065257600080fd5b8151818111156200066757620006676200044e565b604051915062000682601f8201601f191660200183620005bd565b8082528560208285010111156200069857600080fd5b620006ab816020840160208601620005ec565b50949350505050565b80820180821115620006d657634e487b7160e01b600052601160045260246000fd5b92915050565b634e487b7160e01b600052603260045260246000fd5b600081518084526200070c816020860160208601620005ec565b601f01601f19169290920160200192915050565b6001600160a01b03868116825285166020820152604081018490526060810183905260a0608082018190526000906200075c90830184620006f2565b979650505050505050565b6000602082840312156200077a57600080fd5b81516001600160e01b0319811681146200079357600080fd5b9392505050565b600060033d1115620007b45760046000803e5060005160e01c5b90565b600060443d1015620007c65790565b6040516003193d81016004833e81513d6001600160401b038083116024840183101715620007f657505050505090565b82850191508151818111156200080f5750505050505090565b843d87010160208285010111156200082a5750505050505090565b6200083b60208286010187620005bd565b509095945050505050565b602081526000620007936020830184620006f2565b611c28806200086b6000396000f3fe608060405234801561001057600080fd5b50600436106100ce5760003560e01c80636b20c4541161008c578063cd53d08e11610066578063cd53d08e146101bd578063e985e9c5146101fe578063f242432a1461023a578063f5298aca1461024d57600080fd5b80636b20c45414610184578063731133e914610197578063a22cb465146101aa57600080fd5b8062fdd58e146100d357806301ffc9a7146100f95780630e89341c1461011c5780631f7fdffa1461013c5780632eb2c2d6146101515780634e1273f414610164575b600080fd5b6100e66100e1366004611161565b610260565b6040519081526020015b60405180910390f35b61010c6101073660046111a4565b6102f9565b60405190151581526020016100f0565b61012f61012a3660046111c8565b610349565b6040516100f09190611227565b61014f61014a36600461138b565b610442565b005b61014f61015f366004611424565b610454565b6101776101723660046114ce565b6104a0565b6040516100f091906115d5565b61014f6101923660046115e8565b6105c2565b61014f6101a536600461165c565b6105d2565b61014f6101b83660046116b1565b610648565b6101e66101cb3660046111c8565b6003602052600090815260409020546001600160a01b031681565b6040516001600160a01b0390911681526020016100f0565b61010c61020c3660046116ed565b6001600160a01b03918216600090815260016020908152604080832093909416825291909152205460ff1690565b61014f610248366004611720565b610657565b61014f61025b366004611785565b61069c565b60006001600160a01b0383166102d05760405162461bcd60e51b815260206004820152602a60248201527f455243313135353a2061646472657373207a65726f206973206e6f742061207660448201526930b634b21037bbb732b960b11b60648201526084015b60405180910390fd5b506000818152602081815260408083206001600160a01b03861684529091529020545b92915050565b60006001600160e01b03198216636cdb3d1360e11b148061032a57506001600160e01b031982166303a24d0760e21b145b806102f357506301ffc9a760e01b6001600160e01b03198316146102f3565b6000818152600360205260409020546060906001600160a01b03166103b05760405162461bcd60e51b815260206004820152601e60248201527f45524331313535237572693a204e4f4e4558495354454e545f544f4b454e000060448201526064016102c7565b600480546103bd906117b8565b80601f01602080910402602001604051908101604052809291908181526020018280546103e9906117b8565b80156104365780601f1061040b57610100808354040283529160200191610436565b820191906000526020600020905b81548152906001019060200180831161041957829003601f168201915b50505050509050919050565b61044e848484846106a7565b50505050565b6001600160a01b0385163314806104705750610470853361020c565b61048c5760405162461bcd60e51b81526004016102c7906117f2565b61049985858585856107e7565b5050505050565b606081518351146105055760405162461bcd60e51b815260206004820152602960248201527f455243313135353a206163636f756e747320616e6420696473206c656e677468604482015268040dad2e6dac2e8c6d60bb1b60648201526084016102c7565b6000835167ffffffffffffffff8111156105215761052161123a565b60405190808252806020026020018201604052801561054a578160200160208202803683370190505b50905060005b84518110156105ba5761059585828151811061056e5761056e611840565b602002602001015185838151811061058857610588611840565b6020026020010151610260565b8282815181106105a7576105a7611840565b6020908102919091010152600101610550565b509392505050565b6105cd83838361097c565b505050565b600083815260036020526040902080546001600160a01b031916331790556105fc84848484610afc565b60408051848152602081018490526001600160a01b0386169133917f03f17d66ad3bf18e9412eb06582908831508cdb9b8da9cddb1431f645a5b8632910160405180910390a350505050565b610653338383610bd6565b5050565b6001600160a01b0385163314806106735750610673853361020c565b61068f5760405162461bcd60e51b81526004016102c7906117f2565b6104998585858585610cb6565b6105cd838383610de0565b6001600160a01b0384166106cd5760405162461bcd60e51b81526004016102c790611856565b81518351146106ee5760405162461bcd60e51b81526004016102c790611897565b3360005b845181101561077f5783818151811061070d5761070d611840565b602002602001015160008087848151811061072a5761072a611840565b602002602001015181526020019081526020016000206000886001600160a01b03166001600160a01b03168152602001908152602001600020600082825461077291906118df565b90915550506001016106f2565b50846001600160a01b031660006001600160a01b0316826001600160a01b03167f4a39dc06d4c0dbc64b70af90fd698a233a518aa5d07e595d983b8c0526c8f7fb87876040516107d0929190611900565b60405180910390a461049981600087878787610ee4565b81518351146108085760405162461bcd60e51b81526004016102c790611897565b6001600160a01b03841661082e5760405162461bcd60e51b81526004016102c79061192e565b3360005b845181101561090e57600085828151811061084f5761084f611840565b60200260200101519050600085838151811061086d5761086d611840565b602090810291909101810151600084815280835260408082206001600160a01b038e1683529093529190912054909150818110156108bd5760405162461bcd60e51b81526004016102c790611973565b6000838152602081815260408083206001600160a01b038e8116855292528083208585039055908b168252812080548492906108fa9084906118df565b909155505060019093019250610832915050565b50846001600160a01b0316866001600160a01b0316826001600160a01b03167f4a39dc06d4c0dbc64b70af90fd698a233a518aa5d07e595d983b8c0526c8f7fb878760405161095e929190611900565b60405180910390a4610974818787878787610ee4565b505050505050565b6001600160a01b0383166109a25760405162461bcd60e51b81526004016102c7906119bd565b80518251146109c35760405162461bcd60e51b81526004016102c790611897565b604080516020810190915260009081905233905b8351811015610a8f5760008482815181106109f4576109f4611840565b602002602001015190506000848381518110610a1257610a12611840565b602090810291909101810151600084815280835260408082206001600160a01b038c168352909352919091205490915081811015610a625760405162461bcd60e51b81526004016102c790611a00565b6000928352602083815260408085206001600160a01b038b168652909152909220910390556001016109d7565b5060006001600160a01b0316846001600160a01b0316826001600160a01b03167f4a39dc06d4c0dbc64b70af90fd698a233a518aa5d07e595d983b8c0526c8f7fb8686604051610ae0929190611900565b60405180910390a460408051602081019091526000905261044e565b6001600160a01b038416610b225760405162461bcd60e51b81526004016102c790611856565b336000610b2e8561103f565b90506000610b3b8561103f565b90506000868152602081815260408083206001600160a01b038b16845290915281208054879290610b6d9084906118df565b909155505060408051878152602081018790526001600160a01b03808a1692600092918716917fc3d58168c5ae7397731d063d5bbf3d657854427343f4c083240f7aacaa2d0f62910160405180910390a4610bcd8360008989898961108a565b50505050505050565b816001600160a01b0316836001600160a01b031603610c495760405162461bcd60e51b815260206004820152602960248201527f455243313135353a2073657474696e6720617070726f76616c20737461747573604482015268103337b91039b2b63360b91b60648201526084016102c7565b6001600160a01b03838116600081815260016020908152604080832094871680845294825291829020805460ff191686151590811790915591519182527f17307eab39ab6107e8899845ad3d59bd9653f200f220920489ca2b5937696c31910160405180910390a3505050565b6001600160a01b038416610cdc5760405162461bcd60e51b81526004016102c79061192e565b336000610ce88561103f565b90506000610cf58561103f565b90506000868152602081815260408083206001600160a01b038c16845290915290205485811015610d385760405162461bcd60e51b81526004016102c790611973565b6000878152602081815260408083206001600160a01b038d8116855292528083208985039055908a16825281208054889290610d759084906118df565b909155505060408051888152602081018890526001600160a01b03808b16928c821692918816917fc3d58168c5ae7397731d063d5bbf3d657854427343f4c083240f7aacaa2d0f62910160405180910390a4610dd5848a8a8a8a8a61108a565b505050505050505050565b6001600160a01b038316610e065760405162461bcd60e51b81526004016102c7906119bd565b336000610e128461103f565b90506000610e1f8461103f565b60408051602080820183526000918290528882528181528282206001600160a01b038b1683529052205490915084811015610e6c5760405162461bcd60e51b81526004016102c790611a00565b6000868152602081815260408083206001600160a01b038b81168086529184528285208a8703905582518b81529384018a90529092908816917fc3d58168c5ae7397731d063d5bbf3d657854427343f4c083240f7aacaa2d0f62910160405180910390a4604080516020810190915260009052610bcd565b6001600160a01b0384163b156109745760405163bc197c8160e01b81526001600160a01b0385169063bc197c8190610f289089908990889088908890600401611a44565b6020604051808303816000875af1925050508015610f63575060408051601f3d908101601f19168201909252610f6091810190611aa2565b60015b61100f57610f6f611abf565b806308c379a003610fa85750610f83611adb565b80610f8e5750610faa565b8060405162461bcd60e51b81526004016102c79190611227565b505b60405162461bcd60e51b815260206004820152603460248201527f455243313135353a207472616e7366657220746f206e6f6e2d455243313135356044820152732932b1b2b4bb32b91034b6b83632b6b2b73a32b960611b60648201526084016102c7565b6001600160e01b0319811663bc197c8160e01b14610bcd5760405162461bcd60e51b81526004016102c790611b65565b6040805160018082528183019092526060916000919060208083019080368337019050509050828160008151811061107957611079611840565b602090810291909101015292915050565b6001600160a01b0384163b156109745760405163f23a6e6160e01b81526001600160a01b0385169063f23a6e61906110ce9089908990889088908890600401611bad565b6020604051808303816000875af1925050508015611109575060408051601f3d908101601f1916820190925261110691810190611aa2565b60015b61111557610f6f611abf565b6001600160e01b0319811663f23a6e6160e01b14610bcd5760405162461bcd60e51b81526004016102c790611b65565b80356001600160a01b038116811461115c57600080fd5b919050565b6000806040838503121561117457600080fd5b61117d83611145565b946020939093013593505050565b6001600160e01b0319811681146111a157600080fd5b50565b6000602082840312156111b657600080fd5b81356111c18161118b565b9392505050565b6000602082840312156111da57600080fd5b5035919050565b6000815180845260005b81811015611207576020818501810151868301820152016111eb565b506000602082860101526020601f19601f83011685010191505092915050565b6020815260006111c160208301846111e1565b634e487b7160e01b600052604160045260246000fd5b601f8201601f1916810167ffffffffffffffff811182821017156112765761127661123a565b6040525050565b600067ffffffffffffffff8211156112975761129761123a565b5060051b60200190565b600082601f8301126112b257600080fd5b813560206112bf8261127d565b6040516112cc8282611250565b80915083815260208101915060208460051b8701019350868411156112f057600080fd5b602086015b8481101561130c57803583529183019183016112f5565b509695505050505050565b600082601f83011261132857600080fd5b813567ffffffffffffffff8111156113425761134261123a565b604051611359601f8301601f191660200182611250565b81815284602083860101111561136e57600080fd5b816020850160208301376000918101602001919091529392505050565b600080600080608085870312156113a157600080fd5b6113aa85611145565b9350602085013567ffffffffffffffff808211156113c757600080fd5b6113d3888389016112a1565b945060408701359150808211156113e957600080fd5b6113f5888389016112a1565b9350606087013591508082111561140b57600080fd5b5061141887828801611317565b91505092959194509250565b600080600080600060a0868803121561143c57600080fd5b61144586611145565b945061145360208701611145565b9350604086013567ffffffffffffffff8082111561147057600080fd5b61147c89838a016112a1565b9450606088013591508082111561149257600080fd5b61149e89838a016112a1565b935060808801359150808211156114b457600080fd5b506114c188828901611317565b9150509295509295909350565b600080604083850312156114e157600080fd5b823567ffffffffffffffff808211156114f957600080fd5b818501915085601f83011261150d57600080fd5b8135602061151a8261127d565b6040516115278282611250565b83815260059390931b850182019282810191508984111561154757600080fd5b948201945b8386101561156c5761155d86611145565b8252948201949082019061154c565b9650508601359250508082111561158257600080fd5b5061158f858286016112a1565b9150509250929050565b60008151808452602080850194506020840160005b838110156115ca578151875295820195908201906001016115ae565b509495945050505050565b6020815260006111c16020830184611599565b6000806000606084860312156115fd57600080fd5b61160684611145565b9250602084013567ffffffffffffffff8082111561162357600080fd5b61162f878388016112a1565b9350604086013591508082111561164557600080fd5b50611652868287016112a1565b9150509250925092565b6000806000806080858703121561167257600080fd5b61167b85611145565b93506020850135925060408501359150606085013567ffffffffffffffff8111156116a557600080fd5b61141887828801611317565b600080604083850312156116c457600080fd5b6116cd83611145565b9150602083013580151581146116e257600080fd5b809150509250929050565b6000806040838503121561170057600080fd5b61170983611145565b915061171760208401611145565b90509250929050565b600080600080600060a0868803121561173857600080fd5b61174186611145565b945061174f60208701611145565b93506040860135925060608601359150608086013567ffffffffffffffff81111561177957600080fd5b6114c188828901611317565b60008060006060848603121561179a57600080fd5b6117a384611145565b95602085013595506040909401359392505050565b600181811c908216806117cc57607f821691505b6020821081036117ec57634e487b7160e01b600052602260045260246000fd5b50919050565b6020808252602e908201527f455243313135353a2063616c6c6572206973206e6f7420746f6b656e206f776e60408201526d195c881bdc88185c1c1c9bdd995960921b606082015260800190565b634e487b7160e01b600052603260045260246000fd5b60208082526021908201527f455243313135353a206d696e7420746f20746865207a65726f206164647265736040820152607360f81b606082015260800190565b60208082526028908201527f455243313135353a2069647320616e6420616d6f756e7473206c656e677468206040820152670dad2e6dac2e8c6d60c31b606082015260800190565b808201808211156102f357634e487b7160e01b600052601160045260246000fd5b6040815260006119136040830185611599565b82810360208401526119258185611599565b95945050505050565b60208082526025908201527f455243313135353a207472616e7366657220746f20746865207a65726f206164604082015264647265737360d81b606082015260800190565b6020808252602a908201527f455243313135353a20696e73756666696369656e742062616c616e636520666f60408201526939103a3930b739b332b960b11b606082015260800190565b60208082526023908201527f455243313135353a206275726e2066726f6d20746865207a65726f206164647260408201526265737360e81b606082015260800190565b60208082526024908201527f455243313135353a206275726e20616d6f756e7420657863656564732062616c604082015263616e636560e01b606082015260800190565b6001600160a01b0386811682528516602082015260a060408201819052600090611a7090830186611599565b8281036060840152611a828186611599565b90508281036080840152611a9681856111e1565b98975050505050505050565b600060208284031215611ab457600080fd5b81516111c18161118b565b600060033d1115611ad85760046000803e5060005160e01c5b90565b600060443d1015611ae95790565b6040516003193d81016004833e81513d67ffffffffffffffff8160248401118184111715611b1957505050505090565b8285019150815181811115611b315750505050505090565b843d8701016020828501011115611b4b5750505050505090565b611b5a60208286010187611250565b509095945050505050565b60208082526028908201527f455243313135353a204552433131353552656365697665722072656a656374656040820152676420746f6b656e7360c01b606082015260800190565b6001600160a01b03868116825285166020820152604081018490526060810183905260a060808201819052600090611be7908301846111e1565b97965050505050505056fea26469706673582212209b84660a97cf825a854b9ff4f11952e97e8ba429cc7ef083ad9dc2346000dda464736f6c63430008160033",
  "devdoc": {
    "events": {
      "ApprovalForAll(address,address,bool)": {
        "details": "Emitted when `account` grants or revokes permission to `operator` to transfer their tokens, according to `approved`."
      },
      "TransferBatch(address,address,address,uint256[],uint256[])": {
        "details": "Equivalent to multiple {TransferSingle} events, where `operator`, `from` and `to` are the same for all transfers."
      },
      "TransferSingle(address,address,address,uint256,uint256)": {
        "details": "Emitted when `value` tokens of token type `id` are transferred from `from` to `to` by `operator`."
      },
      "URI(string,uint256)": {
        "details": "Emitted when the URI for token type `id` changes to `value`, if it is a non-programmatic URI. If an {URI} event was emitted for `id`, the standard https://eips.ethereum.org/EIPS/eip-1155#metadata-extensions[guarantees] that `value` will equal the value returned by {IERC1155MetadataURI-uri}."
      }
    },
    "kind": "dev",
    "methods": {
      "balanceOf(address,uint256)": {
        "details": "See {IERC1155-balanceOf}. Requirements: - `account` cannot be the zero address."
      },
      "balanceOfBatch(address[],uint256[])": {
        "details": "See {IERC1155-balanceOfBatch}. Requirements: - `accounts` and `ids` must have the same length."
      },
      "isApprovedForAll(address,address)": {
        "details": "See {IERC1155-isApprovedForAll}."
      },
      "safeBatchTransferFrom(address,address,uint256[],uint256[],bytes)": {
        "details": "See {IERC1155-safeBatchTransferFrom}."
      },
      "safeTransferFrom(address,address,uint256,uint256,bytes)": {
        "details": "See {IERC1155-safeTransferFrom}."
      },
      "setApprovalForAll(address,bool)": {
        "details": "See {IERC1155-setApprovalForAll}."
      },
      "supportsInterface(bytes4)": {
        "details": "See {IERC165-supportsInterface}."
      }
    },
    "version": 1
  },
  "userdoc": {
    "kind": "user",
    "methods": {},
    "version": 1
  },
  "storageLayout": {
    "storage": [
      {
        "astId": 25,
        "contract": "contracts/mocks/ERC1155.sol:ERC1155Mock",
        "label": "_balances",
        "offset": 0,
        "slot": "0",
        "type": "t_mapping(t_uint256,t_mapping(t_address,t_uint256))"
      },
      {
        "astId": 31,
        "contract": "contracts/mocks/ERC1155.sol:ERC1155Mock",
        "label": "_operatorApprovals",
        "offset": 0,
        "slot": "1",
        "type": "t_mapping(t_address,t_mapping(t_address,t_bool))"
      },
      {
        "astId": 33,
        "contract": "contracts/mocks/ERC1155.sol:ERC1155Mock",
        "label": "_uri",
        "offset": 0,
        "slot": "2",
        "type": "t_string_storage"
      },
      {
        "astId": 3006,
        "contract": "contracts/mocks/ERC1155.sol:ERC1155Mock",
        "label": "creators",
        "offset": 0,
        "slot": "3",
        "type": "t_mapping(t_uint256,t_address)"
      },
      {
        "astId": 3019,
        "contract": "contracts/mocks/ERC1155.sol:ERC1155Mock",
        "label": "baseUri",
        "offset": 0,
        "slot": "4",
        "type": "t_string_storage"
      }
    ],
    "types": {
      "t_address": {
        "encoding": "inplace",
        "label": "address",
        "numberOfBytes": "20"
      },
      "t_bool": {
        "encoding": "inplace",
        "label": "bool",
        "numberOfBytes": "1"
      },
      "t_mapping(t_address,t_bool)": {
        "encoding": "mapping",
        "key": "t_address",
        "label": "mapping(address => bool)",
        "numberOfBytes": "32",
        "value": "t_bool"
      },
      "t_mapping(t_address,t_mapping(t_address,t_bool))": {
        "encoding": "mapping",
        "key": "t_address",
        "label": "mapping(address => mapping(address => bool))",
        "numberOfBytes": "32",
        "value": "t_mapping(t_address,t_bool)"
      },
      "t_mapping(t_address,t_uint256)": {
        "encoding": "mapping",
        "key": "t_address",
        "label": "mapping(address => uint256)",
        "numberOfBytes": "32",
        "value": "t_uint256"
      },
      "t_mapping(t_uint256,t_address)": {
        "encoding": "mapping",
        "key": "t_uint256",
        "label": "mapping(uint256 => address)",
        "numberOfBytes": "32",
        "value": "t_address"
      },
      "t_mapping(t_uint256,t_mapping(t_address,t_uint256))": {
        "encoding": "mapping",
        "key": "t_uint256",
        "label": "mapping(uint256 => mapping(address => uint256))",
        "numberOfBytes": "32",
        "value": "t_mapping(t_address,t_uint256)"
      },
      "t_string_storage": {
        "encoding": "bytes",
        "label": "string",
        "numberOfBytes": "32"
      },
      "t_uint256": {
        "encoding": "inplace",
        "label": "uint256",
        "numberOfBytes": "32"
      }
    }
  }
}