{
  "address": "0x553B9386d33A3b1950a2526FA38144cfE7Ec8d76",
  "abi": [
    {
      "inputs": [
        {
          "internalType": "address",
          "name": "_rewardTokenAddress",
          "type": "address"
        },
        {
          "internalType": "address",
          "name": "_newOwner",
          "type": "address"
        }
      ],
      "stateMutability": "nonpayable",
      "type": "constructor"
    },
    {
      "anonymous": false,
      "inputs": [
        {
          "indexed": false,
          "internalType": "address",
          "name": "_staker",
          "type": "address"
        },
        {
          "indexed": false,
          "internalType": "uint256",
          "name": "_amount",
          "type": "uint256"
        }
      ],
      "name": "Claim",
      "type": "event"
    },
    {
      "anonymous": false,
      "inputs": [
        {
          "indexed": false,
          "internalType": "address",
          "name": "_staker",
          "type": "address"
        },
        {
          "indexed": false,
          "internalType": "address",
          "name": "_stake",
          "type": "address"
        },
        {
          "indexed": false,
          "internalType": "uint256",
          "name": "_amount",
          "type": "uint256"
        }
      ],
      "name": "MoveToStake",
      "type": "event"
    },
    {
      "anonymous": false,
      "inputs": [
        {
          "indexed": true,
          "internalType": "address",
          "name": "previousOwner",
          "type": "address"
        },
        {
          "indexed": true,
          "internalType": "address",
          "name": "newOwner",
          "type": "address"
        }
      ],
      "name": "OwnershipTransferred",
      "type": "event"
    },
    {
      "anonymous": false,
      "inputs": [
        {
          "indexed": false,
          "internalType": "address",
          "name": "account",
          "type": "address"
        }
      ],
      "name": "Paused",
      "type": "event"
    },
    {
      "anonymous": false,
      "inputs": [
        {
          "indexed": false,
          "internalType": "address",
          "name": "_staker",
          "type": "address"
        },
        {
          "indexed": false,
          "internalType": "uint256",
          "name": "_stakeAmount",
          "type": "uint256"
        }
      ],
      "name": "Stake",
      "type": "event"
    },
    {
      "anonymous": false,
      "inputs": [
        {
          "indexed": false,
          "internalType": "address",
          "name": "_staker",
          "type": "address"
        },
        {
          "indexed": false,
          "internalType": "uint256",
          "name": "_rewardAmount",
          "type": "uint256"
        }
      ],
      "name": "StakeReward",
      "type": "event"
    },
    {
      "anonymous": false,
      "inputs": [
        {
          "indexed": false,
          "internalType": "address",
          "name": "account",
          "type": "address"
        }
      ],
      "name": "Unpaused",
      "type": "event"
    },
    {
      "anonymous": false,
      "inputs": [
        {
          "indexed": false,
          "internalType": "uint256",
          "name": "_amount",
          "type": "uint256"
        },
        {
          "indexed": false,
          "internalType": "uint256",
          "name": "_rewardPerSecond",
          "type": "uint256"
        }
      ],
      "name": "UpdateReward",
      "type": "event"
    },
    {
      "inputs": [],
      "name": "accRewardTokenPerShare",
      "outputs": [
        {
          "internalType": "uint256",
          "name": "",
          "type": "uint256"
        }
      ],
      "stateMutability": "view",
      "type": "function"
    },
    {
      "inputs": [],
      "name": "accRewardTokenQuantity",
      "outputs": [
        {
          "internalType": "uint256",
          "name": "",
          "type": "uint256"
        }
      ],
      "stateMutability": "view",
      "type": "function"
    },
    {
      "inputs": [],
      "name": "claim",
      "outputs": [],
      "stateMutability": "nonpayable",
      "type": "function"
    },
    {
      "inputs": [],
      "name": "claimPeriodDuration",
      "outputs": [
        {
          "internalType": "uint256",
          "name": "",
          "type": "uint256"
        }
      ],
      "stateMutability": "view",
      "type": "function"
    },
    {
      "inputs": [],
      "name": "claimRewardStartTimestamp",
      "outputs": [
        {
          "internalType": "uint256",
          "name": "",
          "type": "uint256"
        }
      ],
      "stateMutability": "view",
      "type": "function"
    },
    {
      "inputs": [],
      "name": "emergencyRewardWithdrawal",
      "outputs": [],
      "stateMutability": "nonpayable",
      "type": "function"
    },
    {
      "inputs": [],
      "name": "enableForRelease",
      "outputs": [
        {
          "internalType": "uint256",
          "name": "",
          "type": "uint256"
        }
      ],
      "stateMutability": "view",
      "type": "function"
    },
    {
      "inputs": [
        {
          "internalType": "address",
          "name": "_account",
          "type": "address"
        }
      ],
      "name": "getEarnedAmount",
      "outputs": [
        {
          "internalType": "uint256",
          "name": "",
          "type": "uint256"
        }
      ],
      "stateMutability": "view",
      "type": "function"
    },
    {
      "inputs": [
        {
          "internalType": "uint256",
          "name": "_from",
          "type": "uint256"
        },
        {
          "internalType": "uint256",
          "name": "_to",
          "type": "uint256"
        }
      ],
      "name": "getMultiplierForTimestamps",
      "outputs": [
        {
          "internalType": "uint256",
          "name": "",
          "type": "uint256"
        }
      ],
      "stateMutability": "view",
      "type": "function"
    },
    {
      "inputs": [],
      "name": "getStakeConfig",
      "outputs": [
        {
          "components": [
            {
              "internalType": "uint256",
              "name": "stakeStartTimestamp",
              "type": "uint256"
            },
            {
              "internalType": "uint256",
              "name": "stakeEndTimestamp",
              "type": "uint256"
            },
            {
              "internalType": "uint256",
              "name": "rewardPerSecond",
              "type": "uint256"
            },
            {
              "internalType": "uint256",
              "name": "rewardTokenQuantity",
              "type": "uint256"
            },
            {
              "internalType": "uint256",
              "name": "totalStakedSupply",
              "type": "uint256"
            }
          ],
          "internalType": "struct MPROStake.StakeConfig",
          "name": "stakeConfig",
          "type": "tuple"
        }
      ],
      "stateMutability": "view",
      "type": "function"
    },
    {
      "inputs": [
        {
          "internalType": "address",
          "name": "_account",
          "type": "address"
        }
      ],
      "name": "getStakedAmount",
      "outputs": [
        {
          "internalType": "uint256",
          "name": "",
          "type": "uint256"
        }
      ],
      "stateMutability": "view",
      "type": "function"
    },
    {
      "inputs": [
        {
          "internalType": "address",
          "name": "_account",
          "type": "address"
        }
      ],
      "name": "getWalletStakeUpdates",
      "outputs": [
        {
          "components": [
            {
              "internalType": "uint256",
              "name": "_blockTimestamp",
              "type": "uint256"
            },
            {
              "internalType": "uint256",
              "name": "_updatedAmount",
              "type": "uint256"
            }
          ],
          "internalType": "struct MPROStake.StakeUpdate[]",
          "name": "",
          "type": "tuple[]"
        }
      ],
      "stateMutability": "view",
      "type": "function"
    },
    {
      "inputs": [
        {
          "internalType": "address",
          "name": "",
          "type": "address"
        }
      ],
      "name": "isStakeWhitelisted",
      "outputs": [
        {
          "internalType": "bool",
          "name": "",
          "type": "bool"
        }
      ],
      "stateMutability": "view",
      "type": "function"
    },
    {
      "inputs": [
        {
          "internalType": "address",
          "name": "",
          "type": "address"
        }
      ],
      "name": "isUpdaterWhitelisted",
      "outputs": [
        {
          "internalType": "bool",
          "name": "",
          "type": "bool"
        }
      ],
      "stateMutability": "view",
      "type": "function"
    },
    {
      "inputs": [],
      "name": "lastRewardTimestamp",
      "outputs": [
        {
          "internalType": "uint256",
          "name": "",
          "type": "uint256"
        }
      ],
      "stateMutability": "view",
      "type": "function"
    },
    {
      "inputs": [],
      "name": "lastUpdateRewardTimestamp",
      "outputs": [
        {
          "internalType": "uint256",
          "name": "",
          "type": "uint256"
        }
      ],
      "stateMutability": "view",
      "type": "function"
    },
    {
      "inputs": [
        {
          "internalType": "address",
          "name": "_stakerAddress",
          "type": "address"
        }
      ],
      "name": "moveToStake",
      "outputs": [
        {
          "internalType": "bool",
          "name": "",
          "type": "bool"
        },
        {
          "internalType": "string",
          "name": "",
          "type": "string"
        },
        {
          "internalType": "uint256",
          "name": "",
          "type": "uint256"
        }
      ],
      "stateMutability": "nonpayable",
      "type": "function"
    },
    {
      "inputs": [],
      "name": "nextReleaseAllocation",
      "outputs": [
        {
          "internalType": "uint256",
          "name": "",
          "type": "uint256"
        }
      ],
      "stateMutability": "view",
      "type": "function"
    },
    {
      "inputs": [],
      "name": "nextReleaseTimestamp",
      "outputs": [
        {
          "internalType": "uint256",
          "name": "",
          "type": "uint256"
        }
      ],
      "stateMutability": "view",
      "type": "function"
    },
    {
      "inputs": [],
      "name": "owner",
      "outputs": [
        {
          "internalType": "address",
          "name": "",
          "type": "address"
        }
      ],
      "stateMutability": "view",
      "type": "function"
    },
    {
      "inputs": [],
      "name": "pause",
      "outputs": [],
      "stateMutability": "nonpayable",
      "type": "function"
    },
    {
      "inputs": [],
      "name": "paused",
      "outputs": [
        {
          "internalType": "bool",
          "name": "",
          "type": "bool"
        }
      ],
      "stateMutability": "view",
      "type": "function"
    },
    {
      "inputs": [
        {
          "internalType": "address",
          "name": "_account",
          "type": "address"
        }
      ],
      "name": "pendingReward",
      "outputs": [
        {
          "internalType": "uint256",
          "name": "",
          "type": "uint256"
        }
      ],
      "stateMutability": "view",
      "type": "function"
    },
    {
      "inputs": [
        {
          "internalType": "uint256",
          "name": "_amount",
          "type": "uint256"
        }
      ],
      "name": "removeDust",
      "outputs": [],
      "stateMutability": "nonpayable",
      "type": "function"
    },
    {
      "inputs": [],
      "name": "renounceOwnership",
      "outputs": [],
      "stateMutability": "nonpayable",
      "type": "function"
    },
    {
      "inputs": [],
      "name": "rewardPerSecond",
      "outputs": [
        {
          "internalType": "uint256",
          "name": "",
          "type": "uint256"
        }
      ],
      "stateMutability": "view",
      "type": "function"
    },
    {
      "inputs": [],
      "name": "rewardToken",
      "outputs": [
        {
          "internalType": "contract IERC20",
          "name": "",
          "type": "address"
        }
      ],
      "stateMutability": "view",
      "type": "function"
    },
    {
      "inputs": [],
      "name": "rewardTokenQuantity",
      "outputs": [
        {
          "internalType": "uint256",
          "name": "",
          "type": "uint256"
        }
      ],
      "stateMutability": "view",
      "type": "function"
    },
    {
      "inputs": [],
      "name": "rewardUnlockPercentPerPeriod",
      "outputs": [
        {
          "internalType": "uint256",
          "name": "",
          "type": "uint256"
        }
      ],
      "stateMutability": "view",
      "type": "function"
    },
    {
      "inputs": [
        {
          "internalType": "uint256",
          "name": "_claimRewardStartTimestamp",
          "type": "uint256"
        },
        {
          "internalType": "uint256",
          "name": "_claimPeriodDuration",
          "type": "uint256"
        },
        {
          "internalType": "uint256",
          "name": "_rewardUnlockPercentPerPeriod",
          "type": "uint256"
        }
      ],
      "name": "setClaimRewardConfig",
      "outputs": [],
      "stateMutability": "nonpayable",
      "type": "function"
    },
    {
      "inputs": [
        {
          "internalType": "uint256",
          "name": "_stakeStartTimestamp",
          "type": "uint256"
        },
        {
          "internalType": "uint256",
          "name": "_stakeEndTimestamp",
          "type": "uint256"
        }
      ],
      "name": "setStakeConfig",
      "outputs": [],
      "stateMutability": "nonpayable",
      "type": "function"
    },
    {
      "inputs": [
        {
          "internalType": "address",
          "name": "_stakeAddress",
          "type": "address"
        },
        {
          "internalType": "bool",
          "name": "_isWhitelisted",
          "type": "bool"
        }
      ],
      "name": "setStakeWhitelisted",
      "outputs": [],
      "stateMutability": "nonpayable",
      "type": "function"
    },
    {
      "inputs": [
        {
          "internalType": "address",
          "name": "_walletAddress",
          "type": "address"
        },
        {
          "internalType": "bool",
          "name": "_isWhitelisted",
          "type": "bool"
        }
      ],
      "name": "setUpdaterWhitelisted",
      "outputs": [],
      "stateMutability": "nonpayable",
      "type": "function"
    },
    {
      "inputs": [
        {
          "internalType": "uint256",
          "name": "_amount",
          "type": "uint256"
        }
      ],
      "name": "stake",
      "outputs": [],
      "stateMutability": "nonpayable",
      "type": "function"
    },
    {
      "inputs": [],
      "name": "stakeDuration",
      "outputs": [
        {
          "internalType": "uint256",
          "name": "",
          "type": "uint256"
        }
      ],
      "stateMutability": "view",
      "type": "function"
    },
    {
      "inputs": [],
      "name": "stakeEndTimestamp",
      "outputs": [
        {
          "internalType": "uint256",
          "name": "",
          "type": "uint256"
        }
      ],
      "stateMutability": "view",
      "type": "function"
    },
    {
      "inputs": [],
      "name": "stakeStartTimestamp",
      "outputs": [
        {
          "internalType": "uint256",
          "name": "",
          "type": "uint256"
        }
      ],
      "stateMutability": "view",
      "type": "function"
    },
    {
      "inputs": [
        {
          "internalType": "address",
          "name": "",
          "type": "address"
        }
      ],
      "name": "staker",
      "outputs": [
        {
          "internalType": "uint256",
          "name": "staked",
          "type": "uint256"
        },
        {
          "internalType": "uint256",
          "name": "balanceWithRewards",
          "type": "uint256"
        },
        {
          "internalType": "uint256",
          "name": "claimedBalance",
          "type": "uint256"
        },
        {
          "internalType": "uint256",
          "name": "reward",
          "type": "uint256"
        },
        {
          "internalType": "uint256",
          "name": "rewardDebt",
          "type": "uint256"
        }
      ],
      "stateMutability": "view",
      "type": "function"
    },
    {
      "inputs": [],
      "name": "totalStakedSupply",
      "outputs": [
        {
          "internalType": "uint256",
          "name": "",
          "type": "uint256"
        }
      ],
      "stateMutability": "view",
      "type": "function"
    },
    {
      "inputs": [
        {
          "internalType": "address",
          "name": "newOwner",
          "type": "address"
        }
      ],
      "name": "transferOwnership",
      "outputs": [],
      "stateMutability": "nonpayable",
      "type": "function"
    },
    {
      "inputs": [],
      "name": "unpause",
      "outputs": [],
      "stateMutability": "nonpayable",
      "type": "function"
    },
    {
      "inputs": [],
      "name": "updatePool",
      "outputs": [],
      "stateMutability": "nonpayable",
      "type": "function"
    },
    {
      "inputs": [
        {
          "internalType": "uint256",
          "name": "_amount",
          "type": "uint256"
        }
      ],
      "name": "updateReward",
      "outputs": [],
      "stateMutability": "nonpayable",
      "type": "function"
    },
    {
      "inputs": [
        {
          "internalType": "address",
          "name": "",
          "type": "address"
        },
        {
          "internalType": "uint256",
          "name": "",
          "type": "uint256"
        }
      ],
      "name": "walletStakeUpdates",
      "outputs": [
        {
          "internalType": "uint256",
          "name": "_blockTimestamp",
          "type": "uint256"
        },
        {
          "internalType": "uint256",
          "name": "_updatedAmount",
          "type": "uint256"
        }
      ],
      "stateMutability": "view",
      "type": "function"
    }
  ],
  "transactionHash": "0x7ecfcd2373f900dcc22406cb8c57115274a7a13100d13684427ceca9fd001159",
  "args": [
    "0xbf31DE649bA7AC79e92FEe4171B16c84B7c352A0",
    "0xC856f7BcB20eE58F5788620b1261082829163dc4"
  ],
  "numDeployments": 1,
  "solcInputHash": "f80a869de04ab8c18e7d80bbf10131cb",
  "bytecode": "0x60a0604052612710600e553480156200001757600080fd5b5060405162002383380380620023838339810160408190526200003a91620000df565b620000453362000072565b6000805460ff60a01b191690556001600160a01b0382166080526200006a8162000072565b505062000117565b600080546001600160a01b038381166001600160a01b0319831681178455604051919092169283917f8be0079c531659141344cd1fd0a4f28419497f9722a3daafe3b4186f6b6457e09190a35050565b80516001600160a01b0381168114620000da57600080fd5b919050565b60008060408385031215620000f357600080fd5b620000fe83620000c2565b91506200010e60208401620000c2565b90509250929050565b6080516122266200015d6000396000818161059e0152818161083d01528181610c91015281816110b1015281816113240152818161149b015261160801526122266000f3fe608060405234801561001057600080fd5b50600436106102745760003560e01c80638f10369a11610151578063dd69f04f116100c3578063f2fde38b11610087578063f2fde38b14610573578063f40f0f5214610586578063f7c618c114610599578063f8077fae146105c0578063f8fd39f2146105c9578063fe1d4ffc146105dc57600080fd5b8063dd69f04f14610524578063e2936b941461052d578063e3161ddd14610535578063e67719bd1461053d578063ebd20d241461056057600080fd5b8063bedffc2f11610115578063bedffc2f146104ce578063c0779988146104d6578063c492baad146104e9578063cf8087a814610509578063d1c515ea14610512578063d48b9cf61461051b57600080fd5b80638f10369a14610464578063a694fc3a1461046d578063bc969d0f14610480578063bcdc3cfc146104a3578063bd93ee54146104ac57600080fd5b8063503d42f0116101ea5780636c2e3c15116101ae5780636c2e3c15146103b85780636d09d69e146103c1578063715018a6146103ca57806382e4eda4146103d25780638456cb59146104375780638da5cb5b1461043f57600080fd5b8063503d42f014610343578063597df2751461034c5780635a7d04fb1461035f5780635c975abb1461037257806367f2c0df1461039057600080fd5b806340f9427d1161023c57806340f9427d146102e5578063425c8abd146102ee578063497b46a2146103015780634b841d24146103095780634da6a556146103125780634e71d92d1461033b57600080fd5b80631827ab57146102795780631a853e9d146102945780633b028cff146102c05780633f4ba83a146102d357806340f02ab6146102dd575b600080fd5b610281610626565b6040519081526020015b60405180910390f35b6102816102a2366004611f47565b6001600160a01b03166000908152600b602052604090206003015490565b6102816102ce366004611f62565b61068a565b6102db6106ca565b005b610281610721565b61028160045481565b6102db6102fc366004611f84565b610738565b6102816109e4565b61028160025481565b610281610320366004611f47565b6001600160a01b03166000908152600b602052604090205490565b6102db610abd565b610281600e5481565b6102db61035a366004611f62565b610db8565b6102db61036d366004611fab565b610ee2565b600054600160a01b900460ff165b604051901515815260200161028b565b6103a361039e366004611fe2565b610f15565b6040805192835260208301919091520161028b565b610281600d5481565b61028160095481565b6102db610f51565b61040f6103e0366004611f47565b600b60205260009081526040902080546001820154600283015460038401546004909401549293919290919085565b604080519586526020860194909452928401919091526060830152608082015260a00161028b565b6102db610f63565b6000546001600160a01b03165b6040516001600160a01b03909116815260200161028b565b61028160035481565b6102db61047b366004611f84565b610faf565b61038061048e366004611f47565b60116020526000908152604090205460ff1681565b61028160055481565b6104bf6104ba366004611f47565b61116c565b60405161028b9392919061200c565b6102db611478565b6102db6104e4366004611f84565b6115f6565b6104fc6104f7366004611f47565b61169f565b60405161028b919061206c565b610281600f5481565b61028160015481565b61028160085481565b61028160075481565b610281611728565b6102db6117cd565b61038061054b366004611f47565b60106020526000908152604090205460ff1681565b6102db61056e3660046120bb565b611849565b6102db610581366004611f47565b6118f1565b610281610594366004611f47565b611967565b61044c7f000000000000000000000000000000000000000000000000000000000000000081565b61028160065481565b6102db6105d7366004611fab565b611a54565b6105e4611a87565b60405161028b9190600060a082019050825182526020830151602083015260408301516040830152606083015160608301526080830151608083015292915050565b6000600d544210156106395750600d5490565b600f54600d5460019161065791610651904290611aef565b90611b02565b61066190826120fd565b905061068461067b600f5483611b0e90919063ffffffff16565b600d5490611b1a565b91505090565b600060025482116106a65761069f8284611aef565b90506106c4565b60025483106106b7575060006106c4565b60025461069f9084611aef565b92915050565b3360009081526011602052604090205460ff16806106f257506000546001600160a01b031633145b6107175760405162461bcd60e51b815260040161070e90612110565b60405180910390fd5b61071f611b26565b565b60006001546002546107339190612163565b905090565b3360009081526011602052604090205460ff168061076057506000546001600160a01b031633145b61077c5760405162461bcd60e51b815260040161070e90612110565b600060015411801561079057506000600254115b6107dc5760405162461bcd60e51b815260206004820152601b60248201527f496e76616c6964207374616b6520706572696f6420636f6e6669670000000000604482015260640161070e565b60025442106108265760405162461bcd60e51b815260206004820152601660248201527514dd185ad9481c195c9a5bd9081a185cc8195b99195960521b604482015260640161070e565b61082e6117cd565b6040516323b872dd60e01b81527f00000000000000000000000000000000000000000000000000000000000000006001600160a01b0316906323b872dd9061087e90339030908690600401612176565b6020604051808303816000875af115801561089d573d6000803e3d6000fd5b505050506040513d601f19601f820116820180604052508101906108c1919061219a565b5080600460008282546108d491906120fd565b9250508190555080600860008282546108ed91906120fd565b9091555050600254600090610903904290612163565b90506001544210156109225760015460025461091f9190612163565b90505b6000600954118015610935575060015442115b1561096b576109546009544261094b9190612163565b60035490611b0e565b600a600082825461096591906120fd565b90915550505b80600a5460085461097c9190612163565b61098691906121b7565b60035560015442111561099c57426009556109a3565b6001546009555b6003546040805184815260208101929092527fbcabeac7f89430597dc942c3264f28fd08010c3b2e19ecf95c6e690f9820b2a4910160405180910390a15050565b6000600d544210610ab757336000908152600b6020908152604091829020825160a08101845281548152600182015492810192909252600281015492820192909252600382015460608201526004909101546080820152600f5415801590610a4f5750612710600e54105b15610aae576000610a606000611b7b565b90506000610a81612710610651848660200151611b0e90919063ffffffff16565b90508260200151811115610a96575060208201515b6040830151610aa6908290611aef565b935050505090565b60200151919050565b50600090565b610ac5611bdd565b6000600d54118015610ad95750600d544210155b610b3b5760405162461bcd60e51b815260206004820152602d60248201527f4d50524f5265776172645374616b653a20436c61696d20706572696f6420686160448201526c1cc81b9bdd081cdd185c9d1959609a1b606482015260840161070e565b600554610b466117cd565b336000818152600b6020526040812091610b5f90611967565b1115610b97576000610b7033611c2a565b9050610b7c81846120fd565b92508060046000828254610b909190612163565b9091555050505b6000610ba16109e4565b905060008111610bff5760405162461bcd60e51b815260206004820152602360248201527f4d50524f5265776172645374616b653a204e6f20746f6b656e7320746f20636c60448201526261696d60e81b606482015260840161070e565b8082600201548360010154610c149190612163565b1015610c765760405162461bcd60e51b815260206004820152602b60248201527f4d50524f5265776172645374616b653a204e6f7420656e6f75676820746f6b6560448201526a6e7320746f20636c61696d60a81b606482015260840161070e565b80826002016000828254610c8a91906120fd565b90915550507f00000000000000000000000000000000000000000000000000000000000000006001600160a01b031663a9059cbb336040516001600160e01b031960e084901b1681526001600160a01b039091166004820152602481018490526044016020604051808303816000875af1158015610d0c573d6000803e3d6000fd5b505050506040513d601f19601f82011682018060405250810190610d30919061219a565b50610d3b8184612163565b925082600581905550610d6b670de0b6b3a7640000610651600754610d65610d603390565b611d11565b90611b0e565b60048301557f47cee97cb7acd717b3c0aa1435d004cd5b3c8c57d70dbceb4e4458bbd60e39d433604080516001600160a01b039092168252602082018490520160405180910390a1505050565b610dc0611d3c565b808210610e245760405162461bcd60e51b815260206004820152602c60248201527f4d50524f5265776172645374616b653a20496e76616c6964207374616b65206360448201526b37b73334b3bab930ba34b7b760a11b606482015260840161070e565b4282118015610e3257504281115b610ebe5760405162461bcd60e51b815260206004820152605160248201527f4d50524f5265776172645374616b653a20496e76616c6964207374616b65206360448201527f6f6e66696775726174696f6e202d2074696d657374616d70732073686f756c6460648201527020626520696e207468652066757475726560781b608482015260a40161070e565b6001541580610ece575060015442105b15610ede57600182905560028190555b5050565b610eea611d3c565b6001600160a01b03919091166000908152601060205260409020805460ff1916911515919091179055565b600c6020528160005260406000208181548110610f3157600080fd5b600091825260209091206002909102018054600190910154909250905082565b610f59611d3c565b61071f6000611d96565b3360009081526011602052604090205460ff1680610f8b57506000546001600160a01b031633145b610fa75760405162461bcd60e51b815260040161070e90612110565b61071f611de6565b3360009081526011602052604090205460ff1680610fd757506000546001600160a01b031633145b610ff35760405162461bcd60e51b815260040161070e90612110565b610ffb6117cd565b336000818152600b602052604081209161101490611c2a565b905060006110223385611e29565b9050611040670de0b6b3a7640000610651600754610d65610d603390565b6004840155336000908152600c602090815260409182902082518084019093524283529190810161107185886120fd565b90528154600180820184556000938452602093849020835160029093020191825591909201519101556040516323b872dd60e01b81526001600160a01b037f000000000000000000000000000000000000000000000000000000000000000016906323b872dd906110ea90339030908690600401612176565b6020604051808303816000875af1158015611109573d6000803e3d6000fd5b505050506040513d601f19601f8201168201806040525081019061112d919061219a565b5081600460008282546111409190612163565b90915550611150905082826120fd565b6005600082825461116191906120fd565b909155505050505050565b60006060600061117a611bdd565b3360009081526010602052604090205460ff166111f45760405162461bcd60e51b815260206004820152603260248201527f4d50524f5265776172645374616b653a205374616b6520636f6e7472616374206044820152711a5cc81b9bdd081dda1a5d195b1a5cdd195960721b606482015260840161070e565b600d5415806112045750600d5442105b1561124957505060408051808201909152601c81527f436c61696d20706572696f6420686173206e6f7420737461727465640000000060208201526000915081611471565b6005546112546117cd565b6001600160a01b0385166000908152600b602052604081209061127687611967565b11156112ae57600061128787611c2a565b905061129381846120fd565b925080600460008282546112a79190612163565b9091555050505b6000816002015482600101546112c49190612163565b905080600003611309576040805180820190915260148152734e6f20746f6b656e7320746f2072656c6561736560601b60208201526000965094509250611471915050565b8082600201600082825461131d91906120fd565b90915550507f00000000000000000000000000000000000000000000000000000000000000006001600160a01b031663a9059cbb336040516001600160e01b031960e084901b1681526001600160a01b039091166004820152602481018490526044016020604051808303816000875af115801561139f573d6000803e3d6000fd5b505050506040513d601f19601f820116820180604052508101906113c3919061219a565b506113ce8184612163565b9250826005819055506113f2670de0b6b3a7640000610651600754610d658b611d11565b60048301557f92289ccb028959c434462ed4a5a307adf94518ad8d4a721d3e5bd3a1c8e3ac7d87338360405161142a93929190612176565b60405180910390a160408051808201909152601f81527f546f6b656e73207472616e73666572726564207375636365737366756c6c79006020820152600196509450925050505b9193909250565b611480611d3c565b6114886117cd565b600480546040516323b872dd60e01b81527f00000000000000000000000000000000000000000000000000000000000000006001600160a01b0316926323b872dd926114d992309233929101612176565b6020604051808303816000875af11580156114f8573d6000803e3d6000fd5b505050506040513d601f19601f8201168201806040525081019061151c919061219a565b506004805490600061152e8380612163565b909155505060045460088054600090611548908490612163565b909155505060025460009061155e904290612163565b905060015442101561157d5760015460025461157a9190612163565b90505b6000600954118015611590575060015442115b156115bd576115a66009544261094b9190612163565b600a60008282546115b791906120fd565b90915550505b80600a546008546115ce9190612163565b6115d891906121b7565b6003556001544211156115ec574260095550565b6001546009555b50565b6115fe611d3c565b6001600160a01b037f00000000000000000000000000000000000000000000000000000000000000001663a9059cbb336040516001600160e01b031960e084901b1681526001600160a01b039091166004820152602481018490526044016020604051808303816000875af115801561167b573d6000803e3d6000fd5b505050506040513d601f19601f82011682018060405250810190610ede919061219a565b6001600160a01b0381166000908152600c60209081526040808320805482518185028101850190935280835260609492939192909184015b8282101561171d578382906000526020600020906002020160405180604001604052908160008201548152602001600182015481525050815260200190600101906116d7565b505050509050919050565b6000600d544210610ab757336000908152600b6020908152604091829020825160a08101845281548152600182015492810192909252600281015492820192909252600382015460608201526004909101546080820152600f54158015906117935750612710600e54105b15610aae5760006117a46001611b7b565b90506000610a8161271061065184610d6587604001518860200151611aef90919063ffffffff16565b60065442116117d857565b6005546000036117e85742600655565b60006117f66006544261068a565b9050600061180f60035483611b0e90919063ffffffff16565b905061183e611835600554610651670de0b6b3a764000085611b0e90919063ffffffff16565b60075490611b1a565b600755505042600655565b611851611d3c565b6000831180156118615750600082115b801561186d5750600081115b801561187b57506127108111155b6118e35760405162461bcd60e51b815260206004820152603360248201527f4d50524f5265776172645374616b653a20496e76616c696420636c61696d207260448201527232bbb0b9321031b7b73334b3bab930ba34b7b760691b606482015260840161070e565b600d92909255600f55600e55565b6118f9611d3c565b6001600160a01b03811661195e5760405162461bcd60e51b815260206004820152602660248201527f4f776e61626c653a206e6577206f776e657220697320746865207a65726f206160448201526564647265737360d01b606482015260840161070e565b6115f381611d96565b6001600160a01b0381166000908152600b60209081526040808320815160a0810183528154815260018201549381019390935260028101549183019190915260038101546060830152600401546080820152600754600654421180156119ce575060055415155b15611a255760006119e16006544261068a565b905060006119fa60035483611b0e90919063ffffffff16565b9050611a20611835600554610651670de0b6b3a764000085611b0e90919063ffffffff16565b925050505b611a4c8260800151611a46670de0b6b3a764000061065185610d658a611d11565b90611aef565b949350505050565b611a5c611d3c565b6001600160a01b03919091166000908152601160205260409020805460ff1916911515919091179055565b611ab96040518060a0016040528060008152602001600081526020016000815260200160008152602001600081525090565b6040518060a001604052806001548152602001600254815260200160035481526020016004548152602001600554815250905090565b6000611afb8284612163565b9392505050565b6000611afb82846121b7565b6000611afb82846121d9565b6000611afb82846120fd565b611b2e611ee0565b6000805460ff60a01b191690557f5db9ee0a495bf2e6ff9c91a7834c1ba4fdd244a5e8aa4e537bd38aeae4b073aa335b6040516001600160a01b03909116815260200160405180910390a1565b6000600d544210611bd0576000611bb7611b96846001611b1a565b611bb1600f54610651600d5442611aef90919063ffffffff16565b90611b1a565b90506000611a4c82600e54611b0e90919063ffffffff16565b506000919050565b919050565b600054600160a01b900460ff161561071f5760405162461bcd60e51b815260206004820152601060248201526f14185d5cd8589b194e881c185d5cd95960821b604482015260640161070e565b6001600160a01b0381166000908152600b6020526040812060048101546007548391611c6b91611a4690670de0b6b3a76400009061065190610d658a611d11565b90508015611ca85780826003016000828254611c8791906120fd565b9250508190555080826001016000828254611ca291906120fd565b90915550505b611cc3670de0b6b3a7640000610651600754610d6588611d11565b6004830155604080516001600160a01b0386168152602081018390527ffdb40631688a7579284e2f66bc5fd4fefeb5ff42e76828e3b307bdc4af2715bf910160405180910390a19392505050565b6001600160a01b0381166000908152600b6020526040812060028101546001820154611afb91611aef565b6000546001600160a01b0316331461071f5760405162461bcd60e51b815260206004820181905260248201527f4f776e61626c653a2063616c6c6572206973206e6f7420746865206f776e6572604482015260640161070e565b600080546001600160a01b038381166001600160a01b0319831681178455604051919092169283917f8be0079c531659141344cd1fd0a4f28419497f9722a3daafe3b4186f6b6457e09190a35050565b611dee611bdd565b6000805460ff60a01b1916600160a01b1790557f62e78cea01bee320cd4e420270b5ea74000d11b0c9f74754ebdbfc544b05a258611b5e3390565b6001600160a01b0382166000908152600b602052604081208054839082908490611e549084906120fd565b9250508190555082816001016000828254611e6f91906120fd565b92505081905550611e91670de0b6b3a7640000610651600754610d6588611d11565b6004820155604080516001600160a01b0386168152602081018590527febedb8b3c678666e7f36970bc8f57abf6d8fa2e828c0da91ea5b75bf68ed101a910160405180910390a1509092915050565b600054600160a01b900460ff1661071f5760405162461bcd60e51b815260206004820152601460248201527314185d5cd8589b194e881b9bdd081c185d5cd95960621b604482015260640161070e565b80356001600160a01b0381168114611bd857600080fd5b600060208284031215611f5957600080fd5b611afb82611f30565b60008060408385031215611f7557600080fd5b50508035926020909101359150565b600060208284031215611f9657600080fd5b5035919050565b80151581146115f357600080fd5b60008060408385031215611fbe57600080fd5b611fc783611f30565b91506020830135611fd781611f9d565b809150509250929050565b60008060408385031215611ff557600080fd5b611ffe83611f30565b946020939093013593505050565b83151581526000602060606020840152845180606085015260005b8181101561204357868101830151858201608001528201612027565b506000608082860101526080601f19601f83011685010192505050826040830152949350505050565b602080825282518282018190526000919060409081850190868401855b828110156120ae57815180518552860151868501529284019290850190600101612089565b5091979650505050505050565b6000806000606084860312156120d057600080fd5b505081359360208301359350604090920135919050565b634e487b7160e01b600052601160045260246000fd5b808201808211156106c4576106c46120e7565b60208082526033908201527f4d50524f5265776172645374616b653a2041646472657373206973206e6f74206040820152723bb434ba32b634b9ba32b2103ab83230ba32b960691b606082015260800190565b818103818111156106c4576106c46120e7565b6001600160a01b039384168152919092166020820152604081019190915260600190565b6000602082840312156121ac57600080fd5b8151611afb81611f9d565b6000826121d457634e487b7160e01b600052601260045260246000fd5b500490565b80820281158282048414176106c4576106c46120e756fea2646970667358221220a6526f8fc45a1b79af30e2c9266c71302a73e24c06b48f68d4c710179496520064736f6c63430008160033",
  "devdoc": {
    "events": {
      "Paused(address)": {
        "details": "Emitted when the pause is triggered by `account`."
      },
      "Unpaused(address)": {
        "details": "Emitted when the pause is lifted by `account`."
      }
    },
    "kind": "dev",
    "methods": {
      "claim()": {
        "details": "Claims tokens for the sender. This function allows the sender to claim tokens. It verifies that the contract is not paused and there are tokens available for claim. It updates the staker's balance to claim if there are pending rewards. It then ensures that the remaining balance to claim is sufficient for the tokens to be claimed. If the conditions are met, the tokens are transferred to the sender."
      },
      "constructor": {
        "details": "Initializes the MPROAutoStake contract. This function initializes the MPROAutoStake contract with the specified reward token address and the new owner address. It sets the reward token and transfers the ownership to the new owner.",
        "params": {
          "_newOwner": "The address of the new owner.",
          "_rewardTokenAddress": "The address of the reward token."
        }
      },
      "emergencyRewardWithdrawal()": {
        "details": "Withdraws emergency reward tokens from the contract."
      },
      "enableForRelease()": {
        "details": "Computes the amount of tokens available for release. This function calculates and returns the amount of tokens available for release for the sender. It checks if the current timestamp is greater than or equal to the claim reward start timestamp. If claim configuration is set to retrieve data about cycles, it calculates the current cycle, the percent to claim, and the claimable tokens based on the staker's balance to claim and claimed balance. If claim configuration is not set, it allows claiming all tokens. If the conditions are not met, it returns zero.",
        "returns": {
          "_0": "uint256 The amount of tokens available for release."
        }
      },
      "getEarnedAmount(address)": {
        "details": "Retrieves the earned reward amount for a specific staker. This function returns the earned reward amount for a specific staker based on their account address.",
        "params": {
          "_account": "The address of the staker."
        },
        "returns": {
          "_0": "uint256 The earned reward amount."
        }
      },
      "getMultiplierForTimestamps(uint256,uint256)": {
        "details": "Retrieves the multiplier for timestamps. This function calculates and returns the multiplier for timestamps based on the start and end timestamps of the stake period. If the end timestamp is less than or equal to the specified timestamp, the function returns the difference between the two timestamps. If the start timestamp is greater than or equal to the specified timestamp, the function returns zero. Otherwise, it returns the difference between the end timestamp and the specified timestamp.",
        "params": {
          "_from": "The start timestamp.",
          "_to": "The end timestamp."
        },
        "returns": {
          "_0": "uint256 The multiplier for timestamps."
        }
      },
      "getStakedAmount(address)": {
        "details": "Retrieves the staked amount for a specific staker. This function returns the staked amount for a specific staker based on their account address.",
        "params": {
          "_account": "The address of the staker."
        },
        "returns": {
          "_0": "uint256 The staked amount."
        }
      },
      "getWalletStakeUpdates(address)": {
        "details": "Retrieves the claimed balance for a specific staker. This function returns the claimed balance for a specific staker based on their account address.",
        "params": {
          "_account": "The address of the staker."
        },
        "returns": {
          "_0": "uint256 The claimed balance."
        }
      },
      "moveToStake(address)": {
        "details": "Moves tokens to another stake contract. This function allows the sender to move tokens to another stake contract. It verifies that the contract is not paused, and the claim reward period has started. It calculates the amount of tokens available for release using the `enableForRelease` function and ensures that it is greater than zero. The tokens available for release are then added to the staker's claimed balance, and the stake contract specified by `_stakeAddress` is called to transfer the tokens.",
        "params": {
          "_stakerAddress": "The address of the staker."
        }
      },
      "nextReleaseAllocation()": {
        "details": "Retrieves the next release allocation. This function calculates and returns the next release allocation based on the current timestamp and the claim reward start timestamp. If the current timestamp is greater than or equal to the claim reward start timestamp, it retrieves the staker's information and calculates the percent to claim based on the current cycle. It then calculates the claimable tokens based on the staker's balance with rewards and claimed balance. If the claimable tokens are greater than the balance with rewards, it sets the claimable tokens to the balance with rewards. If the claim configuration is not set, it allows claiming all tokens. If the conditions are not met, it returns zero.",
        "returns": {
          "_0": "uint256 The next release allocation."
        }
      },
      "nextReleaseTimestamp()": {
        "details": "Retrieves the next release timestamp. This function calculates and returns the next release timestamp based on the current timestamp and the claim reward start timestamp. If the current timestamp is less than the claim reward start timestamp, it returns the claim reward start timestamp. Otherwise, it calculates the reward cycle and returns the next release timestamp.",
        "returns": {
          "_0": "uint256 The next release timestamp."
        }
      },
      "owner()": {
        "details": "Returns the address of the current owner."
      },
      "paused()": {
        "details": "Returns true if the contract is paused, and false otherwise."
      },
      "pendingReward(address)": {
        "details": "Retrieves the pending reward for a specific staker. This function calculates and returns the pending reward for a specific staker based on their balance to claim, the reward per token from the last updated timestamp, and the current balance. If the staker's last updated timestamp is zero, indicating no previous updates, the function returns zero. Otherwise, it computes the pending reward per token and returns the result.",
        "params": {
          "_account": "The address of the staker."
        },
        "returns": {
          "_0": "uint256 The pending reward amount."
        }
      },
      "removeDust(uint256)": {
        "details": "Removes dust tokens from the contract. This function allows the contract owner to transfer all remaining tokens (dust) from the contract to the owner's address.",
        "params": {
          "_amount": "The amount to remove from the contract."
        }
      },
      "renounceOwnership()": {
        "details": "Leaves the contract without owner. It will not be possible to call `onlyOwner` functions. Can only be called by the current owner. NOTE: Renouncing ownership will leave the contract without an owner, thereby disabling any functionality that is only available to the owner."
      },
      "setClaimRewardConfig(uint256,uint256,uint256)": {
        "details": "Sets the claim reward configuration parameters. This function allows the contract owner to set the claim reward configuration parameters including the start timestamp for claiming rewards, the duration of each claim period, and the percent of rewards to unlock per period.",
        "params": {
          "_claimPeriodDuration": "The duration of each claim period is seconds.",
          "_claimRewardStartTimestamp": "The start timestamp for claiming rewards.",
          "_rewardUnlockPercentPerPeriod": "The percent of rewards to unlock per period. 10000 = 100%, 9000 = 90%, etc."
        }
      },
      "setStakeConfig(uint256,uint256)": {
        "details": "Sets the stake configuration parameters. This function allows the contract owner to set the stake configuration parameters including the start and end timestamps for staking and declaration periods.",
        "params": {
          "_stakeEndTimestamp": "The end timestamp for the stake period.",
          "_stakeStartTimestamp": "The start timestamp for the stake period."
        }
      },
      "stakeDuration()": {
        "details": "Returns the duration of the stake period. This function computes and returns the duration of the stake period by subtracting the start timestamp from the end timestamp.",
        "returns": {
          "_0": "uint256 The duration of the stake period."
        }
      },
      "transferOwnership(address)": {
        "details": "Transfers ownership of the contract to a new account (`newOwner`). Can only be called by the current owner."
      },
      "updatePool()": {
        "details": "Updates the pool. This function updates the pool by calculating the multiplier for timestamps and the reward token reward. It then updates the accumulated reward per share based on the reward token reward and the total staked supply. If the current timestamp is less than or equal to the last reward timestamp, the function returns without updating the pool. If the total staked supply is zero, the function returns without updating the pool. Otherwise, it calculates the multiplier for timestamps and the reward token reward, updates the accumulated reward per share, and sets the last reward timestamp to the current timestamp."
      },
      "updateReward(uint256)": {
        "details": "Updates the reward tokens within the contract. This function is used by the contract owner to update the reward tokens within the contract. It verifies the validity of the stake period, transfers the specified amount of reward tokens to the contract address, increases the reward token quantity by the transferred amount, and updates the reward rate based on the new reward token quantity and stake duration.",
        "params": {
          "_amount": "The amount of reward tokens to be added."
        }
      }
    },
    "version": 1
  },
  "userdoc": {
    "kind": "user",
    "methods": {},
    "version": 1
  },
  "storageLayout": {
    "storage": [
      {
        "astId": 7,
        "contract": "contracts/MPROStake.sol:MPROStake",
        "label": "_owner",
        "offset": 0,
        "slot": "0",
        "type": "t_address"
      },
      {
        "astId": 130,
        "contract": "contracts/MPROStake.sol:MPROStake",
        "label": "_paused",
        "offset": 20,
        "slot": "0",
        "type": "t_bool"
      },
      {
        "astId": 1273,
        "contract": "contracts/MPROStake.sol:MPROStake",
        "label": "stakeStartTimestamp",
        "offset": 0,
        "slot": "1",
        "type": "t_uint256"
      },
      {
        "astId": 1275,
        "contract": "contracts/MPROStake.sol:MPROStake",
        "label": "stakeEndTimestamp",
        "offset": 0,
        "slot": "2",
        "type": "t_uint256"
      },
      {
        "astId": 1277,
        "contract": "contracts/MPROStake.sol:MPROStake",
        "label": "rewardPerSecond",
        "offset": 0,
        "slot": "3",
        "type": "t_uint256"
      },
      {
        "astId": 1279,
        "contract": "contracts/MPROStake.sol:MPROStake",
        "label": "rewardTokenQuantity",
        "offset": 0,
        "slot": "4",
        "type": "t_uint256"
      },
      {
        "astId": 1281,
        "contract": "contracts/MPROStake.sol:MPROStake",
        "label": "totalStakedSupply",
        "offset": 0,
        "slot": "5",
        "type": "t_uint256"
      },
      {
        "astId": 1283,
        "contract": "contracts/MPROStake.sol:MPROStake",
        "label": "lastRewardTimestamp",
        "offset": 0,
        "slot": "6",
        "type": "t_uint256"
      },
      {
        "astId": 1285,
        "contract": "contracts/MPROStake.sol:MPROStake",
        "label": "accRewardTokenPerShare",
        "offset": 0,
        "slot": "7",
        "type": "t_uint256"
      },
      {
        "astId": 1287,
        "contract": "contracts/MPROStake.sol:MPROStake",
        "label": "accRewardTokenQuantity",
        "offset": 0,
        "slot": "8",
        "type": "t_uint256"
      },
      {
        "astId": 1289,
        "contract": "contracts/MPROStake.sol:MPROStake",
        "label": "lastUpdateRewardTimestamp",
        "offset": 0,
        "slot": "9",
        "type": "t_uint256"
      },
      {
        "astId": 1291,
        "contract": "contracts/MPROStake.sol:MPROStake",
        "label": "distributedReward",
        "offset": 0,
        "slot": "10",
        "type": "t_uint256"
      },
      {
        "astId": 1318,
        "contract": "contracts/MPROStake.sol:MPROStake",
        "label": "staker",
        "offset": 0,
        "slot": "11",
        "type": "t_mapping(t_address,t_struct(Staker)1302_storage)"
      },
      {
        "astId": 1329,
        "contract": "contracts/MPROStake.sol:MPROStake",
        "label": "walletStakeUpdates",
        "offset": 0,
        "slot": "12",
        "type": "t_mapping(t_address,t_array(t_struct(StakeUpdate)1323_storage)dyn_storage)"
      },
      {
        "astId": 1331,
        "contract": "contracts/MPROStake.sol:MPROStake",
        "label": "claimRewardStartTimestamp",
        "offset": 0,
        "slot": "13",
        "type": "t_uint256"
      },
      {
        "astId": 1334,
        "contract": "contracts/MPROStake.sol:MPROStake",
        "label": "rewardUnlockPercentPerPeriod",
        "offset": 0,
        "slot": "14",
        "type": "t_uint256"
      },
      {
        "astId": 1336,
        "contract": "contracts/MPROStake.sol:MPROStake",
        "label": "claimPeriodDuration",
        "offset": 0,
        "slot": "15",
        "type": "t_uint256"
      },
      {
        "astId": 1340,
        "contract": "contracts/MPROStake.sol:MPROStake",
        "label": "isStakeWhitelisted",
        "offset": 0,
        "slot": "16",
        "type": "t_mapping(t_address,t_bool)"
      },
      {
        "astId": 1344,
        "contract": "contracts/MPROStake.sol:MPROStake",
        "label": "isUpdaterWhitelisted",
        "offset": 0,
        "slot": "17",
        "type": "t_mapping(t_address,t_bool)"
      }
    ],
    "types": {
      "t_address": {
        "encoding": "inplace",
        "label": "address",
        "numberOfBytes": "20"
      },
      "t_array(t_struct(StakeUpdate)1323_storage)dyn_storage": {
        "base": "t_struct(StakeUpdate)1323_storage",
        "encoding": "dynamic_array",
        "label": "struct MPROStake.StakeUpdate[]",
        "numberOfBytes": "32"
      },
      "t_bool": {
        "encoding": "inplace",
        "label": "bool",
        "numberOfBytes": "1"
      },
      "t_mapping(t_address,t_array(t_struct(StakeUpdate)1323_storage)dyn_storage)": {
        "encoding": "mapping",
        "key": "t_address",
        "label": "mapping(address => struct MPROStake.StakeUpdate[])",
        "numberOfBytes": "32",
        "value": "t_array(t_struct(StakeUpdate)1323_storage)dyn_storage"
      },
      "t_mapping(t_address,t_bool)": {
        "encoding": "mapping",
        "key": "t_address",
        "label": "mapping(address => bool)",
        "numberOfBytes": "32",
        "value": "t_bool"
      },
      "t_mapping(t_address,t_struct(Staker)1302_storage)": {
        "encoding": "mapping",
        "key": "t_address",
        "label": "mapping(address => struct MPROStake.Staker)",
        "numberOfBytes": "32",
        "value": "t_struct(Staker)1302_storage"
      },
      "t_struct(StakeUpdate)1323_storage": {
        "encoding": "inplace",
        "label": "struct MPROStake.StakeUpdate",
        "members": [
          {
            "astId": 1320,
            "contract": "contracts/MPROStake.sol:MPROStake",
            "label": "_blockTimestamp",
            "offset": 0,
            "slot": "0",
            "type": "t_uint256"
          },
          {
            "astId": 1322,
            "contract": "contracts/MPROStake.sol:MPROStake",
            "label": "_updatedAmount",
            "offset": 0,
            "slot": "1",
            "type": "t_uint256"
          }
        ],
        "numberOfBytes": "64"
      },
      "t_struct(Staker)1302_storage": {
        "encoding": "inplace",
        "label": "struct MPROStake.Staker",
        "members": [
          {
            "astId": 1293,
            "contract": "contracts/MPROStake.sol:MPROStake",
            "label": "staked",
            "offset": 0,
            "slot": "0",
            "type": "t_uint256"
          },
          {
            "astId": 1295,
            "contract": "contracts/MPROStake.sol:MPROStake",
            "label": "balanceWithRewards",
            "offset": 0,
            "slot": "1",
            "type": "t_uint256"
          },
          {
            "astId": 1297,
            "contract": "contracts/MPROStake.sol:MPROStake",
            "label": "claimedBalance",
            "offset": 0,
            "slot": "2",
            "type": "t_uint256"
          },
          {
            "astId": 1299,
            "contract": "contracts/MPROStake.sol:MPROStake",
            "label": "reward",
            "offset": 0,
            "slot": "3",
            "type": "t_uint256"
          },
          {
            "astId": 1301,
            "contract": "contracts/MPROStake.sol:MPROStake",
            "label": "rewardDebt",
            "offset": 0,
            "slot": "4",
            "type": "t_uint256"
          }
        ],
        "numberOfBytes": "160"
      },
      "t_uint256": {
        "encoding": "inplace",
        "label": "uint256",
        "numberOfBytes": "32"
      }
    }
  }
}