{
  "address": "0x387c77aee8d026C14bFaa68f9C012CF0Ca2a0330",
  "abi": [
    {
      "inputs": [
        {
          "internalType": "address",
          "name": "_rewardTokenAddress",
          "type": "address"
        },
        {
          "internalType": "address",
          "name": "_newOwner",
          "type": "address"
        }
      ],
      "stateMutability": "nonpayable",
      "type": "constructor"
    },
    {
      "anonymous": false,
      "inputs": [
        {
          "indexed": true,
          "internalType": "address",
          "name": "previousOwner",
          "type": "address"
        },
        {
          "indexed": true,
          "internalType": "address",
          "name": "newOwner",
          "type": "address"
        }
      ],
      "name": "OwnershipTransferred",
      "type": "event"
    },
    {
      "anonymous": false,
      "inputs": [
        {
          "indexed": false,
          "internalType": "address",
          "name": "account",
          "type": "address"
        }
      ],
      "name": "Paused",
      "type": "event"
    },
    {
      "anonymous": false,
      "inputs": [
        {
          "indexed": false,
          "internalType": "address",
          "name": "account",
          "type": "address"
        }
      ],
      "name": "Unpaused",
      "type": "event"
    },
    {
      "inputs": [],
      "name": "claim",
      "outputs": [],
      "stateMutability": "nonpayable",
      "type": "function"
    },
    {
      "inputs": [],
      "name": "claimPeriodDuration",
      "outputs": [
        {
          "internalType": "uint256",
          "name": "",
          "type": "uint256"
        }
      ],
      "stateMutability": "view",
      "type": "function"
    },
    {
      "inputs": [],
      "name": "claimRewardStartTimestamp",
      "outputs": [
        {
          "internalType": "uint256",
          "name": "",
          "type": "uint256"
        }
      ],
      "stateMutability": "view",
      "type": "function"
    },
    {
      "inputs": [],
      "name": "declarationEndTimestamp",
      "outputs": [
        {
          "internalType": "uint256",
          "name": "",
          "type": "uint256"
        }
      ],
      "stateMutability": "view",
      "type": "function"
    },
    {
      "inputs": [],
      "name": "declarationStartTimestamp",
      "outputs": [
        {
          "internalType": "uint256",
          "name": "",
          "type": "uint256"
        }
      ],
      "stateMutability": "view",
      "type": "function"
    },
    {
      "inputs": [],
      "name": "enableForRelease",
      "outputs": [
        {
          "internalType": "uint256",
          "name": "",
          "type": "uint256"
        }
      ],
      "stateMutability": "view",
      "type": "function"
    },
    {
      "inputs": [
        {
          "internalType": "address",
          "name": "_account",
          "type": "address"
        }
      ],
      "name": "getEarnedAmount",
      "outputs": [
        {
          "internalType": "uint256",
          "name": "",
          "type": "uint256"
        }
      ],
      "stateMutability": "view",
      "type": "function"
    },
    {
      "inputs": [
        {
          "internalType": "address",
          "name": "_account",
          "type": "address"
        }
      ],
      "name": "getStakedAmount",
      "outputs": [
        {
          "internalType": "uint256",
          "name": "",
          "type": "uint256"
        }
      ],
      "stateMutability": "view",
      "type": "function"
    },
    {
      "inputs": [
        {
          "internalType": "address",
          "name": "_account",
          "type": "address"
        }
      ],
      "name": "getWalletStakeUpdates",
      "outputs": [
        {
          "components": [
            {
              "internalType": "uint256",
              "name": "_blockTimestamp",
              "type": "uint256"
            },
            {
              "internalType": "uint256",
              "name": "_updatedAmount",
              "type": "uint256"
            }
          ],
          "internalType": "struct MPRORewardStake.StakeUpdate[]",
          "name": "",
          "type": "tuple[]"
        }
      ],
      "stateMutability": "view",
      "type": "function"
    },
    {
      "inputs": [
        {
          "internalType": "address",
          "name": "",
          "type": "address"
        }
      ],
      "name": "isStakeWhitelisted",
      "outputs": [
        {
          "internalType": "bool",
          "name": "",
          "type": "bool"
        }
      ],
      "stateMutability": "view",
      "type": "function"
    },
    {
      "inputs": [
        {
          "internalType": "address",
          "name": "",
          "type": "address"
        }
      ],
      "name": "isUpdaterWhitelisted",
      "outputs": [
        {
          "internalType": "bool",
          "name": "",
          "type": "bool"
        }
      ],
      "stateMutability": "view",
      "type": "function"
    },
    {
      "inputs": [],
      "name": "lastTimeRewardApplicable",
      "outputs": [
        {
          "internalType": "uint256",
          "name": "",
          "type": "uint256"
        }
      ],
      "stateMutability": "view",
      "type": "function"
    },
    {
      "inputs": [
        {
          "internalType": "address",
          "name": "_stakerAddress",
          "type": "address"
        }
      ],
      "name": "moveToStake",
      "outputs": [
        {
          "internalType": "bool",
          "name": "",
          "type": "bool"
        },
        {
          "internalType": "string",
          "name": "",
          "type": "string"
        },
        {
          "internalType": "uint256",
          "name": "",
          "type": "uint256"
        }
      ],
      "stateMutability": "nonpayable",
      "type": "function"
    },
    {
      "inputs": [],
      "name": "nextReleaseAllocation",
      "outputs": [
        {
          "internalType": "uint256",
          "name": "",
          "type": "uint256"
        }
      ],
      "stateMutability": "view",
      "type": "function"
    },
    {
      "inputs": [],
      "name": "owner",
      "outputs": [
        {
          "internalType": "address",
          "name": "",
          "type": "address"
        }
      ],
      "stateMutability": "view",
      "type": "function"
    },
    {
      "inputs": [],
      "name": "pause",
      "outputs": [],
      "stateMutability": "nonpayable",
      "type": "function"
    },
    {
      "inputs": [],
      "name": "paused",
      "outputs": [
        {
          "internalType": "bool",
          "name": "",
          "type": "bool"
        }
      ],
      "stateMutability": "view",
      "type": "function"
    },
    {
      "inputs": [
        {
          "internalType": "address",
          "name": "_account",
          "type": "address"
        }
      ],
      "name": "pendingReward",
      "outputs": [
        {
          "internalType": "uint256",
          "name": "",
          "type": "uint256"
        }
      ],
      "stateMutability": "view",
      "type": "function"
    },
    {
      "inputs": [
        {
          "internalType": "uint256",
          "name": "_amount",
          "type": "uint256"
        }
      ],
      "name": "removeDust",
      "outputs": [],
      "stateMutability": "nonpayable",
      "type": "function"
    },
    {
      "inputs": [],
      "name": "renounceOwnership",
      "outputs": [],
      "stateMutability": "nonpayable",
      "type": "function"
    },
    {
      "inputs": [
        {
          "internalType": "uint256",
          "name": "_updatedTimestamp",
          "type": "uint256"
        }
      ],
      "name": "rewardPerTokenFromTimestamp",
      "outputs": [
        {
          "internalType": "uint256",
          "name": "",
          "type": "uint256"
        }
      ],
      "stateMutability": "view",
      "type": "function"
    },
    {
      "inputs": [],
      "name": "rewardRate",
      "outputs": [
        {
          "internalType": "uint256",
          "name": "",
          "type": "uint256"
        }
      ],
      "stateMutability": "view",
      "type": "function"
    },
    {
      "inputs": [],
      "name": "rewardToken",
      "outputs": [
        {
          "internalType": "contract ERC20",
          "name": "",
          "type": "address"
        }
      ],
      "stateMutability": "view",
      "type": "function"
    },
    {
      "inputs": [],
      "name": "rewardTokenAddress",
      "outputs": [
        {
          "internalType": "address",
          "name": "",
          "type": "address"
        }
      ],
      "stateMutability": "view",
      "type": "function"
    },
    {
      "inputs": [],
      "name": "rewardTokenQuantity",
      "outputs": [
        {
          "internalType": "uint256",
          "name": "",
          "type": "uint256"
        }
      ],
      "stateMutability": "view",
      "type": "function"
    },
    {
      "inputs": [],
      "name": "rewardUnlockPercentPerPeriod",
      "outputs": [
        {
          "internalType": "uint256",
          "name": "",
          "type": "uint256"
        }
      ],
      "stateMutability": "view",
      "type": "function"
    },
    {
      "inputs": [
        {
          "internalType": "uint256",
          "name": "_claimRewardStartTimestamp",
          "type": "uint256"
        },
        {
          "internalType": "uint256",
          "name": "_claimPeriodDuration",
          "type": "uint256"
        },
        {
          "internalType": "uint256",
          "name": "_rewardUnlockPercentPerPeriod",
          "type": "uint256"
        }
      ],
      "name": "setClaimRewardConfig",
      "outputs": [],
      "stateMutability": "nonpayable",
      "type": "function"
    },
    {
      "inputs": [
        {
          "internalType": "uint256",
          "name": "_stakeStartTimestamp",
          "type": "uint256"
        },
        {
          "internalType": "uint256",
          "name": "_stakeEndTimestamp",
          "type": "uint256"
        },
        {
          "internalType": "uint256",
          "name": "_updateStakersStartTimestamp",
          "type": "uint256"
        },
        {
          "internalType": "uint256",
          "name": "_updateStakersEndTimestamp",
          "type": "uint256"
        },
        {
          "internalType": "uint256",
          "name": "_declarationStartTimestamp",
          "type": "uint256"
        },
        {
          "internalType": "uint256",
          "name": "_declarationEndTimestamp",
          "type": "uint256"
        }
      ],
      "name": "setStakeConfig",
      "outputs": [],
      "stateMutability": "nonpayable",
      "type": "function"
    },
    {
      "inputs": [
        {
          "internalType": "address",
          "name": "_stakeAddress",
          "type": "address"
        },
        {
          "internalType": "bool",
          "name": "_isWhitelisted",
          "type": "bool"
        }
      ],
      "name": "setStakeWhitelisted",
      "outputs": [],
      "stateMutability": "nonpayable",
      "type": "function"
    },
    {
      "inputs": [
        {
          "internalType": "address",
          "name": "_walletAddress",
          "type": "address"
        },
        {
          "internalType": "bool",
          "name": "_isWhitelisted",
          "type": "bool"
        }
      ],
      "name": "setUpdaterWhitelisted",
      "outputs": [],
      "stateMutability": "nonpayable",
      "type": "function"
    },
    {
      "inputs": [],
      "name": "stakeDuration",
      "outputs": [
        {
          "internalType": "uint256",
          "name": "",
          "type": "uint256"
        }
      ],
      "stateMutability": "view",
      "type": "function"
    },
    {
      "inputs": [],
      "name": "stakeEndTimestamp",
      "outputs": [
        {
          "internalType": "uint256",
          "name": "",
          "type": "uint256"
        }
      ],
      "stateMutability": "view",
      "type": "function"
    },
    {
      "inputs": [],
      "name": "stakeStartTimestamp",
      "outputs": [
        {
          "internalType": "uint256",
          "name": "",
          "type": "uint256"
        }
      ],
      "stateMutability": "view",
      "type": "function"
    },
    {
      "inputs": [
        {
          "internalType": "address",
          "name": "",
          "type": "address"
        }
      ],
      "name": "staker",
      "outputs": [
        {
          "internalType": "uint256",
          "name": "staked",
          "type": "uint256"
        },
        {
          "internalType": "uint256",
          "name": "lastUpdatedAt",
          "type": "uint256"
        },
        {
          "internalType": "uint256",
          "name": "balanceWithRewards",
          "type": "uint256"
        },
        {
          "internalType": "uint256",
          "name": "claimedBalance",
          "type": "uint256"
        },
        {
          "internalType": "uint256",
          "name": "reward",
          "type": "uint256"
        }
      ],
      "stateMutability": "view",
      "type": "function"
    },
    {
      "inputs": [],
      "name": "totalStakedSupply",
      "outputs": [
        {
          "internalType": "uint256",
          "name": "",
          "type": "uint256"
        }
      ],
      "stateMutability": "view",
      "type": "function"
    },
    {
      "inputs": [
        {
          "internalType": "address",
          "name": "newOwner",
          "type": "address"
        }
      ],
      "name": "transferOwnership",
      "outputs": [],
      "stateMutability": "nonpayable",
      "type": "function"
    },
    {
      "inputs": [],
      "name": "unpause",
      "outputs": [],
      "stateMutability": "nonpayable",
      "type": "function"
    },
    {
      "inputs": [
        {
          "internalType": "uint256",
          "name": "_amount",
          "type": "uint256"
        }
      ],
      "name": "updateReward",
      "outputs": [],
      "stateMutability": "nonpayable",
      "type": "function"
    },
    {
      "inputs": [
        {
          "internalType": "address[]",
          "name": "_stakers",
          "type": "address[]"
        },
        {
          "internalType": "uint256[]",
          "name": "_amounts",
          "type": "uint256[]"
        }
      ],
      "name": "updateStakers",
      "outputs": [],
      "stateMutability": "nonpayable",
      "type": "function"
    },
    {
      "inputs": [],
      "name": "updateStakersEndTimestamp",
      "outputs": [
        {
          "internalType": "uint256",
          "name": "",
          "type": "uint256"
        }
      ],
      "stateMutability": "view",
      "type": "function"
    },
    {
      "inputs": [],
      "name": "updateStakersStartTimestamp",
      "outputs": [
        {
          "internalType": "uint256",
          "name": "",
          "type": "uint256"
        }
      ],
      "stateMutability": "view",
      "type": "function"
    },
    {
      "inputs": [
        {
          "internalType": "address",
          "name": "",
          "type": "address"
        },
        {
          "internalType": "uint256",
          "name": "",
          "type": "uint256"
        }
      ],
      "name": "walletStakeUpdates",
      "outputs": [
        {
          "internalType": "uint256",
          "name": "_blockTimestamp",
          "type": "uint256"
        },
        {
          "internalType": "uint256",
          "name": "_updatedAmount",
          "type": "uint256"
        }
      ],
      "stateMutability": "view",
      "type": "function"
    }
  ],
  "transactionHash": "0x28b3ff0c7cb0045afd5adf44a50ca989d61abbbd024f924ad97eb84a930b3ccd",
  "args": [
    "0xbf31DE649bA7AC79e92FEe4171B16c84B7c352A0",
    "0xC856f7BcB20eE58F5788620b1261082829163dc4"
  ],
  "numDeployments": 1,
  "solcInputHash": "51fd3f813469b09086f12b7857f9a219",
  "bytecode": "0x60a0604052612710600e553480156200001757600080fd5b5060405162002133380380620021338339810160408190526200003a91620000f4565b620000453362000087565b6000805460ff60a01b191690556001600160a01b0382166080819052600180546001600160a01b03191690911790556200007f8162000087565b50506200012c565b600080546001600160a01b038381166001600160a01b0319831681178455604051919092169283917f8be0079c531659141344cd1fd0a4f28419497f9722a3daafe3b4186f6b6457e09190a35050565b80516001600160a01b0381168114620000ef57600080fd5b919050565b600080604083850312156200010857600080fd5b6200011383620000d7565b91506200012360208401620000d7565b90509250929050565b608051611fc86200016b60003960008181610598015281816106e401528181610a5e01528181611179015281816113e101526114ea0152611fc86000f3fe608060405234801561001057600080fd5b506004361061025e5760003560e01c806382e4eda411610146578063c492baad116100c3578063e67719bd11610087578063e67719bd14610537578063ebd20d241461055a578063f2fde38b1461056d578063f40f0f5214610580578063f7c618c114610593578063f8fd39f2146105ba57600080fd5b8063c492baad146104f4578063cf8087a814610514578063d1c515ea1461051d578063d6e7d02f14610526578063e2936b941461052f57600080fd5b8063acfbac021161010a578063acfbac021461048a578063bc969d0f14610493578063bcdc3cfc146104b6578063bd93ee54146104bf578063c0779988146104e157600080fd5b806382e4eda4146103f05780638456cb591461045557806384b7719b1461045d5780638da5cb5b1461046657806394281e761461047757600080fd5b80634da6a556116101df57806366db5b2b116101a357806366db5b2b1461039357806367f2c0df146103a65780636c2e3c15146103ce578063715018a6146103d75780637b0a47ee146103df57806380faa57d146103e857600080fd5b80634da6a556146103285780634e71d92d14610351578063503d42f0146103595780635a7d04fb146103625780635c975abb1461037557600080fd5b806340f9427d1161022657806340f9427d146102f2578063425c8abd146102fb578063488647361461030e578063497b46a2146103175780634b841d241461031f57600080fd5b8063125f9e33146102635780631a853e9d146102935780633e5de79f146102cd5780633f4ba83a146102e057806340f02ab6146102ea575b600080fd5b600154610276906001600160a01b031681565b6040516001600160a01b0390911681526020015b60405180910390f35b6102bf6102a1366004611b8f565b6001600160a01b03166000908152600b602052604090206004015490565b60405190815260200161028a565b6102bf6102db366004611baa565b6105cd565b6102e861062c565b005b6102bf61063e565b6102bf60075481565b6102e8610309366004611baa565b610655565b6102bf60055481565b6102bf61078d565b6102bf60035481565b6102bf610336366004611b8f565b6001600160a01b03166000908152600b602052604090205490565b6102e8610888565b6102bf600e5481565b6102e8610370366004611bd1565b610b02565b600054600160a01b900460ff165b604051901515815260200161028a565b6102e86103a1366004611c08565b610b35565b6103b96103b4366004611c4b565b610d2f565b6040805192835260208301919091520161028a565b6102bf600d5481565b6102e8610d6b565b6102bf60065481565b6102bf610d7d565b61042d6103fe366004611b8f565b600b60205260009081526040902080546001820154600283015460038401546004909401549293919290919085565b604080519586526020860194909452928401919091526060830152608082015260a00161028a565b6102e8610d8b565b6102bf60045481565b6000546001600160a01b0316610276565b6102e8610485366004611d4f565b610d9b565b6102bf60095481565b6103836104a1366004611b8f565b60116020526000908152604090205460ff1681565b6102bf60085481565b6104d26104cd366004611b8f565b611226565b60405161028a93929190611e0f565b6102e86104ef366004611baa565b6114c6565b610507610502366004611b8f565b611563565b60405161028a9190611e6f565b6102bf600f5481565b6102bf60025481565b6102bf600a5481565b6102bf6115ec565b610383610545366004611b8f565b60106020526000908152604090205460ff1681565b6102e8610568366004611ebe565b611668565b6102e861057b366004611b8f565b611710565b6102bf61058e366004611b8f565b611789565b6102767f000000000000000000000000000000000000000000000000000000000000000081565b6102e86105c8366004611bd1565b611828565b60006008546000036105e157505060075490565b6000826105ec610d7d565b6105f69190611f00565b9050600854816006546106099190611f13565b61061b90670de0b6b3a7640000611f13565b6106259190611f2a565b9392505050565b61063461185b565b61063c6118b5565b565b60006002546003546106509190611f00565b905090565b61065d61185b565b600060025411801561067157506000600354115b6106c25760405162461bcd60e51b815260206004820152601b60248201527f496e76616c6964207374616b6520706572696f6420636f6e666967000000000060448201526064015b60405180910390fd5b6040516323b872dd60e01b8152336004820152306024820152604481018290527f00000000000000000000000000000000000000000000000000000000000000006001600160a01b0316906323b872dd906064016020604051808303816000875af1158015610735573d6000803e3d6000fd5b505050506040513d601f19601f820116820180604052508101906107599190611f4c565b50806007600082825461076c9190611f69565b9091555061077a905061063e565b6007546107879190611f2a565b60065550565b6000600d54421061088257336000908152600b6020908152604091829020825160a08101845281548152600182015492810192909252600281015492820192909252600382015460608201526004909101546080820152600f54158015906107f85750612710600e54105b15610879576000610809600061190a565b9050600061083061271061082a84866040015161197490919063ffffffff16565b90611989565b9050826060015183604001516108469190611f00565b81111561086957826060015183604001516108619190611f00565b935050505090565b6060830151610861908290611995565b60400151919050565b50600090565b6108906119a1565b6000600d541180156108a45750600d544210155b6109065760405162461bcd60e51b815260206004820152602d60248201527f4d50524f5265776172645374616b653a20436c61696d20706572696f6420686160448201526c1cc81b9bdd081cdd185c9d1959609a1b60648201526084016106b9565b336000818152600b602052604081209161091f90611789565b1115610964576000610930336119ee565b905080600760008282546109449190611f00565b92505081905550806008600082825461095d9190611f69565b9091555050505b600061096e61078d565b9050600081116109cc5760405162461bcd60e51b815260206004820152602360248201527f4d50524f5265776172645374616b653a204e6f20746f6b656e7320746f20636c60448201526261696d60e81b60648201526084016106b9565b80826003015483600201546109e19190611f00565b1015610a435760405162461bcd60e51b815260206004820152602b60248201527f4d50524f5265776172645374616b653a204e6f7420656e6f75676820746f6b6560448201526a6e7320746f20636c61696d60a81b60648201526084016106b9565b80826003016000828254610a579190611f69565b90915550507f00000000000000000000000000000000000000000000000000000000000000006001600160a01b031663a9059cbb336040516001600160e01b031960e084901b1681526001600160a01b039091166004820152602481018490526044016020604051808303816000875af1158015610ad9573d6000803e3d6000fd5b505050506040513d601f19601f82011682018060405250810190610afd9190611f4c565b505050565b610b0a61185b565b6001600160a01b03919091166000908152601060205260409020805460ff1916911515919091179055565b610b3d61185b565b8486108015610b4b57508082105b8015610b5657508284105b610bb75760405162461bcd60e51b815260206004820152602c60248201527f4d50524f5265776172645374616b653a20496e76616c6964207374616b65206360448201526b37b73334b3bab930ba34b7b760a11b60648201526084016106b9565b4286118015610bc557504285115b8015610bd057504284115b8015610bdb57504283115b8015610be657504282115b8015610bf157504281115b610c7d5760405162461bcd60e51b815260206004820152605160248201527f4d50524f5265776172645374616b653a20496e76616c6964207374616b65206360448201527f6f6e66696775726174696f6e202d2074696d657374616d70732073686f756c6460648201527020626520696e207468652066757475726560781b608482015260a4016106b9565b60025415610ce8576002544210610ce85760405162461bcd60e51b815260206004820152602960248201527f4d50524f5265776172645374616b653a205374616b6520706572696f642068616044820152681cc81cdd185c9d195960ba1b60648201526084016106b9565b60028690556003859055600484905560058390556009829055600a81905560075415610d2757610d1661063e565b600754610d239190611f2a565b6006555b505050505050565b600c6020528160005260406000208181548110610d4b57600080fd5b600091825260209091206002909102018054600190910154909250905082565b610d7361185b565b61063c6000611a72565b600061065060035442611ac2565b610d9361185b565b61063c611ad9565b3360009081526011602052604090205460ff1680610dc357506000546001600160a01b031633145b610e2b5760405162461bcd60e51b815260206004820152603360248201527f4d50524f5265776172645374616b653a2041646472657373206973206e6f74206044820152723bb434ba32b634b9ba32b2103ab83230ba32b960691b60648201526084016106b9565b8051825114610e7c5760405162461bcd60e51b815260206004820152601f60248201527f496e76616c696420696e707574202d206c656e677468206d69736d617463680060448201526064016106b9565b6000600454118015610e9057506000600554115b610edc5760405162461bcd60e51b815260206004820152601b60248201527f5265717569726520746f20736574207374616b6520636f6e666967000000000060448201526064016106b9565b600454421015610f405760405162461bcd60e51b815260206004820152602960248201527f43616e206e6f7420757064617465206f7574206f6620746865207570646174696044820152681b99c81c195c9a5bd960ba1b60648201526084016106b9565b6000806000805b8551811015611156576000600b6000888481518110610f6857610f68611f7c565b60200260200101516001600160a01b03166001600160a01b03168152602001908152602001600020905080600001546000148015610fb25750600a54421180610fb2575060095442105b15610fbd575061114e565b6000610fe1888481518110610fd457610fd4611f7c565b60200260200101516119ee565b9050868381518110610ff557610ff5611f7c565b60200260200101518260000160008282546110109190611f69565b9250508190555086838151811061102957611029611f7c565b60200260200101518561103c9190611f69565b94508087848151811061105157611051611f7c565b60200260200101516110639190611f69565b61106d9087611f69565b955086838151811061108157611081611f7c565b602002602001015182600201600082825461109c9190611f69565b909155506110ac90508185611f69565b9350600c60008985815181106110c4576110c4611f7c565b60200260200101516001600160a01b03166001600160a01b031681526020019081526020016000206040518060400160405280428152602001838a878151811061111057611110611f7c565b60200260200101516111229190611f69565b905281546001818101845560009384526020938490208351600290930201918255929091015191015550505b600101610f47565b506040516323b872dd60e01b8152336004820152306024820152604481018390527f00000000000000000000000000000000000000000000000000000000000000006001600160a01b0316906323b872dd906064016020604051808303816000875af11580156111ca573d6000803e3d6000fd5b505050506040513d601f19601f820116820180604052508101906111ee9190611f4c565b5080600760008282546112019190611f00565b92505081905550826008600082825461121a9190611f69565b90915550505050505050565b6000606060006112346119a1565b3360009081526010602052604090205460ff166112ae5760405162461bcd60e51b815260206004820152603260248201527f4d50524f5265776172645374616b653a205374616b6520636f6e7472616374206044820152711a5cc81b9bdd081dda1a5d195b1a5cdd195960721b60648201526084016106b9565b600d5415806112be5750600d5442105b1561130357505060408051808201909152601c81527f436c61696d20706572696f6420686173206e6f74207374617274656400000000602082015260009150816114bf565b600061130e85611789565b111561135357600061131f856119ee565b905080600760008282546113339190611f00565b92505081905550806008600082825461134c9190611f69565b9091555050505b6001600160a01b0384166000908152600b60205260408120600381015460028201549192916113829190611f00565b9050806000036113c6576040805180820190915260148152734e6f20746f6b656e7320746f2072656c6561736560601b602082015260009550935091506114bf9050565b808260030160008282546113da9190611f69565b90915550507f00000000000000000000000000000000000000000000000000000000000000006001600160a01b031663a9059cbb336040516001600160e01b031960e084901b1681526001600160a01b039091166004820152602481018490526044016020604051808303816000875af115801561145c573d6000803e3d6000fd5b505050506040513d601f19601f820116820180604052508101906114809190611f4c565b5060408051808201909152601f81527f546f6b656e73207472616e73666572726564207375636365737366756c6c790060208201526001955093509150505b9193909250565b6114ce61185b565b60405163a9059cbb60e01b8152336004820152602481018290527f00000000000000000000000000000000000000000000000000000000000000006001600160a01b03169063a9059cbb906044016020604051808303816000875af115801561153b573d6000803e3d6000fd5b505050506040513d601f19601f8201168201806040525081019061155f9190611f4c565b5050565b6001600160a01b0381166000908152600c60209081526040808320805482518185028101850190935280835260609492939192909184015b828210156115e15783829060005260206000209060020201604051806040016040529081600082015481526020016001820154815250508152602001906001019061159b565b505050509050919050565b6000600d54421061088257336000908152600b6020908152604091829020825160a08101845281548152600182015492810192909252600281015492820192909252600382015460608201526004909101546080820152600f54158015906116575750612710600e54105b15610879576000610809600161190a565b61167061185b565b6000831180156116805750600082115b801561168c5750600081115b801561169a57506127108111155b6117025760405162461bcd60e51b815260206004820152603360248201527f4d50524f5265776172645374616b653a20496e76616c696420636c61696d207260448201527232bbb0b9321031b7b73334b3bab930ba34b7b760691b60648201526084016106b9565b600d92909255600f55600e55565b61171861185b565b6001600160a01b03811661177d5760405162461bcd60e51b815260206004820152602660248201527f4f776e61626c653a206e6577206f776e657220697320746865207a65726f206160448201526564647265737360d01b60648201526084016106b9565b61178681611a72565b50565b6001600160a01b0381166000908152600b60209081526040808320815160a081018352815481526001820154938101849052600282015492810192909252600381015460608301526004015460808201529082036117ea5750600092915050565b60408101516020820151600090611800906105cd565b9050670de0b6b3a76400006118158284611f13565b61181f9190611f2a565b95945050505050565b61183061185b565b6001600160a01b03919091166000908152601160205260409020805460ff1916911515919091179055565b6000546001600160a01b0316331461063c5760405162461bcd60e51b815260206004820181905260248201527f4f776e61626c653a2063616c6c6572206973206e6f7420746865206f776e657260448201526064016106b9565b6118bd611b1c565b6000805460ff60a01b191690557f5db9ee0a495bf2e6ff9c91a7834c1ba4fdd244a5e8aa4e537bd38aeae4b073aa335b6040516001600160a01b03909116815260200160405180910390a1565b6000600d544210611967576000611946611925846001611b6c565b611940600f5461082a600d544261199590919063ffffffff16565b90611b6c565b9050600061195f82600e5461197490919063ffffffff16565b949350505050565b506000919050565b919050565b60006119808284611f13565b90505b92915050565b60006119808284611f2a565b60006119808284611f00565b600054600160a01b900460ff161561063c5760405162461bcd60e51b815260206004820152601060248201526f14185d5cd8589b194e881c185d5cd95960821b60448201526064016106b9565b6000600254421015611a0257506000919050565b6001600160a01b0382166000908152600b6020526040812090611a2484611789565b905080826004016000828254611a3a9190611f69565b9250508190555080826002016000828254611a559190611f69565b90915550611a639050610d7d565b60019092019190915592915050565b600080546001600160a01b038381166001600160a01b0319831681178455604051919092169283917f8be0079c531659141344cd1fd0a4f28419497f9722a3daafe3b4186f6b6457e09190a35050565b600081831115611ad25781611980565b5090919050565b611ae16119a1565b6000805460ff60a01b1916600160a01b1790557f62e78cea01bee320cd4e420270b5ea74000d11b0c9f74754ebdbfc544b05a2586118ed3390565b600054600160a01b900460ff1661063c5760405162461bcd60e51b815260206004820152601460248201527314185d5cd8589b194e881b9bdd081c185d5cd95960621b60448201526064016106b9565b60006119808284611f69565b80356001600160a01b038116811461196f57600080fd5b600060208284031215611ba157600080fd5b61198082611b78565b600060208284031215611bbc57600080fd5b5035919050565b801515811461178657600080fd5b60008060408385031215611be457600080fd5b611bed83611b78565b91506020830135611bfd81611bc3565b809150509250929050565b60008060008060008060c08789031215611c2157600080fd5b505084359660208601359650604086013595606081013595506080810135945060a0013592509050565b60008060408385031215611c5e57600080fd5b611c6783611b78565b946020939093013593505050565b634e487b7160e01b600052604160045260246000fd5b604051601f8201601f1916810167ffffffffffffffff81118282101715611cb457611cb4611c75565b604052919050565b600067ffffffffffffffff821115611cd657611cd6611c75565b5060051b60200190565b600082601f830112611cf157600080fd5b81356020611d06611d0183611cbc565b611c8b565b8083825260208201915060208460051b870101935086841115611d2857600080fd5b602086015b84811015611d445780358352918301918301611d2d565b509695505050505050565b60008060408385031215611d6257600080fd5b823567ffffffffffffffff80821115611d7a57600080fd5b818501915085601f830112611d8e57600080fd5b81356020611d9e611d0183611cbc565b82815260059290921b84018101918181019089841115611dbd57600080fd5b948201945b83861015611de257611dd386611b78565b82529482019490820190611dc2565b96505086013592505080821115611df857600080fd5b50611e0585828601611ce0565b9150509250929050565b83151581526000602060606020840152845180606085015260005b81811015611e4657868101830151858201608001528201611e2a565b506000608082860101526080601f19601f83011685010192505050826040830152949350505050565b602080825282518282018190526000919060409081850190868401855b82811015611eb157815180518552860151868501529284019290850190600101611e8c565b5091979650505050505050565b600080600060608486031215611ed357600080fd5b505081359360208301359350604090920135919050565b634e487b7160e01b600052601160045260246000fd5b8181038181111561198357611983611eea565b808202811582820484141761198357611983611eea565b600082611f4757634e487b7160e01b600052601260045260246000fd5b500490565b600060208284031215611f5e57600080fd5b815161062581611bc3565b8082018082111561198357611983611eea565b634e487b7160e01b600052603260045260246000fdfea2646970667358221220bb15739d45a1869d9115c2bf7458bb4f96d055c50d1217897fa3882375dec9d264736f6c63430008160033",
  "devdoc": {
    "events": {
      "Paused(address)": {
        "details": "Emitted when the pause is triggered by `account`."
      },
      "Unpaused(address)": {
        "details": "Emitted when the pause is lifted by `account`."
      }
    },
    "kind": "dev",
    "methods": {
      "claim()": {
        "details": "Claims tokens for the sender. This function allows the sender to claim tokens. It verifies that the contract is not paused and there are tokens available for claim. It updates the staker's balance to claim if there are pending rewards. It then ensures that the remaining balance to claim is sufficient for the tokens to be claimed. If the conditions are met, the tokens are transferred to the sender."
      },
      "enableForRelease()": {
        "details": "Computes the amount of tokens available for release. This function calculates and returns the amount of tokens available for release for the sender. It checks if the current timestamp is greater than or equal to the claim reward start timestamp. If claim configuration is set to retrieve data about cycles, it calculates the current cycle, the percent to claim, and the claimable tokens based on the staker's balance to claim and claimed balance. If claim configuration is not set, it allows claiming all tokens. If the conditions are not met, it returns zero.",
        "returns": {
          "_0": "uint256 The amount of tokens available for release."
        }
      },
      "getEarnedAmount(address)": {
        "details": "Retrieves the earned reward amount for a specific staker. This function returns the earned reward amount for a specific staker based on their account address.",
        "params": {
          "_account": "The address of the staker."
        },
        "returns": {
          "_0": "uint256 The earned reward amount."
        }
      },
      "getStakedAmount(address)": {
        "details": "Retrieves the staked amount for a specific staker. This function returns the staked amount for a specific staker based on their account address.",
        "params": {
          "_account": "The address of the staker."
        },
        "returns": {
          "_0": "uint256 The staked amount."
        }
      },
      "lastTimeRewardApplicable()": {
        "details": "Returns the last applicable time for rewards calculation. This function computes the last applicable time for rewards calculation, which is the minimum value between the end of the stake period and the current block timestamp. It ensures that rewards are calculated only up to the end of the stake period or the current block timestamp, whichever comes first.",
        "returns": {
          "_0": "uint256 The last applicable time for rewards calculation."
        }
      },
      "moveToStake(address)": {
        "details": "Moves tokens to another stake contract. This function allows the sender to move tokens to another stake contract. It verifies that the contract is not paused, and the claim reward period has started. It calculates the amount of tokens available for release using the `enableForRelease` function and ensures that it is greater than zero. The tokens available for release are then added to the staker's claimed balance, and the stake contract specified by `_stakeAddress` is called to transfer the tokens.",
        "params": {
          "_stakerAddress": "The address of the staker."
        }
      },
      "owner()": {
        "details": "Returns the address of the current owner."
      },
      "paused()": {
        "details": "Returns true if the contract is paused, and false otherwise."
      },
      "pendingReward(address)": {
        "details": "Retrieves the pending reward for a specific staker. This function calculates and returns the pending reward for a specific staker based on their balance to claim, the reward per token from the last updated timestamp, and the current balance. If the staker's last updated timestamp is zero, indicating no previous updates, the function returns zero. Otherwise, it computes the pending reward per token and returns the result.",
        "params": {
          "_account": "The address of the staker."
        },
        "returns": {
          "_0": "uint256 The pending reward amount."
        }
      },
      "removeDust(uint256)": {
        "details": "Removes dust tokens from the contract. This function allows the contract owner to transfer all remaining tokens (dust) from the contract to the owner's address.",
        "params": {
          "_amount": "The amount to remove from the contract."
        }
      },
      "renounceOwnership()": {
        "details": "Leaves the contract without owner. It will not be possible to call `onlyOwner` functions. Can only be called by the current owner. NOTE: Renouncing ownership will leave the contract without an owner, thereby disabling any functionality that is only available to the owner."
      },
      "rewardPerTokenFromTimestamp(uint256)": {
        "details": "Computes the reward per token from a specific updated timestamp. This function calculates and returns the reward per token based on the provided updated timestamp. If the total staked supply is zero, indicating no stakers, it returns the entire reward token quantity. Otherwise, it computes the staking period as the difference between the last applicable time for rewards calculation and the provided updated timestamp. It then calculates and returns the reward per token using the reward rate, staking period, and total staked supply.",
        "params": {
          "_updatedTimestamp": "The timestamp when the staker's information was last updated."
        },
        "returns": {
          "_0": "uint256 The reward per token."
        }
      },
      "setClaimRewardConfig(uint256,uint256,uint256)": {
        "details": "Sets the claim reward configuration parameters. This function allows the contract owner to set the claim reward configuration parameters including the start timestamp for claiming rewards, the duration of each claim period, and the percent of rewards to unlock per period.",
        "params": {
          "_claimPeriodDuration": "The duration of each claim period is seconds.",
          "_claimRewardStartTimestamp": "The start timestamp for claiming rewards.",
          "_rewardUnlockPercentPerPeriod": "The percent of rewards to unlock per period. 10000 = 100%, 9000 = 90%, etc."
        }
      },
      "setStakeConfig(uint256,uint256,uint256,uint256,uint256,uint256)": {
        "details": "Sets the stake configuration parameters. This function allows the contract owner to set the stake configuration parameters including the start and end timestamps for staking and declaration periods.",
        "params": {
          "_declarationEndTimestamp": "The end timestamp for the declaration period.",
          "_declarationStartTimestamp": "The start timestamp for the declaration period.",
          "_stakeEndTimestamp": "The end timestamp for the stake period.",
          "_stakeStartTimestamp": "The start timestamp for the stake period."
        }
      },
      "stakeDuration()": {
        "details": "Returns the duration of the stake period. This function computes and returns the duration of the stake period by subtracting the start timestamp from the end timestamp.",
        "returns": {
          "_0": "uint256 The duration of the stake period."
        }
      },
      "transferOwnership(address)": {
        "details": "Transfers ownership of the contract to a new account (`newOwner`). Can only be called by the current owner."
      },
      "updateReward(uint256)": {
        "details": "Updates the reward tokens within the contract. This function is used by the contract owner to update the reward tokens within the contract. It verifies the validity of the stake period, transfers the specified amount of reward tokens to the contract address, increases the reward token quantity by the transferred amount, and updates the reward rate based on the new reward token quantity and stake duration.",
        "params": {
          "_amount": "The amount of reward tokens to be added."
        }
      },
      "updateStakers(address[],uint256[])": {
        "details": "Updates stakers' information and rewards within the contract. This function is used by the contract owner to update stakers' information and distribute rewards accordingly. It verifies the validity of inputs, ensures that the stake period is valid, and calculates the amount to update including pending rewards. It iterates through the provided stakers and their corresponding amounts, updating their staked amounts, total amounts to transfer, rewards to be paid out, and balances to claim. If a new staker is encountered within the declaration period, their length is increased. Rewards are compounded based on the time since the last update. After updating the stakers' information, the required tokens are transferred to the contract address, and the total staked supply and rewards are adjusted accordingly.",
        "params": {
          "_amounts": "An array of corresponding staked amounts for each staker.",
          "_stakers": "An array of stakers' addresses."
        }
      }
    },
    "version": 1
  },
  "userdoc": {
    "kind": "user",
    "methods": {},
    "version": 1
  },
  "storageLayout": {
    "storage": [
      {
        "astId": 7,
        "contract": "contracts/MPRORewardStake.sol:MPRORewardStake",
        "label": "_owner",
        "offset": 0,
        "slot": "0",
        "type": "t_address"
      },
      {
        "astId": 130,
        "contract": "contracts/MPRORewardStake.sol:MPRORewardStake",
        "label": "_paused",
        "offset": 20,
        "slot": "0",
        "type": "t_bool"
      },
      {
        "astId": 1274,
        "contract": "contracts/MPRORewardStake.sol:MPRORewardStake",
        "label": "rewardTokenAddress",
        "offset": 0,
        "slot": "1",
        "type": "t_address"
      },
      {
        "astId": 1276,
        "contract": "contracts/MPRORewardStake.sol:MPRORewardStake",
        "label": "stakeStartTimestamp",
        "offset": 0,
        "slot": "2",
        "type": "t_uint256"
      },
      {
        "astId": 1278,
        "contract": "contracts/MPRORewardStake.sol:MPRORewardStake",
        "label": "stakeEndTimestamp",
        "offset": 0,
        "slot": "3",
        "type": "t_uint256"
      },
      {
        "astId": 1280,
        "contract": "contracts/MPRORewardStake.sol:MPRORewardStake",
        "label": "updateStakersStartTimestamp",
        "offset": 0,
        "slot": "4",
        "type": "t_uint256"
      },
      {
        "astId": 1282,
        "contract": "contracts/MPRORewardStake.sol:MPRORewardStake",
        "label": "updateStakersEndTimestamp",
        "offset": 0,
        "slot": "5",
        "type": "t_uint256"
      },
      {
        "astId": 1284,
        "contract": "contracts/MPRORewardStake.sol:MPRORewardStake",
        "label": "rewardRate",
        "offset": 0,
        "slot": "6",
        "type": "t_uint256"
      },
      {
        "astId": 1286,
        "contract": "contracts/MPRORewardStake.sol:MPRORewardStake",
        "label": "rewardTokenQuantity",
        "offset": 0,
        "slot": "7",
        "type": "t_uint256"
      },
      {
        "astId": 1288,
        "contract": "contracts/MPRORewardStake.sol:MPRORewardStake",
        "label": "totalStakedSupply",
        "offset": 0,
        "slot": "8",
        "type": "t_uint256"
      },
      {
        "astId": 1290,
        "contract": "contracts/MPRORewardStake.sol:MPRORewardStake",
        "label": "declarationStartTimestamp",
        "offset": 0,
        "slot": "9",
        "type": "t_uint256"
      },
      {
        "astId": 1292,
        "contract": "contracts/MPRORewardStake.sol:MPRORewardStake",
        "label": "declarationEndTimestamp",
        "offset": 0,
        "slot": "10",
        "type": "t_uint256"
      },
      {
        "astId": 1308,
        "contract": "contracts/MPRORewardStake.sol:MPRORewardStake",
        "label": "staker",
        "offset": 0,
        "slot": "11",
        "type": "t_mapping(t_address,t_struct(Staker)1303_storage)"
      },
      {
        "astId": 1319,
        "contract": "contracts/MPRORewardStake.sol:MPRORewardStake",
        "label": "walletStakeUpdates",
        "offset": 0,
        "slot": "12",
        "type": "t_mapping(t_address,t_array(t_struct(StakeUpdate)1313_storage)dyn_storage)"
      },
      {
        "astId": 1321,
        "contract": "contracts/MPRORewardStake.sol:MPRORewardStake",
        "label": "claimRewardStartTimestamp",
        "offset": 0,
        "slot": "13",
        "type": "t_uint256"
      },
      {
        "astId": 1324,
        "contract": "contracts/MPRORewardStake.sol:MPRORewardStake",
        "label": "rewardUnlockPercentPerPeriod",
        "offset": 0,
        "slot": "14",
        "type": "t_uint256"
      },
      {
        "astId": 1326,
        "contract": "contracts/MPRORewardStake.sol:MPRORewardStake",
        "label": "claimPeriodDuration",
        "offset": 0,
        "slot": "15",
        "type": "t_uint256"
      },
      {
        "astId": 1330,
        "contract": "contracts/MPRORewardStake.sol:MPRORewardStake",
        "label": "isStakeWhitelisted",
        "offset": 0,
        "slot": "16",
        "type": "t_mapping(t_address,t_bool)"
      },
      {
        "astId": 1334,
        "contract": "contracts/MPRORewardStake.sol:MPRORewardStake",
        "label": "isUpdaterWhitelisted",
        "offset": 0,
        "slot": "17",
        "type": "t_mapping(t_address,t_bool)"
      }
    ],
    "types": {
      "t_address": {
        "encoding": "inplace",
        "label": "address",
        "numberOfBytes": "20"
      },
      "t_array(t_struct(StakeUpdate)1313_storage)dyn_storage": {
        "base": "t_struct(StakeUpdate)1313_storage",
        "encoding": "dynamic_array",
        "label": "struct MPRORewardStake.StakeUpdate[]",
        "numberOfBytes": "32"
      },
      "t_bool": {
        "encoding": "inplace",
        "label": "bool",
        "numberOfBytes": "1"
      },
      "t_mapping(t_address,t_array(t_struct(StakeUpdate)1313_storage)dyn_storage)": {
        "encoding": "mapping",
        "key": "t_address",
        "label": "mapping(address => struct MPRORewardStake.StakeUpdate[])",
        "numberOfBytes": "32",
        "value": "t_array(t_struct(StakeUpdate)1313_storage)dyn_storage"
      },
      "t_mapping(t_address,t_bool)": {
        "encoding": "mapping",
        "key": "t_address",
        "label": "mapping(address => bool)",
        "numberOfBytes": "32",
        "value": "t_bool"
      },
      "t_mapping(t_address,t_struct(Staker)1303_storage)": {
        "encoding": "mapping",
        "key": "t_address",
        "label": "mapping(address => struct MPRORewardStake.Staker)",
        "numberOfBytes": "32",
        "value": "t_struct(Staker)1303_storage"
      },
      "t_struct(StakeUpdate)1313_storage": {
        "encoding": "inplace",
        "label": "struct MPRORewardStake.StakeUpdate",
        "members": [
          {
            "astId": 1310,
            "contract": "contracts/MPRORewardStake.sol:MPRORewardStake",
            "label": "_blockTimestamp",
            "offset": 0,
            "slot": "0",
            "type": "t_uint256"
          },
          {
            "astId": 1312,
            "contract": "contracts/MPRORewardStake.sol:MPRORewardStake",
            "label": "_updatedAmount",
            "offset": 0,
            "slot": "1",
            "type": "t_uint256"
          }
        ],
        "numberOfBytes": "64"
      },
      "t_struct(Staker)1303_storage": {
        "encoding": "inplace",
        "label": "struct MPRORewardStake.Staker",
        "members": [
          {
            "astId": 1294,
            "contract": "contracts/MPRORewardStake.sol:MPRORewardStake",
            "label": "staked",
            "offset": 0,
            "slot": "0",
            "type": "t_uint256"
          },
          {
            "astId": 1296,
            "contract": "contracts/MPRORewardStake.sol:MPRORewardStake",
            "label": "lastUpdatedAt",
            "offset": 0,
            "slot": "1",
            "type": "t_uint256"
          },
          {
            "astId": 1298,
            "contract": "contracts/MPRORewardStake.sol:MPRORewardStake",
            "label": "balanceWithRewards",
            "offset": 0,
            "slot": "2",
            "type": "t_uint256"
          },
          {
            "astId": 1300,
            "contract": "contracts/MPRORewardStake.sol:MPRORewardStake",
            "label": "claimedBalance",
            "offset": 0,
            "slot": "3",
            "type": "t_uint256"
          },
          {
            "astId": 1302,
            "contract": "contracts/MPRORewardStake.sol:MPRORewardStake",
            "label": "reward",
            "offset": 0,
            "slot": "4",
            "type": "t_uint256"
          }
        ],
        "numberOfBytes": "160"
      },
      "t_uint256": {
        "encoding": "inplace",
        "label": "uint256",
        "numberOfBytes": "32"
      }
    }
  }
}