{
  "address": "0xd8D51FAC189bBFEA4bdf58A243b787A383f2B696",
  "abi": [
    {
      "inputs": [
        {
          "internalType": "string",
          "name": "_name",
          "type": "string"
        },
        {
          "internalType": "string",
          "name": "_symbol",
          "type": "string"
        },
        {
          "internalType": "address",
          "name": "_lzEndpoint",
          "type": "address"
        },
        {
          "internalType": "address",
          "name": "_owner",
          "type": "address"
        }
      ],
      "stateMutability": "nonpayable",
      "type": "constructor"
    },
    {
      "anonymous": false,
      "inputs": [
        {
          "indexed": true,
          "internalType": "address",
          "name": "owner",
          "type": "address"
        },
        {
          "indexed": true,
          "internalType": "address",
          "name": "spender",
          "type": "address"
        },
        {
          "indexed": false,
          "internalType": "uint256",
          "name": "value",
          "type": "uint256"
        }
      ],
      "name": "Approval",
      "type": "event"
    },
    {
      "anonymous": false,
      "inputs": [
        {
          "indexed": true,
          "internalType": "uint16",
          "name": "_srcChainId",
          "type": "uint16"
        },
        {
          "indexed": false,
          "internalType": "bytes",
          "name": "_srcAddress",
          "type": "bytes"
        },
        {
          "indexed": false,
          "internalType": "uint64",
          "name": "_nonce",
          "type": "uint64"
        },
        {
          "indexed": false,
          "internalType": "bytes32",
          "name": "_hash",
          "type": "bytes32"
        }
      ],
      "name": "CallOFTReceivedSuccess",
      "type": "event"
    },
    {
      "anonymous": false,
      "inputs": [
        {
          "indexed": false,
          "internalType": "uint16",
          "name": "_srcChainId",
          "type": "uint16"
        },
        {
          "indexed": false,
          "internalType": "bytes",
          "name": "_srcAddress",
          "type": "bytes"
        },
        {
          "indexed": false,
          "internalType": "uint64",
          "name": "_nonce",
          "type": "uint64"
        },
        {
          "indexed": false,
          "internalType": "bytes",
          "name": "_payload",
          "type": "bytes"
        },
        {
          "indexed": false,
          "internalType": "bytes",
          "name": "_reason",
          "type": "bytes"
        }
      ],
      "name": "MessageFailed",
      "type": "event"
    },
    {
      "anonymous": false,
      "inputs": [
        {
          "indexed": false,
          "internalType": "address",
          "name": "_address",
          "type": "address"
        }
      ],
      "name": "NonContractAddress",
      "type": "event"
    },
    {
      "anonymous": false,
      "inputs": [
        {
          "indexed": true,
          "internalType": "address",
          "name": "previousOwner",
          "type": "address"
        },
        {
          "indexed": true,
          "internalType": "address",
          "name": "newOwner",
          "type": "address"
        }
      ],
      "name": "OwnershipTransferred",
      "type": "event"
    },
    {
      "anonymous": false,
      "inputs": [
        {
          "indexed": true,
          "internalType": "uint16",
          "name": "_srcChainId",
          "type": "uint16"
        },
        {
          "indexed": true,
          "internalType": "address",
          "name": "_to",
          "type": "address"
        },
        {
          "indexed": false,
          "internalType": "uint256",
          "name": "_amount",
          "type": "uint256"
        }
      ],
      "name": "ReceiveFromChain",
      "type": "event"
    },
    {
      "anonymous": false,
      "inputs": [
        {
          "indexed": false,
          "internalType": "uint16",
          "name": "_srcChainId",
          "type": "uint16"
        },
        {
          "indexed": false,
          "internalType": "bytes",
          "name": "_srcAddress",
          "type": "bytes"
        },
        {
          "indexed": false,
          "internalType": "uint64",
          "name": "_nonce",
          "type": "uint64"
        },
        {
          "indexed": false,
          "internalType": "bytes32",
          "name": "_payloadHash",
          "type": "bytes32"
        }
      ],
      "name": "RetryMessageSuccess",
      "type": "event"
    },
    {
      "anonymous": false,
      "inputs": [
        {
          "indexed": true,
          "internalType": "uint16",
          "name": "_dstChainId",
          "type": "uint16"
        },
        {
          "indexed": true,
          "internalType": "address",
          "name": "_from",
          "type": "address"
        },
        {
          "indexed": true,
          "internalType": "bytes32",
          "name": "_toAddress",
          "type": "bytes32"
        },
        {
          "indexed": false,
          "internalType": "uint256",
          "name": "_amount",
          "type": "uint256"
        }
      ],
      "name": "SendToChain",
      "type": "event"
    },
    {
      "anonymous": false,
      "inputs": [
        {
          "indexed": false,
          "internalType": "uint16",
          "name": "_dstChainId",
          "type": "uint16"
        },
        {
          "indexed": false,
          "internalType": "uint16",
          "name": "_type",
          "type": "uint16"
        },
        {
          "indexed": false,
          "internalType": "uint256",
          "name": "_minDstGas",
          "type": "uint256"
        }
      ],
      "name": "SetMinDstGas",
      "type": "event"
    },
    {
      "anonymous": false,
      "inputs": [
        {
          "indexed": false,
          "internalType": "address",
          "name": "precrime",
          "type": "address"
        }
      ],
      "name": "SetPrecrime",
      "type": "event"
    },
    {
      "anonymous": false,
      "inputs": [
        {
          "indexed": false,
          "internalType": "uint16",
          "name": "_remoteChainId",
          "type": "uint16"
        },
        {
          "indexed": false,
          "internalType": "bytes",
          "name": "_path",
          "type": "bytes"
        }
      ],
      "name": "SetTrustedRemote",
      "type": "event"
    },
    {
      "anonymous": false,
      "inputs": [
        {
          "indexed": false,
          "internalType": "uint16",
          "name": "_remoteChainId",
          "type": "uint16"
        },
        {
          "indexed": false,
          "internalType": "bytes",
          "name": "_remoteAddress",
          "type": "bytes"
        }
      ],
      "name": "SetTrustedRemoteAddress",
      "type": "event"
    },
    {
      "anonymous": false,
      "inputs": [
        {
          "indexed": true,
          "internalType": "address",
          "name": "from",
          "type": "address"
        },
        {
          "indexed": true,
          "internalType": "address",
          "name": "to",
          "type": "address"
        },
        {
          "indexed": false,
          "internalType": "uint256",
          "name": "value",
          "type": "uint256"
        }
      ],
      "name": "Transfer",
      "type": "event"
    },
    {
      "inputs": [],
      "name": "DEFAULT_PAYLOAD_SIZE_LIMIT",
      "outputs": [
        {
          "internalType": "uint256",
          "name": "",
          "type": "uint256"
        }
      ],
      "stateMutability": "view",
      "type": "function"
    },
    {
      "inputs": [],
      "name": "NO_EXTRA_GAS",
      "outputs": [
        {
          "internalType": "uint256",
          "name": "",
          "type": "uint256"
        }
      ],
      "stateMutability": "view",
      "type": "function"
    },
    {
      "inputs": [],
      "name": "PT_SEND",
      "outputs": [
        {
          "internalType": "uint8",
          "name": "",
          "type": "uint8"
        }
      ],
      "stateMutability": "view",
      "type": "function"
    },
    {
      "inputs": [],
      "name": "PT_SEND_AND_CALL",
      "outputs": [
        {
          "internalType": "uint8",
          "name": "",
          "type": "uint8"
        }
      ],
      "stateMutability": "view",
      "type": "function"
    },
    {
      "inputs": [
        {
          "internalType": "address",
          "name": "owner",
          "type": "address"
        },
        {
          "internalType": "address",
          "name": "spender",
          "type": "address"
        }
      ],
      "name": "allowance",
      "outputs": [
        {
          "internalType": "uint256",
          "name": "",
          "type": "uint256"
        }
      ],
      "stateMutability": "view",
      "type": "function"
    },
    {
      "inputs": [
        {
          "internalType": "address",
          "name": "spender",
          "type": "address"
        },
        {
          "internalType": "uint256",
          "name": "amount",
          "type": "uint256"
        }
      ],
      "name": "approve",
      "outputs": [
        {
          "internalType": "bool",
          "name": "",
          "type": "bool"
        }
      ],
      "stateMutability": "nonpayable",
      "type": "function"
    },
    {
      "inputs": [
        {
          "internalType": "address",
          "name": "account",
          "type": "address"
        }
      ],
      "name": "balanceOf",
      "outputs": [
        {
          "internalType": "uint256",
          "name": "",
          "type": "uint256"
        }
      ],
      "stateMutability": "view",
      "type": "function"
    },
    {
      "inputs": [
        {
          "internalType": "uint16",
          "name": "_srcChainId",
          "type": "uint16"
        },
        {
          "internalType": "bytes",
          "name": "_srcAddress",
          "type": "bytes"
        },
        {
          "internalType": "uint64",
          "name": "_nonce",
          "type": "uint64"
        },
        {
          "internalType": "bytes32",
          "name": "_from",
          "type": "bytes32"
        },
        {
          "internalType": "address",
          "name": "_to",
          "type": "address"
        },
        {
          "internalType": "uint256",
          "name": "_amount",
          "type": "uint256"
        },
        {
          "internalType": "bytes",
          "name": "_payload",
          "type": "bytes"
        },
        {
          "internalType": "uint256",
          "name": "_gasForCall",
          "type": "uint256"
        }
      ],
      "name": "callOnOFTReceived",
      "outputs": [],
      "stateMutability": "nonpayable",
      "type": "function"
    },
    {
      "inputs": [],
      "name": "circulatingSupply",
      "outputs": [
        {
          "internalType": "uint256",
          "name": "",
          "type": "uint256"
        }
      ],
      "stateMutability": "view",
      "type": "function"
    },
    {
      "inputs": [
        {
          "internalType": "uint16",
          "name": "",
          "type": "uint16"
        },
        {
          "internalType": "bytes",
          "name": "",
          "type": "bytes"
        },
        {
          "internalType": "uint64",
          "name": "",
          "type": "uint64"
        }
      ],
      "name": "creditedPackets",
      "outputs": [
        {
          "internalType": "bool",
          "name": "",
          "type": "bool"
        }
      ],
      "stateMutability": "view",
      "type": "function"
    },
    {
      "inputs": [],
      "name": "decimals",
      "outputs": [
        {
          "internalType": "uint8",
          "name": "",
          "type": "uint8"
        }
      ],
      "stateMutability": "view",
      "type": "function"
    },
    {
      "inputs": [
        {
          "internalType": "address",
          "name": "spender",
          "type": "address"
        },
        {
          "internalType": "uint256",
          "name": "subtractedValue",
          "type": "uint256"
        }
      ],
      "name": "decreaseAllowance",
      "outputs": [
        {
          "internalType": "bool",
          "name": "",
          "type": "bool"
        }
      ],
      "stateMutability": "nonpayable",
      "type": "function"
    },
    {
      "inputs": [
        {
          "internalType": "uint16",
          "name": "_dstChainId",
          "type": "uint16"
        },
        {
          "internalType": "bytes32",
          "name": "_toAddress",
          "type": "bytes32"
        },
        {
          "internalType": "uint256",
          "name": "_amount",
          "type": "uint256"
        },
        {
          "internalType": "bytes",
          "name": "_payload",
          "type": "bytes"
        },
        {
          "internalType": "uint64",
          "name": "_dstGasForCall",
          "type": "uint64"
        },
        {
          "internalType": "bool",
          "name": "_useZro",
          "type": "bool"
        },
        {
          "internalType": "bytes",
          "name": "_adapterParams",
          "type": "bytes"
        }
      ],
      "name": "estimateSendAndCallFee",
      "outputs": [
        {
          "internalType": "uint256",
          "name": "nativeFee",
          "type": "uint256"
        },
        {
          "internalType": "uint256",
          "name": "zroFee",
          "type": "uint256"
        }
      ],
      "stateMutability": "view",
      "type": "function"
    },
    {
      "inputs": [
        {
          "internalType": "uint16",
          "name": "_dstChainId",
          "type": "uint16"
        },
        {
          "internalType": "bytes32",
          "name": "_toAddress",
          "type": "bytes32"
        },
        {
          "internalType": "uint256",
          "name": "_amount",
          "type": "uint256"
        },
        {
          "internalType": "bool",
          "name": "_useZro",
          "type": "bool"
        },
        {
          "internalType": "bytes",
          "name": "_adapterParams",
          "type": "bytes"
        }
      ],
      "name": "estimateSendFee",
      "outputs": [
        {
          "internalType": "uint256",
          "name": "nativeFee",
          "type": "uint256"
        },
        {
          "internalType": "uint256",
          "name": "zroFee",
          "type": "uint256"
        }
      ],
      "stateMutability": "view",
      "type": "function"
    },
    {
      "inputs": [
        {
          "internalType": "uint16",
          "name": "",
          "type": "uint16"
        },
        {
          "internalType": "bytes",
          "name": "",
          "type": "bytes"
        },
        {
          "internalType": "uint64",
          "name": "",
          "type": "uint64"
        }
      ],
      "name": "failedMessages",
      "outputs": [
        {
          "internalType": "bytes32",
          "name": "",
          "type": "bytes32"
        }
      ],
      "stateMutability": "view",
      "type": "function"
    },
    {
      "inputs": [
        {
          "internalType": "uint16",
          "name": "_srcChainId",
          "type": "uint16"
        },
        {
          "internalType": "bytes",
          "name": "_srcAddress",
          "type": "bytes"
        }
      ],
      "name": "forceResumeReceive",
      "outputs": [],
      "stateMutability": "nonpayable",
      "type": "function"
    },
    {
      "inputs": [
        {
          "internalType": "uint16",
          "name": "_version",
          "type": "uint16"
        },
        {
          "internalType": "uint16",
          "name": "_chainId",
          "type": "uint16"
        },
        {
          "internalType": "address",
          "name": "",
          "type": "address"
        },
        {
          "internalType": "uint256",
          "name": "_configType",
          "type": "uint256"
        }
      ],
      "name": "getConfig",
      "outputs": [
        {
          "internalType": "bytes",
          "name": "",
          "type": "bytes"
        }
      ],
      "stateMutability": "view",
      "type": "function"
    },
    {
      "inputs": [
        {
          "internalType": "uint16",
          "name": "_remoteChainId",
          "type": "uint16"
        }
      ],
      "name": "getTrustedRemoteAddress",
      "outputs": [
        {
          "internalType": "bytes",
          "name": "",
          "type": "bytes"
        }
      ],
      "stateMutability": "view",
      "type": "function"
    },
    {
      "inputs": [
        {
          "internalType": "address",
          "name": "spender",
          "type": "address"
        },
        {
          "internalType": "uint256",
          "name": "addedValue",
          "type": "uint256"
        }
      ],
      "name": "increaseAllowance",
      "outputs": [
        {
          "internalType": "bool",
          "name": "",
          "type": "bool"
        }
      ],
      "stateMutability": "nonpayable",
      "type": "function"
    },
    {
      "inputs": [
        {
          "internalType": "uint16",
          "name": "_srcChainId",
          "type": "uint16"
        },
        {
          "internalType": "bytes",
          "name": "_srcAddress",
          "type": "bytes"
        }
      ],
      "name": "isTrustedRemote",
      "outputs": [
        {
          "internalType": "bool",
          "name": "",
          "type": "bool"
        }
      ],
      "stateMutability": "view",
      "type": "function"
    },
    {
      "inputs": [],
      "name": "lzEndpoint",
      "outputs": [
        {
          "internalType": "contract ILayerZeroEndpoint",
          "name": "",
          "type": "address"
        }
      ],
      "stateMutability": "view",
      "type": "function"
    },
    {
      "inputs": [
        {
          "internalType": "uint16",
          "name": "_srcChainId",
          "type": "uint16"
        },
        {
          "internalType": "bytes",
          "name": "_srcAddress",
          "type": "bytes"
        },
        {
          "internalType": "uint64",
          "name": "_nonce",
          "type": "uint64"
        },
        {
          "internalType": "bytes",
          "name": "_payload",
          "type": "bytes"
        }
      ],
      "name": "lzReceive",
      "outputs": [],
      "stateMutability": "nonpayable",
      "type": "function"
    },
    {
      "inputs": [
        {
          "internalType": "uint16",
          "name": "",
          "type": "uint16"
        },
        {
          "internalType": "uint16",
          "name": "",
          "type": "uint16"
        }
      ],
      "name": "minDstGasLookup",
      "outputs": [
        {
          "internalType": "uint256",
          "name": "",
          "type": "uint256"
        }
      ],
      "stateMutability": "view",
      "type": "function"
    },
    {
      "inputs": [
        {
          "internalType": "address",
          "name": "account",
          "type": "address"
        },
        {
          "internalType": "uint256",
          "name": "amount",
          "type": "uint256"
        }
      ],
      "name": "mint",
      "outputs": [],
      "stateMutability": "nonpayable",
      "type": "function"
    },
    {
      "inputs": [],
      "name": "name",
      "outputs": [
        {
          "internalType": "string",
          "name": "",
          "type": "string"
        }
      ],
      "stateMutability": "view",
      "type": "function"
    },
    {
      "inputs": [
        {
          "internalType": "uint16",
          "name": "_srcChainId",
          "type": "uint16"
        },
        {
          "internalType": "bytes",
          "name": "_srcAddress",
          "type": "bytes"
        },
        {
          "internalType": "uint64",
          "name": "_nonce",
          "type": "uint64"
        },
        {
          "internalType": "bytes",
          "name": "_payload",
          "type": "bytes"
        }
      ],
      "name": "nonblockingLzReceive",
      "outputs": [],
      "stateMutability": "nonpayable",
      "type": "function"
    },
    {
      "inputs": [],
      "name": "owner",
      "outputs": [
        {
          "internalType": "address",
          "name": "",
          "type": "address"
        }
      ],
      "stateMutability": "view",
      "type": "function"
    },
    {
      "inputs": [
        {
          "internalType": "uint16",
          "name": "",
          "type": "uint16"
        }
      ],
      "name": "payloadSizeLimitLookup",
      "outputs": [
        {
          "internalType": "uint256",
          "name": "",
          "type": "uint256"
        }
      ],
      "stateMutability": "view",
      "type": "function"
    },
    {
      "inputs": [],
      "name": "precrime",
      "outputs": [
        {
          "internalType": "address",
          "name": "",
          "type": "address"
        }
      ],
      "stateMutability": "view",
      "type": "function"
    },
    {
      "inputs": [],
      "name": "renounceOwnership",
      "outputs": [],
      "stateMutability": "nonpayable",
      "type": "function"
    },
    {
      "inputs": [
        {
          "internalType": "uint16",
          "name": "_srcChainId",
          "type": "uint16"
        },
        {
          "internalType": "bytes",
          "name": "_srcAddress",
          "type": "bytes"
        },
        {
          "internalType": "uint64",
          "name": "_nonce",
          "type": "uint64"
        },
        {
          "internalType": "bytes",
          "name": "_payload",
          "type": "bytes"
        }
      ],
      "name": "retryMessage",
      "outputs": [],
      "stateMutability": "payable",
      "type": "function"
    },
    {
      "inputs": [
        {
          "internalType": "address",
          "name": "_from",
          "type": "address"
        },
        {
          "internalType": "uint16",
          "name": "_dstChainId",
          "type": "uint16"
        },
        {
          "internalType": "bytes32",
          "name": "_toAddress",
          "type": "bytes32"
        },
        {
          "internalType": "uint256",
          "name": "_amount",
          "type": "uint256"
        },
        {
          "internalType": "bytes",
          "name": "_payload",
          "type": "bytes"
        },
        {
          "internalType": "uint64",
          "name": "_dstGasForCall",
          "type": "uint64"
        },
        {
          "components": [
            {
              "internalType": "address payable",
              "name": "refundAddress",
              "type": "address"
            },
            {
              "internalType": "address",
              "name": "zroPaymentAddress",
              "type": "address"
            },
            {
              "internalType": "bytes",
              "name": "adapterParams",
              "type": "bytes"
            }
          ],
          "internalType": "struct ICommonOFT.LzCallParams",
          "name": "_callParams",
          "type": "tuple"
        }
      ],
      "name": "sendAndCall",
      "outputs": [],
      "stateMutability": "payable",
      "type": "function"
    },
    {
      "inputs": [
        {
          "internalType": "address",
          "name": "_from",
          "type": "address"
        },
        {
          "internalType": "uint16",
          "name": "_dstChainId",
          "type": "uint16"
        },
        {
          "internalType": "bytes32",
          "name": "_toAddress",
          "type": "bytes32"
        },
        {
          "internalType": "uint256",
          "name": "_amount",
          "type": "uint256"
        },
        {
          "components": [
            {
              "internalType": "address payable",
              "name": "refundAddress",
              "type": "address"
            },
            {
              "internalType": "address",
              "name": "zroPaymentAddress",
              "type": "address"
            },
            {
              "internalType": "bytes",
              "name": "adapterParams",
              "type": "bytes"
            }
          ],
          "internalType": "struct ICommonOFT.LzCallParams",
          "name": "_callParams",
          "type": "tuple"
        }
      ],
      "name": "sendFrom",
      "outputs": [],
      "stateMutability": "payable",
      "type": "function"
    },
    {
      "inputs": [
        {
          "internalType": "uint16",
          "name": "_version",
          "type": "uint16"
        },
        {
          "internalType": "uint16",
          "name": "_chainId",
          "type": "uint16"
        },
        {
          "internalType": "uint256",
          "name": "_configType",
          "type": "uint256"
        },
        {
          "internalType": "bytes",
          "name": "_config",
          "type": "bytes"
        }
      ],
      "name": "setConfig",
      "outputs": [],
      "stateMutability": "nonpayable",
      "type": "function"
    },
    {
      "inputs": [
        {
          "internalType": "uint16",
          "name": "_dstChainId",
          "type": "uint16"
        },
        {
          "internalType": "uint16",
          "name": "_packetType",
          "type": "uint16"
        },
        {
          "internalType": "uint256",
          "name": "_minGas",
          "type": "uint256"
        }
      ],
      "name": "setMinDstGas",
      "outputs": [],
      "stateMutability": "nonpayable",
      "type": "function"
    },
    {
      "inputs": [
        {
          "internalType": "uint16",
          "name": "_dstChainId",
          "type": "uint16"
        },
        {
          "internalType": "uint256",
          "name": "_size",
          "type": "uint256"
        }
      ],
      "name": "setPayloadSizeLimit",
      "outputs": [],
      "stateMutability": "nonpayable",
      "type": "function"
    },
    {
      "inputs": [
        {
          "internalType": "address",
          "name": "_precrime",
          "type": "address"
        }
      ],
      "name": "setPrecrime",
      "outputs": [],
      "stateMutability": "nonpayable",
      "type": "function"
    },
    {
      "inputs": [
        {
          "internalType": "uint16",
          "name": "_version",
          "type": "uint16"
        }
      ],
      "name": "setReceiveVersion",
      "outputs": [],
      "stateMutability": "nonpayable",
      "type": "function"
    },
    {
      "inputs": [
        {
          "internalType": "uint16",
          "name": "_version",
          "type": "uint16"
        }
      ],
      "name": "setSendVersion",
      "outputs": [],
      "stateMutability": "nonpayable",
      "type": "function"
    },
    {
      "inputs": [
        {
          "internalType": "uint16",
          "name": "_remoteChainId",
          "type": "uint16"
        },
        {
          "internalType": "bytes",
          "name": "_path",
          "type": "bytes"
        }
      ],
      "name": "setTrustedRemote",
      "outputs": [],
      "stateMutability": "nonpayable",
      "type": "function"
    },
    {
      "inputs": [
        {
          "internalType": "uint16",
          "name": "_remoteChainId",
          "type": "uint16"
        },
        {
          "internalType": "bytes",
          "name": "_remoteAddress",
          "type": "bytes"
        }
      ],
      "name": "setTrustedRemoteAddress",
      "outputs": [],
      "stateMutability": "nonpayable",
      "type": "function"
    },
    {
      "inputs": [],
      "name": "sharedDecimals",
      "outputs": [
        {
          "internalType": "uint8",
          "name": "",
          "type": "uint8"
        }
      ],
      "stateMutability": "view",
      "type": "function"
    },
    {
      "inputs": [
        {
          "internalType": "bytes4",
          "name": "interfaceId",
          "type": "bytes4"
        }
      ],
      "name": "supportsInterface",
      "outputs": [
        {
          "internalType": "bool",
          "name": "",
          "type": "bool"
        }
      ],
      "stateMutability": "view",
      "type": "function"
    },
    {
      "inputs": [],
      "name": "symbol",
      "outputs": [
        {
          "internalType": "string",
          "name": "",
          "type": "string"
        }
      ],
      "stateMutability": "view",
      "type": "function"
    },
    {
      "inputs": [],
      "name": "token",
      "outputs": [
        {
          "internalType": "address",
          "name": "",
          "type": "address"
        }
      ],
      "stateMutability": "view",
      "type": "function"
    },
    {
      "inputs": [],
      "name": "totalSupply",
      "outputs": [
        {
          "internalType": "uint256",
          "name": "",
          "type": "uint256"
        }
      ],
      "stateMutability": "view",
      "type": "function"
    },
    {
      "inputs": [
        {
          "internalType": "address",
          "name": "to",
          "type": "address"
        },
        {
          "internalType": "uint256",
          "name": "amount",
          "type": "uint256"
        }
      ],
      "name": "transfer",
      "outputs": [
        {
          "internalType": "bool",
          "name": "",
          "type": "bool"
        }
      ],
      "stateMutability": "nonpayable",
      "type": "function"
    },
    {
      "inputs": [
        {
          "internalType": "address",
          "name": "from",
          "type": "address"
        },
        {
          "internalType": "address",
          "name": "to",
          "type": "address"
        },
        {
          "internalType": "uint256",
          "name": "amount",
          "type": "uint256"
        }
      ],
      "name": "transferFrom",
      "outputs": [
        {
          "internalType": "bool",
          "name": "",
          "type": "bool"
        }
      ],
      "stateMutability": "nonpayable",
      "type": "function"
    },
    {
      "inputs": [
        {
          "internalType": "address",
          "name": "newOwner",
          "type": "address"
        }
      ],
      "name": "transferOwnership",
      "outputs": [],
      "stateMutability": "nonpayable",
      "type": "function"
    },
    {
      "inputs": [
        {
          "internalType": "uint16",
          "name": "",
          "type": "uint16"
        }
      ],
      "name": "trustedRemoteLookup",
      "outputs": [
        {
          "internalType": "bytes",
          "name": "",
          "type": "bytes"
        }
      ],
      "stateMutability": "view",
      "type": "function"
    }
  ],
  "transactionHash": "0x39314734b6176d92e80ebc1a250cf1c938c7eaf8d0c766c2423551faa67a7199",
  "args": [
    "OFTV1",
    "OFTV1",
    "0x55370E0fBB5f5b8dAeD978BA1c075a499eB107B8",
    "0xC856f7BcB20eE58F5788620b1261082829163dc4"
  ],
  "numDeployments": 1,
  "solcInputHash": "39d96f2649dc6891a35f0e2baba49a65",
  "bytecode": "0x60e06040523480156200001157600080fd5b50604051620049b4380380620049b4833981016040819052620000349162000356565b838360128483838383818180806200004c3362000152565b6001600160a01b0316608052505060ff1660a05250600a905062000071838262000475565b50600b62000080828262000475565b505050600062000095620001a260201b60201c565b90508060ff168360ff161115620001035760405162461bcd60e51b815260206004820152602760248201527f4f46543a20736861726564446563696d616c73206d757374206265203c3d20646044820152666563696d616c7360c81b60648201526084015b60405180910390fd5b6200010f838262000557565b6200011c90600a62000676565b60c0525062000132935084925050620001529050565b620001488169d3c21bcecceda1000000620001a7565b50505050620006a4565b600080546001600160a01b038381166001600160a01b0319831681178455604051919092169283917f8be0079c531659141344cd1fd0a4f28419497f9722a3daafe3b4186f6b6457e09190a35050565b601290565b6001600160a01b038216620001ff5760405162461bcd60e51b815260206004820152601f60248201527f45524332303a206d696e7420746f20746865207a65726f2061646472657373006044820152606401620000fa565b80600960008282546200021391906200068e565b90915550506001600160a01b0382166000818152600760209081526040808320805486019055518481527fddf252ad1be2c89b69c2b068fc378daa952ba7f163c4a11628f55a4df523b3ef910160405180910390a35050565b505050565b634e487b7160e01b600052604160045260246000fd5b600082601f8301126200029957600080fd5b81516001600160401b0380821115620002b657620002b662000271565b604051601f8301601f19908116603f01168101908282118183101715620002e157620002e162000271565b8160405283815260209250866020858801011115620002ff57600080fd5b600091505b8382101562000323578582018301518183018401529082019062000304565b6000602085830101528094505050505092915050565b80516001600160a01b03811681146200035157600080fd5b919050565b600080600080608085870312156200036d57600080fd5b84516001600160401b03808211156200038557600080fd5b620003938883890162000287565b95506020870151915080821115620003aa57600080fd5b50620003b98782880162000287565b935050620003ca6040860162000339565b9150620003da6060860162000339565b905092959194509250565b600181811c90821680620003fa57607f821691505b6020821081036200041b57634e487b7160e01b600052602260045260246000fd5b50919050565b601f8211156200026c576000816000526020600020601f850160051c810160208610156200044c5750805b601f850160051c820191505b818110156200046d5782815560010162000458565b505050505050565b81516001600160401b0381111562000491576200049162000271565b620004a981620004a28454620003e5565b8462000421565b602080601f831160018114620004e15760008415620004c85750858301515b600019600386901b1c1916600185901b1785556200046d565b600085815260208120601f198616915b828110156200051257888601518255948401946001909101908401620004f1565b5085821015620005315787850151600019600388901b60f8161c191681555b5050505050600190811b01905550565b634e487b7160e01b600052601160045260246000fd5b60ff828116828216039081111562000573576200057362000541565b92915050565b600181815b80851115620005ba5781600019048211156200059e576200059e62000541565b80851615620005ac57918102915b93841c93908002906200057e565b509250929050565b600082620005d35750600162000573565b81620005e25750600062000573565b8160018114620005fb5760028114620006065762000626565b600191505062000573565b60ff8411156200061a576200061a62000541565b50506001821b62000573565b5060208310610133831016604e8410600b84101617156200064b575081810a62000573565b62000657838362000579565b80600019048211156200066e576200066e62000541565b029392505050565b60006200068760ff841683620005c2565b9392505050565b8082018082111562000573576200057362000541565b60805160a05160c051614293620007216000396000818161279a01528181612bef0152612ecb0152600061064501526000818161081f0152818161099501528181610cad01528181610d6d01528181610fab0152818161160701528181611b4001528181612044015281816125860152612d8201526142936000f3fe6080604052600436106102c85760003560e01c8063857749b011610175578063b353aaa7116100dc578063df2a5b3b11610095578063eb8d72b71161006f578063eb8d72b71461091f578063f2fde38b1461093f578063f5ecbdbc1461095f578063fc0c546a1461097f57600080fd5b8063df2a5b3b146108ca578063e6a20ae6146108ea578063eaffd49a146108ff57600080fd5b8063b353aaa71461080d578063baf3292d14610841578063c446183414610861578063cbed8b9c14610877578063d1deba1f14610897578063dd62ed3e146108aa57600080fd5b80639bdb98121161012e5780639bdb98121461071b5780639f38369a1461076d578063a457c2d71461078d578063a4c51df5146107ad578063a6c3d165146107cd578063a9059cbb146107ed57600080fd5b8063857749b0146106335780638cfd8f5c146106675780638da5cb5b1461069f5780639358928b146106d1578063950c8a74146106e657806395d89b411461070657600080fd5b80633d8b38f6116102345780635b8c41e6116101ed57806370a08231116101c757806370a08231146105b5578063715018a6146105eb5780637533d7881461060057806376203b481461062057600080fd5b80635b8c41e61461053357806366ad5c8a14610582578063695ef6bf146105a257600080fd5b80633d8b38f61461047c5780633f1f4fa41461049c57806340c10f19146104c957806342d65a8d146104e957806344770515146105095780634c42899a1461051e57600080fd5b806310ddb1371161028657806310ddb137146103a657806318160ddd146103c657806323b872dd146103e5578063313ce56714610405578063365260b414610427578063395093511461045c57600080fd5b80621d3567146102cd57806301ffc9a7146102ef57806306fdde031461032457806307e0db1714610346578063095ea7b3146103665780630df3748314610386575b600080fd5b3480156102d957600080fd5b506102ed6102e836600461335a565b610992565b005b3480156102fb57600080fd5b5061030f61030a3660046133ed565b610bc3565b60405190151581526020015b60405180910390f35b34801561033057600080fd5b50610339610bfa565b60405161031b9190613467565b34801561035257600080fd5b506102ed61036136600461347a565b610c8c565b34801561037257600080fd5b5061030f6103813660046134aa565b610d15565b34801561039257600080fd5b506102ed6103a13660046134d6565b610d2d565b3480156103b257600080fd5b506102ed6103c136600461347a565b610d4c565b3480156103d257600080fd5b506009545b60405190815260200161031b565b3480156103f157600080fd5b5061030f6104003660046134f2565b610da4565b34801561041157600080fd5b5060125b60405160ff909116815260200161031b565b34801561043357600080fd5b50610447610442366004613543565b610dc8565b6040805192835260208301919091520161031b565b34801561046857600080fd5b5061030f6104773660046134aa565b610e1d565b34801561048857600080fd5b5061030f6104973660046135a8565b610e3f565b3480156104a857600080fd5b506103d76104b736600461347a565b60036020526000908152604090205481565b3480156104d557600080fd5b506102ed6104e43660046134aa565b610f0b565b3480156104f557600080fd5b506102ed6105043660046135a8565b610f8c565b34801561051557600080fd5b506103d7600081565b34801561052a57600080fd5b50610415600081565b34801561053f57600080fd5b506103d761054e366004613667565b6005602090815260009384526040808520845180860184018051928152908401958401959095209452929052825290205481565b34801561058e57600080fd5b506102ed61059d36600461335a565b611012565b6102ed6105b036600461371f565b6110ee565b3480156105c157600080fd5b506103d76105d0366004613792565b6001600160a01b031660009081526007602052604090205490565b3480156105f757600080fd5b506102ed611159565b34801561060c57600080fd5b5061033961061b36600461347a565b61116d565b6102ed61062e3660046137af565b611207565b34801561063f57600080fd5b506104157f000000000000000000000000000000000000000000000000000000000000000081565b34801561067357600080fd5b506103d7610682366004613861565b600260209081526000928352604080842090915290825290205481565b3480156106ab57600080fd5b506000546001600160a01b03165b6040516001600160a01b03909116815260200161031b565b3480156106dd57600080fd5b506103d76112b6565b3480156106f257600080fd5b506004546106b9906001600160a01b031681565b34801561071257600080fd5b506103396112c6565b34801561072757600080fd5b5061030f610736366004613667565b6006602090815260009384526040808520845180860184018051928152908401958401959095209452929052825290205460ff1681565b34801561077957600080fd5b5061033961078836600461347a565b6112d5565b34801561079957600080fd5b5061030f6107a83660046134aa565b6113eb565b3480156107b957600080fd5b506104476107c8366004613894565b611466565b3480156107d957600080fd5b506102ed6107e83660046135a8565b6114f5565b3480156107f957600080fd5b5061030f6108083660046134aa565b61157e565b34801561081957600080fd5b506106b97f000000000000000000000000000000000000000000000000000000000000000081565b34801561084d57600080fd5b506102ed61085c366004613792565b61158c565b34801561086d57600080fd5b506103d761271081565b34801561088357600080fd5b506102ed61089236600461394d565b6115e8565b6102ed6108a536600461335a565b611672565b3480156108b657600080fd5b506103d76108c53660046139bb565b611888565b3480156108d657600080fd5b506102ed6108e53660046139f4565b6118b3565b3480156108f657600080fd5b50610415600181565b34801561090b57600080fd5b506102ed61091a366004613a30565b61191d565b34801561092b57600080fd5b506102ed61093a3660046135a8565b611a3c565b34801561094b57600080fd5b506102ed61095a366004613792565b611a96565b34801561096b57600080fd5b5061033961097a366004613af8565b611b0f565b34801561098b57600080fd5b50306106b9565b337f00000000000000000000000000000000000000000000000000000000000000006001600160a01b031614610a0f5760405162461bcd60e51b815260206004820152601e60248201527f4c7a4170703a20696e76616c696420656e64706f696e742063616c6c6572000060448201526064015b60405180910390fd5b61ffff861660009081526001602052604081208054610a2d90613b45565b80601f0160208091040260200160405190810160405280929190818152602001828054610a5990613b45565b8015610aa65780601f10610a7b57610100808354040283529160200191610aa6565b820191906000526020600020905b815481529060010190602001808311610a8957829003601f168201915b50505050509050805186869050148015610ac1575060008151115b8015610ae9575080516020820120604051610adf9088908890613b79565b6040518091039020145b610b445760405162461bcd60e51b815260206004820152602660248201527f4c7a4170703a20696e76616c696420736f757263652073656e64696e6720636f6044820152651b9d1c9858dd60d21b6064820152608401610a06565b610bba8787878080601f01602080910402602001604051908101604052809392919081815260200183838082843760009201919091525050604080516020601f8a018190048102820181019092528881528a935091508890889081908401838280828437600092019190915250611bc092505050565b50505050505050565b60006001600160e01b03198216631f7ecdf760e01b1480610bf457506301ffc9a760e01b6001600160e01b03198316145b92915050565b6060600a8054610c0990613b45565b80601f0160208091040260200160405190810160405280929190818152602001828054610c3590613b45565b8015610c825780601f10610c5757610100808354040283529160200191610c82565b820191906000526020600020905b815481529060010190602001808311610c6557829003601f168201915b5050505050905090565b610c94611c39565b6040516307e0db1760e01b815261ffff821660048201527f00000000000000000000000000000000000000000000000000000000000000006001600160a01b0316906307e0db17906024015b600060405180830381600087803b158015610cfa57600080fd5b505af1158015610d0e573d6000803e3d6000fd5b5050505050565b600033610d23818585611c93565b5060019392505050565b610d35611c39565b61ffff909116600090815260036020526040902055565b610d54611c39565b6040516310ddb13760e01b815261ffff821660048201527f00000000000000000000000000000000000000000000000000000000000000006001600160a01b0316906310ddb13790602401610ce0565b600033610db2858285611db7565b610dbd858585611e31565b506001949350505050565b600080610e0e8888888888888080601f016020809104026020016040519081016040528093929190818152602001838380828437600092019190915250611fdc92505050565b91509150965096945050505050565b600033610d23818585610e308383611888565b610e3a9190613b9f565b611c93565b61ffff831660009081526001602052604081208054829190610e6090613b45565b80601f0160208091040260200160405190810160405280929190818152602001828054610e8c90613b45565b8015610ed95780601f10610eae57610100808354040283529160200191610ed9565b820191906000526020600020905b815481529060010190602001808311610ebc57829003601f168201915b505050505090508383604051610ef0929190613b79565b60405180910390208180519060200120149150509392505050565b69d3c21bcecceda1000000811115610f7e5760405162461bcd60e51b815260206004820152603060248201527f4d6178696d756d206d696e7420616d6f756e74206578636565646564202d206d60448201526f185e080c4b0c0c0c0b0c0c0c0813d19560821b6064820152608401610a06565b610f8882826120d0565b5050565b610f94611c39565b6040516342d65a8d60e01b81526001600160a01b037f000000000000000000000000000000000000000000000000000000000000000016906342d65a8d90610fe490869086908690600401613bdb565b600060405180830381600087803b158015610ffe57600080fd5b505af1158015610bba573d6000803e3d6000fd5b3330146110705760405162461bcd60e51b815260206004820152602660248201527f4e6f6e626c6f636b696e674c7a4170703a2063616c6c6572206d7573742062656044820152650204c7a4170760d41b6064820152608401610a06565b6110e68686868080601f01602080910402602001604051908101604052809392919081815260200183838082843760009201919091525050604080516020601f89018190048102820181019092528781528993509150879087908190840183828082843760009201919091525061219192505050565b505050505050565b6110e6858585856111026020870187613792565b6111126040880160208901613792565b61111f6040890189613bf9565b8080601f01602080910402602001604051908101604052809392919081815260200183838082843760009201919091525061221892505050565b611161611c39565b61116b6000612300565b565b6001602052600090815260409020805461118690613b45565b80601f01602080910402602001604051908101604052809291908181526020018280546111b290613b45565b80156111ff5780601f106111d4576101008083540402835291602001916111ff565b820191906000526020600020905b8154815290600101906020018083116111e257829003601f168201915b505050505081565b6112ab8888888888888080601f0160208091040260200160405190810160405280939291908181526020018383808284376000920191909152508a92506112549150506020890189613792565b61126460408a0160208b01613792565b61127160408b018b613bf9565b8080601f01602080910402602001604051908101604052809392919081815260200183838082843760009201919091525061235092505050565b505050505050505050565b60006112c160095490565b905090565b6060600b8054610c0990613b45565b61ffff81166000908152600160205260408120805460609291906112f890613b45565b80601f016020809104026020016040519081016040528092919081815260200182805461132490613b45565b80156113715780601f1061134657610100808354040283529160200191611371565b820191906000526020600020905b81548152906001019060200180831161135457829003601f168201915b5050505050905080516000036113c95760405162461bcd60e51b815260206004820152601d60248201527f4c7a4170703a206e6f20747275737465642070617468207265636f72640000006044820152606401610a06565b6113e46000601483516113dc9190613c3f565b83919061244c565b9392505050565b600033816113f98286611888565b9050838110156114595760405162461bcd60e51b815260206004820152602560248201527f45524332303a2064656372656173656420616c6c6f77616e63652062656c6f77604482015264207a65726f60d81b6064820152608401610a06565b610dbd8286868403611c93565b6000806114e38b8b8b8b8b8080601f01602080910402602001604051908101604052809392919081815260200183838082843760009201919091525050604080516020601f8d018190048102820181019092528b81528e93508d9250908c908c908190840183828082843760009201919091525061255992505050565b91509150995099975050505050505050565b6114fd611c39565b81813060405160200161151293929190613c52565b60408051601f1981840301815291815261ffff851660009081526001602052209061153d9082613cc0565b507f8c0400cfe2d1199b1a725c78960bcc2a344d869b80590d0f2bd005db15a572ce83838360405161157193929190613bdb565b60405180910390a1505050565b600033610d23818585611e31565b611594611c39565b600480546001600160a01b0319166001600160a01b0383169081179091556040519081527f5db758e995a17ec1ad84bdef7e8c3293a0bd6179bcce400dff5d4c3d87db726b9060200160405180910390a150565b6115f0611c39565b6040516332fb62e760e21b81526001600160a01b037f0000000000000000000000000000000000000000000000000000000000000000169063cbed8b9c906116449088908890889088908890600401613d7f565b600060405180830381600087803b15801561165e57600080fd5b505af11580156112ab573d6000803e3d6000fd5b61ffff861660009081526005602052604080822090516116959088908890613b79565b90815260408051602092819003830190206001600160401b038716600090815292529020549050806117155760405162461bcd60e51b815260206004820152602360248201527f4e6f6e626c6f636b696e674c7a4170703a206e6f2073746f726564206d65737360448201526261676560e81b6064820152608401610a06565b808383604051611726929190613b79565b6040518091039020146117855760405162461bcd60e51b815260206004820152602160248201527f4e6f6e626c6f636b696e674c7a4170703a20696e76616c6964207061796c6f616044820152601960fa1b6064820152608401610a06565b61ffff871660009081526005602052604080822090516117a89089908990613b79565b90815260408051602092819003830181206001600160401b038916600090815290845282902093909355601f88018290048202830182019052868252611840918991899089908190840183828082843760009201919091525050604080516020601f8a018190048102820181019092528881528a93509150889088908190840183828082843760009201919091525061219192505050565b7fc264d91f3adc5588250e1551f547752ca0cfa8f6b530d243b9f9f4cab10ea8e58787878785604051611877959493929190613db8565b60405180910390a150505050505050565b6001600160a01b03918216600090815260086020908152604080832093909416825291909152205490565b6118bb611c39565b61ffff83811660008181526002602090815260408083209487168084529482529182902085905581519283528201929092529081018290527f9d5c7c0b934da8fefa9c7760c98383778a12dfbfc0c3b3106518f43fb9508ac090606001611571565b33301461196c5760405162461bcd60e51b815260206004820152601f60248201527f4f4654436f72653a2063616c6c6572206d757374206265204f4654436f7265006044820152606401610a06565b611977308686612614565b9350846001600160a01b03168a61ffff167fbf551ec93859b170f9b2141bd9298bf3f64322c6f7beb2543a0cb669834118bf866040516119b991815260200190565b60405180910390a3604051633fe79aed60e11b81526001600160a01b03861690637fcf35da9083906119fd908e908e908e908e908e908d908d908d90600401613df3565b600060405180830381600088803b158015611a1757600080fd5b5087f1158015611a2b573d6000803e3d6000fd5b505050505050505050505050505050565b611a44611c39565b61ffff83166000908152600160205260409020611a62828483613e4e565b507ffa41487ad5d6728f0b19276fa1eddc16558578f5109fc39d2dc33c3230470dab83838360405161157193929190613bdb565b611a9e611c39565b6001600160a01b038116611b035760405162461bcd60e51b815260206004820152602660248201527f4f776e61626c653a206e6577206f776e657220697320746865207a65726f206160448201526564647265737360d01b6064820152608401610a06565b611b0c81612300565b50565b604051633d7b2f6f60e21b815261ffff808616600483015284166024820152306044820152606481018290526060907f00000000000000000000000000000000000000000000000000000000000000006001600160a01b03169063f5ecbdbc90608401600060405180830381865afa158015611b8f573d6000803e3d6000fd5b505050506040513d6000823e601f3d908101601f19168201604052611bb79190810190613f0d565b95945050505050565b600080611c235a60966366ad5c8a60e01b89898989604051602401611be89493929190613f7a565b60408051601f198184030181529190526020810180516001600160e01b03166001600160e01b03199093169290921790915230929190612666565b91509150816110e6576110e686868686856126f0565b6000546001600160a01b0316331461116b5760405162461bcd60e51b815260206004820181905260248201527f4f776e61626c653a2063616c6c6572206973206e6f7420746865206f776e65726044820152606401610a06565b6001600160a01b038316611cf55760405162461bcd60e51b8152602060048201526024808201527f45524332303a20617070726f76652066726f6d20746865207a65726f206164646044820152637265737360e01b6064820152608401610a06565b6001600160a01b038216611d565760405162461bcd60e51b815260206004820152602260248201527f45524332303a20617070726f766520746f20746865207a65726f206164647265604482015261737360f01b6064820152608401610a06565b6001600160a01b0383811660008181526008602090815260408083209487168084529482529182902085905590518481527f8c5be1e5ebec7d5bd14f71427d1e84f3dd0314c0f7b2291e5b200ac8c7c3b925910160405180910390a3505050565b6000611dc38484611888565b90506000198114611e2b5781811015611e1e5760405162461bcd60e51b815260206004820152601d60248201527f45524332303a20696e73756666696369656e7420616c6c6f77616e63650000006044820152606401610a06565b611e2b8484848403611c93565b50505050565b6001600160a01b038316611e955760405162461bcd60e51b815260206004820152602560248201527f45524332303a207472616e736665722066726f6d20746865207a65726f206164604482015264647265737360d81b6064820152608401610a06565b6001600160a01b038216611ef75760405162461bcd60e51b815260206004820152602360248201527f45524332303a207472616e7366657220746f20746865207a65726f206164647260448201526265737360e81b6064820152608401610a06565b6001600160a01b03831660009081526007602052604090205481811015611f6f5760405162461bcd60e51b815260206004820152602660248201527f45524332303a207472616e7366657220616d6f756e7420657863656564732062604482015265616c616e636560d01b6064820152608401610a06565b6001600160a01b0380851660008181526007602052604080822086860390559286168082529083902080548601905591517fddf252ad1be2c89b69c2b068fc378daa952ba7f163c4a11628f55a4df523b3ef90611fcf9086815260200190565b60405180910390a3611e2b565b600080600061202a87611fee88612792565b6040805160006020820152602181019390935260c09190911b6001600160c01b0319166041830152805160298184030181526049909201905290565b60405163040a7bb160e41b81529091506001600160a01b037f000000000000000000000000000000000000000000000000000000000000000016906340a7bb1090612081908b90309086908b908b90600401613fb8565b6040805180830381865afa15801561209d573d6000803e3d6000fd5b505050506040513d601f19601f820116820180604052508101906120c1919061400c565b92509250509550959350505050565b6001600160a01b0382166121265760405162461bcd60e51b815260206004820152601f60248201527f45524332303a206d696e7420746f20746865207a65726f2061646472657373006044820152606401610a06565b80600960008282546121389190613b9f565b90915550506001600160a01b0382166000818152600760209081526040808320805486019055518481527fddf252ad1be2c89b69c2b068fc378daa952ba7f163c4a11628f55a4df523b3ef910160405180910390a35050565b600061219d8282612818565b905060ff81166121b8576121b385858585612874565b610d0e565b60001960ff8216016121d0576121b385858585612904565b60405162461bcd60e51b815260206004820152601c60248201527f4f4654436f72653a20756e6b6e6f776e207061636b65742074797065000000006044820152606401610a06565b600061222687828481612b12565b61222f85612be7565b50905061223e88888884612c27565b90506000811161228c5760405162461bcd60e51b815260206004820152601960248201527813d19510dbdc994e88185b5bdd5b9d081d1bdbc81cdb585b1b603a1b6044820152606401610a06565b600061229b87611fee84612792565b90506122ab888287878734612c59565b86896001600160a01b03168961ffff167fd81fc9b8523134ed613870ed029d6170cbb73aa6a6bc311b9a642689fb9df59a856040516122ec91815260200190565b60405180910390a450979650505050505050565b600080546001600160a01b038381166001600160a01b0319831681178455604051919092169283917f8be0079c531659141344cd1fd0a4f28419497f9722a3daafe3b4186f6b6457e09190a35050565b6000612368896001846001600160401b038916612b12565b61237187612be7565b5090506123808a8a8a84612c27565b9050600081116123ce5760405162461bcd60e51b815260206004820152601960248201527813d19510dbdc994e88185b5bdd5b9d081d1bdbc81cdb585b1b603a1b6044820152606401610a06565b60006123e5338a6123de85612792565b8a8a612dfe565b90506123f58a8287878734612c59565b888b6001600160a01b03168b61ffff167fd81fc9b8523134ed613870ed029d6170cbb73aa6a6bc311b9a642689fb9df59a8560405161243691815260200190565b60405180910390a4509998505050505050505050565b60608161245a81601f613b9f565b10156124995760405162461bcd60e51b815260206004820152600e60248201526d736c6963655f6f766572666c6f7760901b6044820152606401610a06565b6124a38284613b9f565b845110156124e75760405162461bcd60e51b8152602060048201526011602482015270736c6963655f6f75744f66426f756e647360781b6044820152606401610a06565b6060821580156125065760405191506000825260208201604052612550565b6040519150601f8416801560200281840101858101878315602002848b0101015b8183101561253f578051835260209283019201612527565b5050858452601f01601f1916604052505b50949350505050565b600080600061256c338a6123de8b612792565b60405163040a7bb160e41b81529091506001600160a01b037f000000000000000000000000000000000000000000000000000000000000000016906340a7bb10906125c3908d90309086908b908b90600401613fb8565b6040805180830381865afa1580156125df573d6000803e3d6000fd5b505050506040513d601f19601f82011682018060405250810190612603919061400c565b925092505097509795505050505050565b600033306001600160a01b038616148015906126425750806001600160a01b0316856001600160a01b031614155b1561265257612652858285611db7565b61265d858585611e31565b50909392505050565b6000606060008060008661ffff166001600160401b0381111561268b5761268b6135fa565b6040519080825280601f01601f1916602001820160405280156126b5576020820181803683370190505b50905060008087516020890160008d8df191503d9250868311156126d7578692505b828152826000602083013e909890975095505050505050565b8180519060200120600560008761ffff1661ffff168152602001908152602001600020856040516127219190614030565b9081526040805191829003602090810183206001600160401b0388166000908152915220919091557fe183f33de2837795525b4792ca4cd60535bd77c53b7e7030060bfcf5734d6b0c9061277e908790879087908790879061404c565b60405180910390a15050505050565b505050565b6000806127bf7f0000000000000000000000000000000000000000000000000000000000000000846140b4565b90506001600160401b03811115610bf45760405162461bcd60e51b815260206004820152601a60248201527f4f4654436f72653a20616d6f756e745344206f766572666c6f770000000000006044820152606401610a06565b6000612825826001613b9f565b8351101561286b5760405162461bcd60e51b8152602060048201526013602482015272746f55696e74385f6f75744f66426f756e647360681b6044820152606401610a06565b50016001015190565b60008061288083612e3f565b90925090506001600160a01b0382166128995761dead91505b60006128a482612ec4565b90506128b1878483612ef9565b9050826001600160a01b03168761ffff167fbf551ec93859b170f9b2141bd9298bf3f64322c6f7beb2543a0cb669834118bf836040516128f391815260200190565b60405180910390a350505050505050565b600080600080600061291586612f0c565b945094509450945094506000600660008b61ffff1661ffff1681526020019081526020016000208960405161294a9190614030565b90815260408051602092819003830190206001600160401b038b166000908152925281205460ff16915061297d85612ec4565b9050816129eb5761298f8b3083612ef9565b61ffff8c166000908152600660205260409081902090519192506001916129b7908d90614030565b90815260408051602092819003830190206001600160401b038d16600090815292529020805460ff19169115159190911790555b6001600160a01b0386163b612a42576040516001600160a01b03871681527f9aedf5fdba8716db3b6705ca00150643309995d4f818a249ed6dde6677e7792d9060200160405180910390a150505050505050611e2b565b8a8a8a8a8a8a868a60008a612a60578b6001600160401b0316612a62565b5a5b9050600080612a945a609663eaffd49a60e01b8e8e8e8d8d8d8d8d604051602401611be89897969594939291906140c8565b915091508115612aed578751602089012060405161ffff8d16907fb8890edbfc1c74692f527444645f95489c3703cc2df42e4a366f5d06fa6cd88490612adf908e908e90869061413c565b60405180910390a250612afa565b612afa8b8b8b8b856126f0565b50505050505050505050505050505050505050505050565b6000612b1d83612fc3565b61ffff80871660009081526002602090815260408083209389168352929052205490915080612b8e5760405162461bcd60e51b815260206004820152601a60248201527f4c7a4170703a206d696e4761734c696d6974206e6f74207365740000000000006044820152606401610a06565b612b988382613b9f565b8210156110e65760405162461bcd60e51b815260206004820152601b60248201527f4c7a4170703a20676173206c696d697420697320746f6f206c6f7700000000006044820152606401610a06565b600080612c147f00000000000000000000000000000000000000000000000000000000000000008461416a565b9050612c208184613c3f565b9150915091565b6000336001600160a01b0386168114612c4557612c45868285611db7565b612c4f868461301f565b5090949350505050565b61ffff861660009081526001602052604081208054612c7790613b45565b80601f0160208091040260200160405190810160405280929190818152602001828054612ca390613b45565b8015612cf05780601f10612cc557610100808354040283529160200191612cf0565b820191906000526020600020905b815481529060010190602001808311612cd357829003601f168201915b505050505090508051600003612d615760405162461bcd60e51b815260206004820152603060248201527f4c7a4170703a2064657374696e6174696f6e20636861696e206973206e6f742060448201526f61207472757374656420736f7572636560801b6064820152608401610a06565b612d6c878751613153565b60405162c5803160e81b81526001600160a01b037f0000000000000000000000000000000000000000000000000000000000000000169063c5803100908490612dc3908b9086908c908c908c908c9060040161417e565b6000604051808303818588803b158015612ddc57600080fd5b505af1158015612df0573d6000803e3d6000fd5b505050505050505050505050565b6060600185856001600160a01b0389168587604051602001612e25969594939291906141e5565b604051602081830303815290604052905095945050505050565b60008080612e4d8482612818565b60ff16148015612e5e575082516029145b612ea55760405162461bcd60e51b815260206004820152601860248201527713d19510dbdc994e881a5b9d985b1a59081c185e5b1bd85960421b6044820152606401610a06565b612eb083600d6131c4565b9150612ebd836021613229565b9050915091565b6000610bf47f00000000000000000000000000000000000000000000000000000000000000006001600160401b038416614246565b6000612f0583836120d0565b5092915050565b600080806060816001612f1f8783612818565b60ff1614612f6a5760405162461bcd60e51b815260206004820152601860248201527713d19510dbdc994e881a5b9d985b1a59081c185e5b1bd85960421b6044820152606401610a06565b612f7586600d6131c4565b9350612f82866021613229565b9250612f8f866029613286565b9450612f9c866049613229565b9050612fb86051808851612fb09190613c3f565b88919061244c565b915091939590929450565b60006022825110156130175760405162461bcd60e51b815260206004820152601c60248201527f4c7a4170703a20696e76616c69642061646170746572506172616d73000000006044820152606401610a06565b506022015190565b6001600160a01b03821661307f5760405162461bcd60e51b815260206004820152602160248201527f45524332303a206275726e2066726f6d20746865207a65726f206164647265736044820152607360f81b6064820152608401610a06565b6001600160a01b038216600090815260076020526040902054818110156130f35760405162461bcd60e51b815260206004820152602260248201527f45524332303a206275726e20616d6f756e7420657863656564732062616c616e604482015261636560f01b6064820152608401610a06565b6001600160a01b03831660008181526007602090815260408083208686039055600980548790039055518581529192917fddf252ad1be2c89b69c2b068fc378daa952ba7f163c4a11628f55a4df523b3ef910160405180910390a3505050565b61ffff82166000908152600360205260408120549081900361317457506127105b8082111561278d5760405162461bcd60e51b815260206004820181905260248201527f4c7a4170703a207061796c6f61642073697a6520697320746f6f206c617267656044820152606401610a06565b60006131d1826014613b9f565b835110156132195760405162461bcd60e51b8152602060048201526015602482015274746f416464726573735f6f75744f66426f756e647360581b6044820152606401610a06565b500160200151600160601b900490565b6000613236826008613b9f565b8351101561327d5760405162461bcd60e51b8152602060048201526014602482015273746f55696e7436345f6f75744f66426f756e647360601b6044820152606401610a06565b50016008015190565b6000613293826020613b9f565b835110156132db5760405162461bcd60e51b8152602060048201526015602482015274746f427974657333325f6f75744f66426f756e647360581b6044820152606401610a06565b50016020015190565b803561ffff811681146132f657600080fd5b919050565b60008083601f84011261330d57600080fd5b5081356001600160401b0381111561332457600080fd5b60208301915083602082850101111561333c57600080fd5b9250929050565b80356001600160401b03811681146132f657600080fd5b6000806000806000806080878903121561337357600080fd5b61337c876132e4565b955060208701356001600160401b038082111561339857600080fd5b6133a48a838b016132fb565b90975095508591506133b860408a01613343565b945060608901359150808211156133ce57600080fd5b506133db89828a016132fb565b979a9699509497509295939492505050565b6000602082840312156133ff57600080fd5b81356001600160e01b0319811681146113e457600080fd5b60005b8381101561343257818101518382015260200161341a565b50506000910152565b60008151808452613453816020860160208601613417565b601f01601f19169290920160200192915050565b6020815260006113e4602083018461343b565b60006020828403121561348c57600080fd5b6113e4826132e4565b6001600160a01b0381168114611b0c57600080fd5b600080604083850312156134bd57600080fd5b82356134c881613495565b946020939093013593505050565b600080604083850312156134e957600080fd5b6134c8836132e4565b60008060006060848603121561350757600080fd5b833561351281613495565b9250602084013561352281613495565b929592945050506040919091013590565b803580151581146132f657600080fd5b60008060008060008060a0878903121561355c57600080fd5b613565876132e4565b9550602087013594506040870135935061358160608801613533565b925060808701356001600160401b0381111561359c57600080fd5b6133db89828a016132fb565b6000806000604084860312156135bd57600080fd5b6135c6846132e4565b925060208401356001600160401b038111156135e157600080fd5b6135ed868287016132fb565b9497909650939450505050565b634e487b7160e01b600052604160045260246000fd5b604051601f8201601f191681016001600160401b0381118282101715613638576136386135fa565b604052919050565b60006001600160401b03821115613659576136596135fa565b50601f01601f191660200190565b60008060006060848603121561367c57600080fd5b613685846132e4565b925060208401356001600160401b038111156136a057600080fd5b8401601f810186136136b157600080fd5b80356136c46136bf82613640565b613610565b8181528760208385010111156136d957600080fd5b816020840160208301376000602083830101528094505050506136fe60408501613343565b90509250925092565b60006060828403121561371957600080fd5b50919050565b600080600080600060a0868803121561373757600080fd5b853561374281613495565b9450613750602087016132e4565b9350604086013592506060860135915060808601356001600160401b0381111561377957600080fd5b61378588828901613707565b9150509295509295909350565b6000602082840312156137a457600080fd5b81356113e481613495565b60008060008060008060008060e0898b0312156137cb57600080fd5b88356137d681613495565b97506137e460208a016132e4565b9650604089013595506060890135945060808901356001600160401b038082111561380e57600080fd5b61381a8c838d016132fb565b909650945084915061382e60a08c01613343565b935060c08b013591508082111561384457600080fd5b506138518b828c01613707565b9150509295985092959890939650565b6000806040838503121561387457600080fd5b61387d836132e4565b915061388b602084016132e4565b90509250929050565b600080600080600080600080600060e08a8c0312156138b257600080fd5b6138bb8a6132e4565b985060208a0135975060408a0135965060608a01356001600160401b03808211156138e557600080fd5b6138f18d838e016132fb565b909850965086915061390560808d01613343565b955061391360a08d01613533565b945060c08c013591508082111561392957600080fd5b506139368c828d016132fb565b915080935050809150509295985092959850929598565b60008060008060006080868803121561396557600080fd5b61396e866132e4565b945061397c602087016132e4565b93506040860135925060608601356001600160401b0381111561399e57600080fd5b6139aa888289016132fb565b969995985093965092949392505050565b600080604083850312156139ce57600080fd5b82356139d981613495565b915060208301356139e981613495565b809150509250929050565b600080600060608486031215613a0957600080fd5b613a12846132e4565b9250613a20602085016132e4565b9150604084013590509250925092565b6000806000806000806000806000806101008b8d031215613a5057600080fd5b613a598b6132e4565b995060208b01356001600160401b0380821115613a7557600080fd5b613a818e838f016132fb565b909b509950899150613a9560408e01613343565b985060608d0135975060808d01359150613aae82613495565b90955060a08c0135945060c08c01359080821115613acb57600080fd5b50613ad88d828e016132fb565b9150809450508092505060e08b013590509295989b9194979a5092959850565b60008060008060808587031215613b0e57600080fd5b613b17856132e4565b9350613b25602086016132e4565b92506040850135613b3581613495565b9396929550929360600135925050565b600181811c90821680613b5957607f821691505b60208210810361371957634e487b7160e01b600052602260045260246000fd5b8183823760009101908152919050565b634e487b7160e01b600052601160045260246000fd5b80820180821115610bf457610bf4613b89565b81835281816020850137506000828201602090810191909152601f909101601f19169091010190565b61ffff84168152604060208201526000611bb7604083018486613bb2565b6000808335601e19843603018112613c1057600080fd5b8301803591506001600160401b03821115613c2a57600080fd5b60200191503681900382131561333c57600080fd5b81810381811115610bf457610bf4613b89565b8284823760609190911b6bffffffffffffffffffffffff19169101908152601401919050565b601f82111561278d576000816000526020600020601f850160051c81016020861015613ca15750805b601f850160051c820191505b818110156110e657828155600101613cad565b81516001600160401b03811115613cd957613cd96135fa565b613ced81613ce78454613b45565b84613c78565b602080601f831160018114613d225760008415613d0a5750858301515b600019600386901b1c1916600185901b1785556110e6565b600085815260208120601f198616915b82811015613d5157888601518255948401946001909101908401613d32565b5085821015613d6f5787850151600019600388901b60f8161c191681555b5050505050600190811b01905550565b600061ffff808816835280871660208401525084604083015260806060830152613dad608083018486613bb2565b979650505050505050565b61ffff86168152608060208201526000613dd6608083018688613bb2565b6001600160401b0394909416604083015250606001529392505050565b61ffff8916815260c060208201526000613e1160c08301898b613bb2565b6001600160401b038816604084015286606084015285608084015282810360a0840152613e3f818587613bb2565b9b9a5050505050505050505050565b6001600160401b03831115613e6557613e656135fa565b613e7983613e738354613b45565b83613c78565b6000601f841160018114613ead5760008515613e955750838201355b600019600387901b1c1916600186901b178355610d0e565b600083815260209020601f19861690835b82811015613ede5786850135825560209485019460019092019101613ebe565b5086821015613efb5760001960f88860031b161c19848701351681555b505060018560011b0183555050505050565b600060208284031215613f1f57600080fd5b81516001600160401b03811115613f3557600080fd5b8201601f81018413613f4657600080fd5b8051613f546136bf82613640565b818152856020838501011115613f6957600080fd5b611bb7826020830160208601613417565b61ffff85168152608060208201526000613f97608083018661343b565b6001600160401b03851660408401528281036060840152613dad818561343b565b61ffff861681526001600160a01b038516602082015260a060408201819052600090613fe69083018661343b565b84151560608401528281036080840152614000818561343b565b98975050505050505050565b6000806040838503121561401f57600080fd5b505080516020909101519092909150565b60008251614042818460208701613417565b9190910192915050565b61ffff8616815260a06020820152600061406960a083018761343b565b6001600160401b0386166040840152828103606084015261408a818661343b565b90508281036080840152614000818561343b565b634e487b7160e01b600052601260045260246000fd5b6000826140c3576140c361409e565b500490565b600061010061ffff8b1683528060208401526140e68184018b61343b565b6001600160401b038a166040850152606084018990526001600160a01b038816608085015260a0840187905283810360c08501529050614126818661343b565b9150508260e08301529998505050505050505050565b60608152600061414f606083018661343b565b6001600160401b039490941660208301525060400152919050565b6000826141795761417961409e565b500690565b61ffff8716815260c06020820152600061419b60c083018861343b565b82810360408401526141ad818861343b565b6001600160a01b0387811660608601528616608085015283810360a085015290506141d8818561343b565b9998505050505050505050565b60ff60f81b8760f81b16815285600182015260006001600160401b0360c01b808760c01b166021840152856029840152808560c01b166049840152508251614234816051850160208701613417565b91909101605101979650505050505050565b8082028115828204841417610bf457610bf4613b8956fea2646970667358221220d133199dcb08f8eebb0513f88724943570ce70b67218e511b5d13c67518c3f6064736f6c63430008160033",
  "devdoc": {
    "events": {
      "Approval(address,address,uint256)": {
        "details": "Emitted when the allowance of a `spender` for an `owner` is set by a call to {approve}. `value` is the new allowance."
      },
      "ReceiveFromChain(uint16,address,uint256)": {
        "details": "Emitted when `_amount` tokens are received from `_srcChainId` into the `_toAddress` on the local chain. `_nonce` is the inbound nonce."
      },
      "SendToChain(uint16,address,bytes32,uint256)": {
        "details": "Emitted when `_amount` tokens are moved from the `_sender` to (`_dstChainId`, `_toAddress`) `_nonce` is the outbound nonce"
      },
      "Transfer(address,address,uint256)": {
        "details": "Emitted when `value` tokens are moved from one account (`from`) to another (`to`). Note that `value` may be zero."
      }
    },
    "kind": "dev",
    "methods": {
      "allowance(address,address)": {
        "details": "See {IERC20-allowance}."
      },
      "approve(address,uint256)": {
        "details": "See {IERC20-approve}. NOTE: If `amount` is the maximum `uint256`, the allowance is not updated on `transferFrom`. This is semantically equivalent to an infinite approval. Requirements: - `spender` cannot be the zero address."
      },
      "balanceOf(address)": {
        "details": "See {IERC20-balanceOf}."
      },
      "circulatingSupply()": {
        "details": "returns the circulating amount of tokens on current chain"
      },
      "decimals()": {
        "details": "Returns the number of decimals used to get its user representation. For example, if `decimals` equals `2`, a balance of `505` tokens should be displayed to a user as `5.05` (`505 / 10 ** 2`). Tokens usually opt for a value of 18, imitating the relationship between Ether and Wei. This is the default value returned by this function, unless it's overridden. NOTE: This information is only used for _display_ purposes: it in no way affects any of the arithmetic of the contract, including {IERC20-balanceOf} and {IERC20-transfer}."
      },
      "decreaseAllowance(address,uint256)": {
        "details": "Atomically decreases the allowance granted to `spender` by the caller. This is an alternative to {approve} that can be used as a mitigation for problems described in {IERC20-approve}. Emits an {Approval} event indicating the updated allowance. Requirements: - `spender` cannot be the zero address. - `spender` must have allowance for the caller of at least `subtractedValue`."
      },
      "estimateSendFee(uint16,bytes32,uint256,bool,bytes)": {
        "details": "estimate send token `_tokenId` to (`_dstChainId`, `_toAddress`) _dstChainId - L0 defined chain id to send tokens too _toAddress - dynamic bytes array which contains the address to whom you are sending tokens to on the dstChain _amount - amount of the tokens to transfer _useZro - indicates to use zro to pay L0 fees _adapterParam - flexible bytes array to indicate messaging adapter services in L0"
      },
      "increaseAllowance(address,uint256)": {
        "details": "Atomically increases the allowance granted to `spender` by the caller. This is an alternative to {approve} that can be used as a mitigation for problems described in {IERC20-approve}. Emits an {Approval} event indicating the updated allowance. Requirements: - `spender` cannot be the zero address."
      },
      "name()": {
        "details": "Returns the name of the token."
      },
      "owner()": {
        "details": "Returns the address of the current owner."
      },
      "renounceOwnership()": {
        "details": "Leaves the contract without owner. It will not be possible to call `onlyOwner` functions. Can only be called by the current owner. NOTE: Renouncing ownership will leave the contract without an owner, thereby disabling any functionality that is only available to the owner."
      },
      "sendFrom(address,uint16,bytes32,uint256,(address,address,bytes))": {
        "details": "send `_amount` amount of token to (`_dstChainId`, `_toAddress`) from `_from` `_from` the owner of token `_dstChainId` the destination chain identifier `_toAddress` can be any size depending on the `dstChainId`. `_amount` the quantity of tokens in wei `_refundAddress` the address LayerZero refunds if too much message fee is sent `_zroPaymentAddress` set to address(0x0) if not paying in ZRO (LayerZero Token) `_adapterParams` is a flexible bytes array to indicate messaging adapter services"
      },
      "symbol()": {
        "details": "Returns the symbol of the token, usually a shorter version of the name."
      },
      "token()": {
        "details": "returns the address of the ERC20 token"
      },
      "totalSupply()": {
        "details": "See {IERC20-totalSupply}."
      },
      "transfer(address,uint256)": {
        "details": "See {IERC20-transfer}. Requirements: - `to` cannot be the zero address. - the caller must have a balance of at least `amount`."
      },
      "transferFrom(address,address,uint256)": {
        "details": "See {IERC20-transferFrom}. Emits an {Approval} event indicating the updated allowance. This is not required by the EIP. See the note at the beginning of {ERC20}. NOTE: Does not update the allowance if the current allowance is the maximum `uint256`. Requirements: - `from` and `to` cannot be the zero address. - `from` must have a balance of at least `amount`. - the caller must have allowance for ``from``'s tokens of at least `amount`."
      },
      "transferOwnership(address)": {
        "details": "Transfers ownership of the contract to a new account (`newOwner`). Can only be called by the current owner."
      }
    },
    "version": 1
  },
  "userdoc": {
    "kind": "user",
    "methods": {},
    "version": 1
  },
  "storageLayout": {
    "storage": [
      {
        "astId": 6771,
        "contract": "contracts/mocks/OFTV1.sol:OFTV1",
        "label": "_owner",
        "offset": 0,
        "slot": "0",
        "type": "t_address"
      },
      {
        "astId": 4371,
        "contract": "contracts/mocks/OFTV1.sol:OFTV1",
        "label": "trustedRemoteLookup",
        "offset": 0,
        "slot": "1",
        "type": "t_mapping(t_uint16,t_bytes_storage)"
      },
      {
        "astId": 4377,
        "contract": "contracts/mocks/OFTV1.sol:OFTV1",
        "label": "minDstGasLookup",
        "offset": 0,
        "slot": "2",
        "type": "t_mapping(t_uint16,t_mapping(t_uint16,t_uint256))"
      },
      {
        "astId": 4381,
        "contract": "contracts/mocks/OFTV1.sol:OFTV1",
        "label": "payloadSizeLimitLookup",
        "offset": 0,
        "slot": "3",
        "type": "t_mapping(t_uint16,t_uint256)"
      },
      {
        "astId": 4383,
        "contract": "contracts/mocks/OFTV1.sol:OFTV1",
        "label": "precrime",
        "offset": 0,
        "slot": "4",
        "type": "t_address"
      },
      {
        "astId": 4913,
        "contract": "contracts/mocks/OFTV1.sol:OFTV1",
        "label": "failedMessages",
        "offset": 0,
        "slot": "5",
        "type": "t_mapping(t_uint16,t_mapping(t_bytes_memory_ptr,t_mapping(t_uint64,t_bytes32)))"
      },
      {
        "astId": 5534,
        "contract": "contracts/mocks/OFTV1.sol:OFTV1",
        "label": "creditedPackets",
        "offset": 0,
        "slot": "6",
        "type": "t_mapping(t_uint16,t_mapping(t_bytes_memory_ptr,t_mapping(t_uint64,t_bool)))"
      },
      {
        "astId": 6892,
        "contract": "contracts/mocks/OFTV1.sol:OFTV1",
        "label": "_balances",
        "offset": 0,
        "slot": "7",
        "type": "t_mapping(t_address,t_uint256)"
      },
      {
        "astId": 6898,
        "contract": "contracts/mocks/OFTV1.sol:OFTV1",
        "label": "_allowances",
        "offset": 0,
        "slot": "8",
        "type": "t_mapping(t_address,t_mapping(t_address,t_uint256))"
      },
      {
        "astId": 6900,
        "contract": "contracts/mocks/OFTV1.sol:OFTV1",
        "label": "_totalSupply",
        "offset": 0,
        "slot": "9",
        "type": "t_uint256"
      },
      {
        "astId": 6902,
        "contract": "contracts/mocks/OFTV1.sol:OFTV1",
        "label": "_name",
        "offset": 0,
        "slot": "10",
        "type": "t_string_storage"
      },
      {
        "astId": 6904,
        "contract": "contracts/mocks/OFTV1.sol:OFTV1",
        "label": "_symbol",
        "offset": 0,
        "slot": "11",
        "type": "t_string_storage"
      }
    ],
    "types": {
      "t_address": {
        "encoding": "inplace",
        "label": "address",
        "numberOfBytes": "20"
      },
      "t_bool": {
        "encoding": "inplace",
        "label": "bool",
        "numberOfBytes": "1"
      },
      "t_bytes32": {
        "encoding": "inplace",
        "label": "bytes32",
        "numberOfBytes": "32"
      },
      "t_bytes_memory_ptr": {
        "encoding": "bytes",
        "label": "bytes",
        "numberOfBytes": "32"
      },
      "t_bytes_storage": {
        "encoding": "bytes",
        "label": "bytes",
        "numberOfBytes": "32"
      },
      "t_mapping(t_address,t_mapping(t_address,t_uint256))": {
        "encoding": "mapping",
        "key": "t_address",
        "label": "mapping(address => mapping(address => uint256))",
        "numberOfBytes": "32",
        "value": "t_mapping(t_address,t_uint256)"
      },
      "t_mapping(t_address,t_uint256)": {
        "encoding": "mapping",
        "key": "t_address",
        "label": "mapping(address => uint256)",
        "numberOfBytes": "32",
        "value": "t_uint256"
      },
      "t_mapping(t_bytes_memory_ptr,t_mapping(t_uint64,t_bool))": {
        "encoding": "mapping",
        "key": "t_bytes_memory_ptr",
        "label": "mapping(bytes => mapping(uint64 => bool))",
        "numberOfBytes": "32",
        "value": "t_mapping(t_uint64,t_bool)"
      },
      "t_mapping(t_bytes_memory_ptr,t_mapping(t_uint64,t_bytes32))": {
        "encoding": "mapping",
        "key": "t_bytes_memory_ptr",
        "label": "mapping(bytes => mapping(uint64 => bytes32))",
        "numberOfBytes": "32",
        "value": "t_mapping(t_uint64,t_bytes32)"
      },
      "t_mapping(t_uint16,t_bytes_storage)": {
        "encoding": "mapping",
        "key": "t_uint16",
        "label": "mapping(uint16 => bytes)",
        "numberOfBytes": "32",
        "value": "t_bytes_storage"
      },
      "t_mapping(t_uint16,t_mapping(t_bytes_memory_ptr,t_mapping(t_uint64,t_bool)))": {
        "encoding": "mapping",
        "key": "t_uint16",
        "label": "mapping(uint16 => mapping(bytes => mapping(uint64 => bool)))",
        "numberOfBytes": "32",
        "value": "t_mapping(t_bytes_memory_ptr,t_mapping(t_uint64,t_bool))"
      },
      "t_mapping(t_uint16,t_mapping(t_bytes_memory_ptr,t_mapping(t_uint64,t_bytes32)))": {
        "encoding": "mapping",
        "key": "t_uint16",
        "label": "mapping(uint16 => mapping(bytes => mapping(uint64 => bytes32)))",
        "numberOfBytes": "32",
        "value": "t_mapping(t_bytes_memory_ptr,t_mapping(t_uint64,t_bytes32))"
      },
      "t_mapping(t_uint16,t_mapping(t_uint16,t_uint256))": {
        "encoding": "mapping",
        "key": "t_uint16",
        "label": "mapping(uint16 => mapping(uint16 => uint256))",
        "numberOfBytes": "32",
        "value": "t_mapping(t_uint16,t_uint256)"
      },
      "t_mapping(t_uint16,t_uint256)": {
        "encoding": "mapping",
        "key": "t_uint16",
        "label": "mapping(uint16 => uint256)",
        "numberOfBytes": "32",
        "value": "t_uint256"
      },
      "t_mapping(t_uint64,t_bool)": {
        "encoding": "mapping",
        "key": "t_uint64",
        "label": "mapping(uint64 => bool)",
        "numberOfBytes": "32",
        "value": "t_bool"
      },
      "t_mapping(t_uint64,t_bytes32)": {
        "encoding": "mapping",
        "key": "t_uint64",
        "label": "mapping(uint64 => bytes32)",
        "numberOfBytes": "32",
        "value": "t_bytes32"
      },
      "t_string_storage": {
        "encoding": "bytes",
        "label": "string",
        "numberOfBytes": "32"
      },
      "t_uint16": {
        "encoding": "inplace",
        "label": "uint16",
        "numberOfBytes": "2"
      },
      "t_uint256": {
        "encoding": "inplace",
        "label": "uint256",
        "numberOfBytes": "32"
      },
      "t_uint64": {
        "encoding": "inplace",
        "label": "uint64",
        "numberOfBytes": "8"
      }
    }
  }
}