{
  "address": "0x262D5cafE99291D1e85D1C38d21541D723115a7b",
  "abi": [
    {
      "inputs": [
        {
          "internalType": "string",
          "name": "_name",
          "type": "string"
        },
        {
          "internalType": "string",
          "name": "_symbol",
          "type": "string"
        },
        {
          "internalType": "address",
          "name": "_lzEndpoint",
          "type": "address"
        },
        {
          "internalType": "address",
          "name": "_mproMasterDistributor",
          "type": "address"
        },
        {
          "internalType": "address",
          "name": "_owner",
          "type": "address"
        }
      ],
      "stateMutability": "nonpayable",
      "type": "constructor"
    },
    {
      "inputs": [],
      "name": "InvalidDelegate",
      "type": "error"
    },
    {
      "inputs": [],
      "name": "InvalidEndpointCall",
      "type": "error"
    },
    {
      "inputs": [],
      "name": "InvalidLocalDecimals",
      "type": "error"
    },
    {
      "inputs": [
        {
          "internalType": "bytes",
          "name": "options",
          "type": "bytes"
        }
      ],
      "name": "InvalidOptions",
      "type": "error"
    },
    {
      "inputs": [],
      "name": "InvalidShortString",
      "type": "error"
    },
    {
      "inputs": [],
      "name": "LzTokenUnavailable",
      "type": "error"
    },
    {
      "inputs": [
        {
          "internalType": "uint32",
          "name": "eid",
          "type": "uint32"
        }
      ],
      "name": "NoPeer",
      "type": "error"
    },
    {
      "inputs": [
        {
          "internalType": "uint256",
          "name": "msgValue",
          "type": "uint256"
        }
      ],
      "name": "NotEnoughNative",
      "type": "error"
    },
    {
      "inputs": [
        {
          "internalType": "address",
          "name": "addr",
          "type": "address"
        }
      ],
      "name": "OnlyEndpoint",
      "type": "error"
    },
    {
      "inputs": [
        {
          "internalType": "uint32",
          "name": "eid",
          "type": "uint32"
        },
        {
          "internalType": "bytes32",
          "name": "sender",
          "type": "bytes32"
        }
      ],
      "name": "OnlyPeer",
      "type": "error"
    },
    {
      "inputs": [],
      "name": "OnlySelf",
      "type": "error"
    },
    {
      "inputs": [
        {
          "internalType": "bytes",
          "name": "result",
          "type": "bytes"
        }
      ],
      "name": "SimulationResult",
      "type": "error"
    },
    {
      "inputs": [
        {
          "internalType": "uint256",
          "name": "amountLD",
          "type": "uint256"
        },
        {
          "internalType": "uint256",
          "name": "minAmountLD",
          "type": "uint256"
        }
      ],
      "name": "SlippageExceeded",
      "type": "error"
    },
    {
      "inputs": [
        {
          "internalType": "string",
          "name": "str",
          "type": "string"
        }
      ],
      "name": "StringTooLong",
      "type": "error"
    },
    {
      "anonymous": false,
      "inputs": [
        {
          "indexed": true,
          "internalType": "address",
          "name": "owner",
          "type": "address"
        },
        {
          "indexed": true,
          "internalType": "address",
          "name": "spender",
          "type": "address"
        },
        {
          "indexed": false,
          "internalType": "uint256",
          "name": "value",
          "type": "uint256"
        }
      ],
      "name": "Approval",
      "type": "event"
    },
    {
      "anonymous": false,
      "inputs": [
        {
          "indexed": true,
          "internalType": "address",
          "name": "delegator",
          "type": "address"
        },
        {
          "indexed": true,
          "internalType": "address",
          "name": "fromDelegate",
          "type": "address"
        },
        {
          "indexed": true,
          "internalType": "address",
          "name": "toDelegate",
          "type": "address"
        }
      ],
      "name": "DelegateChanged",
      "type": "event"
    },
    {
      "anonymous": false,
      "inputs": [
        {
          "indexed": true,
          "internalType": "address",
          "name": "delegate",
          "type": "address"
        },
        {
          "indexed": false,
          "internalType": "uint256",
          "name": "previousBalance",
          "type": "uint256"
        },
        {
          "indexed": false,
          "internalType": "uint256",
          "name": "newBalance",
          "type": "uint256"
        }
      ],
      "name": "DelegateVotesChanged",
      "type": "event"
    },
    {
      "anonymous": false,
      "inputs": [],
      "name": "EIP712DomainChanged",
      "type": "event"
    },
    {
      "anonymous": false,
      "inputs": [
        {
          "components": [
            {
              "internalType": "uint32",
              "name": "eid",
              "type": "uint32"
            },
            {
              "internalType": "uint16",
              "name": "msgType",
              "type": "uint16"
            },
            {
              "internalType": "bytes",
              "name": "options",
              "type": "bytes"
            }
          ],
          "indexed": false,
          "internalType": "struct EnforcedOptionParam[]",
          "name": "_enforcedOptions",
          "type": "tuple[]"
        }
      ],
      "name": "EnforcedOptionSet",
      "type": "event"
    },
    {
      "anonymous": false,
      "inputs": [
        {
          "indexed": false,
          "internalType": "address",
          "name": "inspector",
          "type": "address"
        }
      ],
      "name": "MsgInspectorSet",
      "type": "event"
    },
    {
      "anonymous": false,
      "inputs": [
        {
          "indexed": true,
          "internalType": "bytes32",
          "name": "guid",
          "type": "bytes32"
        },
        {
          "indexed": false,
          "internalType": "uint32",
          "name": "srcEid",
          "type": "uint32"
        },
        {
          "indexed": true,
          "internalType": "address",
          "name": "toAddress",
          "type": "address"
        },
        {
          "indexed": false,
          "internalType": "uint256",
          "name": "amountReceivedLD",
          "type": "uint256"
        }
      ],
      "name": "OFTReceived",
      "type": "event"
    },
    {
      "anonymous": false,
      "inputs": [
        {
          "indexed": true,
          "internalType": "bytes32",
          "name": "guid",
          "type": "bytes32"
        },
        {
          "indexed": false,
          "internalType": "uint32",
          "name": "dstEid",
          "type": "uint32"
        },
        {
          "indexed": true,
          "internalType": "address",
          "name": "fromAddress",
          "type": "address"
        },
        {
          "indexed": false,
          "internalType": "uint256",
          "name": "amountSentLD",
          "type": "uint256"
        },
        {
          "indexed": false,
          "internalType": "uint256",
          "name": "amountReceivedLD",
          "type": "uint256"
        }
      ],
      "name": "OFTSent",
      "type": "event"
    },
    {
      "anonymous": false,
      "inputs": [
        {
          "indexed": true,
          "internalType": "address",
          "name": "previousOwner",
          "type": "address"
        },
        {
          "indexed": true,
          "internalType": "address",
          "name": "newOwner",
          "type": "address"
        }
      ],
      "name": "OwnershipTransferred",
      "type": "event"
    },
    {
      "anonymous": false,
      "inputs": [
        {
          "indexed": false,
          "internalType": "uint32",
          "name": "eid",
          "type": "uint32"
        },
        {
          "indexed": false,
          "internalType": "bytes32",
          "name": "peer",
          "type": "bytes32"
        }
      ],
      "name": "PeerSet",
      "type": "event"
    },
    {
      "anonymous": false,
      "inputs": [
        {
          "indexed": false,
          "internalType": "address",
          "name": "preCrimeAddress",
          "type": "address"
        }
      ],
      "name": "PreCrimeSet",
      "type": "event"
    },
    {
      "anonymous": false,
      "inputs": [
        {
          "indexed": true,
          "internalType": "address",
          "name": "from",
          "type": "address"
        },
        {
          "indexed": true,
          "internalType": "address",
          "name": "to",
          "type": "address"
        },
        {
          "indexed": false,
          "internalType": "uint256",
          "name": "value",
          "type": "uint256"
        }
      ],
      "name": "Transfer",
      "type": "event"
    },
    {
      "inputs": [],
      "name": "CLOCK_MODE",
      "outputs": [
        {
          "internalType": "string",
          "name": "",
          "type": "string"
        }
      ],
      "stateMutability": "view",
      "type": "function"
    },
    {
      "inputs": [],
      "name": "DOMAIN_SEPARATOR",
      "outputs": [
        {
          "internalType": "bytes32",
          "name": "",
          "type": "bytes32"
        }
      ],
      "stateMutability": "view",
      "type": "function"
    },
    {
      "inputs": [],
      "name": "SEND",
      "outputs": [
        {
          "internalType": "uint16",
          "name": "",
          "type": "uint16"
        }
      ],
      "stateMutability": "view",
      "type": "function"
    },
    {
      "inputs": [],
      "name": "SEND_AND_CALL",
      "outputs": [
        {
          "internalType": "uint16",
          "name": "",
          "type": "uint16"
        }
      ],
      "stateMutability": "view",
      "type": "function"
    },
    {
      "inputs": [
        {
          "components": [
            {
              "internalType": "uint32",
              "name": "srcEid",
              "type": "uint32"
            },
            {
              "internalType": "bytes32",
              "name": "sender",
              "type": "bytes32"
            },
            {
              "internalType": "uint64",
              "name": "nonce",
              "type": "uint64"
            }
          ],
          "internalType": "struct Origin",
          "name": "origin",
          "type": "tuple"
        }
      ],
      "name": "allowInitializePath",
      "outputs": [
        {
          "internalType": "bool",
          "name": "",
          "type": "bool"
        }
      ],
      "stateMutability": "view",
      "type": "function"
    },
    {
      "inputs": [
        {
          "internalType": "address",
          "name": "owner",
          "type": "address"
        },
        {
          "internalType": "address",
          "name": "spender",
          "type": "address"
        }
      ],
      "name": "allowance",
      "outputs": [
        {
          "internalType": "uint256",
          "name": "",
          "type": "uint256"
        }
      ],
      "stateMutability": "view",
      "type": "function"
    },
    {
      "inputs": [],
      "name": "approvalRequired",
      "outputs": [
        {
          "internalType": "bool",
          "name": "",
          "type": "bool"
        }
      ],
      "stateMutability": "pure",
      "type": "function"
    },
    {
      "inputs": [
        {
          "internalType": "address",
          "name": "_spender",
          "type": "address"
        },
        {
          "internalType": "uint256",
          "name": "_value",
          "type": "uint256"
        }
      ],
      "name": "approve",
      "outputs": [
        {
          "internalType": "bool",
          "name": "",
          "type": "bool"
        }
      ],
      "stateMutability": "nonpayable",
      "type": "function"
    },
    {
      "inputs": [
        {
          "internalType": "address",
          "name": "account",
          "type": "address"
        }
      ],
      "name": "balanceOf",
      "outputs": [
        {
          "internalType": "uint256",
          "name": "",
          "type": "uint256"
        }
      ],
      "stateMutability": "view",
      "type": "function"
    },
    {
      "inputs": [
        {
          "internalType": "uint256",
          "name": "amount",
          "type": "uint256"
        }
      ],
      "name": "burn",
      "outputs": [],
      "stateMutability": "nonpayable",
      "type": "function"
    },
    {
      "inputs": [
        {
          "internalType": "address",
          "name": "account",
          "type": "address"
        },
        {
          "internalType": "uint32",
          "name": "pos",
          "type": "uint32"
        }
      ],
      "name": "checkpoints",
      "outputs": [
        {
          "components": [
            {
              "internalType": "uint32",
              "name": "fromBlock",
              "type": "uint32"
            },
            {
              "internalType": "uint224",
              "name": "votes",
              "type": "uint224"
            }
          ],
          "internalType": "struct ERC20Votes.Checkpoint",
          "name": "",
          "type": "tuple"
        }
      ],
      "stateMutability": "view",
      "type": "function"
    },
    {
      "inputs": [],
      "name": "clock",
      "outputs": [
        {
          "internalType": "uint48",
          "name": "",
          "type": "uint48"
        }
      ],
      "stateMutability": "view",
      "type": "function"
    },
    {
      "inputs": [
        {
          "internalType": "uint32",
          "name": "_eid",
          "type": "uint32"
        },
        {
          "internalType": "uint16",
          "name": "_msgType",
          "type": "uint16"
        },
        {
          "internalType": "bytes",
          "name": "_extraOptions",
          "type": "bytes"
        }
      ],
      "name": "combineOptions",
      "outputs": [
        {
          "internalType": "bytes",
          "name": "",
          "type": "bytes"
        }
      ],
      "stateMutability": "view",
      "type": "function"
    },
    {
      "inputs": [],
      "name": "decimalConversionRate",
      "outputs": [
        {
          "internalType": "uint256",
          "name": "",
          "type": "uint256"
        }
      ],
      "stateMutability": "view",
      "type": "function"
    },
    {
      "inputs": [],
      "name": "decimals",
      "outputs": [
        {
          "internalType": "uint8",
          "name": "",
          "type": "uint8"
        }
      ],
      "stateMutability": "view",
      "type": "function"
    },
    {
      "inputs": [
        {
          "internalType": "address",
          "name": "spender",
          "type": "address"
        },
        {
          "internalType": "uint256",
          "name": "subtractedValue",
          "type": "uint256"
        }
      ],
      "name": "decreaseAllowance",
      "outputs": [
        {
          "internalType": "bool",
          "name": "",
          "type": "bool"
        }
      ],
      "stateMutability": "nonpayable",
      "type": "function"
    },
    {
      "inputs": [
        {
          "internalType": "address",
          "name": "delegatee",
          "type": "address"
        }
      ],
      "name": "delegate",
      "outputs": [],
      "stateMutability": "nonpayable",
      "type": "function"
    },
    {
      "inputs": [
        {
          "internalType": "address",
          "name": "delegatee",
          "type": "address"
        },
        {
          "internalType": "uint256",
          "name": "nonce",
          "type": "uint256"
        },
        {
          "internalType": "uint256",
          "name": "expiry",
          "type": "uint256"
        },
        {
          "internalType": "uint8",
          "name": "v",
          "type": "uint8"
        },
        {
          "internalType": "bytes32",
          "name": "r",
          "type": "bytes32"
        },
        {
          "internalType": "bytes32",
          "name": "s",
          "type": "bytes32"
        }
      ],
      "name": "delegateBySig",
      "outputs": [],
      "stateMutability": "nonpayable",
      "type": "function"
    },
    {
      "inputs": [
        {
          "internalType": "address",
          "name": "account",
          "type": "address"
        }
      ],
      "name": "delegates",
      "outputs": [
        {
          "internalType": "address",
          "name": "",
          "type": "address"
        }
      ],
      "stateMutability": "view",
      "type": "function"
    },
    {
      "inputs": [],
      "name": "eip712Domain",
      "outputs": [
        {
          "internalType": "bytes1",
          "name": "fields",
          "type": "bytes1"
        },
        {
          "internalType": "string",
          "name": "name",
          "type": "string"
        },
        {
          "internalType": "string",
          "name": "version",
          "type": "string"
        },
        {
          "internalType": "uint256",
          "name": "chainId",
          "type": "uint256"
        },
        {
          "internalType": "address",
          "name": "verifyingContract",
          "type": "address"
        },
        {
          "internalType": "bytes32",
          "name": "salt",
          "type": "bytes32"
        },
        {
          "internalType": "uint256[]",
          "name": "extensions",
          "type": "uint256[]"
        }
      ],
      "stateMutability": "view",
      "type": "function"
    },
    {
      "inputs": [],
      "name": "endpoint",
      "outputs": [
        {
          "internalType": "contract ILayerZeroEndpointV2",
          "name": "",
          "type": "address"
        }
      ],
      "stateMutability": "view",
      "type": "function"
    },
    {
      "inputs": [
        {
          "internalType": "uint32",
          "name": "eid",
          "type": "uint32"
        },
        {
          "internalType": "uint16",
          "name": "msgType",
          "type": "uint16"
        }
      ],
      "name": "enforcedOptions",
      "outputs": [
        {
          "internalType": "bytes",
          "name": "enforcedOption",
          "type": "bytes"
        }
      ],
      "stateMutability": "view",
      "type": "function"
    },
    {
      "inputs": [
        {
          "internalType": "uint256",
          "name": "timepoint",
          "type": "uint256"
        }
      ],
      "name": "getPastTotalSupply",
      "outputs": [
        {
          "internalType": "uint256",
          "name": "",
          "type": "uint256"
        }
      ],
      "stateMutability": "view",
      "type": "function"
    },
    {
      "inputs": [
        {
          "internalType": "address",
          "name": "account",
          "type": "address"
        },
        {
          "internalType": "uint256",
          "name": "timepoint",
          "type": "uint256"
        }
      ],
      "name": "getPastVotes",
      "outputs": [
        {
          "internalType": "uint256",
          "name": "",
          "type": "uint256"
        }
      ],
      "stateMutability": "view",
      "type": "function"
    },
    {
      "inputs": [
        {
          "internalType": "address",
          "name": "account",
          "type": "address"
        }
      ],
      "name": "getVotes",
      "outputs": [
        {
          "internalType": "uint256",
          "name": "",
          "type": "uint256"
        }
      ],
      "stateMutability": "view",
      "type": "function"
    },
    {
      "inputs": [
        {
          "internalType": "address",
          "name": "spender",
          "type": "address"
        },
        {
          "internalType": "uint256",
          "name": "addedValue",
          "type": "uint256"
        }
      ],
      "name": "increaseAllowance",
      "outputs": [
        {
          "internalType": "bool",
          "name": "",
          "type": "bool"
        }
      ],
      "stateMutability": "nonpayable",
      "type": "function"
    },
    {
      "inputs": [
        {
          "components": [
            {
              "internalType": "uint32",
              "name": "srcEid",
              "type": "uint32"
            },
            {
              "internalType": "bytes32",
              "name": "sender",
              "type": "bytes32"
            },
            {
              "internalType": "uint64",
              "name": "nonce",
              "type": "uint64"
            }
          ],
          "internalType": "struct Origin",
          "name": "",
          "type": "tuple"
        },
        {
          "internalType": "bytes",
          "name": "",
          "type": "bytes"
        },
        {
          "internalType": "address",
          "name": "_sender",
          "type": "address"
        }
      ],
      "name": "isComposeMsgSender",
      "outputs": [
        {
          "internalType": "bool",
          "name": "",
          "type": "bool"
        }
      ],
      "stateMutability": "view",
      "type": "function"
    },
    {
      "inputs": [
        {
          "internalType": "uint32",
          "name": "_eid",
          "type": "uint32"
        },
        {
          "internalType": "bytes32",
          "name": "_peer",
          "type": "bytes32"
        }
      ],
      "name": "isPeer",
      "outputs": [
        {
          "internalType": "bool",
          "name": "",
          "type": "bool"
        }
      ],
      "stateMutability": "view",
      "type": "function"
    },
    {
      "inputs": [
        {
          "components": [
            {
              "internalType": "uint32",
              "name": "srcEid",
              "type": "uint32"
            },
            {
              "internalType": "bytes32",
              "name": "sender",
              "type": "bytes32"
            },
            {
              "internalType": "uint64",
              "name": "nonce",
              "type": "uint64"
            }
          ],
          "internalType": "struct Origin",
          "name": "_origin",
          "type": "tuple"
        },
        {
          "internalType": "bytes32",
          "name": "_guid",
          "type": "bytes32"
        },
        {
          "internalType": "bytes",
          "name": "_message",
          "type": "bytes"
        },
        {
          "internalType": "address",
          "name": "_executor",
          "type": "address"
        },
        {
          "internalType": "bytes",
          "name": "_extraData",
          "type": "bytes"
        }
      ],
      "name": "lzReceive",
      "outputs": [],
      "stateMutability": "payable",
      "type": "function"
    },
    {
      "inputs": [
        {
          "components": [
            {
              "components": [
                {
                  "internalType": "uint32",
                  "name": "srcEid",
                  "type": "uint32"
                },
                {
                  "internalType": "bytes32",
                  "name": "sender",
                  "type": "bytes32"
                },
                {
                  "internalType": "uint64",
                  "name": "nonce",
                  "type": "uint64"
                }
              ],
              "internalType": "struct Origin",
              "name": "origin",
              "type": "tuple"
            },
            {
              "internalType": "uint32",
              "name": "dstEid",
              "type": "uint32"
            },
            {
              "internalType": "address",
              "name": "receiver",
              "type": "address"
            },
            {
              "internalType": "bytes32",
              "name": "guid",
              "type": "bytes32"
            },
            {
              "internalType": "uint256",
              "name": "value",
              "type": "uint256"
            },
            {
              "internalType": "address",
              "name": "executor",
              "type": "address"
            },
            {
              "internalType": "bytes",
              "name": "message",
              "type": "bytes"
            },
            {
              "internalType": "bytes",
              "name": "extraData",
              "type": "bytes"
            }
          ],
          "internalType": "struct InboundPacket[]",
          "name": "_packets",
          "type": "tuple[]"
        }
      ],
      "name": "lzReceiveAndRevert",
      "outputs": [],
      "stateMutability": "payable",
      "type": "function"
    },
    {
      "inputs": [
        {
          "components": [
            {
              "internalType": "uint32",
              "name": "srcEid",
              "type": "uint32"
            },
            {
              "internalType": "bytes32",
              "name": "sender",
              "type": "bytes32"
            },
            {
              "internalType": "uint64",
              "name": "nonce",
              "type": "uint64"
            }
          ],
          "internalType": "struct Origin",
          "name": "_origin",
          "type": "tuple"
        },
        {
          "internalType": "bytes32",
          "name": "_guid",
          "type": "bytes32"
        },
        {
          "internalType": "bytes",
          "name": "_message",
          "type": "bytes"
        },
        {
          "internalType": "address",
          "name": "_executor",
          "type": "address"
        },
        {
          "internalType": "bytes",
          "name": "_extraData",
          "type": "bytes"
        }
      ],
      "name": "lzReceiveSimulate",
      "outputs": [],
      "stateMutability": "payable",
      "type": "function"
    },
    {
      "inputs": [],
      "name": "msgInspector",
      "outputs": [
        {
          "internalType": "address",
          "name": "",
          "type": "address"
        }
      ],
      "stateMutability": "view",
      "type": "function"
    },
    {
      "inputs": [],
      "name": "name",
      "outputs": [
        {
          "internalType": "string",
          "name": "",
          "type": "string"
        }
      ],
      "stateMutability": "view",
      "type": "function"
    },
    {
      "inputs": [
        {
          "internalType": "uint32",
          "name": "",
          "type": "uint32"
        },
        {
          "internalType": "bytes32",
          "name": "",
          "type": "bytes32"
        }
      ],
      "name": "nextNonce",
      "outputs": [
        {
          "internalType": "uint64",
          "name": "nonce",
          "type": "uint64"
        }
      ],
      "stateMutability": "view",
      "type": "function"
    },
    {
      "inputs": [
        {
          "internalType": "address",
          "name": "owner",
          "type": "address"
        }
      ],
      "name": "nonces",
      "outputs": [
        {
          "internalType": "uint256",
          "name": "",
          "type": "uint256"
        }
      ],
      "stateMutability": "view",
      "type": "function"
    },
    {
      "inputs": [
        {
          "internalType": "address",
          "name": "account",
          "type": "address"
        }
      ],
      "name": "numCheckpoints",
      "outputs": [
        {
          "internalType": "uint32",
          "name": "",
          "type": "uint32"
        }
      ],
      "stateMutability": "view",
      "type": "function"
    },
    {
      "inputs": [],
      "name": "oApp",
      "outputs": [
        {
          "internalType": "address",
          "name": "",
          "type": "address"
        }
      ],
      "stateMutability": "view",
      "type": "function"
    },
    {
      "inputs": [],
      "name": "oAppVersion",
      "outputs": [
        {
          "internalType": "uint64",
          "name": "senderVersion",
          "type": "uint64"
        },
        {
          "internalType": "uint64",
          "name": "receiverVersion",
          "type": "uint64"
        }
      ],
      "stateMutability": "pure",
      "type": "function"
    },
    {
      "inputs": [],
      "name": "oftVersion",
      "outputs": [
        {
          "internalType": "bytes4",
          "name": "interfaceId",
          "type": "bytes4"
        },
        {
          "internalType": "uint64",
          "name": "version",
          "type": "uint64"
        }
      ],
      "stateMutability": "pure",
      "type": "function"
    },
    {
      "inputs": [],
      "name": "owner",
      "outputs": [
        {
          "internalType": "address",
          "name": "",
          "type": "address"
        }
      ],
      "stateMutability": "view",
      "type": "function"
    },
    {
      "inputs": [
        {
          "internalType": "uint32",
          "name": "eid",
          "type": "uint32"
        }
      ],
      "name": "peers",
      "outputs": [
        {
          "internalType": "bytes32",
          "name": "peer",
          "type": "bytes32"
        }
      ],
      "stateMutability": "view",
      "type": "function"
    },
    {
      "inputs": [
        {
          "internalType": "address",
          "name": "owner",
          "type": "address"
        },
        {
          "internalType": "address",
          "name": "spender",
          "type": "address"
        },
        {
          "internalType": "uint256",
          "name": "value",
          "type": "uint256"
        },
        {
          "internalType": "uint256",
          "name": "deadline",
          "type": "uint256"
        },
        {
          "internalType": "uint8",
          "name": "v",
          "type": "uint8"
        },
        {
          "internalType": "bytes32",
          "name": "r",
          "type": "bytes32"
        },
        {
          "internalType": "bytes32",
          "name": "s",
          "type": "bytes32"
        }
      ],
      "name": "permit",
      "outputs": [],
      "stateMutability": "nonpayable",
      "type": "function"
    },
    {
      "inputs": [],
      "name": "preCrime",
      "outputs": [
        {
          "internalType": "address",
          "name": "",
          "type": "address"
        }
      ],
      "stateMutability": "view",
      "type": "function"
    },
    {
      "inputs": [
        {
          "components": [
            {
              "internalType": "uint32",
              "name": "dstEid",
              "type": "uint32"
            },
            {
              "internalType": "bytes32",
              "name": "to",
              "type": "bytes32"
            },
            {
              "internalType": "uint256",
              "name": "amountLD",
              "type": "uint256"
            },
            {
              "internalType": "uint256",
              "name": "minAmountLD",
              "type": "uint256"
            },
            {
              "internalType": "bytes",
              "name": "extraOptions",
              "type": "bytes"
            },
            {
              "internalType": "bytes",
              "name": "composeMsg",
              "type": "bytes"
            },
            {
              "internalType": "bytes",
              "name": "oftCmd",
              "type": "bytes"
            }
          ],
          "internalType": "struct SendParam",
          "name": "_sendParam",
          "type": "tuple"
        }
      ],
      "name": "quoteOFT",
      "outputs": [
        {
          "components": [
            {
              "internalType": "uint256",
              "name": "minAmountLD",
              "type": "uint256"
            },
            {
              "internalType": "uint256",
              "name": "maxAmountLD",
              "type": "uint256"
            }
          ],
          "internalType": "struct OFTLimit",
          "name": "oftLimit",
          "type": "tuple"
        },
        {
          "components": [
            {
              "internalType": "int256",
              "name": "feeAmountLD",
              "type": "int256"
            },
            {
              "internalType": "string",
              "name": "description",
              "type": "string"
            }
          ],
          "internalType": "struct OFTFeeDetail[]",
          "name": "oftFeeDetails",
          "type": "tuple[]"
        },
        {
          "components": [
            {
              "internalType": "uint256",
              "name": "amountSentLD",
              "type": "uint256"
            },
            {
              "internalType": "uint256",
              "name": "amountReceivedLD",
              "type": "uint256"
            }
          ],
          "internalType": "struct OFTReceipt",
          "name": "oftReceipt",
          "type": "tuple"
        }
      ],
      "stateMutability": "view",
      "type": "function"
    },
    {
      "inputs": [
        {
          "components": [
            {
              "internalType": "uint32",
              "name": "dstEid",
              "type": "uint32"
            },
            {
              "internalType": "bytes32",
              "name": "to",
              "type": "bytes32"
            },
            {
              "internalType": "uint256",
              "name": "amountLD",
              "type": "uint256"
            },
            {
              "internalType": "uint256",
              "name": "minAmountLD",
              "type": "uint256"
            },
            {
              "internalType": "bytes",
              "name": "extraOptions",
              "type": "bytes"
            },
            {
              "internalType": "bytes",
              "name": "composeMsg",
              "type": "bytes"
            },
            {
              "internalType": "bytes",
              "name": "oftCmd",
              "type": "bytes"
            }
          ],
          "internalType": "struct SendParam",
          "name": "_sendParam",
          "type": "tuple"
        },
        {
          "internalType": "bool",
          "name": "_payInLzToken",
          "type": "bool"
        }
      ],
      "name": "quoteSend",
      "outputs": [
        {
          "components": [
            {
              "internalType": "uint256",
              "name": "nativeFee",
              "type": "uint256"
            },
            {
              "internalType": "uint256",
              "name": "lzTokenFee",
              "type": "uint256"
            }
          ],
          "internalType": "struct MessagingFee",
          "name": "msgFee",
          "type": "tuple"
        }
      ],
      "stateMutability": "view",
      "type": "function"
    },
    {
      "inputs": [],
      "name": "renounceOwnership",
      "outputs": [],
      "stateMutability": "nonpayable",
      "type": "function"
    },
    {
      "inputs": [
        {
          "components": [
            {
              "internalType": "uint32",
              "name": "dstEid",
              "type": "uint32"
            },
            {
              "internalType": "bytes32",
              "name": "to",
              "type": "bytes32"
            },
            {
              "internalType": "uint256",
              "name": "amountLD",
              "type": "uint256"
            },
            {
              "internalType": "uint256",
              "name": "minAmountLD",
              "type": "uint256"
            },
            {
              "internalType": "bytes",
              "name": "extraOptions",
              "type": "bytes"
            },
            {
              "internalType": "bytes",
              "name": "composeMsg",
              "type": "bytes"
            },
            {
              "internalType": "bytes",
              "name": "oftCmd",
              "type": "bytes"
            }
          ],
          "internalType": "struct SendParam",
          "name": "_sendParam",
          "type": "tuple"
        },
        {
          "components": [
            {
              "internalType": "uint256",
              "name": "nativeFee",
              "type": "uint256"
            },
            {
              "internalType": "uint256",
              "name": "lzTokenFee",
              "type": "uint256"
            }
          ],
          "internalType": "struct MessagingFee",
          "name": "_fee",
          "type": "tuple"
        },
        {
          "internalType": "address",
          "name": "_refundAddress",
          "type": "address"
        }
      ],
      "name": "send",
      "outputs": [
        {
          "components": [
            {
              "internalType": "bytes32",
              "name": "guid",
              "type": "bytes32"
            },
            {
              "internalType": "uint64",
              "name": "nonce",
              "type": "uint64"
            },
            {
              "components": [
                {
                  "internalType": "uint256",
                  "name": "nativeFee",
                  "type": "uint256"
                },
                {
                  "internalType": "uint256",
                  "name": "lzTokenFee",
                  "type": "uint256"
                }
              ],
              "internalType": "struct MessagingFee",
              "name": "fee",
              "type": "tuple"
            }
          ],
          "internalType": "struct MessagingReceipt",
          "name": "msgReceipt",
          "type": "tuple"
        },
        {
          "components": [
            {
              "internalType": "uint256",
              "name": "amountSentLD",
              "type": "uint256"
            },
            {
              "internalType": "uint256",
              "name": "amountReceivedLD",
              "type": "uint256"
            }
          ],
          "internalType": "struct OFTReceipt",
          "name": "oftReceipt",
          "type": "tuple"
        }
      ],
      "stateMutability": "payable",
      "type": "function"
    },
    {
      "inputs": [
        {
          "internalType": "address",
          "name": "_delegate",
          "type": "address"
        }
      ],
      "name": "setDelegate",
      "outputs": [],
      "stateMutability": "nonpayable",
      "type": "function"
    },
    {
      "inputs": [
        {
          "components": [
            {
              "internalType": "uint32",
              "name": "eid",
              "type": "uint32"
            },
            {
              "internalType": "uint16",
              "name": "msgType",
              "type": "uint16"
            },
            {
              "internalType": "bytes",
              "name": "options",
              "type": "bytes"
            }
          ],
          "internalType": "struct EnforcedOptionParam[]",
          "name": "_enforcedOptions",
          "type": "tuple[]"
        }
      ],
      "name": "setEnforcedOptions",
      "outputs": [],
      "stateMutability": "nonpayable",
      "type": "function"
    },
    {
      "inputs": [
        {
          "internalType": "address",
          "name": "_msgInspector",
          "type": "address"
        }
      ],
      "name": "setMsgInspector",
      "outputs": [],
      "stateMutability": "nonpayable",
      "type": "function"
    },
    {
      "inputs": [
        {
          "internalType": "uint32",
          "name": "_eid",
          "type": "uint32"
        },
        {
          "internalType": "bytes32",
          "name": "_peer",
          "type": "bytes32"
        }
      ],
      "name": "setPeer",
      "outputs": [],
      "stateMutability": "nonpayable",
      "type": "function"
    },
    {
      "inputs": [
        {
          "internalType": "address",
          "name": "_preCrime",
          "type": "address"
        }
      ],
      "name": "setPreCrime",
      "outputs": [],
      "stateMutability": "nonpayable",
      "type": "function"
    },
    {
      "inputs": [],
      "name": "sharedDecimals",
      "outputs": [
        {
          "internalType": "uint8",
          "name": "",
          "type": "uint8"
        }
      ],
      "stateMutability": "view",
      "type": "function"
    },
    {
      "inputs": [],
      "name": "symbol",
      "outputs": [
        {
          "internalType": "string",
          "name": "",
          "type": "string"
        }
      ],
      "stateMutability": "view",
      "type": "function"
    },
    {
      "inputs": [],
      "name": "token",
      "outputs": [
        {
          "internalType": "address",
          "name": "",
          "type": "address"
        }
      ],
      "stateMutability": "view",
      "type": "function"
    },
    {
      "inputs": [],
      "name": "totalSupply",
      "outputs": [
        {
          "internalType": "uint256",
          "name": "",
          "type": "uint256"
        }
      ],
      "stateMutability": "view",
      "type": "function"
    },
    {
      "inputs": [
        {
          "internalType": "address",
          "name": "_to",
          "type": "address"
        },
        {
          "internalType": "uint256",
          "name": "_value",
          "type": "uint256"
        }
      ],
      "name": "transfer",
      "outputs": [
        {
          "internalType": "bool",
          "name": "",
          "type": "bool"
        }
      ],
      "stateMutability": "nonpayable",
      "type": "function"
    },
    {
      "inputs": [
        {
          "internalType": "address",
          "name": "_from",
          "type": "address"
        },
        {
          "internalType": "address",
          "name": "_to",
          "type": "address"
        },
        {
          "internalType": "uint256",
          "name": "_amount",
          "type": "uint256"
        }
      ],
      "name": "transferFrom",
      "outputs": [
        {
          "internalType": "bool",
          "name": "",
          "type": "bool"
        }
      ],
      "stateMutability": "nonpayable",
      "type": "function"
    },
    {
      "inputs": [
        {
          "internalType": "address",
          "name": "newOwner",
          "type": "address"
        }
      ],
      "name": "transferOwnership",
      "outputs": [],
      "stateMutability": "nonpayable",
      "type": "function"
    }
  ],
  "transactionHash": "0x28835744ad07d56e73b5da422316eb7d4c2688cf0aba3202850fcfc9052b0eb1",
  "args": [
    "TestBASE",
    "TestBASE",
    "0x1a44076050125825900e736c501f859c50fe728c",
    "0xD16a6597fBF8939286B4dc7e11CDc14ccDDdf031",
    "0x4C58c26Ca6ca3f3F3aCB6388ed54DB3D70808178"
  ],
  "numDeployments": 1,
  "solcInputHash": "1aabc395a38e7dd52b8a294a23b7de16",
  "bytecode": "0x6101a06040523480156200001257600080fd5b50604051620057e6380380620057e683398101604081905262000035916200043f565b8480604051806040016040528060018152602001603160f81b815250878787868383620000676200027660201b60201c565b84848181818162000078336200027b565b6001600160a01b038083166080528116620000a657604051632d618d8160e21b815260040160405180910390fd5b60805160405163ca5eb5e160e01b81526001600160a01b0383811660048301529091169063ca5eb5e190602401600060405180830381600087803b158015620000ee57600080fd5b505af115801562000103573d6000803e3d6000fd5b50505050505050506200011b620002cb60201b60201c565b60ff168360ff16101562000142576040516301e9714b60e41b815260040160405180910390fd5b6200014f600684620004f7565b6200015c90600a62000610565b60a05250600891506200017290508382620006b9565b506009620001818282620006b9565b50620001999550879450600a935050620002d0915050565b61016052620001aa81600b620002d0565b61018052815160208084019190912061012052815190820120610140524660e0526200023a6101205161014051604080517f8b73c3c69bb8fe3d512ecc4cf759cc79239f7b179b0ffacaa9a75d522b39400f60208201529081019290925260608201524660808201523060a082015260009060c00160405160208183030381529060405280519060200120905090565b60c0525050306101005250601180546001600160a01b0319166001600160a01b0384161790556200026b816200027b565b5050505050620007df565b601290565b600080546001600160a01b038381166001600160a01b0319831681178455604051919092169283917f8be0079c531659141344cd1fd0a4f28419497f9722a3daafe3b4186f6b6457e09190a35050565b600690565b6000602083511015620002f057620002e88362000309565b905062000303565b81620002fd8482620006b9565b5060ff90505b92915050565b600080829050601f8151111562000340578260405163305a27a960e01b815260040162000337919062000785565b60405180910390fd5b80516200034d82620007ba565b179392505050565b634e487b7160e01b600052604160045260246000fd5b60005b83811015620003885781810151838201526020016200036e565b50506000910152565b600082601f830112620003a357600080fd5b81516001600160401b0380821115620003c057620003c062000355565b604051601f8301601f19908116603f01168101908282118183101715620003eb57620003eb62000355565b816040528381528660208588010111156200040557600080fd5b620004188460208301602089016200036b565b9695505050505050565b80516001600160a01b03811681146200043a57600080fd5b919050565b600080600080600060a086880312156200045857600080fd5b85516001600160401b03808211156200047057600080fd5b6200047e89838a0162000391565b965060208801519150808211156200049557600080fd5b50620004a48882890162000391565b945050620004b56040870162000422565b9250620004c56060870162000422565b9150620004d56080870162000422565b90509295509295909350565b634e487b7160e01b600052601160045260246000fd5b60ff8281168282160390811115620003035762000303620004e1565b600181815b8085111562000554578160001904821115620005385762000538620004e1565b808516156200054657918102915b93841c939080029062000518565b509250929050565b6000826200056d5750600162000303565b816200057c5750600062000303565b8160018114620005955760028114620005a057620005c0565b600191505062000303565b60ff841115620005b457620005b4620004e1565b50506001821b62000303565b5060208310610133831016604e8410600b8410161715620005e5575081810a62000303565b620005f1838362000513565b8060001904821115620006085762000608620004e1565b029392505050565b60006200062160ff8416836200055c565b9392505050565b600181811c908216806200063d57607f821691505b6020821081036200065e57634e487b7160e01b600052602260045260246000fd5b50919050565b601f821115620006b4576000816000526020600020601f850160051c810160208610156200068f5750805b601f850160051c820191505b81811015620006b0578281556001016200069b565b5050505b505050565b81516001600160401b03811115620006d557620006d562000355565b620006ed81620006e6845462000628565b8462000664565b602080601f8311600181146200072557600084156200070c5750858301515b600019600386901b1c1916600185901b178555620006b0565b600085815260208120601f198616915b82811015620007565788860151825594840194600190910190840162000735565b5085821015620007755787850151600019600388901b60f8161c191681555b5050505050600190811b01905550565b6020815260008251806020840152620007a68160408501602087016200036b565b601f01601f19169190910160400192915050565b805160208083015191908110156200065e5760001960209190910360031b1b16919050565b60805160a05160c05160e0516101005161012051610140516101605161018051614f506200089660003960006112aa0152600061127f015260006125c20152600061259a015260006124f50152600061251f0152600061254901526000818161090501528181612e3501528181612eaa015261308f0152600081816106fb01528181610d9901528181611abd015281816120990152818161283601528181612d59015281816134f501526135ae0152614f506000f3fe60806040526004361061038c5760003560e01c80637d25a05e116101dc578063b98bd07011610102578063d045a0dc116100a0578063f1127ed81161006f578063f1127ed814610b0f578063f2fde38b14610b59578063fc0c546a14610626578063ff7bd03d14610b7957600080fd5b8063d045a0dc14610a9c578063d424388514610aaf578063d505accf14610acf578063dd62ed3e14610aef57600080fd5b8063bd815db0116100dc578063bd815db014610a28578063c3cda52014610a3b578063c7c7f5b314610a5b578063ca5eb5e114610a7c57600080fd5b8063b98bd070146109bb578063bb0b6a53146109db578063bc70b35414610a0857600080fd5b806391ddadf41161017a5780639f68b964116101495780639f68b96414610947578063a457c2d71461095b578063a9059cbb1461097b578063b731ea0a1461099b57600080fd5b806391ddadf4146108b257806395d89b41146108de578063963efcaa146108f35780639ab24eb01461092757600080fd5b806384b0196e116101b657806384b0196e14610838578063857749b0146108605780638da5cb5b146108745780638e539e8c1461089257600080fd5b80637d25a05e146107bd5780637ecebe00146107f857806382413eac1461081857600080fd5b806339509351116102c1578063587cde1e1161025f5780636fc1b31e1161022e5780636fc1b31e1461071d5780636fcfff451461073d57806370a0823114610772578063715018a6146107a857600080fd5b8063587cde1e146106595780635a0dfe4d146106925780635c19a95c146106c95780635e280f11146106e957600080fd5b806342966c681161029b57806342966c68146105f15780634bf5d7e91461061157806352ae2879146106265780635535d4611461063957600080fd5b806339509351146105845780633a46b1a8146105a45780633b6f743b146105c457600080fd5b806317442b701161032e57806323b872dd1161030857806323b872dd1461050d578063313ce5671461052d5780633400288b1461054f5780633644e5151461056f57600080fd5b806317442b70146104b757806318160ddd146104d95780631f5e1334146104f857600080fd5b8063111ecdad1161036a578063111ecdad1461041b57806313137d6514610453578063134d4f2514610468578063156a0d0f1461049057600080fd5b806306fdde0314610391578063095ea7b3146103bc5780630d35b415146103ec575b600080fd5b34801561039d57600080fd5b506103a6610b99565b6040516103b39190613e32565b60405180910390f35b3480156103c857600080fd5b506103dc6103d7366004613e5a565b610c2b565b60405190151581526020016103b3565b3480156103f857600080fd5b5061040c610407366004613e98565b610cc6565b6040516103b393929190613ecc565b34801561042757600080fd5b5060045461043b906001600160a01b031681565b6040516001600160a01b0390911681526020016103b3565b610466610461366004613fbf565b610d97565b005b34801561047457600080fd5b5061047d600281565b60405161ffff90911681526020016103b3565b34801561049c57600080fd5b506040805162b9270b60e21b815260016020820152016103b3565b3480156104c357600080fd5b50604080516001815260026020820152016103b3565b3480156104e557600080fd5b506007545b6040519081526020016103b3565b34801561050457600080fd5b5061047d600181565b34801561051957600080fd5b506103dc61052836600461405e565b610e57565b34801561053957600080fd5b5060125b60405160ff90911681526020016103b3565b34801561055b57600080fd5b5061046661056a3660046140b8565b610f21565b34801561057b57600080fd5b506104ea610f37565b34801561059057600080fd5b506103dc61059f366004613e5a565b610f46565b3480156105b057600080fd5b506104ea6105bf366004613e5a565b610f72565b3480156105d057600080fd5b506105e46105df3660046140e2565b610ff0565b6040516103b39190614133565b3480156105fd57600080fd5b5061046661060c36600461414a565b611057565b34801561061d57600080fd5b506103a6611064565b34801561063257600080fd5b503061043b565b34801561064557600080fd5b506103a6610654366004614175565b6110fc565b34801561066557600080fd5b5061043b6106743660046141a8565b6001600160a01b039081166000908152600e60205260409020541690565b34801561069e57600080fd5b506103dc6106ad3660046140b8565b63ffffffff919091166000908152600160205260409020541490565b3480156106d557600080fd5b506104666106e43660046141a8565b6111a1565b3480156106f557600080fd5b5061043b7f000000000000000000000000000000000000000000000000000000000000000081565b34801561072957600080fd5b506104666107383660046141a8565b6111ab565b34801561074957600080fd5b5061075d6107583660046141a8565b611208565b60405163ffffffff90911681526020016103b3565b34801561077e57600080fd5b506104ea61078d3660046141a8565b6001600160a01b031660009081526005602052604090205490565b3480156107b457600080fd5b5061046661122a565b3480156107c957600080fd5b506107e06107d83660046140b8565b600092915050565b6040516001600160401b0390911681526020016103b3565b34801561080457600080fd5b506104ea6108133660046141a8565b61123e565b34801561082457600080fd5b506103dc6108333660046141c5565b61125c565b34801561084457600080fd5b5061084d611271565b6040516103b3979695949392919061422b565b34801561086c57600080fd5b50600661053d565b34801561088057600080fd5b506000546001600160a01b031661043b565b34801561089e57600080fd5b506104ea6108ad36600461414a565b6112fa565b3480156108be57600080fd5b506108c7611361565b60405165ffffffffffff90911681526020016103b3565b3480156108ea57600080fd5b506103a661136c565b3480156108ff57600080fd5b506104ea7f000000000000000000000000000000000000000000000000000000000000000081565b34801561093357600080fd5b506104ea6109423660046141a8565b61137b565b34801561095357600080fd5b5060006103dc565b34801561096757600080fd5b506103dc610976366004613e5a565b6113fd565b34801561098757600080fd5b506103dc610996366004613e5a565b611483565b3480156109a757600080fd5b5060025461043b906001600160a01b031681565b3480156109c757600080fd5b506104666109d6366004614308565b611522565b3480156109e757600080fd5b506104ea6109f6366004614349565b60016020526000908152604090205481565b348015610a1457600080fd5b506103a6610a23366004614364565b61153c565b610466610a36366004614308565b6116e4565b348015610a4757600080fd5b50610466610a563660046143d5565b61186e565b610a6e610a6936600461442f565b61199b565b6040516103b392919061449c565b348015610a8857600080fd5b50610466610a973660046141a8565b611a96565b610466610aaa366004613fbf565b611b1c565b348015610abb57600080fd5b50610466610aca3660046141a8565b611b4b565b348015610adb57600080fd5b50610466610aea3660046144ee565b611ba1565b348015610afb57600080fd5b506104ea610b0a36600461455c565b611d05565b348015610b1b57600080fd5b50610b2f610b2a36600461458a565b611d30565b60408051825163ffffffff1681526020928301516001600160e01b031692810192909252016103b3565b348015610b6557600080fd5b50610466610b743660046141a8565b611db4565b348015610b8557600080fd5b506103dc610b943660046145b6565b611e2a565b606060088054610ba8906145d2565b80601f0160208091040260200160405190810160405280929190818152602001828054610bd4906145d2565b8015610c215780601f10610bf657610100808354040283529160200191610c21565b820191906000526020600020905b815481529060010190602001808311610c0457829003601f168201915b5050505050905090565b6011546000906001600160a01b031663d2b70779336040516001600160e01b031960e084901b1681526001600160a01b0391821660048201529086166024820152604401602060405180830381865afa158015610c8c573d6000803e3d6000fd5b505050506040513d601f19601f82011682018060405250810190610cb09190614606565b50610cbc338484611e60565b5060015b92915050565b60408051808201909152600080825260208201526060610cf9604051806040016040528060008152602001600081525090565b60408051808201825260008082526001600160401b03602080840182905284518381529081019094529195509182610d54565b604080518082019091526000815260606020820152815260200190600190039081610d2c5790505b509350600080610d79604089013560608a0135610d7460208c018c614349565b611f84565b60408051808201909152918252602082015296989597505050505050565b7f00000000000000000000000000000000000000000000000000000000000000006001600160a01b03163314610de7576040516391ac5e4f60e01b81523360048201526024015b60405180910390fd5b60208701803590610e0190610dfc908a614349565b611fc8565b14610e3f57610e136020880188614349565b60405163309afaf360e21b815263ffffffff909116600482015260208801356024820152604401610dde565b610e4e87878787878787612004565b50505050505050565b600080336011546040516393fc9e5f60e01b81526001600160a01b038881166004830152878116602483015280841660448301529293509116906393fc9e5f90606401602060405180830381865afa158015610eb7573d6000803e3d6000fd5b505050506040513d601f19601f82011682018060405250810190610edb9190614606565b50806001600160a01b0316856001600160a01b031614610f0057610f0085828561216b565b610f148585610f0f88876121e5565b612288565b60019150505b9392505050565b610f29612439565b610f338282612493565b5050565b6000610f416124e8565b905090565b600033610f68818585610f598383611d05565b610f63919061464f565b611e60565b5060019392505050565b6000610f7c611361565b65ffffffffffff168210610fce5760405162461bcd60e51b815260206004820152601960248201527804552433230566f7465733a20667574757265206c6f6f6b757603c1b6044820152606401610dde565b6001600160a01b0383166000908152600f60205260409020610f1a9083612613565b6040805180820190915260008082526020820152600061102060408501356060860135610d746020880188614349565b91505060008061103086846126fc565b909250905061104d6110456020880188614349565b838388612820565b9695505050505050565b6110613382612901565b50565b60604361106f611361565b65ffffffffffff16146110c45760405162461bcd60e51b815260206004820152601d60248201527f4552433230566f7465733a2062726f6b656e20636c6f636b206d6f64650000006044820152606401610dde565b5060408051808201909152601d81527f6d6f64653d626c6f636b6e756d6265722666726f6d3d64656661756c74000000602082015290565b600360209081526000928352604080842090915290825290208054611120906145d2565b80601f016020809104026020016040519081016040528092919081815260200182805461114c906145d2565b80156111995780601f1061116e57610100808354040283529160200191611199565b820191906000526020600020905b81548152906001019060200180831161117c57829003601f168201915b505050505081565b611061338261290b565b6111b3612439565b600480546001600160a01b0319166001600160a01b0383169081179091556040519081527ff0be4f1e87349231d80c36b33f9e8639658eeaf474014dee15a3e6a4d4414197906020015b60405180910390a150565b6001600160a01b0381166000908152600f6020526040812054610cc090612985565b611232612439565b61123c60006129ee565b565b6001600160a01b0381166000908152600c6020526040812054610cc0565b6001600160a01b03811630145b949350505050565b6000606080828080836112a57f0000000000000000000000000000000000000000000000000000000000000000600a612a3e565b6112d07f0000000000000000000000000000000000000000000000000000000000000000600b612a3e565b60408051600080825260208201909252600f60f81b9b939a50919850469750309650945092509050565b6000611304611361565b65ffffffffffff1682106113565760405162461bcd60e51b815260206004820152601960248201527804552433230566f7465733a20667574757265206c6f6f6b757603c1b6044820152606401610dde565b610cc0601083612613565b6000610f4143612ae9565b606060098054610ba8906145d2565b6001600160a01b0381166000908152600f602052604081205480156113ea576001600160a01b0383166000908152600f60205260409020805460001983019081106113c8576113c8614662565b60009182526020909120015464010000000090046001600160e01b03166113ed565b60005b6001600160e01b03169392505050565b6000338161140b8286611d05565b90508381101561146b5760405162461bcd60e51b815260206004820152602560248201527f45524332303a2064656372656173656420616c6c6f77616e63652062656c6f77604482015264207a65726f60d81b6064820152608401610dde565b6114788286868403611e60565b506001949350505050565b6011546000906001600160a01b03166393fc9e5f33853360405160e085901b6001600160e01b03191681526001600160a01b03938416600482015291831660248301529091166044820152606401602060405180830381865afa1580156114ee573d6000803e3d6000fd5b505050506040513d601f19601f820116820180604052508101906115129190614606565b50610cbc3384610f0f33866121e5565b61152a612439565b610f336115378284614719565b612b50565b63ffffffff8416600090815260036020908152604080832061ffff87168452909152812080546060929190611570906145d2565b80601f016020809104026020016040519081016040528092919081815260200182805461159c906145d2565b80156115e95780601f106115be576101008083540402835291602001916115e9565b820191906000526020600020905b8154815290600101906020018083116115cc57829003601f168201915b5050505050905080516000036116395783838080601f0160208091040260200160405190810160405280939291908181526020018383808284376000920191909152509294506112699350505050565b6000839003611649579050611269565b600283106116c75761169084848080601f016020809104026020016040519081016040528093929190818152602001838380828437600092019190915250612c5792505050565b8061169e846002818861482e565b6040516020016116b093929190614858565b604051602081830303815290604052915050611269565b8383604051639a6d49cd60e01b8152600401610dde9291906148a9565b60005b818110156117ed573683838381811061170257611702614662565b905060200281019061171491906148bd565b90506117476117266020830183614349565b602083013563ffffffff919091166000908152600160205260409020541490565b61175157506117e5565b3063d045a0dc60c08301358360a08101356117706101008301836148de565b611781610100890160e08a016141a8565b61178f6101208a018a6148de565b6040518963ffffffff1660e01b81526004016117b19796959493929190614939565b6000604051808303818588803b1580156117ca57600080fd5b505af11580156117de573d6000803e3d6000fd5b5050505050505b6001016116e7565b50336001600160a01b0316638e9e70996040518163ffffffff1660e01b8152600401600060405180830381865afa15801561182c573d6000803e3d6000fd5b505050506040513d6000823e601f3d908101601f1916820160405261185491908101906149bf565b604051638351eea760e01b8152600401610dde9190613e32565b834211156118be5760405162461bcd60e51b815260206004820152601d60248201527f4552433230566f7465733a207369676e617475726520657870697265640000006044820152606401610dde565b604080517fe48329057bfd03d55e49b547132e39cffd9c1820ad7b9d4c5307691425d15adf60208201526001600160a01b038816918101919091526060810186905260808101859052600090611938906119309060a00160405160208183030381529060405280519060200120612c83565b858585612cb0565b905061194381612cd8565b86146119915760405162461bcd60e51b815260206004820152601960248201527f4552433230566f7465733a20696e76616c6964206e6f6e6365000000000000006044820152606401610dde565b610e4e818861290b565b6119a3613d9b565b60408051808201909152600080825260208201526000806119da33604089013560608a01356119d560208c018c614349565b612d00565b915091506000806119eb89846126fc565b9092509050611a17611a0060208b018b614349565b8383611a11368d90038d018d614a2c565b8b612d26565b60408051808201909152858152602080820186905282519298509096503391907f85496b760a4b7f8d66384b9df21b381f5d1b1e79f229a47aaf4c232edc2fe59a90611a65908d018d614349565b6040805163ffffffff909216825260208201899052810187905260600160405180910390a350505050935093915050565b611a9e612439565b60405163ca5eb5e160e01b81526001600160a01b0382811660048301527f0000000000000000000000000000000000000000000000000000000000000000169063ca5eb5e190602401600060405180830381600087803b158015611b0157600080fd5b505af1158015611b15573d6000803e3d6000fd5b5050505050565b333014611b3c5760405163029a949d60e31b815260040160405180910390fd5b610e4e87878787878787610e3f565b611b53612439565b600280546001600160a01b0319166001600160a01b0383169081179091556040519081527fd48d879cef83a1c0bdda516f27b13ddb1b3f8bbac1c9e1511bb2a659c2427760906020016111fd565b83421115611bf15760405162461bcd60e51b815260206004820152601d60248201527f45524332305065726d69743a206578706972656420646561646c696e650000006044820152606401610dde565b60007f6e71edae12b1b97f4d1f60370fef10105fa2faae0126114a169c64845d6126c9888888611c208c612cd8565b6040805160208101969096526001600160a01b0394851690860152929091166060840152608083015260a082015260c0810186905260e0016040516020818303038152906040528051906020012090506000611c7b82612c83565b90506000611c8b82878787612cb0565b9050896001600160a01b0316816001600160a01b031614611cee5760405162461bcd60e51b815260206004820152601e60248201527f45524332305065726d69743a20696e76616c6964207369676e617475726500006044820152606401610dde565b611cf98a8a8a611e60565b50505050505050505050565b6001600160a01b03918216600090815260066020908152604080832093909416825291909152205490565b60408051808201909152600080825260208201526001600160a01b0383166000908152600f60205260409020805463ffffffff8416908110611d7457611d74614662565b60009182526020918290206040805180820190915291015463ffffffff8116825264010000000090046001600160e01b0316918101919091529392505050565b611dbc612439565b6001600160a01b038116611e215760405162461bcd60e51b815260206004820152602660248201527f4f776e61626c653a206e6577206f776e657220697320746865207a65726f206160448201526564647265737360d01b6064820152608401610dde565b611061816129ee565b6000602082018035906001908390611e429086614349565b63ffffffff1681526020810191909152604001600020541492915050565b6001600160a01b038316611ec25760405162461bcd60e51b8152602060048201526024808201527f45524332303a20617070726f76652066726f6d20746865207a65726f206164646044820152637265737360e01b6064820152608401610dde565b6001600160a01b038216611f235760405162461bcd60e51b815260206004820152602260248201527f45524332303a20617070726f766520746f20746865207a65726f206164647265604482015261737360f01b6064820152608401610dde565b6001600160a01b0383811660008181526006602090815260408083209487168084529482529182902085905590518481527f8c5be1e5ebec7d5bd14f71427d1e84f3dd0314c0f7b2291e5b200ac8c7c3b925910160405180910390a3505050565b600080611f9085612e31565b915081905083811015611fc0576040516371c4efed60e01b81526004810182905260248101859052604401610dde565b935093915050565b63ffffffff811660009081526001602052604081205480610cc05760405163f6ff4fb760e01b815263ffffffff84166004820152602401610dde565b60006120166120138787612e68565b90565b905060006120428261203061202b8a8a612e80565b612ea3565b61203d60208d018d614349565b612ed8565b9050602886111561210957600061207f61206260608c0160408d01614a5e565b61206f60208d018d614349565b8461207a8c8c612eec565b612f37565b604051633e5ac80960e11b81529091506001600160a01b037f00000000000000000000000000000000000000000000000000000000000000001690637cb59012906120d59086908d906000908790600401614a7b565b600060405180830381600087803b1580156120ef57600080fd5b505af1158015612103573d6000803e3d6000fd5b50505050505b6001600160a01b038216887fefed6d3500546b29533b128a29e3a94d70788727f0507505ac12eaf2e578fd9c61214260208d018d614349565b6040805163ffffffff9092168252602082018690520160405180910390a3505050505050505050565b60006121778484611d05565b905060001981146121df57818110156121d25760405162461bcd60e51b815260206004820152601d60248201527f45524332303a20696e73756666696369656e7420616c6c6f77616e63650000006044820152606401610dde565b6121df8484848403611e60565b50505050565b60115460405163b7c4a6bf60e01b81526001600160a01b03848116600483015260248201849052600092839291169063b7c4a6bf90604401602060405180830381865afa15801561223a573d6000803e3d6000fd5b505050506040513d601f19601f8201168201806040525081019061225e9190614aac565b905060008111801561226f57508281105b1561227e5761227e8482612901565b6112698382612f69565b6001600160a01b0383166122ec5760405162461bcd60e51b815260206004820152602560248201527f45524332303a207472616e736665722066726f6d20746865207a65726f206164604482015264647265737360d81b6064820152608401610dde565b6001600160a01b03821661234e5760405162461bcd60e51b815260206004820152602360248201527f45524332303a207472616e7366657220746f20746865207a65726f206164647260448201526265737360e81b6064820152608401610dde565b6001600160a01b038316600090815260056020526040902054818110156123c65760405162461bcd60e51b815260206004820152602660248201527f45524332303a207472616e7366657220616d6f756e7420657863656564732062604482015265616c616e636560d01b6064820152608401610dde565b6001600160a01b0380851660008181526005602052604080822086860390559286168082529083902080548601905591517fddf252ad1be2c89b69c2b068fc378daa952ba7f163c4a11628f55a4df523b3ef906124269086815260200190565b60405180910390a36121df848484612f7a565b6000546001600160a01b0316331461123c5760405162461bcd60e51b815260206004820181905260248201527f4f776e61626c653a2063616c6c6572206973206e6f7420746865206f776e65726044820152606401610dde565b63ffffffff8216600081815260016020908152604091829020849055815192835282018390527f238399d427b947898edb290f5ff0f9109849b1c3ba196a42e35f00c50a54b98b910160405180910390a15050565b6000306001600160a01b037f00000000000000000000000000000000000000000000000000000000000000001614801561254157507f000000000000000000000000000000000000000000000000000000000000000046145b1561256b57507f000000000000000000000000000000000000000000000000000000000000000090565b610f41604080517f8b73c3c69bb8fe3d512ecc4cf759cc79239f7b179b0ffacaa9a75d522b39400f60208201527f0000000000000000000000000000000000000000000000000000000000000000918101919091527f000000000000000000000000000000000000000000000000000000000000000060608201524660808201523060a082015260009060c00160405160208183030381529060405280519060200120905090565b81546000908181600581111561266d57600061262e84612f85565b6126389085614ac5565b600088815260209020909150869082015463ffffffff16111561265d5780915061266b565b61266881600161464f565b92505b505b808210156126ba576000612681838361306d565b600088815260209020909150869082015463ffffffff1611156126a6578091506126b4565b6126b181600161464f565b92505b5061266d565b80156126e6576000868152602090208101600019015464010000000090046001600160e01b03166126e9565b60005b6001600160e01b03169695505050505050565b6060806000612759856020013561271286613088565b61271f60a08901896148de565b8080601f0160208091040260200160405190810160405280939291908181526020018383808284376000920191909152506130b492505050565b909350905060008161276c57600161276f565b60025b905061278f6127816020880188614349565b82610a2360808a018a6148de565b6004549093506001600160a01b031615612817576004805460405163043a78eb60e01b81526001600160a01b039091169163043a78eb916127d4918891889101614ad8565b602060405180830381865afa1580156127f1573d6000803e3d6000fd5b505050506040513d601f19601f820116820180604052508101906128159190614606565b505b50509250929050565b60408051808201909152600080825260208201527f00000000000000000000000000000000000000000000000000000000000000006001600160a01b031663ddc28c586040518060a001604052808863ffffffff16815260200161288389611fc8565b8152602001878152602001868152602001851515815250306040518363ffffffff1660e01b81526004016128b8929190614afd565b6040805180830381865afa1580156128d4573d6000803e3d6000fd5b505050506040513d601f19601f820116820180604052508101906128f89190614ba6565b95945050505050565b610f33828261312e565b6001600160a01b038281166000818152600e6020818152604080842080546005845282862054949093528787166001600160a01b03198416811790915590519190951694919391928592917f3134e8a2e6d97e929a7e54011ea5485d7d196dd5f0ba4d4ef95803e8e3fc257f9190a46121df828483613146565b600063ffffffff8211156129ea5760405162461bcd60e51b815260206004820152602660248201527f53616665436173743a2076616c756520646f65736e27742066697420696e203360448201526532206269747360d01b6064820152608401610dde565b5090565b600080546001600160a01b038381166001600160a01b0319831681178455604051919092169283917f8be0079c531659141344cd1fd0a4f28419497f9722a3daafe3b4186f6b6457e09190a35050565b606060ff8314612a5857612a5183613283565b9050610cc0565b818054612a64906145d2565b80601f0160208091040260200160405190810160405280929190818152602001828054612a90906145d2565b8015612add5780601f10612ab257610100808354040283529160200191612add565b820191906000526020600020905b815481529060010190602001808311612ac057829003601f168201915b50505050509050610cc0565b600065ffffffffffff8211156129ea5760405162461bcd60e51b815260206004820152602660248201527f53616665436173743a2076616c756520646f65736e27742066697420696e203460448201526538206269747360d01b6064820152608401610dde565b60005b8151811015612c2757612b82828281518110612b7157612b71614662565b602002602001015160400151612c57565b818181518110612b9457612b94614662565b60200260200101516040015160036000848481518110612bb657612bb6614662565b60200260200101516000015163ffffffff1663ffffffff1681526020019081526020016000206000848481518110612bf057612bf0614662565b60200260200101516020015161ffff1661ffff1681526020019081526020016000209081612c1e9190614c12565b50600101612b53565b507fbe4864a8e820971c0247f5992e2da559595f7bf076a21cb5928d443d2a13b674816040516111fd9190614cd1565b600281015161ffff8116600314610f335781604051639a6d49cd60e01b8152600401610dde9190613e32565b6000610cc0612c906124e8565b8360405161190160f01b8152600281019290925260228201526042902090565b6000806000612cc1878787876132c2565b91509150612cce81613383565b5095945050505050565b6001600160a01b0381166000908152600c602052604090208054600181018255905b50919050565b600080612d0e858585611f84565b9092509050612d1d8683612901565b94509492505050565b612d2e613d9b565b6000612d3d84600001516134cd565b602085015190915015612d5757612d5784602001516134f1565b7f00000000000000000000000000000000000000000000000000000000000000006001600160a01b0316632637a450826040518060a001604052808b63ffffffff168152602001612da78c611fc8565b81526020018a815260200189815260200160008960200151111515815250866040518463ffffffff1660e01b8152600401612de3929190614afd565b60806040518083038185885af1158015612e01573d6000803e3d6000fd5b50505050506040513d601f19601f82011682018060405250810190612e269190614d5c565b979650505050505050565b60007f0000000000000000000000000000000000000000000000000000000000000000612e5e8184614dbc565b610cc09190614dde565b6000612e77602082848661482e565b610f1a91614df5565b6000612e9060286020848661482e565b612e9991614e13565b60c01c9392505050565b6000610cc07f00000000000000000000000000000000000000000000000000000000000000006001600160401b038416614dde565b6000612ee484846135d3565b509092915050565b6060612efb826028818661482e565b8080601f016020809104026020016040519081016040528093929190818152602001838380828437600092019190915250929695505050505050565b606084848484604051602001612f509493929190614e43565b6040516020818303038152906040529050949350505050565b6000610f1a8284614ac5565b505050565b612f758383836135dd565b600081600003612f9757506000919050565b60006001612fa48461360f565b901c6001901b90506001818481612fbd57612fbd614da6565b048201901c90506001818481612fd557612fd5614da6565b048201901c90506001818481612fed57612fed614da6565b048201901c9050600181848161300557613005614da6565b048201901c9050600181848161301d5761301d614da6565b048201901c9050600181848161303557613035614da6565b048201901c9050600181848161304d5761304d614da6565b048201901c9050610f1a8182858161306757613067614da6565b046136a3565b600061307c6002848418614dbc565b610f1a9084841661464f565b6000610cc07f000000000000000000000000000000000000000000000000000000000000000083614dbc565b80516060901515806130fd5784846040516020016130e992919091825260c01b6001600160c01b031916602082015260280190565b604051602081830303815290604052613124565b848433856040516020016131149493929190614e92565b6040516020818303038152906040525b9150935093915050565b61313882826136b9565b6121df6010612f69836137f4565b816001600160a01b0316836001600160a01b0316141580156131685750600081115b15612f75576001600160a01b038316156131f6576001600160a01b0383166000908152600f6020526040812081906131a390612f69856137f4565b91509150846001600160a01b03167fdec2bacdd2f05b59de34da9b523dff8be42e5e38e818c82fdb0bae774387a72483836040516131eb929190918252602082015260400190565b60405180910390a250505b6001600160a01b03821615612f75576001600160a01b0382166000908152600f60205260408120819061322c90613969856137f4565b91509150836001600160a01b03167fdec2bacdd2f05b59de34da9b523dff8be42e5e38e818c82fdb0bae774387a7248383604051613274929190918252602082015260400190565b60405180910390a25050505050565b6060600061329083613975565b604080516020808252818301909252919250600091906020820181803683375050509182525060208101929092525090565b6000807f7fffffffffffffffffffffffffffffff5d576e7357a4501ddfe92f46681b20a08311156132f95750600090506003612d1d565b6040805160008082526020820180845289905260ff881692820192909252606081018690526080810185905260019060a0016020604051602081039080840390855afa15801561334d573d6000803e3d6000fd5b5050604051601f1901519150506001600160a01b03811661337657600060019250925050612d1d565b9660009650945050505050565b600081600481111561339757613397614ed5565b0361339f5750565b60018160048111156133b3576133b3614ed5565b036134005760405162461bcd60e51b815260206004820152601860248201527f45434453413a20696e76616c6964207369676e617475726500000000000000006044820152606401610dde565b600281600481111561341457613414614ed5565b036134615760405162461bcd60e51b815260206004820152601f60248201527f45434453413a20696e76616c6964207369676e6174757265206c656e677468006044820152606401610dde565b600381600481111561347557613475614ed5565b036110615760405162461bcd60e51b815260206004820152602260248201527f45434453413a20696e76616c6964207369676e6174757265202773272076616c604482015261756560f01b6064820152608401610dde565b60008134146129ea576040516304fb820960e51b8152346004820152602401610dde565b60007f00000000000000000000000000000000000000000000000000000000000000006001600160a01b031663e4fe1d946040518163ffffffff1660e01b8152600401602060405180830381865afa158015613551573d6000803e3d6000fd5b505050506040513d601f19601f820116820180604052508101906135759190614eeb565b90506001600160a01b03811661359e576040516329b99a9560e11b815260040160405180910390fd5b610f336001600160a01b038216337f00000000000000000000000000000000000000000000000000000000000000008561399d565b610f3382826139f7565b6001600160a01b038381166000908152600e6020526040808220548584168352912054612f7592918216911683613146565b600080608083901c1561362457608092831c92015b604083901c1561363657604092831c92015b602083901c1561364857602092831c92015b601083901c1561365a57601092831c92015b600883901c1561366c57600892831c92015b600483901c1561367e57600492831c92015b600283901c1561369057600292831c92015b600183901c15610cc05760010192915050565b60008183106136b25781610f1a565b5090919050565b6001600160a01b0382166137195760405162461bcd60e51b815260206004820152602160248201527f45524332303a206275726e2066726f6d20746865207a65726f206164647265736044820152607360f81b6064820152608401610dde565b6001600160a01b0382166000908152600560205260409020548181101561378d5760405162461bcd60e51b815260206004820152602260248201527f45524332303a206275726e20616d6f756e7420657863656564732062616c616e604482015261636560f01b6064820152608401610dde565b6001600160a01b03831660008181526005602090815260408083208686039055600780548790039055518581529192917fddf252ad1be2c89b69c2b068fc378daa952ba7f163c4a11628f55a4df523b3ef910160405180910390a3612f7583600084612f7a565b825460009081908181156138415760008781526020902082016000190160408051808201909152905463ffffffff8116825264010000000090046001600160e01b03166020820152613856565b60408051808201909152600080825260208201525b905080602001516001600160e01b0316935061387684868863ffffffff16565b92506000821180156138a0575061388b611361565b65ffffffffffff16816000015163ffffffff16145b156138e5576138ae83613a81565b60008881526020902083016000190180546001600160e01b03929092166401000000000263ffffffff90921691909117905561395f565b8660405180604001604052806139096138fc611361565b65ffffffffffff16612985565b63ffffffff16815260200161391d86613a81565b6001600160e01b0390811690915282546001810184556000938452602093849020835194909301519091166401000000000263ffffffff909316929092179101555b5050935093915050565b6000610f1a828461464f565b600060ff8216601f811115610cc057604051632cd44ac360e21b815260040160405180910390fd5b604080516001600160a01b0385811660248301528416604482015260648082018490528251808303909101815260849091019091526020810180516001600160e01b03166323b872dd60e01b1790526121df908590613aea565b613a018282613bbf565b6007546001600160e01b031015613a735760405162461bcd60e51b815260206004820152603060248201527f4552433230566f7465733a20746f74616c20737570706c79207269736b73206f60448201526f766572666c6f77696e6720766f74657360801b6064820152608401610dde565b6121df6010613969836137f4565b60006001600160e01b038211156129ea5760405162461bcd60e51b815260206004820152602760248201527f53616665436173743a2076616c756520646f65736e27742066697420696e20326044820152663234206269747360c81b6064820152608401610dde565b6000613b3f826040518060400160405280602081526020017f5361666545524332303a206c6f772d6c6576656c2063616c6c206661696c6564815250856001600160a01b0316613c889092919063ffffffff16565b9050805160001480613b60575080806020019051810190613b609190614606565b612f755760405162461bcd60e51b815260206004820152602a60248201527f5361666545524332303a204552433230206f7065726174696f6e20646964206e6044820152691bdd081cdd58d8d9595960b21b6064820152608401610dde565b6001600160a01b038216613c155760405162461bcd60e51b815260206004820152601f60248201527f45524332303a206d696e7420746f20746865207a65726f2061646472657373006044820152606401610dde565b8060076000828254613c27919061464f565b90915550506001600160a01b0382166000818152600560209081526040808320805486019055518481527fddf252ad1be2c89b69c2b068fc378daa952ba7f163c4a11628f55a4df523b3ef910160405180910390a3610f3360008383612f7a565b6060611269848460008585600080866001600160a01b03168587604051613caf9190614f08565b60006040518083038185875af1925050503d8060008114613cec576040519150601f19603f3d011682016040523d82523d6000602084013e613cf1565b606091505b5091509150612e268783838760608315613d6c578251600003613d65576001600160a01b0385163b613d655760405162461bcd60e51b815260206004820152601d60248201527f416464726573733a2063616c6c20746f206e6f6e2d636f6e74726163740000006044820152606401610dde565b5081611269565b6112698383815115613d815781518083602001fd5b8060405162461bcd60e51b8152600401610dde9190613e32565b60405180606001604052806000801916815260200160006001600160401b03168152602001613ddd604051806040016040528060008152602001600081525090565b905290565b60005b83811015613dfd578181015183820152602001613de5565b50506000910152565b60008151808452613e1e816020860160208601613de2565b601f01601f19169290920160200192915050565b602081526000610f1a6020830184613e06565b6001600160a01b038116811461106157600080fd5b60008060408385031215613e6d57600080fd5b8235613e7881613e45565b946020939093013593505050565b600060e08284031215612cfa57600080fd5b600060208284031215613eaa57600080fd5b81356001600160401b03811115613ec057600080fd5b61126984828501613e86565b8351815260208085015190820152600060a08201604060a0604085015281865180845260c08601915060c08160051b8701019350602080890160005b83811015613f475788870360bf19018552815180518852830151838801879052613f3487890182613e06565b9750509382019390820190600101613f08565b50508751606088015250505060208501516080850152509050611269565b600060608284031215612cfa57600080fd5b60008083601f840112613f8957600080fd5b5081356001600160401b03811115613fa057600080fd5b602083019150836020828501011115613fb857600080fd5b9250929050565b600080600080600080600060e0888a031215613fda57600080fd5b613fe48989613f65565b96506060880135955060808801356001600160401b038082111561400757600080fd5b6140138b838c01613f77565b909750955060a08a0135915061402882613e45565b90935060c0890135908082111561403e57600080fd5b5061404b8a828b01613f77565b989b979a50959850939692959293505050565b60008060006060848603121561407357600080fd5b833561407e81613e45565b9250602084013561408e81613e45565b929592945050506040919091013590565b803563ffffffff811681146140b357600080fd5b919050565b600080604083850312156140cb57600080fd5b613e788361409f565b801515811461106157600080fd5b600080604083850312156140f557600080fd5b82356001600160401b0381111561410b57600080fd5b61411785828601613e86565b9250506020830135614128816140d4565b809150509250929050565b815181526020808301519082015260408101610cc0565b60006020828403121561415c57600080fd5b5035919050565b803561ffff811681146140b357600080fd5b6000806040838503121561418857600080fd5b6141918361409f565b915061419f60208401614163565b90509250929050565b6000602082840312156141ba57600080fd5b8135610f1a81613e45565b60008060008060a085870312156141db57600080fd5b6141e58686613f65565b935060608501356001600160401b0381111561420057600080fd5b61420c87828801613f77565b909450925050608085013561422081613e45565b939692955090935050565b60ff60f81b881681526000602060e0602084015261424c60e084018a613e06565b838103604085015261425e818a613e06565b606085018990526001600160a01b038816608086015260a0850187905284810360c08601528551808252602080880193509091019060005b818110156142b257835183529284019291840191600101614296565b50909c9b505050505050505050505050565b60008083601f8401126142d657600080fd5b5081356001600160401b038111156142ed57600080fd5b6020830191508360208260051b8501011115613fb857600080fd5b6000806020838503121561431b57600080fd5b82356001600160401b0381111561433157600080fd5b61433d858286016142c4565b90969095509350505050565b60006020828403121561435b57600080fd5b610f1a8261409f565b6000806000806060858703121561437a57600080fd5b6143838561409f565b935061439160208601614163565b925060408501356001600160401b038111156143ac57600080fd5b6143b887828801613f77565b95989497509550505050565b803560ff811681146140b357600080fd5b60008060008060008060c087890312156143ee57600080fd5b86356143f981613e45565b95506020870135945060408701359350614415606088016143c4565b92506080870135915060a087013590509295509295509295565b6000806000838503608081121561444557600080fd5b84356001600160401b0381111561445b57600080fd5b61446787828801613e86565b9450506040601f198201121561447c57600080fd5b50602084019150606084013561449181613e45565b809150509250925092565b600060c082019050835182526001600160401b03602085015116602083015260408401516144d7604084018280518252602090810151910152565b5082516080830152602083015160a0830152610f1a565b600080600080600080600060e0888a03121561450957600080fd5b873561451481613e45565b9650602088013561452481613e45565b95506040880135945060608801359350614540608089016143c4565b925060a0880135915060c0880135905092959891949750929550565b6000806040838503121561456f57600080fd5b823561457a81613e45565b9150602083013561412881613e45565b6000806040838503121561459d57600080fd5b82356145a881613e45565b915061419f6020840161409f565b6000606082840312156145c857600080fd5b610f1a8383613f65565b600181811c908216806145e657607f821691505b602082108103612cfa57634e487b7160e01b600052602260045260246000fd5b60006020828403121561461857600080fd5b8151610f1a816140d4565b634e487b7160e01b600052604160045260246000fd5b634e487b7160e01b600052601160045260246000fd5b80820180821115610cc057610cc0614639565b634e487b7160e01b600052603260045260246000fd5b604051606081016001600160401b038111828210171561469a5761469a614623565b60405290565b604080519081016001600160401b038111828210171561469a5761469a614623565b604051601f8201601f191681016001600160401b03811182821017156146ea576146ea614623565b604052919050565b60006001600160401b0382111561470b5761470b614623565b50601f01601f191660200190565b60006001600160401b038084111561473357614733614623565b8360051b60206147448183016146c2565b86815291850191818101903684111561475c57600080fd5b865b84811015614822578035868111156147765760008081fd5b8801606036829003121561478a5760008081fd5b614792614678565b61479b8261409f565b81526147a8868301614163565b86820152604080830135898111156147c05760008081fd5b929092019136601f8401126147d55760008081fd5b82356147e86147e3826146f2565b6146c2565b81815236898387010111156147fd5760008081fd5b818986018a83013760009181018901919091529082015284525091830191830161475e565b50979650505050505050565b6000808585111561483e57600080fd5b8386111561484b57600080fd5b5050820193919092039150565b6000845161486a818460208901613de2565b8201838582376000930192835250909392505050565b81835281816020850137506000828201602090810191909152601f909101601f19169091010190565b602081526000611269602083018486614880565b6000823561013e198336030181126148d457600080fd5b9190910192915050565b6000808335601e198436030181126148f557600080fd5b8301803591506001600160401b0382111561490f57600080fd5b602001915036819003821315613fb857600080fd5b6001600160401b038116811461106157600080fd5b63ffffffff6149478961409f565b168152602088013560208201526000604089013561496481614924565b6001600160401b03811660408401525087606083015260e0608083015261498f60e083018789614880565b6001600160a01b03861660a084015282810360c08401526149b1818587614880565b9a9950505050505050505050565b6000602082840312156149d157600080fd5b81516001600160401b038111156149e757600080fd5b8201601f810184136149f857600080fd5b8051614a066147e3826146f2565b818152856020838501011115614a1b57600080fd5b6128f8826020830160208601613de2565b600060408284031215614a3e57600080fd5b614a466146a0565b82358152602083013560208201528091505092915050565b600060208284031215614a7057600080fd5b8135610f1a81614924565b60018060a01b038516815283602082015261ffff8316604082015260806060820152600061104d6080830184613e06565b600060208284031215614abe57600080fd5b5051919050565b81810381811115610cc057610cc0614639565b604081526000614aeb6040830185613e06565b82810360208401526128f88185613e06565b6040815263ffffffff8351166040820152602083015160608201526000604084015160a06080840152614b3360e0840182613e06565b90506060850151603f198483030160a0850152614b508282613e06565b60809690960151151560c08501525050506001600160a01b039190911660209091015290565b600060408284031215614b8857600080fd5b614b906146a0565b9050815181526020820151602082015292915050565b600060408284031215614bb857600080fd5b610f1a8383614b76565b601f821115612f75576000816000526020600020601f850160051c81016020861015614beb5750805b601f850160051c820191505b81811015614c0a57828155600101614bf7565b505050505050565b81516001600160401b03811115614c2b57614c2b614623565b614c3f81614c3984546145d2565b84614bc2565b602080601f831160018114614c745760008415614c5c5750858301515b600019600386901b1c1916600185901b178555614c0a565b600085815260208120601f198616915b82811015614ca357888601518255948401946001909101908401614c84565b5085821015614cc15787850151600019600388901b60f8161c191681555b5050505050600190811b01905550565b600060208083018184528085518083526040925060408601915060408160051b87010184880160005b83811015614d4e57888303603f190185528151805163ffffffff1684528781015161ffff16888501528601516060878501819052614d3a81860183613e06565b968901969450505090860190600101614cfa565b509098975050505050505050565b600060808284031215614d6e57600080fd5b614d76614678565b825181526020830151614d8881614924565b6020820152614d9a8460408501614b76565b60408201529392505050565b634e487b7160e01b600052601260045260246000fd5b600082614dd957634e487b7160e01b600052601260045260246000fd5b500490565b8082028115828204841417610cc057610cc0614639565b80356020831015610cc057600019602084900360031b1b1692915050565b6001600160c01b03198135818116916008851015614e3b5780818660080360031b1b83161692505b505092915050565b6001600160401b0360c01b8560c01b16815263ffffffff60e01b8460e01b16600882015282600c82015260008251614e8281602c850160208701613de2565b91909101602c0195945050505050565b8481526001600160401b0360c01b8460c01b16602082015282602882015260008251614ec5816048850160208701613de2565b9190910160480195945050505050565b634e487b7160e01b600052602160045260246000fd5b600060208284031215614efd57600080fd5b8151610f1a81613e45565b600082516148d4818460208701613de256fea2646970667358221220f66a73a3e910c4ed4bfe7f5eb8c6fd643839b457102242bb5f31fa2c6eba0a1464736f6c63430008160033",
  "devdoc": {
    "events": {
      "Approval(address,address,uint256)": {
        "details": "Emitted when the allowance of a `spender` for an `owner` is set by a call to {approve}. `value` is the new allowance."
      },
      "DelegateChanged(address,address,address)": {
        "details": "Emitted when an account changes their delegate."
      },
      "DelegateVotesChanged(address,uint256,uint256)": {
        "details": "Emitted when a token transfer or delegate change results in changes to a delegate's number of votes."
      },
      "EIP712DomainChanged()": {
        "details": "MAY be emitted to signal that the domain could have changed."
      },
      "PreCrimeSet(address)": {
        "details": "Emitted when the preCrime contract address is set.",
        "params": {
          "preCrimeAddress": "The address of the preCrime contract."
        }
      },
      "Transfer(address,address,uint256)": {
        "details": "Emitted when `value` tokens are moved from one account (`from`) to another (`to`). Note that `value` may be zero."
      }
    },
    "kind": "dev",
    "methods": {
      "CLOCK_MODE()": {
        "details": "Description of the clock"
      },
      "DOMAIN_SEPARATOR()": {
        "details": "Returns the domain separator used in the encoding of the signature for {permit}, as defined by {EIP712}."
      },
      "allowInitializePath((uint32,bytes32,uint64))": {
        "details": "This indicates to the endpoint that the OApp has enabled msgs for this particular path to be received.This defaults to assuming if a peer has been set, its initialized. Can be overridden by the OApp if there is other logic to determine this.",
        "params": {
          "origin": "The origin information containing the source endpoint and sender address."
        },
        "returns": {
          "_0": "Whether the path has been initialized."
        }
      },
      "allowance(address,address)": {
        "details": "See {IERC20-allowance}."
      },
      "approvalRequired()": {
        "details": "In the case of OFT where the contract IS the token, approval is NOT required.",
        "returns": {
          "_0": "requiresApproval Needs approval of the underlying token implementation."
        }
      },
      "approve(address,uint256)": {
        "details": "Public function to approve another account to spend tokens on behalf of the message sender. This function overrides the standard `approve` function of the ERC20 token standard. It allows a token holder to grant permission to another account (referred to as the spender) to transfer up to a specified number of tokens on their behalf. The function includes an additional security feature using the `mproRoleManager` to check whether the approval is allowed. This could be based on additional business logic or restrictions defined in the role manager contract. After the custom check, the function calls the internal `_approve` function of the ERC20 contract to handle the actual approval mechanism, updating the allowance set for the spender.",
        "params": {
          "_spender": "The address which is being granted permission to spend tokens on behalf of the                 message sender.",
          "_value": "The maximum number of tokens the spender is allowed to transfer."
        },
        "returns": {
          "_0": "A boolean value indicating whether the operation was successful."
        }
      },
      "balanceOf(address)": {
        "details": "See {IERC20-balanceOf}."
      },
      "burn(uint256)": {
        "details": "External function to burn tokens. This function provides an external interface to burn tokens from a specified account. It is accessible externally and allows for tokens to be burned, reducing the total supply in circulation. The function does not include specific access control checks, meaning any external caller can potentially invoke it, subject to the contract's overall design and security model. The `virtual` keyword indicates that this function can be overridden in derived contracts, allowing for customization of the burning process or the introduction of additional logic, such as access control restrictions or pre-burn validations. The actual burning of tokens is delegated to the internal `_burn` function, which encapsulates the logic for removing tokens from an account's balance and updating the total supply. This separation of concerns allows the `_burn` function to handle the core logic, while the external `burn` function can be adapted or extended in derived contracts.",
        "params": {
          "amount": "The amount of tokens to be burned from the specified account."
        }
      },
      "checkpoints(address,uint32)": {
        "details": "Get the `pos`-th checkpoint for `account`."
      },
      "clock()": {
        "details": "Clock used for flagging checkpoints. Can be overridden to implement timestamp based checkpoints (and voting)."
      },
      "combineOptions(uint32,uint16,bytes)": {
        "details": "If there is an enforced lzReceive option: - {gasLimit: 200k, msg.value: 1 ether} AND a caller supplies a lzReceive option: {gasLimit: 100k, msg.value: 0.5 ether} - The resulting options will be {gasLimit: 300k, msg.value: 1.5 ether} when the message is executed on the remote lzReceive() function.This presence of duplicated options is handled off-chain in the verifier/executor.",
        "params": {
          "_eid": "The endpoint ID.",
          "_extraOptions": "Additional options passed by the caller.",
          "_msgType": "The OAPP message type."
        },
        "returns": {
          "_0": "options The combination of caller specified options AND enforced options."
        }
      },
      "constructor": {
        "details": "Constructor to initialize the contract with specific parameters. This constructor initializes the contract with a name, symbol, and several key addresses relevant to its operation. It also handles the preminting of tokens to a list of addresses. The constructor performs the following operations: - Inherits from OFTV2 and ERC20Permit by passing `_name`, `_symbol`, and other parameters   to these base contracts. - Loops through the `premintAddresses` array, minting tokens in the amounts specified in   `premintValues` to each address. This is used to distribute an initial supply of tokens. - Sets the `mproRoleManager` by casting the `_mproRoleManager` address to the   IMPRORoleManager interface, which is expected to manage role-based access in the contract. - Sets the `mproMasterDistributor` by casting the `_mproMasterDistributor` address to the   IMPROMasterDistributor interface, which is expected to handle distribution-related logic. The `_lzEndpoint` parameter is specific to the OFTV2 initialization and is related to LayerZero endpoint configurations. This constructor is critical for setting up the initial state of the contract, including roles, token distribution, and other essential configurations.",
        "params": {
          "_lzEndpoint": "Address for the LayerZero endpoint, used in OFTV2 initialization.",
          "_mproMasterDistributor": "Address of the contract managing token distributions.",
          "_name": "The name of the token.",
          "_symbol": "The symbol of the token."
        }
      },
      "decimals()": {
        "details": "Returns the number of decimals used to get its user representation. For example, if `decimals` equals `2`, a balance of `505` tokens should be displayed to a user as `5.05` (`505 / 10 ** 2`). Tokens usually opt for a value of 18, imitating the relationship between Ether and Wei. This is the default value returned by this function, unless it's overridden. NOTE: This information is only used for _display_ purposes: it in no way affects any of the arithmetic of the contract, including {IERC20-balanceOf} and {IERC20-transfer}."
      },
      "decreaseAllowance(address,uint256)": {
        "details": "Atomically decreases the allowance granted to `spender` by the caller. This is an alternative to {approve} that can be used as a mitigation for problems described in {IERC20-approve}. Emits an {Approval} event indicating the updated allowance. Requirements: - `spender` cannot be the zero address. - `spender` must have allowance for the caller of at least `subtractedValue`."
      },
      "delegate(address)": {
        "details": "Delegate votes from the sender to `delegatee`."
      },
      "delegateBySig(address,uint256,uint256,uint8,bytes32,bytes32)": {
        "details": "Delegates votes from signer to `delegatee`"
      },
      "delegates(address)": {
        "details": "Get the address `account` is currently delegating to."
      },
      "eip712Domain()": {
        "details": "See {EIP-5267}. _Available since v4.9._"
      },
      "getPastTotalSupply(uint256)": {
        "details": "Retrieve the `totalSupply` at the end of `timepoint`. Note, this value is the sum of all balances. It is NOT the sum of all the delegated votes! Requirements: - `timepoint` must be in the past"
      },
      "getPastVotes(address,uint256)": {
        "details": "Retrieve the number of votes for `account` at the end of `timepoint`. Requirements: - `timepoint` must be in the past"
      },
      "getVotes(address)": {
        "details": "Gets the current votes balance for `account`"
      },
      "increaseAllowance(address,uint256)": {
        "details": "Atomically increases the allowance granted to `spender` by the caller. This is an alternative to {approve} that can be used as a mitigation for problems described in {IERC20-approve}. Emits an {Approval} event indicating the updated allowance. Requirements: - `spender` cannot be the zero address."
      },
      "isComposeMsgSender((uint32,bytes32,uint64),bytes,address)": {
        "details": "_origin The origin information containing the source endpoint and sender address.  - srcEid: The source chain endpoint ID.  - sender: The sender address on the src chain.  - nonce: The nonce of the message._message The lzReceive payload.Applications can optionally choose to implement separate composeMsg senders that are NOT the bridging layer.The default sender IS the OAppReceiver implementer.",
        "params": {
          "_sender": "The sender address."
        },
        "returns": {
          "_0": "isSender Is a valid sender."
        }
      },
      "isPeer(uint32,bytes32)": {
        "details": "Check if the peer is considered 'trusted' by the OApp.Enables OAppPreCrimeSimulator to check whether a potential Inbound Packet is from a trusted source.",
        "params": {
          "_eid": "The endpoint ID to check.",
          "_peer": "The peer to check."
        },
        "returns": {
          "_0": "Whether the peer passed is considered 'trusted' by the OApp."
        }
      },
      "lzReceive((uint32,bytes32,uint64),bytes32,bytes,address,bytes)": {
        "details": "Entry point for receiving messages or packets from the endpoint.Entry point for receiving msg/packet from the LayerZero endpoint.",
        "params": {
          "_executor": "The address of the executor for the received message.",
          "_extraData": "Additional arbitrary data provided by the corresponding executor.",
          "_guid": "The unique identifier for the received LayerZero message.",
          "_message": "The payload of the received message.",
          "_origin": "The origin information containing the source endpoint and sender address.  - srcEid: The source chain endpoint ID.  - sender: The sender address on the src chain.  - nonce: The nonce of the message."
        }
      },
      "lzReceiveAndRevert(((uint32,bytes32,uint64),uint32,address,bytes32,uint256,address,bytes,bytes)[])": {
        "details": "Interface for pre-crime simulations. Always reverts at the end with the simulation results.WARNING: MUST revert at the end with the simulation results.Gives the preCrime implementation the ability to mock sending packets to the lzReceive function, WITHOUT actually executing them.",
        "params": {
          "_packets": "An array of InboundPacket objects representing received packets to be delivered."
        }
      },
      "lzReceiveSimulate((uint32,bytes32,uint64),bytes32,bytes,address,bytes)": {
        "details": "Is effectively an internal function because msg.sender must be address(this). Allows resetting the call stack for 'internal' calls.",
        "params": {
          "_executor": "The executor address for the packet.",
          "_extraData": "Additional data for the packet.",
          "_guid": "The unique identifier of the packet.",
          "_message": "The message payload of the packet.",
          "_origin": "The origin information containing the source endpoint and sender address.  - srcEid: The source chain endpoint ID.  - sender: The sender address on the src chain.  - nonce: The nonce of the message."
        }
      },
      "name()": {
        "details": "Returns the name of the token."
      },
      "nextNonce(uint32,bytes32)": {
        "details": "_srcEid The source endpoint ID._sender The sender address.The path nonce starts from 1. If 0 is returned it means that there is NO nonce ordered enforcement.Is required by the off-chain executor to determine the OApp expects msg execution is ordered.This is also enforced by the OApp.By default this is NOT enabled. ie. nextNonce is hardcoded to return 0.",
        "returns": {
          "nonce": "The next nonce."
        }
      },
      "nonces(address)": {
        "details": "Returns the current nonce for `owner`. This value must be included whenever a signature is generated for {permit}. Every successful call to {permit} increases ``owner``'s nonce by one. This prevents a signature from being used multiple times."
      },
      "numCheckpoints(address)": {
        "details": "Get number of checkpoints for `account`."
      },
      "oApp()": {
        "details": "Retrieves the address of the OApp contract.The simulator contract is the base contract for the OApp by default.If the simulator is a separate contract, override this function.",
        "returns": {
          "_0": "The address of the OApp contract."
        }
      },
      "oAppVersion()": {
        "returns": {
          "receiverVersion": "The version of the OAppReceiver.sol implementation.",
          "senderVersion": "The version of the OAppSender.sol implementation."
        }
      },
      "oftVersion()": {
        "details": "interfaceId: This specific interface ID is '0x02e49c2c'.version: Indicates a cross-chain compatible msg encoding with other OFTs.If a new feature is added to the OFT cross-chain msg encoding, the version will be incremented. ie. localOFT version(x,1) CAN send messages to remoteOFT version(x,1)",
        "returns": {
          "interfaceId": "The interface ID.",
          "version": "The version."
        }
      },
      "owner()": {
        "details": "Returns the address of the current owner."
      },
      "permit(address,address,uint256,uint256,uint8,bytes32,bytes32)": {
        "details": "Sets `value` as the allowance of `spender` over ``owner``'s tokens, given ``owner``'s signed approval. IMPORTANT: The same issues {IERC20-approve} has related to transaction ordering also apply here. Emits an {Approval} event. Requirements: - `spender` cannot be the zero address. - `deadline` must be a timestamp in the future. - `v`, `r` and `s` must be a valid `secp256k1` signature from `owner` over the EIP712-formatted function arguments. - the signature must use ``owner``'s current nonce (see {nonces}). For more information on the signature format, see the https://eips.ethereum.org/EIPS/eip-2612#specification[relevant EIP section]. CAUTION: See Security Considerations above."
      },
      "quoteOFT((uint32,bytes32,uint256,uint256,bytes,bytes,bytes))": {
        "params": {
          "_sendParam": "The parameters for the send operation."
        },
        "returns": {
          "oftFeeDetails": "The details of OFT fees.",
          "oftLimit": "The OFT limit information.",
          "oftReceipt": "The OFT receipt information."
        }
      },
      "quoteSend((uint32,bytes32,uint256,uint256,bytes,bytes,bytes),bool)": {
        "details": "MessagingFee: LayerZero msg fee  - nativeFee: The native fee.  - lzTokenFee: The lzToken fee.",
        "params": {
          "_payInLzToken": "Flag indicating whether the caller is paying in the LZ token.",
          "_sendParam": "The parameters for the send() operation."
        },
        "returns": {
          "msgFee": "The calculated LayerZero messaging fee from the send() operation."
        }
      },
      "renounceOwnership()": {
        "details": "Leaves the contract without owner. It will not be possible to call `onlyOwner` functions. Can only be called by the current owner. NOTE: Renouncing ownership will leave the contract without an owner, thereby disabling any functionality that is only available to the owner."
      },
      "send((uint32,bytes32,uint256,uint256,bytes,bytes,bytes),(uint256,uint256),address)": {
        "details": "Executes the send operation.MessagingReceipt: LayerZero msg receipt  - guid: The unique identifier for the sent message.  - nonce: The nonce of the sent message.  - fee: The LayerZero fee incurred for the message.",
        "params": {
          "_fee": "The calculated fee for the send() operation.      - nativeFee: The native fee.      - lzTokenFee: The lzToken fee.",
          "_refundAddress": "The address to receive any excess funds.",
          "_sendParam": "The parameters for the send operation."
        },
        "returns": {
          "msgReceipt": "The receipt for the send operation.",
          "oftReceipt": "The OFT receipt information."
        }
      },
      "setDelegate(address)": {
        "details": "Only the owner/admin of the OApp can call this function.Provides the ability for a delegate to set configs, on behalf of the OApp, directly on the Endpoint contract.",
        "params": {
          "_delegate": "The address of the delegate to be set."
        }
      },
      "setEnforcedOptions((uint32,uint16,bytes)[])": {
        "details": "Sets the enforced options for specific endpoint and message type combinations.Only the owner/admin of the OApp can call this function.Provides a way for the OApp to enforce things like paying for PreCrime, AND/OR minimum dst lzReceive gas amounts etc.These enforced options can vary as the potential options/execution on the remote may differ as per the msgType. eg. Amount of lzReceive() gas necessary to deliver a lzCompose() message adds overhead you dont want to pay if you are only making a standard LayerZero message ie. lzReceive() WITHOUT sendCompose().",
        "params": {
          "_enforcedOptions": "An array of EnforcedOptionParam structures specifying enforced options."
        }
      },
      "setMsgInspector(address)": {
        "details": "Sets the message inspector address for the OFT.This is an optional contract that can be used to inspect both 'message' and 'options'.Set it to address(0) to disable it, or set it to a contract address to enable it.",
        "params": {
          "_msgInspector": "The address of the message inspector."
        }
      },
      "setPeer(uint32,bytes32)": {
        "details": "Only the owner/admin of the OApp can call this function.Indicates that the peer is trusted to send LayerZero messages to this OApp.Set this to bytes32(0) to remove the peer address.Peer is a bytes32 to accommodate non-evm chains.",
        "params": {
          "_eid": "The endpoint ID.",
          "_peer": "The address of the peer to be associated with the corresponding endpoint."
        }
      },
      "setPreCrime(address)": {
        "details": "Sets the preCrime contract address.",
        "params": {
          "_preCrime": "The address of the preCrime contract."
        }
      },
      "sharedDecimals()": {
        "details": "Retrieves the shared decimals of the OFT.Sets an implicit cap on the amount of tokens, over uint64.max() will need some sort of outbound cap / totalSupply cap Lowest common decimal denominator between chains. Defaults to 6 decimal places to provide up to 18,446,744,073,709.551615 units (max uint64). For tokens exceeding this totalSupply(), they will need to override the sharedDecimals function with something smaller. ie. 4 sharedDecimals would be 1,844,674,407,370,955.1615",
        "returns": {
          "_0": "The shared decimals of the OFT."
        }
      },
      "symbol()": {
        "details": "Returns the symbol of the token, usually a shorter version of the name."
      },
      "token()": {
        "details": "Retrieves the address of the underlying ERC20 implementation.In the case of OFT, address(this) and erc20 are the same contract.",
        "returns": {
          "_0": "The address of the OFT token."
        }
      },
      "totalSupply()": {
        "details": "See {IERC20-totalSupply}."
      },
      "transfer(address,uint256)": {
        "details": "Public function to transfer tokens from the message sender's account to another account. This function overrides the standard `transfer` function of the ERC20 token standard. It enables a token holder to transfer tokens to another address. In addition to the standard transfer functionality, this implementation includes custom logic for additional checks and burning tokens on transfer. The function performs the following operations: - Calls `mproRoleManager.transferAllowed` to perform custom checks based on the contract's   business logic. This might include restrictions on who can send or receive tokens or other   specific conditions. - Calls the internal `_burnOnTransfer` function to calculate the amount after applying the   burn rate, if applicable, based on the contract's burning mechanism. - Executes the token transfer through `super._transfer`, using the potentially adjusted amount   from `_burnOnTransfer`. - Returns `true` to indicate successful execution of the function. This custom implementation ensures compliance with additional rules and token burn mechanisms while maintaining the basic functionality of ERC20 transfers.",
        "params": {
          "_to": "The address of the recipient to whom the tokens are being transferred.",
          "_value": "The amount of tokens to be transferred."
        },
        "returns": {
          "_0": "A boolean value indicating whether the operation was successful."
        }
      },
      "transferFrom(address,address,uint256)": {
        "details": "Public function to transfer tokens on behalf of another account. This function overrides the standard `transferFrom` function of the ERC20 token standard. It is used to transfer tokens from one account to another, based on a previously set allowance. The caller must have been previously authorized by the token holder (_from) to spend up to a specified number of tokens on their behalf. The function includes additional logic as follows: - Calls `mproRoleManager.transferAllowed` to perform custom validation. This could involve   checks based on specific business rules, like validating the roles of the involved parties   (_from, _to, and the message sender). - Executes the transfer through the internal `_transferFrom` function, which handles the actual   token transfer logic. Before the transfer, it applies the `_burnOnTransfer` function to   calculate the final amount after considering any burn mechanism that might be in place. - Returns `true` to indicate successful execution of the function. This implementation ensures that any transfers made through this function comply with additional constraints or business logic defined in the contract, along with the standard ERC20 transferFrom functionality.",
        "params": {
          "_amount": "The amount of tokens to be transferred.",
          "_from": "The address of the token holder whose tokens are being transferred.",
          "_to": "The address of the recipient to whom the tokens are being transferred."
        },
        "returns": {
          "_0": "A boolean value indicating whether the operation was successful."
        }
      },
      "transferOwnership(address)": {
        "details": "Transfers ownership of the contract to a new account (`newOwner`). Can only be called by the current owner."
      }
    },
    "version": 1
  },
  "userdoc": {
    "kind": "user",
    "methods": {
      "allowInitializePath((uint32,bytes32,uint64))": {
        "notice": "Checks if the path initialization is allowed based on the provided origin."
      },
      "approvalRequired()": {
        "notice": "Indicates whether the OFT contract requires approval of the 'token()' to send."
      },
      "combineOptions(uint32,uint16,bytes)": {
        "notice": "Combines options for a given endpoint and message type."
      },
      "endpoint()": {
        "notice": "Retrieves the LayerZero endpoint associated with the OApp."
      },
      "isComposeMsgSender((uint32,bytes32,uint64),bytes,address)": {
        "notice": "Indicates whether an address is an approved composeMsg sender to the Endpoint."
      },
      "nextNonce(uint32,bytes32)": {
        "notice": "Retrieves the next nonce for a given source endpoint and sender address."
      },
      "oAppVersion()": {
        "notice": "Retrieves the OApp version information."
      },
      "oftVersion()": {
        "notice": "Retrieves interfaceID and the version of the OFT."
      },
      "peers(uint32)": {
        "notice": "Retrieves the peer (OApp) associated with a corresponding endpoint."
      },
      "quoteOFT((uint32,bytes32,uint256,uint256,bytes,bytes,bytes))": {
        "notice": "Provides a quote for OFT-related operations."
      },
      "quoteSend((uint32,bytes32,uint256,uint256,bytes,bytes,bytes),bool)": {
        "notice": "Provides a quote for the send() operation."
      },
      "setDelegate(address)": {
        "notice": "Sets the delegate address for the OApp."
      },
      "setPeer(uint32,bytes32)": {
        "notice": "Sets the peer address (OApp instance) for a corresponding endpoint."
      }
    },
    "version": 1
  },
  "storageLayout": {
    "storage": [
      {
        "astId": 9730,
        "contract": "contracts/MPROLight.sol:MPRO",
        "label": "_owner",
        "offset": 0,
        "slot": "0",
        "type": "t_address"
      },
      {
        "astId": 2173,
        "contract": "contracts/MPROLight.sol:MPRO",
        "label": "peers",
        "offset": 0,
        "slot": "1",
        "type": "t_mapping(t_uint32,t_bytes32)"
      },
      {
        "astId": 4123,
        "contract": "contracts/MPROLight.sol:MPRO",
        "label": "preCrime",
        "offset": 0,
        "slot": "2",
        "type": "t_address"
      },
      {
        "astId": 2789,
        "contract": "contracts/MPROLight.sol:MPRO",
        "label": "enforcedOptions",
        "offset": 0,
        "slot": "3",
        "type": "t_mapping(t_uint32,t_mapping(t_uint16,t_bytes_storage))"
      },
      {
        "astId": 3091,
        "contract": "contracts/MPROLight.sol:MPRO",
        "label": "msgInspector",
        "offset": 0,
        "slot": "4",
        "type": "t_address"
      },
      {
        "astId": 9978,
        "contract": "contracts/MPROLight.sol:MPRO",
        "label": "_balances",
        "offset": 0,
        "slot": "5",
        "type": "t_mapping(t_address,t_uint256)"
      },
      {
        "astId": 9984,
        "contract": "contracts/MPROLight.sol:MPRO",
        "label": "_allowances",
        "offset": 0,
        "slot": "6",
        "type": "t_mapping(t_address,t_mapping(t_address,t_uint256))"
      },
      {
        "astId": 9986,
        "contract": "contracts/MPROLight.sol:MPRO",
        "label": "_totalSupply",
        "offset": 0,
        "slot": "7",
        "type": "t_uint256"
      },
      {
        "astId": 9988,
        "contract": "contracts/MPROLight.sol:MPRO",
        "label": "_name",
        "offset": 0,
        "slot": "8",
        "type": "t_string_storage"
      },
      {
        "astId": 9990,
        "contract": "contracts/MPROLight.sol:MPRO",
        "label": "_symbol",
        "offset": 0,
        "slot": "9",
        "type": "t_string_storage"
      },
      {
        "astId": 13358,
        "contract": "contracts/MPROLight.sol:MPRO",
        "label": "_nameFallback",
        "offset": 0,
        "slot": "10",
        "type": "t_string_storage"
      },
      {
        "astId": 13360,
        "contract": "contracts/MPROLight.sol:MPRO",
        "label": "_versionFallback",
        "offset": 0,
        "slot": "11",
        "type": "t_string_storage"
      },
      {
        "astId": 10650,
        "contract": "contracts/MPROLight.sol:MPRO",
        "label": "_nonces",
        "offset": 0,
        "slot": "12",
        "type": "t_mapping(t_address,t_struct(Counter)12336_storage)"
      },
      {
        "astId": 10658,
        "contract": "contracts/MPROLight.sol:MPRO",
        "label": "_PERMIT_TYPEHASH_DEPRECATED_SLOT",
        "offset": 0,
        "slot": "13",
        "type": "t_bytes32"
      },
      {
        "astId": 10825,
        "contract": "contracts/MPROLight.sol:MPRO",
        "label": "_delegates",
        "offset": 0,
        "slot": "14",
        "type": "t_mapping(t_address,t_address)"
      },
      {
        "astId": 10831,
        "contract": "contracts/MPROLight.sol:MPRO",
        "label": "_checkpoints",
        "offset": 0,
        "slot": "15",
        "type": "t_mapping(t_address,t_array(t_struct(Checkpoint)10816_storage)dyn_storage)"
      },
      {
        "astId": 10835,
        "contract": "contracts/MPROLight.sol:MPRO",
        "label": "_totalSupplyCheckpoints",
        "offset": 0,
        "slot": "16",
        "type": "t_array(t_struct(Checkpoint)10816_storage)dyn_storage"
      },
      {
        "astId": 18449,
        "contract": "contracts/MPROLight.sol:MPRO",
        "label": "mproMasterDistributor",
        "offset": 0,
        "slot": "17",
        "type": "t_contract(IMPROMasterDistributor)18442"
      }
    ],
    "types": {
      "t_address": {
        "encoding": "inplace",
        "label": "address",
        "numberOfBytes": "20"
      },
      "t_array(t_struct(Checkpoint)10816_storage)dyn_storage": {
        "base": "t_struct(Checkpoint)10816_storage",
        "encoding": "dynamic_array",
        "label": "struct ERC20Votes.Checkpoint[]",
        "numberOfBytes": "32"
      },
      "t_bytes32": {
        "encoding": "inplace",
        "label": "bytes32",
        "numberOfBytes": "32"
      },
      "t_bytes_storage": {
        "encoding": "bytes",
        "label": "bytes",
        "numberOfBytes": "32"
      },
      "t_contract(IMPROMasterDistributor)18442": {
        "encoding": "inplace",
        "label": "contract IMPROMasterDistributor",
        "numberOfBytes": "20"
      },
      "t_mapping(t_address,t_address)": {
        "encoding": "mapping",
        "key": "t_address",
        "label": "mapping(address => address)",
        "numberOfBytes": "32",
        "value": "t_address"
      },
      "t_mapping(t_address,t_array(t_struct(Checkpoint)10816_storage)dyn_storage)": {
        "encoding": "mapping",
        "key": "t_address",
        "label": "mapping(address => struct ERC20Votes.Checkpoint[])",
        "numberOfBytes": "32",
        "value": "t_array(t_struct(Checkpoint)10816_storage)dyn_storage"
      },
      "t_mapping(t_address,t_mapping(t_address,t_uint256))": {
        "encoding": "mapping",
        "key": "t_address",
        "label": "mapping(address => mapping(address => uint256))",
        "numberOfBytes": "32",
        "value": "t_mapping(t_address,t_uint256)"
      },
      "t_mapping(t_address,t_struct(Counter)12336_storage)": {
        "encoding": "mapping",
        "key": "t_address",
        "label": "mapping(address => struct Counters.Counter)",
        "numberOfBytes": "32",
        "value": "t_struct(Counter)12336_storage"
      },
      "t_mapping(t_address,t_uint256)": {
        "encoding": "mapping",
        "key": "t_address",
        "label": "mapping(address => uint256)",
        "numberOfBytes": "32",
        "value": "t_uint256"
      },
      "t_mapping(t_uint16,t_bytes_storage)": {
        "encoding": "mapping",
        "key": "t_uint16",
        "label": "mapping(uint16 => bytes)",
        "numberOfBytes": "32",
        "value": "t_bytes_storage"
      },
      "t_mapping(t_uint32,t_bytes32)": {
        "encoding": "mapping",
        "key": "t_uint32",
        "label": "mapping(uint32 => bytes32)",
        "numberOfBytes": "32",
        "value": "t_bytes32"
      },
      "t_mapping(t_uint32,t_mapping(t_uint16,t_bytes_storage))": {
        "encoding": "mapping",
        "key": "t_uint32",
        "label": "mapping(uint32 => mapping(uint16 => bytes))",
        "numberOfBytes": "32",
        "value": "t_mapping(t_uint16,t_bytes_storage)"
      },
      "t_string_storage": {
        "encoding": "bytes",
        "label": "string",
        "numberOfBytes": "32"
      },
      "t_struct(Checkpoint)10816_storage": {
        "encoding": "inplace",
        "label": "struct ERC20Votes.Checkpoint",
        "members": [
          {
            "astId": 10813,
            "contract": "contracts/MPROLight.sol:MPRO",
            "label": "fromBlock",
            "offset": 0,
            "slot": "0",
            "type": "t_uint32"
          },
          {
            "astId": 10815,
            "contract": "contracts/MPROLight.sol:MPRO",
            "label": "votes",
            "offset": 4,
            "slot": "0",
            "type": "t_uint224"
          }
        ],
        "numberOfBytes": "32"
      },
      "t_struct(Counter)12336_storage": {
        "encoding": "inplace",
        "label": "struct Counters.Counter",
        "members": [
          {
            "astId": 12335,
            "contract": "contracts/MPROLight.sol:MPRO",
            "label": "_value",
            "offset": 0,
            "slot": "0",
            "type": "t_uint256"
          }
        ],
        "numberOfBytes": "32"
      },
      "t_uint16": {
        "encoding": "inplace",
        "label": "uint16",
        "numberOfBytes": "2"
      },
      "t_uint224": {
        "encoding": "inplace",
        "label": "uint224",
        "numberOfBytes": "28"
      },
      "t_uint256": {
        "encoding": "inplace",
        "label": "uint256",
        "numberOfBytes": "32"
      },
      "t_uint32": {
        "encoding": "inplace",
        "label": "uint32",
        "numberOfBytes": "4"
      }
    }
  }
}