{
  "address": "0xB852b50F2396E2d59f6fB9BcD5E530bb0Bc04Adb",
  "abi": [
    {
      "inputs": [
        {
          "internalType": "address",
          "name": "_owner",
          "type": "address"
        }
      ],
      "stateMutability": "nonpayable",
      "type": "constructor"
    },
    {
      "anonymous": false,
      "inputs": [
        {
          "indexed": false,
          "internalType": "uint256",
          "name": "_redutionTimestamp",
          "type": "uint256"
        },
        {
          "indexed": false,
          "internalType": "uint256",
          "name": "_reductionAmount",
          "type": "uint256"
        }
      ],
      "name": "AddDistributionReduction",
      "type": "event"
    },
    {
      "anonymous": false,
      "inputs": [
        {
          "indexed": true,
          "internalType": "address",
          "name": "_to",
          "type": "address"
        },
        {
          "indexed": false,
          "internalType": "uint256",
          "name": "amount",
          "type": "uint256"
        }
      ],
      "name": "Distributed",
      "type": "event"
    },
    {
      "anonymous": false,
      "inputs": [
        {
          "indexed": true,
          "internalType": "address",
          "name": "previousOwner",
          "type": "address"
        },
        {
          "indexed": true,
          "internalType": "address",
          "name": "newOwner",
          "type": "address"
        }
      ],
      "name": "OwnershipTransferred",
      "type": "event"
    },
    {
      "anonymous": false,
      "inputs": [
        {
          "indexed": true,
          "internalType": "bytes32",
          "name": "role",
          "type": "bytes32"
        },
        {
          "indexed": true,
          "internalType": "bytes32",
          "name": "previousAdminRole",
          "type": "bytes32"
        },
        {
          "indexed": true,
          "internalType": "bytes32",
          "name": "newAdminRole",
          "type": "bytes32"
        }
      ],
      "name": "RoleAdminChanged",
      "type": "event"
    },
    {
      "anonymous": false,
      "inputs": [
        {
          "indexed": true,
          "internalType": "bytes32",
          "name": "role",
          "type": "bytes32"
        },
        {
          "indexed": true,
          "internalType": "address",
          "name": "account",
          "type": "address"
        },
        {
          "indexed": true,
          "internalType": "address",
          "name": "sender",
          "type": "address"
        }
      ],
      "name": "RoleGranted",
      "type": "event"
    },
    {
      "anonymous": false,
      "inputs": [
        {
          "indexed": true,
          "internalType": "bytes32",
          "name": "role",
          "type": "bytes32"
        },
        {
          "indexed": true,
          "internalType": "address",
          "name": "account",
          "type": "address"
        },
        {
          "indexed": true,
          "internalType": "address",
          "name": "sender",
          "type": "address"
        }
      ],
      "name": "RoleRevoked",
      "type": "event"
    },
    {
      "anonymous": false,
      "inputs": [
        {
          "indexed": false,
          "internalType": "uint256",
          "name": "_burnRate",
          "type": "uint256"
        }
      ],
      "name": "SetBurnRate",
      "type": "event"
    },
    {
      "anonymous": false,
      "inputs": [
        {
          "indexed": false,
          "internalType": "uint256",
          "name": "_startTime",
          "type": "uint256"
        }
      ],
      "name": "SetDistribiutionStartTime",
      "type": "event"
    },
    {
      "anonymous": false,
      "inputs": [
        {
          "indexed": false,
          "internalType": "address",
          "name": "_roleManagerAddress",
          "type": "address"
        }
      ],
      "name": "SetDistributorTimeAdministratorRole",
      "type": "event"
    },
    {
      "anonymous": false,
      "inputs": [
        {
          "indexed": false,
          "internalType": "address",
          "name": "_roleManagerAddress",
          "type": "address"
        }
      ],
      "name": "SetDistributorTimeAdministratorRoleManager",
      "type": "event"
    },
    {
      "anonymous": false,
      "inputs": [
        {
          "indexed": false,
          "internalType": "address",
          "name": "_mproTokenAddress",
          "type": "address"
        }
      ],
      "name": "SetJAKANTToken",
      "type": "event"
    },
    {
      "inputs": [],
      "name": "DEFAULT_ADMIN_ROLE",
      "outputs": [
        {
          "internalType": "bytes32",
          "name": "",
          "type": "bytes32"
        }
      ],
      "stateMutability": "view",
      "type": "function"
    },
    {
      "inputs": [],
      "name": "DISTRIBUTIONS_ADMINISTRATOR_ROLE",
      "outputs": [
        {
          "internalType": "bytes32",
          "name": "",
          "type": "bytes32"
        }
      ],
      "stateMutability": "view",
      "type": "function"
    },
    {
      "inputs": [],
      "name": "DISTRIBUTIONS_ADMINISTRATOR_ROLE_MANAGER",
      "outputs": [
        {
          "internalType": "bytes32",
          "name": "",
          "type": "bytes32"
        }
      ],
      "stateMutability": "view",
      "type": "function"
    },
    {
      "inputs": [],
      "name": "JAKANT_MASTER_DISTRIBUTOR_ROLE",
      "outputs": [
        {
          "internalType": "bytes32",
          "name": "",
          "type": "bytes32"
        }
      ],
      "stateMutability": "view",
      "type": "function"
    },
    {
      "inputs": [],
      "name": "LISTER_ROLE",
      "outputs": [
        {
          "internalType": "bytes32",
          "name": "",
          "type": "bytes32"
        }
      ],
      "stateMutability": "view",
      "type": "function"
    },
    {
      "inputs": [
        {
          "internalType": "uint256",
          "name": "_redutionTimestamp",
          "type": "uint256"
        },
        {
          "internalType": "uint256",
          "name": "_reductionAmount",
          "type": "uint256"
        }
      ],
      "name": "addDistributionReduction",
      "outputs": [],
      "stateMutability": "nonpayable",
      "type": "function"
    },
    {
      "inputs": [
        {
          "internalType": "address",
          "name": "_spender",
          "type": "address"
        },
        {
          "internalType": "address",
          "name": "_msgSender",
          "type": "address"
        }
      ],
      "name": "approveAllowed",
      "outputs": [
        {
          "internalType": "bool",
          "name": "",
          "type": "bool"
        }
      ],
      "stateMutability": "view",
      "type": "function"
    },
    {
      "inputs": [
        {
          "internalType": "address",
          "name": "_account",
          "type": "address"
        },
        {
          "internalType": "bool",
          "name": "_blocklist",
          "type": "bool"
        }
      ],
      "name": "blocklist",
      "outputs": [],
      "stateMutability": "nonpayable",
      "type": "function"
    },
    {
      "inputs": [],
      "name": "burnRate",
      "outputs": [
        {
          "internalType": "uint256",
          "name": "",
          "type": "uint256"
        }
      ],
      "stateMutability": "view",
      "type": "function"
    },
    {
      "inputs": [
        {
          "internalType": "address",
          "name": "_to",
          "type": "address"
        },
        {
          "internalType": "uint256",
          "name": "_amount",
          "type": "uint256"
        }
      ],
      "name": "distribute",
      "outputs": [],
      "stateMutability": "nonpayable",
      "type": "function"
    },
    {
      "inputs": [
        {
          "internalType": "address[]",
          "name": "_to",
          "type": "address[]"
        },
        {
          "internalType": "uint256[]",
          "name": "_amount",
          "type": "uint256[]"
        }
      ],
      "name": "distributeBulk",
      "outputs": [],
      "stateMutability": "nonpayable",
      "type": "function"
    },
    {
      "inputs": [],
      "name": "distributedTokens",
      "outputs": [
        {
          "internalType": "uint256",
          "name": "",
          "type": "uint256"
        }
      ],
      "stateMutability": "view",
      "type": "function"
    },
    {
      "inputs": [
        {
          "internalType": "uint256",
          "name": "",
          "type": "uint256"
        }
      ],
      "name": "distributionReductions",
      "outputs": [
        {
          "internalType": "uint256",
          "name": "reductionTimestamp",
          "type": "uint256"
        },
        {
          "internalType": "uint256",
          "name": "daylyDistribution",
          "type": "uint256"
        }
      ],
      "stateMutability": "view",
      "type": "function"
    },
    {
      "inputs": [],
      "name": "distributionStartTimestamp",
      "outputs": [
        {
          "internalType": "uint256",
          "name": "",
          "type": "uint256"
        }
      ],
      "stateMutability": "view",
      "type": "function"
    },
    {
      "inputs": [],
      "name": "getAllTokenDistribution",
      "outputs": [
        {
          "internalType": "uint256",
          "name": "",
          "type": "uint256"
        }
      ],
      "stateMutability": "view",
      "type": "function"
    },
    {
      "inputs": [
        {
          "internalType": "address",
          "name": "_from",
          "type": "address"
        },
        {
          "internalType": "uint256",
          "name": "_amount",
          "type": "uint256"
        }
      ],
      "name": "getBurnAmount",
      "outputs": [
        {
          "internalType": "uint256",
          "name": "",
          "type": "uint256"
        }
      ],
      "stateMutability": "view",
      "type": "function"
    },
    {
      "inputs": [],
      "name": "getDistributionReductions",
      "outputs": [
        {
          "components": [
            {
              "internalType": "uint256",
              "name": "reductionTimestamp",
              "type": "uint256"
            },
            {
              "internalType": "uint256",
              "name": "daylyDistribution",
              "type": "uint256"
            }
          ],
          "internalType": "struct JAKANTMasterDistributor.DistributionReduction[]",
          "name": "",
          "type": "tuple[]"
        }
      ],
      "stateMutability": "view",
      "type": "function"
    },
    {
      "inputs": [
        {
          "internalType": "bytes32",
          "name": "role",
          "type": "bytes32"
        }
      ],
      "name": "getRoleAdmin",
      "outputs": [
        {
          "internalType": "bytes32",
          "name": "",
          "type": "bytes32"
        }
      ],
      "stateMutability": "view",
      "type": "function"
    },
    {
      "inputs": [
        {
          "internalType": "bytes32",
          "name": "_role",
          "type": "bytes32"
        },
        {
          "internalType": "address",
          "name": "_account",
          "type": "address"
        }
      ],
      "name": "grantRole",
      "outputs": [],
      "stateMutability": "nonpayable",
      "type": "function"
    },
    {
      "inputs": [
        {
          "internalType": "bytes32",
          "name": "role",
          "type": "bytes32"
        },
        {
          "internalType": "address",
          "name": "account",
          "type": "address"
        }
      ],
      "name": "hasRole",
      "outputs": [
        {
          "internalType": "bool",
          "name": "",
          "type": "bool"
        }
      ],
      "stateMutability": "view",
      "type": "function"
    },
    {
      "inputs": [],
      "name": "initialDaylyDistribution",
      "outputs": [
        {
          "internalType": "uint256",
          "name": "",
          "type": "uint256"
        }
      ],
      "stateMutability": "view",
      "type": "function"
    },
    {
      "inputs": [
        {
          "internalType": "address",
          "name": "_account",
          "type": "address"
        }
      ],
      "name": "isBlocklisted",
      "outputs": [
        {
          "internalType": "bool",
          "name": "",
          "type": "bool"
        }
      ],
      "stateMutability": "view",
      "type": "function"
    },
    {
      "inputs": [
        {
          "internalType": "address",
          "name": "_address",
          "type": "address"
        }
      ],
      "name": "isDistributor",
      "outputs": [
        {
          "internalType": "bool",
          "name": "",
          "type": "bool"
        }
      ],
      "stateMutability": "view",
      "type": "function"
    },
    {
      "inputs": [
        {
          "internalType": "address",
          "name": "_account",
          "type": "address"
        }
      ],
      "name": "isLister",
      "outputs": [
        {
          "internalType": "bool",
          "name": "",
          "type": "bool"
        }
      ],
      "stateMutability": "view",
      "type": "function"
    },
    {
      "inputs": [
        {
          "internalType": "address",
          "name": "_minter",
          "type": "address"
        }
      ],
      "name": "mintAllowed",
      "outputs": [
        {
          "internalType": "bool",
          "name": "",
          "type": "bool"
        }
      ],
      "stateMutability": "view",
      "type": "function"
    },
    {
      "inputs": [],
      "name": "owner",
      "outputs": [
        {
          "internalType": "address",
          "name": "",
          "type": "address"
        }
      ],
      "stateMutability": "view",
      "type": "function"
    },
    {
      "inputs": [],
      "name": "renounceOwnership",
      "outputs": [],
      "stateMutability": "nonpayable",
      "type": "function"
    },
    {
      "inputs": [
        {
          "internalType": "bytes32",
          "name": "_role",
          "type": "bytes32"
        },
        {
          "internalType": "address",
          "name": "_account",
          "type": "address"
        }
      ],
      "name": "renounceRole",
      "outputs": [],
      "stateMutability": "nonpayable",
      "type": "function"
    },
    {
      "inputs": [
        {
          "internalType": "bytes32",
          "name": "_role",
          "type": "bytes32"
        },
        {
          "internalType": "address",
          "name": "_account",
          "type": "address"
        }
      ],
      "name": "revokeRole",
      "outputs": [],
      "stateMutability": "nonpayable",
      "type": "function"
    },
    {
      "inputs": [
        {
          "internalType": "uint256",
          "name": "_burnRate",
          "type": "uint256"
        }
      ],
      "name": "setBurnRate",
      "outputs": [],
      "stateMutability": "nonpayable",
      "type": "function"
    },
    {
      "inputs": [
        {
          "internalType": "uint256",
          "name": "_startTime",
          "type": "uint256"
        }
      ],
      "name": "setDistributionStartTime",
      "outputs": [],
      "stateMutability": "nonpayable",
      "type": "function"
    },
    {
      "inputs": [
        {
          "internalType": "address",
          "name": "_roleManagerAddress",
          "type": "address"
        }
      ],
      "name": "setDistributorTimeAdministratorRole",
      "outputs": [],
      "stateMutability": "nonpayable",
      "type": "function"
    },
    {
      "inputs": [
        {
          "internalType": "address",
          "name": "_roleManagerAddress",
          "type": "address"
        }
      ],
      "name": "setDistributorTimeAdministratorRoleManager",
      "outputs": [],
      "stateMutability": "nonpayable",
      "type": "function"
    },
    {
      "inputs": [
        {
          "internalType": "address",
          "name": "_mproTokenAddress",
          "type": "address"
        }
      ],
      "name": "setJAKANTToken",
      "outputs": [],
      "stateMutability": "nonpayable",
      "type": "function"
    },
    {
      "inputs": [
        {
          "internalType": "bytes4",
          "name": "interfaceId",
          "type": "bytes4"
        }
      ],
      "name": "supportsInterface",
      "outputs": [
        {
          "internalType": "bool",
          "name": "",
          "type": "bool"
        }
      ],
      "stateMutability": "view",
      "type": "function"
    },
    {
      "inputs": [
        {
          "internalType": "address",
          "name": "_from",
          "type": "address"
        },
        {
          "internalType": "address",
          "name": "_to",
          "type": "address"
        },
        {
          "internalType": "address",
          "name": "_msgSender",
          "type": "address"
        }
      ],
      "name": "transferAllowed",
      "outputs": [
        {
          "internalType": "bool",
          "name": "",
          "type": "bool"
        }
      ],
      "stateMutability": "view",
      "type": "function"
    },
    {
      "inputs": [
        {
          "internalType": "address",
          "name": "newOwner",
          "type": "address"
        }
      ],
      "name": "transferOwnership",
      "outputs": [],
      "stateMutability": "nonpayable",
      "type": "function"
    },
    {
      "inputs": [
        {
          "internalType": "address",
          "name": "_account",
          "type": "address"
        },
        {
          "internalType": "bool",
          "name": "_whitelist",
          "type": "bool"
        }
      ],
      "name": "whitelist",
      "outputs": [],
      "stateMutability": "nonpayable",
      "type": "function"
    }
  ],
  "transactionHash": "0x6fd6bcc6ebe9c3e874192aeba9402079e56da4f60030e6a4154345754a02236d",
  "args": [
    "0x8B7C5D0F05Dc6A5Af60292A6061aE960b8a47274"
  ],
  "numDeployments": 1,
  "solcInputHash": "83c3985bc9a3a1725a144f525ab813a4",
  "bytecode": "0x60a060405260006007556103e86009553480156200001c57600080fd5b506040516200274c3803806200274c8339810160408190526200003f91620000d2565b6200004a3362000080565b62000059426201518062000104565b6006556200006b42620d2f0062000104565b608052620000798162000080565b506200012c565b600180546001600160a01b038381166001600160a01b0319831681179093556040519116919082907f8be0079c531659141344cd1fd0a4f28419497f9722a3daafe3b4186f6b6457e090600090a35050565b600060208284031215620000e557600080fd5b81516001600160a01b0381168114620000fd57600080fd5b9392505050565b808201808211156200012657634e487b7160e01b600052601160045260246000fd5b92915050565b6080516126046200014860003960006112ab01526126046000f3fe608060405234801561001057600080fd5b50600436106102325760003560e01c806393fc9e5f11610130578063cadcdd31116100b8578063eba1c66b1161007c578063eba1c66b146104c5578063f2fde38b146104d8578063f59c3708146104eb578063fb932108146104fe578063fc0e8c1b1461051157600080fd5b8063cadcdd3114610462578063d2b7077914610475578063d547741f14610488578063d68352df1461049b578063deb26b94146104b057600080fd5b8063ad33628f116100ff578063ad33628f1461040f578063b7c4a6bf14610420578063b962cbaf14610433578063bed9985014610446578063bf90fbc61461044f57600080fd5b806393fc9e5f146103d857806395cde8b4146103eb578063a217fddf146103fe578063a3df582a1461040657600080fd5b80634a205004116101be5780638e204c43116101825780638e204c43146103775780638f0751451461038a5780638f0c86fa1461039d57806391d14854146103b057806393bcc923146103c357600080fd5b80634a2050041461030e578063517f25a214610336578063586360ce1461034b578063715018a6146103545780638da5cb5b1461035c57600080fd5b80632117086f116102055780632117086f1461029f578063248a9ca3146102b25780632f2ff15d146102d557806336568abe146102e857806340c75ea9146102fb57600080fd5b806301ffc9a714610237578063079ddd6d1461025f5780631765b69114610274578063189d165e1461028a575b600080fd5b61024a610245366004611eb2565b610524565b60405190151581526020015b60405180910390f35b61026761055b565b6040516102569190611edc565b61027c6105ce565b604051908152602001610256565b61029d610298366004611f2b565b61074d565b005b61029d6102ad366004611f44565b610820565b61027c6102c0366004611f2b565b60009081526020819052604090206001015490565b61029d6102e3366004611f7b565b610bc5565b61029d6102f6366004611f7b565b610cb4565b61029d610309366004612081565b610de2565b61032161031c366004611f2b565b610ec2565b60408051928352602083019190915201610256565b61027c6000805160206125af83398151915281565b61027c60075481565b61029d610ef0565b6001546040516001600160a01b039091168152602001610256565b61024a610385366004612143565b610f04565b61029d610398366004612143565b610f22565b61024a6103ab366004612143565b611058565b61024a6103be366004611f7b565b61106e565b61027c60008051602061258f83398151915281565b61024a6103e6366004612160565b611097565b61024a6103f9366004612143565b6110ed565b61027c600081565b61027c60065481565b61027c6934f086f3b33b6840000081565b61027c61042e3660046121ab565b61114f565b61029d610441366004611f2b565b61118f565b61027c60095481565b61029d61045d366004612143565b611388565b61029d610470366004612143565b6114cf565b61024a6104833660046121d7565b611599565b61029d610496366004611f7b565b6115dc565b61027c60008051602061254f83398151915281565b61027c60008051602061252f83398151915281565b61029d6104d3366004612205565b61160b565b61029d6104e6366004612143565b61178c565b61029d6104f9366004612205565b611805565b61029d61050c3660046121ab565b611871565b61024a61051f366004612143565b611a7b565b60006001600160e01b03198216637965db0b60e01b148061055557506301ffc9a760e01b6001600160e01b03198316145b92915050565b60606008805480602002602001604051908101604052809291908181526020016000905b828210156105c55783829060005260206000209060020201604051806040016040529081600082015481526020016001820154815250508152602001906001019061057f565b50505050905090565b60006006544210156105e05750600090565b6006546934f086f3b33b68400000906000906105fc904261224e565b9050600061060c61025883612261565b60085490915042906000036106425761062f6934f086f3b33b6840000083612283565b610639908561229a565b94505050505090565b6008546000906106549060019061224e565b90505b60006008828154811061066c5761066c6122ad565b906000526020600020906002020160405180604001604052908160008201548152602001600182015481525050905080600001514210610712578051600090610258906106b9908661224e565b6106c39190612261565b90508160200151816106d59190612283565b82602001516106e4919061229a565b6106ee908861229a565b825190975093506106ff818661224e565b945082600003610710575050610725565b505b508061071d816122c3565b915050610657565b5061073a6934f086f3b33b6840000083612283565b610744908561229a565b95945050505050565b610755611a95565b6103e88111156107e45760405162461bcd60e51b815260206004820152604960248201527f4a414b414e544d61737465724469737472696275746f723a204275726e20726160448201527f74652063616e6e6f742062652067726561746572207468616e206f7220657175606482015268616c20746f2031302560b81b608482015260a4015b60405180910390fd5b60098190556040518181527f9184e9ae9554b2f814a8bdda1712d37b4b6ae7aac79868386ac664e57ce1dcf3906020015b60405180910390a150565b6000805160206125af83398151915261083881611aef565b8282610857604051806040016040528060008152602001600081525090565b600854156108b3576008805461086f9060019061224e565b8154811061087f5761087f6122ad565b90600052602060002090600202016040518060400160405290816000820154815260200160018201548152505090506108d4565b506040805180820190915260065481526934f086f3b33b6840000060208201525b80516108e29061025861229a565b8310156109945760405162461bcd60e51b815260206004820152606e60248201527f4a414b414e544d61737465724469737472696275746f723a204e65772072656460448201527f7574696f6e2073746172742074696d652063616e6e6f74206265206c6f77657260648201527f207468616e203130206d696e75746573206166746572206c617374207265647560848201526d074696f6e2074696d657374616d760941b60a482015260c4016107db565b60208101516109a4906002611af9565b821015610a4e5760405162461bcd60e51b815260206004820152606660248201527f4a414b414e544d61737465724469737472696275746f723a204e65772072656460448201527f756374696f6e20616d6f756e742063616e6e6f7420626520677265617465722060648201527f7468616e2068616c66206f6620746865206c61737420726564756374696f6e20608482015265185b5bdd5b9d60d21b60a482015260c4016107db565b6020810151610a5e906002611b05565b821115610b0e5760405162461bcd60e51b815260206004820152606c60248201527f4d50524f4d61737465724469737472696275746f723a204e657720726564756360448201527f74696f6e20616d6f756e742063616e6e6f74206265206772656174657220746860648201527f616e20746865206c61737420726564756374696f6e20616d6f756e74206d756c60848201526b3a34b83634b2b210313c901960a11b60a482015260c4016107db565b60408051808201825287815260208082018881526008805460018101825560009190915292517ff3f7a9fe364faab93b216da50a3214154f22a0a2b415b23a84c8169e8b636ee3600290940293840155517ff3f7a9fe364faab93b216da50a3214154f22a0a2b415b23a84c8169e8b636ee49092019190915581518881529081018790527f753d15e0c64e5ba659389066f8d03d486700c959348e556618057a587d066a79910160405180910390a1505050505050565b610bcd611a95565b6001600160a01b038116600090815260046020526040902054819060ff1615610c085760405162461bcd60e51b81526004016107db906122da565b816001600160a01b038116610c2f5760405162461bcd60e51b81526004016107db90612330565b83610c3b81600061106e565b15610c585760405162461bcd60e51b81526004016107db9061237f565b600085815260036020526040902054859060ff1615610c895760405162461bcd60e51b81526004016107db906123ce565b6000868152600360205260409020805460ff19166001179055610cac8686611b11565b505050505050565b806001600160a01b038116610cdb5760405162461bcd60e51b81526004016107db90612330565b6001600160a01b0382163314610d4b5760405162461bcd60e51b815260206004820152602f60248201527f416363657373436f6e74726f6c3a2063616e206f6e6c792072656e6f756e636560448201526e103937b632b9903337b91039b2b63360891b60648201526084016107db565b610d55838361106e565b610dbd5760405162461bcd60e51b815260206004820152603360248201527f4a414b414e544d61737465724469737472696275746f723a204163636f756e7460448201527220646f6573206e6f74206861766520726f6c6560681b60648201526084016107db565b6000838152600360205260409020805460ff19169055610ddd8383611b96565b505050565b60008051602061254f833981519152610dfa81611aef565b8151835114610e625760405162461bcd60e51b815260206004820152602e60248201527f746f20616e6420616d6f756e7420617272617973206d7573742068617665207460448201526d0d0ca40e6c2daca40d8cadccee8d60931b60648201526084016107db565b60005b8351811015610ebc57610eaa848281518110610e8357610e836122ad565b6020026020010151848381518110610e9d57610e9d6122ad565b6020026020010151611871565b80610eb48161242c565b915050610e65565b50505050565b60088181548110610ed257600080fd5b60009182526020909120600290910201805460019091015490915082565b610ef8611a95565b610f026000611bfb565b565b6001600160a01b031660009081526004602052604090205460ff1690565b610f2a611a95565b60008051602061258f833981519152610f4481600061106e565b15610f615760405162461bcd60e51b81526004016107db9061237f565b60008051602061258f833981519152600081905260036020527ff9830402bbafcd668269671b0f591a9864fddce5aeead4a4a535deea5f7d4eea5460ff1615610fbc5760405162461bcd60e51b81526004016107db906123ce565b610fd460008051602061258f83398151915284611b11565b60008051602061258f833981519152600052600360209081527ff9830402bbafcd668269671b0f591a9864fddce5aeead4a4a535deea5f7d4eea805460ff191660011790556040516001600160a01b03851681527f1653e4398425e1efcb20d294dbbf89446912817a166b95f7629558baef459ecd910160405180910390a1505050565b600061055560008051602061254f833981519152835b6000918252602082815260408084206001600160a01b0393909316845291905290205460ff1690565b60006110a284610f04565b1580156110b557506110b383610f04565b155b80156110c757506110c582610f04565b155b6110e35760405162461bcd60e51b81526004016107db906122da565b5060019392505050565b60006001600160a01b03821630146111475760405162461bcd60e51b8152602060048201526029602482015260008051602061256f83398151915260448201526875746f72206f6e6c7960b81b60648201526084016107db565b506001919050565b600061115a83611c4d565b1561116757506000610555565b61118861271061118260095485611b0590919063ffffffff16565b90611af9565b9392505050565b611197611a95565b6007541561122b5760405162461bcd60e51b8152602060048201526061602482015260008051602061256f83398151915260448201527f7574696f6e2073746172742074696d652063616e6e6f74206265206368616e6760648201527f656420616674657220646973747269627574696f6e20686173207374617274656084820152601960fa1b60a482015260c4016107db565b4281116112a95760405162461bcd60e51b8152602060048201526052602482015260008051602061256f83398151915260448201527f7574696f6e2073746172742074696d652063616e6e6f74206265206c6f776572606482015271207468616e2063757272656e742074696d6560701b608482015260a4016107db565b7f00000000000000000000000000000000000000000000000000000000000000008111156113535760405162461bcd60e51b8152602060048201526060602482015260008051602061256f83398151915260448201527f7574696f6e2073746172742074696d65206d757374206265206c65737320746860648201527f616e20646973747269627574696f6e537461727454696d65446561646c696e65608482015260a4016107db565b60068190556040518181527fc8e2be95c2a499f9692e142afc6b178470bd8e16d080e91497658c20e282484790602001610815565b60008051602061258f8339815191526113a081611aef565b6000805160206125af8339815191526113ba81600061106e565b156113d75760405162461bcd60e51b81526004016107db9061237f565b6000805160206125af833981519152600081905260036020527feaea521b0fa1c79f9189cdc6d8d5f17d784b28b30b94868dd16f50216f20ffd25460ff16156114325760405162461bcd60e51b81526004016107db906123ce565b61144a6000805160206125af83398151915285611b11565b6000805160206125af833981519152600052600360209081527feaea521b0fa1c79f9189cdc6d8d5f17d784b28b30b94868dd16f50216f20ffd2805460ff191660011790556040516001600160a01b03861681527fd79838a02a85292deb7f2e9e20a140c1313678e1c21a2117d99df07532150a7b910160405180910390a150505050565b6114d7611a95565b6002546001600160a01b03161561154b5760405162461bcd60e51b815260206004820152603260248201527f4a414b414e544d61737465724469737472696275746f723a204d50524f20746f6044820152711ad95b881a5cc8185b1c9958591e481cd95d60721b60648201526084016107db565b600280546001600160a01b0319166001600160a01b0383169081179091556040519081527f59167548a4cb52fcd2ed1a5f6449dc7de57bd231856497fa316ed405ff95c09a90602001610815565b60006115a483610f04565b1580156115b757506115b582610f04565b155b6115d35760405162461bcd60e51b81526004016107db906122da565b50600192915050565b6115e4611a95565b806001600160a01b038116610d4b5760405162461bcd60e51b81526004016107db90612330565b60008051602061252f83398151915261162381611aef565b826001600160a01b03811661164a5760405162461bcd60e51b81526004016107db90612330565b836001600160a01b0316306001600160a01b0316638da5cb5b6040518163ffffffff1660e01b8152600401602060405180830381865afa158015611692573d6000803e3d6000fd5b505050506040513d601f19601f820116820180604052508101906116b69190612445565b6001600160a01b031614806116cf57506116cf84611a7b565b806116de57506116de84611058565b1561175f5760405162461bcd60e51b815260206004820152604560248201527f4a414b414e544d61737465724469737472696275746f723a204163636f756e7460448201527f20686173206120726f6c6520616e642063616e6e6f7420626520626c6f636b6c6064820152641a5cdd195960da1b608482015260a4016107db565b50506001600160a01b03919091166000908152600460205260409020805460ff1916911515919091179055565b611794611a95565b6001600160a01b0381166117f95760405162461bcd60e51b815260206004820152602660248201527f4f776e61626c653a206e6577206f776e657220697320746865207a65726f206160448201526564647265737360d01b60648201526084016107db565b61180281611bfb565b50565b60008051602061252f83398151915261181d81611aef565b826001600160a01b0381166118445760405162461bcd60e51b81526004016107db90612330565b50506001600160a01b03919091166000908152600560205260409020805460ff1916911515919091179055565b60008051602061254f83398151915261188981611aef565b600082116118d95760405162461bcd60e51b815260206004820152601d60248201527f616d6f756e74206d7573742062652067726561746572207468616e203000000060448201526064016107db565b6006544210156119475760405162461bcd60e51b815260206004820152603360248201527f4a414b414e544d61737465724469737472696275746f723a204d696e74696e67604482015272081a5cc81b9bdd08195b98589b1959081e595d606a1b60648201526084016107db565b61194f611c84565b8211156119b65760405162461bcd60e51b815260206004820152602f60248201527f4a414b414e544d61737465724469737472696275746f723a204d696e74696e6760448201526e081b1a5b5a5d08195e18d959591959608a1b60648201526084016107db565b81600760008282546119c8919061229a565b90915550506002546040516340c10f1960e01b81526001600160a01b03858116600483015260248201859052909116906340c10f1990604401600060405180830381600087803b158015611a1b57600080fd5b505af1158015611a2f573d6000803e3d6000fd5b50505050826001600160a01b03167fb649c98f58055c520df0dcb5709eff2e931217ff2fb1e21376130d31bbb1c0af83604051611a6e91815260200190565b60405180910390a2505050565b600061055560008051602061252f8339815191528361106e565b6001546001600160a01b03163314610f025760405162461bcd60e51b815260206004820181905260248201527f4f776e61626c653a2063616c6c6572206973206e6f7420746865206f776e657260448201526064016107db565b6118028133611c9f565b60006111888284612261565b60006111888284612283565b611b1b828261106e565b611b92576000828152602081815260408083206001600160a01b03851684529091529020805460ff19166001179055611b513390565b6001600160a01b0316816001600160a01b0316837f2f8788117e7eff1d82e926ec794901d17c78024a50270940304540a733656f0d60405160405180910390a45b5050565b611ba0828261106e565b15611b92576000828152602081815260408083206001600160a01b0385168085529252808320805460ff1916905551339285917ff6391f5c32d9c69d2a47ea670b442974b53935d1edc7fd64eb21e047a839171b9190a45050565b600180546001600160a01b038381166001600160a01b0319831681179093556040519116919082907f8be0079c531659141344cd1fd0a4f28419497f9722a3daafe3b4186f6b6457e090600090a35050565b60006001600160a01b038216611c6557506001919050565b506001600160a01b031660009081526005602052604090205460ff1690565b6000611c9a600754611c946105ce565b90611cf8565b905090565b611ca9828261106e565b611b9257611cb681611d04565b611cc1836020611d16565b604051602001611cd2929190612486565b60408051601f198184030181529082905262461bcd60e51b82526107db916004016124fb565b6000611188828461224e565b60606105556001600160a01b03831660145b60606000611d25836002612283565b611d3090600261229a565b67ffffffffffffffff811115611d4857611d48611fab565b6040519080825280601f01601f191660200182016040528015611d72576020820181803683370190505b509050600360fc1b81600081518110611d8d57611d8d6122ad565b60200101906001600160f81b031916908160001a905350600f60fb1b81600181518110611dbc57611dbc6122ad565b60200101906001600160f81b031916908160001a9053506000611de0846002612283565b611deb90600161229a565b90505b6001811115611e63576f181899199a1a9b1b9c1cb0b131b232b360811b85600f1660108110611e1f57611e1f6122ad565b1a60f81b828281518110611e3557611e356122ad565b60200101906001600160f81b031916908160001a90535060049490941c93611e5c816122c3565b9050611dee565b5083156111885760405162461bcd60e51b815260206004820181905260248201527f537472696e67733a20686578206c656e67746820696e73756666696369656e7460448201526064016107db565b600060208284031215611ec457600080fd5b81356001600160e01b03198116811461118857600080fd5b602080825282518282018190526000919060409081850190868401855b82811015611f1e57815180518552860151868501529284019290850190600101611ef9565b5091979650505050505050565b600060208284031215611f3d57600080fd5b5035919050565b60008060408385031215611f5757600080fd5b50508035926020909101359150565b6001600160a01b038116811461180257600080fd5b60008060408385031215611f8e57600080fd5b823591506020830135611fa081611f66565b809150509250929050565b634e487b7160e01b600052604160045260246000fd5b604051601f8201601f1916810167ffffffffffffffff81118282101715611fea57611fea611fab565b604052919050565b600067ffffffffffffffff82111561200c5761200c611fab565b5060051b60200190565b600082601f83011261202757600080fd5b8135602061203c61203783611ff2565b611fc1565b82815260059290921b8401810191818101908684111561205b57600080fd5b8286015b84811015612076578035835291830191830161205f565b509695505050505050565b6000806040838503121561209457600080fd5b823567ffffffffffffffff808211156120ac57600080fd5b818501915085601f8301126120c057600080fd5b813560206120d061203783611ff2565b82815260059290921b840181019181810190898411156120ef57600080fd5b948201945b8386101561211657853561210781611f66565b825294820194908201906120f4565b9650508601359250508082111561212c57600080fd5b5061213985828601612016565b9150509250929050565b60006020828403121561215557600080fd5b813561118881611f66565b60008060006060848603121561217557600080fd5b833561218081611f66565b9250602084013561219081611f66565b915060408401356121a081611f66565b809150509250925092565b600080604083850312156121be57600080fd5b82356121c981611f66565b946020939093013593505050565b600080604083850312156121ea57600080fd5b82356121f581611f66565b91506020830135611fa081611f66565b6000806040838503121561221857600080fd5b823561222381611f66565b915060208301358015158114611fa057600080fd5b634e487b7160e01b600052601160045260246000fd5b8181038181111561055557610555612238565b60008261227e57634e487b7160e01b600052601260045260246000fd5b500490565b808202811582820484141761055557610555612238565b8082018082111561055557610555612238565b634e487b7160e01b600052603260045260246000fd5b6000816122d2576122d2612238565b506000190190565b60208082526036908201527f4a414b414e544d61737465724469737472696275746f723a20416374696f6e206040820152751bdb88189b1bd8dadb1a5cdd1959081858d8dbdd5b9d60521b606082015260800190565b6020808252602f908201527f4a414b414e544d61737465724469737472696275746f723a20416374696f6e2060408201526e6f6e2061646472657373207a65726f60881b606082015260800190565b6020808252602f908201527f4a414b414e544d61737465724469737472696275746f723a20526f6c6520697360408201526e08185b1c9958591e48189d5c9b9959608a1b606082015260800190565b602080825260409082018190527f4a414b414e544d61737465724469737472696275746f723a20526f6c6520616c908201527f7265616479206772616e74656420746f20616e6f74686572206163636f756e74606082015260800190565b60006001820161243e5761243e612238565b5060010190565b60006020828403121561245757600080fd5b815161118881611f66565b60005b8381101561247d578181015183820152602001612465565b50506000910152565b7f416363657373436f6e74726f6c3a206163636f756e74200000000000000000008152600083516124be816017850160208801612462565b7001034b99036b4b9b9b4b733903937b6329607d1b60179184019182015283516124ef816028840160208801612462565b01602801949350505050565b602081526000825180602084015261251a816040850160208701612462565b601f01601f1916919091016040019291505056fef94103142c1baabe9ac2b5d1487bf783de9e69cfeea9a72f5c9c94afd7877b8cd96d53eb75014cde2646895909cf5231d58942a05e66e5edf0a7bf450b504df34a414b414e544d61737465724469737472696275746f723a20446973747269626ee0f19c3526ca65945666b9437299b6a1b226cdffcd62f34d1cbc222cb026825afa424c0b6204848cb71c5aa5f8da1afaf45d645ada516ab6c53bb3ff616cffa26469706673582212206b1410e2058b54b5d6d9d0c29decc81eaaf24d94c5ae26810d15a46d8ac5252464736f6c63430008140033",
  "devdoc": {
    "details": "The JAKANTMasterDistributor contract manages token distribution and related operations. It is responsible for distributing tokens to eligible recipients based on specified rules and configurations. This contract utilizes the AccessControl feature for role-based access control. This contract extends the Context and AccessControl contracts to leverage their functionality. Role-based access control allows specific roles to perform authorized actions within the contract, ensuring proper governance and security.",
    "events": {
      "Distributed(address,uint256)": {
        "details": "Modifier to check and enable distribution reduction configurations. This modifier is used to validate and enable distribution reduction configurations. It checks that the provided `_reductionTimestamp` and `_reductionAmount` meet certain criteria to ensure that reductions are allowed. The criteria include: - `_reductionTimestamp` must be greater than the timestamp of the last reduction. - `_reductionTimestamp` must be greater than or equal to the current timestamp plus 30 days. - `_reductionAmount` must be greater than or equal to half of the previous daily distribution. If all criteria are met, the modifier allows the decorated function or operation to proceed. Otherwise, it reverts with specific error messages."
      },
      "RoleAdminChanged(bytes32,bytes32,bytes32)": {
        "details": "Emitted when `newAdminRole` is set as ``role``'s admin role, replacing `previousAdminRole` `DEFAULT_ADMIN_ROLE` is the starting admin for all roles, despite {RoleAdminChanged} not being emitted signaling this. _Available since v3.1._"
      },
      "RoleGranted(bytes32,address,address)": {
        "details": "Emitted when `account` is granted `role`. `sender` is the account that originated the contract call, an admin role bearer except when using {AccessControl-_setupRole}."
      },
      "RoleRevoked(bytes32,address,address)": {
        "details": "Emitted when `account` is revoked `role`. `sender` is the account that originated the contract call:   - if using `revokeRole`, it is the admin role bearer   - if using `renounceRole`, it is the role bearer (i.e. `account`)"
      }
    },
    "kind": "dev",
    "methods": {
      "addDistributionReduction(uint256,uint256)": {
        "details": "Adds a new distribution reduction to the contract. This external function allows an account with the DISTRIBUTIONS_ADMINISTRATOR_ROLE to add a new distribution reduction. A distribution reduction is a record that signifies a change in the distribution amount of tokens from a specific timestamp. The function includes a modifier `reductionEnabled` which likely contains logic to validate the input parameters `_redutionTimestamp` and `_reductionAmount`. It ensures that the reduction parameters meet certain criteria before allowing the addition of the new reduction. Once validated, the function appends a new `DistributionReduction` struct to the `distributionReductions` array. This struct includes the timestamp from which the reduction should take effect (`_redutionTimestamp`) and the new amount to be distributed from that timestamp (`_reductionAmount`).",
        "params": {
          "_reductionAmount": "The new amount to be distributed from the specified timestamp.",
          "_redutionTimestamp": "The timestamp from which the new distribution amount should apply."
        }
      },
      "approveAllowed(address,address)": {
        "details": "Public view function to check if token approval is allowed. This function is used to enforce restrictions on token approvals based on blocklist criteria. It checks whether the spender or the caller of the function (message sender) are on a blocklist. If either of these addresses are blocklisted, the function reverts the transaction, preventing the approval operation. This check is crucial in scenarios where blocklisted addresses should not be permitted to interact with the token, including being approved to spend tokens on behalf of others. By incorporating this function into the approval process, the contract adds an additional layer of security and regulatory compliance. Being a `view` function, `approveAllowed` does not alter the state of the blockchain but reads from it to ensure compliance with the blocklist rules before any approval is granted.",
        "params": {
          "_msgSender": "The address initiating the approval request. Requirements: - Neither the spender (_spender) nor the initiator of the approval (_msgSender) can be   on the blocklist. If any of them are blocklisted, the function reverts with an error message.",
          "_spender": "The address being granted permission to spend tokens."
        }
      },
      "blocklist(address,bool)": {
        "details": "External function to blocklist or unblocklist an account. This function allows an address with the `LISTER_ROLE` to either blocklist or remove an account from the contract's blocklist. Blocklisting an account may restrict it from performing certain operations or participating in specific aspects of the contract, as defined by the contract's logic. The function takes two parameters: - `_account`: The address to be either blocklisted or unblocklisted. - `_blocklist`: A boolean indicating whether to blocklist (`true`) or unblocklist (`false`)   the account. Before modifying the blocklist status, the function checks if the specified `_account` address holds any other roles within the contract (owner, lister, pauser, distributor). If the account has any of these roles, the function reverts to prevent the blocklisting of accounts with roles. Access to this function is restricted to addresses with the `LISTER_ROLE`, ensuring that only authorized entities can modify the blocklist.",
        "params": {
          "_account": "The address to be blocklisted or unblocklisted.",
          "_blocklist": "A boolean indicating whether to blocklist or unblocklist the account. Requirements: - The `_account` address must not be the zero address (`address(0)`).   This prevents accidentally modifying the zero address, which may have special significance. - The `_account` address must not have any other roles (owner, lister, pauser, distributor).   Accounts with these roles cannot be blocklisted."
        }
      },
      "constructor": {
        "details": "Constructor for the contract. Initializes the contract by setting the distribution start timestamp, the distribution deadline, and assigning the OWNER_ROLE to the provided owner address. The distribution start timestamp is set to 14 days from the current block time, providing a preparation period before the distribution begins. The distribution deadline is set to 30 days from the current block time, creating a finite period for the distribution process. The OWNER_ROLE is crucial for contract administration and oversight, allowing the owner to manage the contract's key operations.",
        "params": {
          "_owner": "The address that will be assigned the OWNER_ROLE, granting administrative control over the contract."
        }
      },
      "distribute(address,uint256)": {
        "details": "Distributes a specified amount of tokens to a given address. This function allows tokens to be minted and distributed to a specified address. It can only be called by an account with the JAKANT_MASTER_DISTRIBUTOR_ROLE. The function performs several checks before proceeding with the distribution: - It ensures that the amount to be distributed is greater than 0. - It verifies that the current timestamp is greater than or equal to the distributionStartTimestamp,   ensuring that the distribution period has started. - It checks that the total amount of tokens to be distributed (including the current distribution)   does not exceed the quantity available for distribution as determined by   getAvailableForDistributionTokenQuantity. If all checks pass, the function increments the distributedTokens state variable by the amount to be distributed and calls the mint function on the mproToken contract to mint the tokens to the specified address.",
        "params": {
          "_amount": "The amount of tokens to be distributed.",
          "_to": "The address to which the tokens will be distributed."
        }
      },
      "distributeBulk(address[],uint256[])": {
        "details": "Distributes tokens to multiple addresses in bulk. This function allows for the bulk distribution of tokens to a list of addresses, each receiving a specified amount. It is designed to efficiently handle multiple distributions in a single transaction. The function can only be invoked by an account with the JAKANT_MASTER_DISTRIBUTOR_ROLE. The function performs the following checks and operations: - It ensures that the length of the `_to` address array matches the length of the `_amount` array,   ensuring each address has a corresponding amount to be distributed. - It then iterates over these arrays, calling the `distribute` function for each address-amount pair.   The `distribute` function is responsible for the actual minting and transferring of tokens,   as well as performing necessary checks such as ensuring the distribution period has started and   that the total distributed amount does not exceed the available quantity. Note: This function relies on the `distribute` function for individual distributions and inherits its checks and limitations. Each distribution in the loop is treated as a separate transaction in terms of checks and effects.",
        "params": {
          "_amount": "An array of token amounts to be distributed to the respective addresses.",
          "_to": "An array of addresses to which tokens will be distributed."
        }
      },
      "getAllTokenDistribution()": {
        "details": "Calculates the total token distribution based on the initial daily distribution, the elapsed time, and any distribution reductions that have been set. The function first checks if the current timestamp is past the distribution start timestamp. If not, it returns 0, indicating that distribution has not started yet. If the distribution has started, it calculates the total distribution by taking into account the initial daily distribution and adjusting it based on any reductions that have occurred since the start of the distribution. The function iterates through each distribution reduction, checks if the current timestamp is greater than the reduction timestamp, and, if so, calculates the distribution for the time period since the last reduction. It updates the total distribution accordingly. The total distribution also includes the distribution for the period from the start timestamp until the first reduction or the current time, whichever comes first.",
        "returns": {
          "_0": "The total token distribution up to the current block timestamp."
        }
      },
      "getBurnAmount(address,uint256)": {
        "details": "Calculates the amount to be burned based on the burn rate. This function calculates the amount of tokens that should be burned from a given transaction amount, based on the current burn rate. The burn rate is applied unless the sender's address is whitelisted, in which case no tokens are burned. The function performs the following operations: - It checks if the sender (`_from`) is whitelisted using the `mproRoleManager.isWhitelisted`   function. If the sender is whitelisted, the function returns 0, indicating no burn is applied. - If the sender is not whitelisted, the function calculates the burn amount by applying the   burn rate to the transaction amount (`_amount`). The burn rate is represented as a percentage   scaled by a factor of 10000 (e.g., a burn rate of 10% is represented as 1000). The calculated   burn amount is then returned. This mechanism allows for a dynamic burn policy where certain addresses can be exempted from burning, potentially for promotional or operational purposes.",
        "params": {
          "_amount": "The amount of tokens being transferred, from which the burn amount will be calculated.",
          "_from": "The address from which the tokens are being transferred."
        },
        "returns": {
          "_0": "The calculated amount of tokens to be burned."
        }
      },
      "getDistributionReductions()": {
        "details": "External view function to retrieve the list of distribution reductions. This function provides access to the array of `distributionReductions`, which contains records of all the reductions applied to the token distribution over time. Each record in the array is a `DistributionReduction` struct, detailing the timestamp when the reduction takes effect and the new daily distribution amount after the reduction. The function does not take any parameters and returns the entire array of `distributionReductions`. This can be particularly useful for front-end interfaces or other contract interactions that require visibility into the history and schedule of distribution reductions.",
        "returns": {
          "_0": "An array of `DistributionReduction` structs, representing the history of distribution reductions."
        }
      },
      "getRoleAdmin(bytes32)": {
        "details": "Returns the admin role that controls `role`. See {grantRole} and {revokeRole}. To change a role's admin, use {_setRoleAdmin}."
      },
      "grantRole(bytes32,address)": {
        "details": "Public function to grant a specific role to an account. This function allows the contract owner to grant a specific role to the `_account` address. Roles are used to define permissions and responsibilities within the contract, and granting a role confers those associated privileges to the specified account. The function takes two parameters: - `_role`: The bytes32 identifier of the role to be granted. - `_account`: The address to which the role is to be granted. As a safeguard, the function enforces several preconditions before granting the role: - Ensures that the `_account` address is not blocklisted, maintaining the security and integrity   of the contract by preventing potentially malicious entities from gaining privileged access. - Checks that the `_account` address is not the zero address (`address(0)`), avoiding unintentional   role assignments to an address that may have special significance or represent \"no address\". - Verifies that the role has not already been burned, ensuring that only active, valid roles are   assignable. - Confirms that the role has not already been granted, upholding the principle of unique role assignments. This function can only be called by the contract owner, ensuring that role management is kept under tight control and preventing unauthorized role assignments.",
        "params": {
          "_account": "The address to which the role is to be granted. Requirements: - The contract caller must be the contract owner. - The `_account` must not be blocklisted or the zero address. - The `_role` must not be burned or already granted.",
          "_role": "The bytes32 identifier of the role to be granted."
        }
      },
      "hasRole(bytes32,address)": {
        "details": "Returns `true` if `account` has been granted `role`."
      },
      "isBlocklisted(address)": {
        "details": "Public view function to check if an account is blocklisted. This function allows anyone to determine if a specific account is included in the contract's blocklist. An account that is blocklisted may be restricted from performing certain operations or participating in specific aspects of the contract, as defined by the contract's logic. The function checks the `blocklisted` mapping to see if the provided `_account` address is marked as blocklisted, returning a boolean value indicating the blocklist status. Being a `view` function, it only reads the blocklist status from the contract's state and does not modify the contract. This function is typically used in access control mechanisms where actions are conditional based on whether an account is blocklisted.",
        "params": {
          "_account": "The address to be checked for blocklist status."
        },
        "returns": {
          "_0": "`true` if the account is blocklisted, `false` otherwise."
        }
      },
      "isDistributor(address)": {
        "details": "Public view function to check if an address has the JAKANTMasterDistributor role. This function provides a straightforward method to verify if a specific address has been granted the JAKANTMasterDistributor role within the contract. The JAKANTMasterDistributor role is typically associated with permissions to manage and execute token distributions, making it a critical role for the operational aspects of the contract. The function takes a single parameter: - `_address`: The address of the account to check for the JAKANTMasterDistributor role. It returns a boolean value indicating whether the specified address has the JAKANTMasterDistributor role. This is particularly useful for confirming role assignments and managing access to distribution-related functions or sections of a dApp interface.",
        "params": {
          "_address": "The address of the account to check for the JAKANTMasterDistributor role."
        },
        "returns": {
          "_0": "A boolean value indicating whether the specified address has the JAKANTMasterDistributor role."
        }
      },
      "isLister(address)": {
        "details": "Public view function to check if an account has the LISTER_ROLE. This function provides a convenient way to verify if a specific account has been granted the LISTER_ROLE within the contract. The LISTER_ROLE is typically associated with permissions to list items or manage lists within the contract's ecosystem. The function takes a single parameter: - `_account`: The address of the account to check for the LISTER_ROLE. It returns a boolean value indicating whether the specified account has the LISTER_ROLE. This can be particularly useful for front-end interfaces or other contract interactions that require a quick check of an account's roles or permissions.",
        "params": {
          "_account": "The address of the account to check for the LISTER_ROLE."
        },
        "returns": {
          "_0": "A boolean value indicating whether the specified account has the LISTER_ROLE."
        }
      },
      "mintAllowed(address)": {
        "details": "External view function to check if minting is allowed for a given address. This function checks whether the provided `_minter` address is authorized to mint new tokens. In the current implementation, minting is restricted to the contract itself, signifying that minting operations are controlled internally and not open to external entities directly. The function takes a single parameter: - `_minter`: The address to be checked for minting permissions. It returns true if the `_minter` address is the same as the address of this contract, indicating that minting is allowed. Otherwise, it reverts the transaction with the message \"Distributor only\", enforcing the rule that only the contract itself can initiate minting operations.",
        "params": {
          "_minter": "The address to be checked for minting permissions."
        },
        "returns": {
          "_0": "A boolean value indicating whether minting is allowed for the specified `_minter` address."
        }
      },
      "owner()": {
        "details": "Returns the address of the current owner."
      },
      "renounceOwnership()": {
        "details": "Leaves the contract without owner. It will not be possible to call `onlyOwner` functions. Can only be called by the current owner. NOTE: Renouncing ownership will leave the contract without an owner, thereby disabling any functionality that is only available to the owner."
      },
      "renounceRole(bytes32,address)": {
        "details": "Public function for an account to renounce a specific role it possesses. This function allows an account to voluntarily renounce a role it holds, effectively removing the associated permissions and responsibilities. It's a self-initiated action, meaning an account can only renounce roles that it possesses for itself, enhancing the security by preventing external entities from forcibly removing roles. The function takes two parameters: - `_role`: The bytes32 identifier of the role to be renounced. - `_account`: The address of the account renouncing the role. To ensure security and prevent   unintended renunciations, the function checks that `_account` is the same as `_msgSender()`. Before allowing the role to be renounced, the function performs the following check: - Verifies that the `_account` address is not the zero address (`address(0)`) to prevent   accidental modifications of the zero address, which may have special significance. Upon successfully renouncing the role, the function updates the `assignedRoles` mapping and calls the internal `_revokeRole` function to formally remove the role.",
        "params": {
          "_account": "The address of the account renouncing the role. Requirements: - The `_account` address must not be the zero address (`address(0)`). - The `_account` must be the same as `_msgSender()`, ensuring that accounts can only renounce   roles for themselves.",
          "_role": "The bytes32 identifier of the role to be renounced."
        }
      },
      "revokeRole(bytes32,address)": {
        "details": "Public function to revoke a specific role from an account. This function allows the contract owner to remove a previously granted role from the `_account` address. Roles are crucial for defining permissions and responsibilities within the contract, and revoking a role removes those associated privileges from the specified account. The function takes two parameters: - `_role`: The bytes32 identifier of the role to be revoked. - `_account`: The address from which the role is to be removed. Before revoking the role, the function performs the following checks: - Verifies that the `_account` address is not the zero address (`address(0)`) to prevent accidental   modifications of the zero address, which may have special significance. - Ensures that the `_account` currently has the role to be revoked, providing a safeguard against   unnecessary or mistaken revocations. Access to this function is restricted to addresses with the `OWNER_ROLE`, ensuring that only contract owners or administrators can revoke roles. Upon successful revocation of the role, the function updates the `assignedRoles` mapping and calls the internal `_revokeRole` function.",
        "params": {
          "_account": "The address from which the role is to be removed. Requirements: - The `_account` address must not be the zero address (`address(0)`). - The `_account` must currently have the role that is being revoked.",
          "_role": "The bytes32 identifier of the role to be revoked."
        }
      },
      "setBurnRate(uint256)": {
        "details": "Sets the burn rate for the contract. This external function allows an account with the OWNER_ROLE to set the burn rate, which is the percentage of the tokens that will be burned during certain operations. The burn rate is expressed as a percentage with a precision of up to three decimal places. For example, a burn rate of 1000 represents a 10% burn rate (1000 / 100 = 10%). A constraint is enforced to ensure that the burn rate does not exceed 10% (represented as 1000 in the contract). This safeguard prevents setting an excessively high burn rate that could adversely impact the token economy or operations of the contract. It's critical to input the correct value for the burn rate as it directly affects the token dynamics. Only authorized accounts with the OWNER_ROLE can perform this operation, ensuring that the burn rate is controlled and updated responsibly.",
        "params": {
          "_burnRate": "The new burn rate to be set, scaled by a factor of 100. For example, to set a                 burn rate of 1%, `_burnFee` should be 10."
        }
      },
      "setDistributionStartTime(uint256)": {
        "details": "Sets a new distribution start time. This function allows the contract owner to set a new start time for the token distribution process. It ensures that the new start time is in the future, has not yet been surpassed, and is before the predefined distribution start timestamp deadline. This function can only be called if the distribution has not yet started (i.e., no tokens have been distributed). The function includes checks to ensure: 1. The distribution has not yet started (`distributedTokens` must be 0). 2. The new start time (`_startTime`) is in the future (greater than the current `block.timestamp`). 3. The new start time does not exceed the predefined deadline (`distributionStartTimestampDeadLine`). If all conditions are met, the function updates the `distributionStartTimestamp` and emits a `SetDistribiutionStartTime` event with the new start time.",
        "params": {
          "_startTime": "The new start time for token distribution."
        }
      },
      "setDistributorTimeAdministratorRole(address)": {
        "details": "Assigns the DISTRIBUTIONS_ADMINISTRATOR_ROLE to a specified address. This function allows an account with the DISTRIBUTIONS_ADMINISTRATOR_ROLE_MANAGER role to delegate the responsibilities of distribution time administration to a specific account. This role is crucial for managing the distribution schedule and ensuring the proper administration of the distribution process. The function includes checks to ensure: 1. The caller has the DISTRIBUTIONS_ADMINISTRATOR_ROLE_MANAGER role, allowing them to manage this role. 2. The DISTRIBUTIONS_ADMINISTRATOR_ROLE has not been burned (permanently deactivated). 3. The DISTRIBUTIONS_ADMINISTRATOR_ROLE has not already been granted to another account. If the role is available and active, the function grants the DISTRIBUTIONS_ADMINISTRATOR_ROLE to the specified address, marks the role as assigned in the `assignedRoles` mapping, and emits a `SetDistributorTimeAdministratorRole` event with the address of the new role administrator.",
        "params": {
          "_roleManagerAddress": "The address to be assigned the DISTRIBUTIONS_ADMINISTRATOR_ROLE."
        }
      },
      "setDistributorTimeAdministratorRoleManager(address)": {
        "details": "Assigns the DISTRIBUTIONS_ADMINISTRATOR_ROLE_MANAGER role to a specified address. This function allows the contract owner to delegate the management of distribution time administrators to a specific account. This is crucial for decentralized management and control over the distribution process. The function includes checks to ensure: 1. The role has not been burned (permanently deactivated). 2. The role has not already been granted to another account. If the role is available and active, the function grants the DISTRIBUTIONS_ADMINISTRATOR_ROLE_MANAGER role to the specified address, marks the role as assigned in the `assignedRoles` mapping, and emits a `SetDistributorTimeAdministratorRoleManager` event with the address of the new role manager.",
        "params": {
          "_roleManagerAddress": "The address to be assigned the DISTRIBUTIONS_ADMINISTRATOR_ROLE_MANAGER role."
        }
      },
      "setJAKANTToken(address)": {
        "details": "Sets the address of the MPRO token contract. This function allows the contract owner to set or update the address of the MPRO token contract to be used in the distribution. It includes a check to ensure that the MPRO token address is not already set, preventing accidental overwriting of the token address. This is a critical function as it establishes the link to the MPRO token that will be distributed by this contract. The function can only be successfully called once, as the MPRO token address is intended to be immutable once set to prevent unauthorized changes. If the token address has not been set before, the function updates the `mproToken` state variable and emits a `SetJAKANTToken` event with the new MPRO token address.",
        "params": {
          "_mproTokenAddress": "The address of the MPRO token contract to be set."
        }
      },
      "supportsInterface(bytes4)": {
        "details": "See {IERC165-supportsInterface}."
      },
      "transferAllowed(address,address,address)": {
        "details": "Public view function to check if a token transfer is allowed. This function is used to enforce restrictions on token transfers based on blocklist criteria. It checks whether any of the involved parties in a token transfer (the sender, receiver, and the caller of the function) are on a blocklist. If any of these addresses are blocklisted, the function reverts the transaction, preventing the transfer. Being a `view` function, it does not modify the state of the blockchain but reads from it. This function can be integrated into the token transfer process to add an additional layer of security and compliance, ensuring that tokens cannot be transferred by or to blocklisted addresses.",
        "params": {
          "_from": "The address attempting to send tokens.",
          "_msgSender": "The address initiating the transfer request. Requirements: - None of the involved addresses (_from, _to, and _msgSender) can be on the blocklist.   If any are blocklisted, the function reverts with an error message.",
          "_to": "The address intended to receive the tokens."
        }
      },
      "transferOwnership(address)": {
        "details": "Transfers ownership of the contract to a new account (`newOwner`). Can only be called by the current owner."
      },
      "whitelist(address,bool)": {
        "details": "External function to whitelist or unwhitelist an account. This function allows an address with the `LISTER_ROLE` to either whitelist or remove an account from the contract's whitelist. Whitelisting typically grants certain privileges or exemptions to the whitelisted account, while removing an account from the whitelist revokes these privileges. The function takes two parameters: - `_account`: The address to be either whitelisted or removed from the whitelist. - `_whitelist`: A boolean indicating whether to whitelist (`true`) or unwhitelist (`false`)   the account. The function sets the whitelisting status of the specified account by updating the `whitelisted` mapping accordingly. Access to this function is restricted to addresses with the `LISTER_ROLE`, ensuring that only authorized entities can modify the whitelist.",
        "params": {
          "_account": "The address to be whitelisted or unwhitelisted.",
          "_whitelist": "A boolean indicating whether to whitelist or unwhitelist the account. Requirements: - The `_account` address must not be the zero address (`address(0)`).   This prevents accidentally modifying the zero address, which may have special significance."
        }
      }
    },
    "stateVariables": {
      "SECONDS_PER_DAY": {
        "details": "Constant representing the number of seconds in a day. This constant defines the number of seconds in a day, which is used for time calculations within the contract. It is set to the standard value of 86,400 seconds per day."
      },
      "blocklisted": {
        "details": "Internal mapping to manage blocklisted addresses. This mapping associates addresses (keys) with boolean values to maintain a list of addresses that are considered \"blocklisted\" within the contract's logic. If an address is included in this mapping with a `true` value, it indicates that the address is blocklisted and may be subject to certain restrictions or limitations imposed by the contract. The mapping is typically used in access control mechanisms and other parts of the contract's logic to determine the behavior or privileges associated with addresses based on their blocklist status."
      },
      "burnRate": {
        "details": "Public variable representing the burn rate for tokens. This variable determines the burn rate for tokens within the contract, expressed as a percentage. A burn rate of 1000 corresponds to 10%, where a portion of tokens is burned during certain operations. A burn rate of 10000 would represent 100%. The value of this variable can be adjusted to control the rate at which tokens are burned during specific actions, impacting the total token supply over time."
      },
      "distributedTokens": {
        "details": "Private variable to keep track of the total tokens distributed. This variable is used to maintain a count of the total tokens that have been distributed within the contract. It starts at zero and is updated whenever tokens are distributed to recipients. It serves as a record of the cumulative tokens distributed and is often used to enforce distribution limits or to check the available tokens for distribution."
      },
      "distributionReductions": {
        "details": "Public array to store distribution reduction configurations. This dynamic array stores instances of the `DistributionReduction` struct, representing configurations for reducing the daily token distribution over time. Each element of the array specifies a different reduction configuration, and the array can grow as more configurations are added. These configurations determine when and how the daily distribution amount of tokens changes over time, allowing for flexibility in managing token distribution within the contract."
      },
      "distributionStartTimestamp": {
        "details": "Timestamp indicating when token distribution starts. This private state variable stores the Unix timestamp (in seconds) that marks the beginning of the token distribution period. The value is set during the contract initialization and can be updated by specific functions within the contract, depending on the contract's logic. The distributionStartTimestamp is used in various functions to determine whether the distribution period has begun. This allows for conditional logic based on the time, such as enabling token distributions only after this timestamp is reached. Being a private variable, it can only be accessed and modified by functions within this contract, providing a controlled and secure way to manage the start of the distribution phase."
      },
      "distributionStartTimestampDeadLine": {
        "details": "Private immutable variable representing the deadline for the distribution start timestamp. This variable is used to store an immutable timestamp that defines the deadline for the distribution start timestamp within the contract. It is typically set during contract initialization and remains constant throughout the contract's lifetime. The distribution start timestamp deadline indicates the latest permissible timestamp for starting the distribution of tokens. After this deadline, distribution start timestamps beyond this value will not be accepted."
      },
      "initialDaylyDistribution": {
        "details": "Private constant representing the initial daily distribution of tokens. This constant defines the initial daily distribution of tokens within the contract. It represents a fixed amount of tokens that are distributed daily as part of a distribution mechanism. The value is expressed in the contract's token decimals, and it remains constant throughout the contract's lifetime."
      },
      "whitelisted": {
        "details": "Internal mapping to manage whitelisted addresses. This mapping associates addresses (keys) with boolean values to maintain a list of addresses that are considered \"whitelisted\" within the contract's logic. If an address is included in this mapping with a `true` value, it indicates that the address is whitelisted and may have special privileges or exemptions within the contract. The mapping is typically used in access control mechanisms and other parts of the contract's logic to determine the behavior or privileges associated with addresses based on their whitelist status."
      }
    },
    "title": "MPRO Master Distributor Contract",
    "version": 1
  },
  "userdoc": {
    "kind": "user",
    "methods": {},
    "version": 1
  },
  "storageLayout": {
    "storage": [
      {
        "astId": 2872,
        "contract": "contracts/MPROMasterDistributor.sol:JAKANTMasterDistributor",
        "label": "_roles",
        "offset": 0,
        "slot": "0",
        "type": "t_mapping(t_bytes32,t_struct(RoleData)2867_storage)"
      },
      {
        "astId": 3244,
        "contract": "contracts/MPROMasterDistributor.sol:JAKANTMasterDistributor",
        "label": "_owner",
        "offset": 0,
        "slot": "1",
        "type": "t_address"
      },
      {
        "astId": 9963,
        "contract": "contracts/MPROMasterDistributor.sol:JAKANTMasterDistributor",
        "label": "mproToken",
        "offset": 0,
        "slot": "2",
        "type": "t_contract(IJAKANTToken)9920"
      },
      {
        "astId": 9967,
        "contract": "contracts/MPROMasterDistributor.sol:JAKANTMasterDistributor",
        "label": "assignedRoles",
        "offset": 0,
        "slot": "3",
        "type": "t_mapping(t_bytes32,t_bool)"
      },
      {
        "astId": 9972,
        "contract": "contracts/MPROMasterDistributor.sol:JAKANTMasterDistributor",
        "label": "blocklisted",
        "offset": 0,
        "slot": "4",
        "type": "t_mapping(t_address,t_bool)"
      },
      {
        "astId": 9977,
        "contract": "contracts/MPROMasterDistributor.sol:JAKANTMasterDistributor",
        "label": "whitelisted",
        "offset": 0,
        "slot": "5",
        "type": "t_mapping(t_address,t_bool)"
      },
      {
        "astId": 9980,
        "contract": "contracts/MPROMasterDistributor.sol:JAKANTMasterDistributor",
        "label": "distributionStartTimestamp",
        "offset": 0,
        "slot": "6",
        "type": "t_uint256"
      },
      {
        "astId": 9987,
        "contract": "contracts/MPROMasterDistributor.sol:JAKANTMasterDistributor",
        "label": "distributedTokens",
        "offset": 0,
        "slot": "7",
        "type": "t_uint256"
      },
      {
        "astId": 10000,
        "contract": "contracts/MPROMasterDistributor.sol:JAKANTMasterDistributor",
        "label": "distributionReductions",
        "offset": 0,
        "slot": "8",
        "type": "t_array(t_struct(DistributionReduction)9936_storage)dyn_storage"
      },
      {
        "astId": 10004,
        "contract": "contracts/MPROMasterDistributor.sol:JAKANTMasterDistributor",
        "label": "burnRate",
        "offset": 0,
        "slot": "9",
        "type": "t_uint256"
      }
    ],
    "types": {
      "t_address": {
        "encoding": "inplace",
        "label": "address",
        "numberOfBytes": "20"
      },
      "t_array(t_struct(DistributionReduction)9936_storage)dyn_storage": {
        "base": "t_struct(DistributionReduction)9936_storage",
        "encoding": "dynamic_array",
        "label": "struct JAKANTMasterDistributor.DistributionReduction[]",
        "numberOfBytes": "32"
      },
      "t_bool": {
        "encoding": "inplace",
        "label": "bool",
        "numberOfBytes": "1"
      },
      "t_bytes32": {
        "encoding": "inplace",
        "label": "bytes32",
        "numberOfBytes": "32"
      },
      "t_contract(IJAKANTToken)9920": {
        "encoding": "inplace",
        "label": "contract IJAKANTToken",
        "numberOfBytes": "20"
      },
      "t_mapping(t_address,t_bool)": {
        "encoding": "mapping",
        "key": "t_address",
        "label": "mapping(address => bool)",
        "numberOfBytes": "32",
        "value": "t_bool"
      },
      "t_mapping(t_bytes32,t_bool)": {
        "encoding": "mapping",
        "key": "t_bytes32",
        "label": "mapping(bytes32 => bool)",
        "numberOfBytes": "32",
        "value": "t_bool"
      },
      "t_mapping(t_bytes32,t_struct(RoleData)2867_storage)": {
        "encoding": "mapping",
        "key": "t_bytes32",
        "label": "mapping(bytes32 => struct AccessControl.RoleData)",
        "numberOfBytes": "32",
        "value": "t_struct(RoleData)2867_storage"
      },
      "t_struct(DistributionReduction)9936_storage": {
        "encoding": "inplace",
        "label": "struct JAKANTMasterDistributor.DistributionReduction",
        "members": [
          {
            "astId": 9933,
            "contract": "contracts/MPROMasterDistributor.sol:JAKANTMasterDistributor",
            "label": "reductionTimestamp",
            "offset": 0,
            "slot": "0",
            "type": "t_uint256"
          },
          {
            "astId": 9935,
            "contract": "contracts/MPROMasterDistributor.sol:JAKANTMasterDistributor",
            "label": "daylyDistribution",
            "offset": 0,
            "slot": "1",
            "type": "t_uint256"
          }
        ],
        "numberOfBytes": "64"
      },
      "t_struct(RoleData)2867_storage": {
        "encoding": "inplace",
        "label": "struct AccessControl.RoleData",
        "members": [
          {
            "astId": 2864,
            "contract": "contracts/MPROMasterDistributor.sol:JAKANTMasterDistributor",
            "label": "members",
            "offset": 0,
            "slot": "0",
            "type": "t_mapping(t_address,t_bool)"
          },
          {
            "astId": 2866,
            "contract": "contracts/MPROMasterDistributor.sol:JAKANTMasterDistributor",
            "label": "adminRole",
            "offset": 0,
            "slot": "1",
            "type": "t_bytes32"
          }
        ],
        "numberOfBytes": "64"
      },
      "t_uint256": {
        "encoding": "inplace",
        "label": "uint256",
        "numberOfBytes": "32"
      }
    }
  }
}